:0420000002203F3249
:03200B0002209F11
:0320980002200E15
:03200E000220F9B4
:20209B0090000022C021C0E0C0F0C082C083C007C006C005C004C003C002C001C000C0D011
:2020BB0075D0001229F0902056E07015902055E004F0E0FFBF02004008122CCA902055E478
:2020DB00F0D0D0D000D001D002D003D004D005D006D007D083D082D0F0D0E0D02132122B44
:2020FB00CF74F6C0E0743AC0E07480C0E0122EE915811581158112236FAF82C0077414C03B
:20211B00E0743BC0E07480C0E0122EE9158115811581D007BF3F028013BF70028065BF7245
:20213B00030221D4BF730280750221EF7417C0E0743BC0E07480C0E0122EE91581158115D7
:20215B00817421C0E0743BC0E07480C0E0122EE91581158115817436C0E0743BC0E0748053
:20217B00C0E0122EE9158115811581744BC0E0743BC0E07480C0E0122EE91581158115818C
:20219B000220FC122CF47460C0E0743BC0E07480C0E0122EE91581158115810220FC122C36
:2021BB00FB746FC0E0743BC0E07480C0E0122EE91581158115810220FC122CD07480C0E0F8
:2021DB00743BC0E07480C0E0122EE91581158115810220FC748EC0E0743BC0E07480C0E073
:0C21FB00122EE91581158115810220FCCF
:203AF6000D0A456E7465722061206368617220283F20666F72206D656E75293A20000D0AFF
:203B1600003F3A206D656E750D0A00703A2070617573652074686520636C6F636B0D0A009E
:203B3600733A2073746172742074686520636C6F636B0D0A00723A207265736574207468E5
:203B56006520636C6F636B0D0A00436C6F636B207061757365640D0A00436C6F636B207581
:203B76006E7061757365640D0A00436C6F636B2072657365740D0A0043686172206E6F74F3
:1C3B9600207265636F676E697A65642C2074727920616761696E2E2E2E0D0A005D
:20220700AF83E582900001F0EFA3F010990280FB900001E0FEA3E0FF8E998E828F83221089
:0D222700980280FBAE997F008E828F83228B
:023BB2000020F1
:2022340090200375F0002290206FE4F0902070740AF0E4A3F090200375F000122E589020F8
:202254000F7403F07420A3F0E4A3F0122226AE828E057F008D828F83C006122207D006E4DE
:20227400BE080104FF6014900020C007C006122207900008122207D006D007BE0D03D380F3
:2022940001C392004037BE0A028032EE602FBE7F02802ABE0802802590200FE0FBA3E0FCF5
:2022B400A3E0FD8B828C838DF0EE122E8090200F74012BF0E43CA3F0EDA3F08054BE7F02AE
:2022D4008003EF604C90200FE0FCA3E0FDA3E0FF7403C0E07420C0E0E4C0E08C828D838FB3
:2022F400F012201115811581158160101CBCFF011D90200FECF0EDA3F0EFA3F090200FE034
:20231400FCA3E0FDA3E0FF8C828D838FF0E4122E80200032BE0A02802DEE602A90200FE08A
:20233400FDA3E0FEA3E0FF740CC0E07420C0E0E4C0E08D828E838FF012201115811581158E
:2023540081500302225F90200FE0FDA3E0FEA3E0FF8D828E838FF0E4022E80122226AE82B6
:202374008E057F008D828F83C006122207D00690200DE02401F0A3E03400F08E8222AFF015
:20239400AE83E582902012F0EEA3F0EFA3F012223B9020157403F07420A3F0E4A3F09020F3
:2023B40003E0FFBF301D90200475F000123ADAFFBF781090201574022403F0E43420A3F079
:2023D400E4A3F0902018E4F0A3F0902015E0FDA3E0FEA3E0FF8D828E838FF0123ADAFC904D
:2023F400201AF090201AE0FC70030224B9902018E0FAA3E0C454F0CAC4CA6ACA54F0CA6A76
:20241400FB902018EAF0EBA3F0BC30004023EC24C6401E7B00EC24D0FCEB34FFFB902018D2
:20243400E0F9A3E0FA902018EC29F0EB3AA3F0805E90201AE0FCBC61004023EC2499401EA2
:202454007B0074A92CFC74FF3BFB902018E0F9A3E0FA902018EC29F0EB3AA3F080319020FB
:202474001AE0FCBC41004023EC24B9401E7B0074C92CFC74FF3BFB902018E0F9A3E0FA9094
:202494002018EC29F0EB3AA3F0800490FFFF220DBD00010E8D828E838FF0123ADAFC9020B5
:2024B4001AF00223F7902012E0FDA3E0FEA3E0FF902018E0FBA3E0FC8D828E838FF0EB1282
:1F24D4002E80A3EC122E809000002290200DE0FEA3E08E82F5832290200DE4F0A3F0222C
:2024F300AFF0AE83E58290201EF0EEA3F0EFA3F090201EE0F51BA3E0F51CA3E0F51D851B4A
:2025130082851C83851DF0123ADAFAA3123ADAFBA3123ADAFCEA4B702490201BE0F8A3E0D8
:20253300F9A3E0FF851B82851C83851DF0E8122E80A3E9122E80A3EF122E8080619020213D
:20255300EAF0EBA3F0ECA3F0902021E0FDA3E0FEA3E0FF74082DFDE43EFE8D828E838FF07B
:20257300123ADAFAA3123ADAFBA3123ADAFCEA4B600D902021EAF0EBA3F0ECA3F080C9907C
:20259300201BE0FAA3E0FBA3E0FC8D828E838FF0EA122E80A3EB122E80A3EC122E80902080
:2025B3001BE0FDA3E0FEA3E0FF74082DFDE43EFE8D828E838FF0E4122E80A3122E80A312EC
:2025D3002E8075820122AFF0AE83E582902026F0EEA3F0EFA3F0902026E0F508A3E0F509EC
:2025F300A3E0F50AE50845097003F58222850882850983850AF0123ADAFAA3123ADAFBA3D9
:20261300123ADAFCEA4B7003F58222902024E0F8A3E0F9902024E0F5F0A3E045F070429089
:202633002029EAF0EBA3F0ECA3F074082AFDE43BFE8C078D828E838FF0123ADAFDA3123A63
:20265300DAFEA3123ADAFF850882850983850AF0ED122E80A3EE122E80A3EF122E800227AF
:202673003C90202CEAF0EBA3F0ECA3F018B8FF0119902024E8F0E9A3F0902024E0FEA3E012
:20269300FFEE4F603C90202CE0FBA3E0FCA3E0FD74082BFBE43CFC8B828C838DF0123ADA1C
:2026B300FBA3123ADAFCA3123ADAFDEB4C601290202CEBF0ECA3F0EDA3F01EBEFF011F80A7
:2026D300C0EE4F60047582002290202CE0FDA3E0FEA3E0FF74082DFDE43EFE8D828E838F3C
:2026F300F0123ADAFAA3123ADAFBA3123ADAFC902029EAF0EBA3F0ECA3F074082AFAE43BBF
:20271300FB8A828B838CF0123ADAFAA3123ADAFBA3123ADAFC8D828E838FF0EA122E80A380
:20273300EB122E80A3EC122E80902029E0FEA3E0FDA3E0FF902029E0F5F0A3E045F070030A
:20275300F582228E828D838FF0123ADAFEA3123ADAFF4E600B7D008E828F838DF0122D012D
:20277300902029E0FDA3E0FEA3E0FF8D828E838FF0122D0175820122AFF0AE83E5829020AD
:202793002FF0EEA3F0EFA3F090202FE0FDA3E0FEA3E0FF8D828E838FF0123ADAFAA3123A97
:2027B300DAFBA3123ADAFC902032EAF0EBA3F0ECA3F090202FE0FAA3E0FBA3E0FC8A828B66
:2027D300838CF0123ADAF50BA3123ADAF50CA3123ADAF50DE50B450C700122C005C006C00D
:2027F300077408250BF8E4350CF9AF0D888289838FF0123ADAF8A3123ADAF9A3123ADAFF04
:202813008A828B838CF0E8122E80A3E9122E80A3EF122E80902032E0FDA3E0FEA3E0FF8D7A
:20283300828E838FF0123ADAF50BA3123ADAF50CD007D006D005E50B450C601BAB0BAC0CD7
:202853007A008B828C838AF0C007C006C005122D01D005D006D007902032E0FAA3E0FBA364
:20287300E0FC8A828B838CF0C007C006C005122D01D005D006D0078D828E838FF0123ADAFA
:20289300FAA3123ADAFBA3123ADAFC902032EAF0EBA3F0ECA3F00227C5AFF0AE83E5829034
:2028B3002035F0EEA3F0EFA3F0902035E0FDA3E0FEA3E0FF8D828E838FF0123ADAFDA31281
:2028D3003ADAFEA3123ADAFF90203AEDF0EEA3F0EFA3F0902038E0FEA3E0FF90203AE0FB34
:2028F300A3E0FCA3E0FD90203AE0F5F0A3E045F0602D0EBE00010F74082BFBE43CFC8B822B
:202913008C838DF0123ADAFBA3123ADAFCA3123ADAFD90203AEBF0ECA3F0EDA3F080BC8EDE
:20293300828F8322AFF0AE83E58290203FF0EEA3F0EFA3F090203FE0FDA3E0FEA3E0FF8D59
:20295300828E838FF0123ADAFDA3123ADAFEA3123ADAFF902042EDF0EEA3F0EFA3F090201E
:202973003DE0FEA3E0FF902042E0FBA3E0FCA3E0FD902042E0F5F0A3E045F06031EE4F603E
:202993002D74082BFBE43CFC8B828C838DF0123ADAFBA3123ADAFCA3123ADAFD902042EB17
:2029B300F0ECA3F0EDA3F01EBEFF011F80B8902042E0FDA3E0FEA3E0FF8D828E838FF0224F
:1D29D300AF83E582902046F0EFA3F0902046E0FEA3E0FF902045E08E828F83F02287
:2029F000758C4C758A0D22902055E4F04389011229F0D2A9D2AF2290F20075F000123ADA50
:202A1000FF5307807E00BF8005BE000280E922902059E4F0A3F0902059E0FEA3E0FFC3EE36
:202A30009458EF64809482501600902059E0FEA3E0FF90205974012EF0E43FA3F080D790A9
:202A5000F00075F0007430122E8090205BE4F0A3F090205BE0FEA3E0FFC3EE9458EF648060
:202A7000948250160090205BE0FEA3E0FF90205B74012EF0E43FA3F080D790F00075F000CF
:202A90007430122E8090205DE4F0A3F090205DE0FEA3E0FFC3EE9458EF64809482501600F5
:202AB00090205DE0FEA3E0FF90205D74012EF0E43FA3F080D790F00075F0007430122E80A3
:202AD000122A0790F00075F0007438122E80122A0790F00075F0007408122E80122A07901B
:202AF000F00075F000740C122E80122A0790F00075F0007406122E80122A0790F00075F0A7
:202B1000007401122E80022A07E58290205FF0122A0790205FE04480FF90F00075F000EF0E
:202B3000122E80022A07E582902061F0E0030354C0FF902060E042078F82022B19E58290AA
:202B50002062F0122A07902062E0FF90F10075F000EF122E80022A07AFF0AE83E582902010
:202B700063F0EEA3F0EFA3F0902063E0FDA3E0FEA3E0FF8D828E838FF0123ADAFC60238C2C
:202B900082C007C006C005122B4DD005D006D0070DBD00010E902063EDF0EEA3F0EFA3F079
:202BB00080D1902063EDF0EEA3F0EFA3F022122A0790F00075F0007401122E80022A0712FD
:202BD0002A1F9020487430F0902049F090204A743AF090204B7430F090204CF090204D74A3
:202BF0002EF090204E7430F090204FE4F0122BBE90204875F000122B681229F7D28C74B48D
:202C1000C0E0743BC0E07480C0E0122EE915811581158122902054E02401F0E0FFBF0A0073
:202C3000500122902054E4F0902053E02401F0E0FFBF0A00500122902053E4F0902052E06D
:202C50002401F0E0FFBF0600500122902052E4F0902051E02401F0E0FFBF0A0050012290C1
:202C70002051E4F0902050E02401F0E0FFBF0A00500122902050E4F022902050E024309035
:202C90002048F0902051E02430902049F0902052E0243090204BF0902053E0243090204C5A
:202CB000F0902054E0243090204EF0758200122B1990204875F000022B68122C24022C8996
:202CD000D20110AF02C201902050E4F0902051F0902052F0902053F0902054F0122C89A286
:112CF0000192AF229020567401F022902056E4F022E6
:123BB400436C6F636B5F696E697469616C697A6564001E
:202D0100AFF0AE83E582902066F0EEA3F0EFA3F0902066E0FDA3E0FEA3E0902066E0F5F0A0
:202D2100A3E045F070012290206BE4F0A3F09020ACE0FBA3E0FC902069EBF0ECA3F09020EC
:202D41006D74ACF07420A3F0902069E0FBA3E0FC4B60418B018C02C003C0048D008E04C3EC
:202D6100E998EA9CD004D003502A90206BEBF0ECA3F074022BFBE43CFC90206DEBF0ECA376
:202D8100F08B828C83E0FBA3E0FC902069EBF0ECA3F080B4902069E0FEA3E0FF902066E0B6
:202DA100FBA3E0FCA3E0EB24FEFBEC34FFFC74022BFAE43CFD8A828D83EEF0EFA3F090200E
:202DC1006DE0F8A3E0F988828983EBF0ECA3F08B828C83E0F8A3E0F9EEB50033EFB5012FA7
:202DE10088828983A3A3E0FEA3E0FF8A828D83EEF0EFA3F08B828C83E0FEA3E0FF8E828F7F
:202E010083E0FEA3E0FF8B828C83EEF0EFA3F090206BE0FEA3E0FF4E603C8E828F83E0F8F3
:202E2100A3E0F9E8B5032FE9B5042B8B828C83E0FBA3E0FC8E828F83EBF0ECA3F074022EE3
:172E4100FEE43FFF8A828D83E0FAA3E0FD8E828F83EAF0EDA3F02246
:06206E00E478FFF6D8FD46
:202E5800AC82AD83902070E0FEA3E0FFBE000360121F0F90206FE08C828D83122E80A3DEBD
:082E7800FADFF88C828D832241
:20204C007900E94400601B7A00903BD178B475A020E493F2A308B8000205A0D9F4DAF2755B
:02206C00A0FFD3
:1B2E800020F71130F6138883A88220F509F6A8837583002280FEF280F5F02251
:202074007800E84400600A790175A000E4F309D8FC78B3E84420600C7921900001E4F0A376
:04209400D8FCD9FAA1
:202E9B00C01A85811A7E008E83122207D01A22AFF0AE83E582902074F0EEA3F0EFA3F09069
:202EBB002074E0FDA3E0FEA3E0FF902073E0FC902088E4F0A3F0A3F090208BEDF0EEA3F0B9
:202EDB00EFA3F090208EECF0902E9B022FEFC01AE581F51A24FBFF902088E4F0A3F0A3F023
:202EFB00E51A24FBF890208BE6F008E6A3F008E6A3F090208EEFF0902E9B122FEFD01A22DC
:202F1B00E582902084F0E0FF90207AE0C0E0A3E0C0E0A3E0C0E0122F36800D902078E0C070
:202F3B00E0A3E0C0E08F8222158115811581902082E02401F0A3E03400F022E582902085F2
:202F5B00F0E02430FF24C6500D74072FFF902077E060034307208F82022F1BE58290208675
:202F7B00F0E0FFC4540FF582C007122F56D00753070F8F82022F56E582902087F090207DD8
:202F9B00E0FCA3E0FDA3E0FEA3E0FF902081E0FB902087E0FA79208B00E828F51BEF2354F0
:202FBB0001451BFBEC2CFCED33FDEE33FEEF33FFC3EB9A4007EBC39AFB43040119E970D7C6
:202FDB0090207DECF0EDA3F0EEA3F0EFA3F0902081EBF022AF83E58290208FF0EFA3F09042
:202FFB00208FE0FEA3E0FF902078EEF0EFA3F0902088E0FDA3E0FEA3E0FF90207AEDF0EE12
:20301B00A3F0EFA3F0902082E4F0A3F090208BE0FDA3E0FEA3E0FF8D828E838FF0123ADA07
:20303B00FC90208B74012DF0E43EA3F0EFA3F0EC70030238F1BC250280030238E990209121
:20305B00E4F0902092F0902093F0902094F0902095F0902096F0902097F0902098F090205E
:20307B009AF090209BF0A3F090209D14F0A3F090208BE0FDA3E0FEA3E0FF8D828E838FF03F
:20309B00123ADAFBA3AD82AE8390208BEDF0EEA3F0EFA3F09020A1EBF0BB25088B82122F74
:2030BB001B023027BB30005003023188EB24C6500302318890209DE0F50EA3E0F50F74FF7B
:2030DB00B50E63B50F60C005C006C00790209BE0FAA3E0FF9020AAEAF0EFA3F090000AC082
:2030FB0005C003123915AE82AF83D003D0058B027D00EA2EFEED3FFFEE24D0FEEF34FFFF37
:20311B0090209BEEF0EFA3F0D007D006D00590209BE0F5F0A3E045F0600302309590209233
:20313B007401F0023095C005C006C0079020AAE50EF0E50FA3F090000AC006C005C0031238
:20315B003915AA82AF83D003D005D0067E00EB2AFAEE3FFFEA24D0FAEF34FFFF90209DEA41
:20317B00F0EFA3F0D007D006D0050230959020A1E0FBBB2E2FC005C006C00790209DE0FABC
:20319B00A3E0FFBAFF05BFFF028009D007D006D005023095D007D006D00590209DE4F0A3FC
:2031BB00F0023095BB61004014EB2485400F9020A174DF5BF09020777401F08005902077C3
:2031DB00E4F09020A1E0FBBB20028075BB2B028067BB2D028059BB4202806FBB4302807C86
:2031FB00BB440302347FBB46030234A5BB4803023095BB490302347FBB4A03023095BB4CBF
:20321B00028050BB4F0302348DBB50030233EDBB53028077BB5403023095BB550302349503
:20323B00BB580302349DBB5A030230950234AD9020917401F00230959020937401F0023081
:20325B00959020947401F00230959020967401F00230959020977401F0023095902096E043
:20327B00600E90208EE014F9F09020A1E7F0800F90208EE024FEFFF08F019020A1E7F0907C
:20329B0020A1E0F582122F1B0234BC90208EE024FDFFF08F01870509870609870719199074
:2032BB00207DEDF0EEA3F0EFA3F08D828E838FF01238FD85820E85830F90209DE0FAA3E0BA
:2032DB00FDBAFF0DBDFF0A90209DE50EF0E50FA3F0902091E0704B90209BE0FAA3E0FDC34F
:2032FB00E50E9AE50F9D503A90209BEAC3950EF0ED950FA3F090209BE0FAA3E0FD8A068D9A
:20331B00071ABAFF011DEE4F6010758220C005C002122F1BD002D00580E390209BEAF0EDD7
:20333B00A3F090209DE0F511A3E0F51290207DE0FAA3E0FDA3E0FF8A828D838FF0123ADA58
:20335B00F510603CC3E4951174808512F063F08095F0502C151174FFB51102151285108276
:20337B00122F1B90207DE0FAA3E0FDA3E0FF0ABA00010D90207DEAF0EDA3F0EFA3F080ACC6
:20339B00902091E070030234BC90209BE0FEA3E0FFC3E50E9EE50F9F40030234BC90209B7A
:2033BB00EEC3950EF0EF950FA3F090209BE0FEA3E0FF8E028F051EBEFF011FEA4D70030212
:2033DB0034B4758220C007C006122F1BD006D00780E090208EE024FDFDF08D0187130987F9
:2033FB0014098715191990207DE513F0E514A3F0E515A3F090207FE0FDBD80004008902058
:20341B00A17443F08020BD600040089020A17450F08013BD400040089020A17449F08006E3
:20343B009020A17458F09020A1E0FDF582C005122F1B75823A122F1B758230122F1B758297
:20345B0078122F1BD005BD4902800EBD5002800990207EE0F582122F7690207DE0F58212A8
:20347B002F76803D9020957401F090209A740AF0802F90209A7408F0802790209A740AF0A9
:20349B00801F90209A7410F080179020987401F0800F8B82122F1B800890209BEEF0EFA335
:2034BB00F0902098E0607190208EE024FCFFF08F0187030987050987060987071919199024
:2034DB00207DEBF0EDA3F0EEA3F0EFA3F090207D74C6F0743BA3F07480A3F090207DE0F5B4
:2034FB0013A3E0F514A3E0F51574012513FAE43514FBAF1590207DEAF0EBA3F0EFA3F08566
:20351B0013828514838515F0123ADAFF70030230278F82122F1B80C390209AE070030230E5
:20353B0027902096E0604790208EE014F9F087077E007D007B0090207DEFF0EEA3F0EDA340
:20355B00F0EBA3F0902095E060030235FF90207DE0FBA3E0A3E0A3E07D007E007F00902069
:20357B007DEBF0EDA3F0EEA3F0EFA3F08076902097E0602890208EE024FCFFF08F01870369
:20359B0009870509870609870719191990207DEBF0EDA3F0EEA3F0EFA3F0804890208EE092
:2035BB0024FEFFF08F01870609870719EF3395E0FDFB90207DEEF0EFA3F0EDA3F0EBA3F0F8
:2035DB00902095E0701E90207DE0FBA3E0FDA3E0A3E07E007F0090207DEBF0EDA3F0EEA379
:2035FB00F0EFA3F0902095E0604190207DE0FBA3E0FDA3E0FEA3E0FF30E72B90207DE0FBA3
:20361B00A3E0FDA3E0FEA3E0FFC3E49BFBE49DFDE49EFEE49FFF90207DEBF0EDA3F0EEA336
:20363B00F0EFA3F08005902095E4F09020997401F090209AE0F5117516A7751720E4F50EBC
:20365B00F50F902081E4F0851182122F92902099E07033902081E0C454F0F513902081E05D
:20367B00C4540F4513F513851682851783E0FFE5134207851682851783EFF0151674FFB5DE
:20369B0016021517800C902081E0FF851682851783F0050EE4B50E02050F902099E0B40155
:2036BB0000E433F090207DE0FAA3E0FBA3E0FEA3E0FFEA4B4E4F708A9020A8E516F0E51755
:2036DB00A3F090209FE50EF0E50FA3F090209BE0F5F0A3E045F0700990209B7401F0E4A30B
:2036FB00F0902092E0FFE07047902091E07041850E16850F1790209BE0FAA3E0FBC007AFC8
:20371B00160F8F067F00C3EE9AEF9BD0075019758220C007C003C002122F1BD002D003D00C
:20373B00071ABAFF011B80D590209BEAF0EBA3F0902095E0602075822DC007122F1BD007BD
:20375B0090209BE024FFFDA3E034FFFE90209BEDF0EEA3F0805690209FE0F5F0A3E045F004
:20377B00604A902093E0602075822BC007122F1BD00790209BE024FFFDA3E034FFFE902016
:20379B009BEDF0EEA3F08024902094E0601E758220C007122F1BD00790209BE024FFFDA3D0
:2037BB00E034FFFE90209BEDF0EEA3F0902091E0704890209FE0F516A3E0F51790209BE067
:2037DB00FAA3E0FBC0078A068B071ABAFF011BC3E5169EE5179FD0075053EF60067D307E8D
:2037FB000080047D207E008D82C007C003C002122F1BD002D003D00780CA90209BE0FEA3C6
:20381B00E0FF90209FE0F516A3E0F517C3E5169EE5179F500F90209BEEC39516F0EF95175D
:20383B00A3F0801190209BE4F0A3F0800890209BEAF0EBA3F09020A8E0FEA3E0FF90209F65
:20385B00E0F516A3E0F517AA16AD17151674FFB516021517EA4D6045902099E0B40100E41A
:20387B0033F0902099E070140EBE00010F8E828F83E0C4540FFD902081F0800E8E828F838A
:20389B00E0FD53050F902081EDF0902081E0F582C007C006122F56D006D00780AA902091F7
:2038BB00E0700302302790209BE0FEA3E0FF8E038F051EBEFF011FEB4D700302302775827B
:2038DB0020C007C006122F1BD006D00780E08C82122F1B023027902082E0FEA3E08E82F55C
:0238FB00832226
:0B3BC6003C4E4F20464C4F41543E0047
:1838FD00AA82AB83123ADA6003A380F8C3E5829AF582E5839BF58322DD
:20391500AA83AB828BF09020AAE0A4F8A9F08AF0E0A429F98BF0A3E0A429F583888222229D
:203935009020AC7403F07400A3F0903BB2E493FE740193FF1EBEFF011FEE2403FEEF34007E
:20395500FF900003EEF0EFA3F09020ACE0FEA3E0FF8E828F83A3A3E4F0A3F022AF83E5821A
:203975009020AEF0EFA3F09020ACE0F5F0A3E045F070031239359020AEE0FEA3E0FF4E602A
:203995000E74022EFCE43FFDC3EC9EED9F5004900000229020AE74022EF0E43FA3F090200D
:2039B500AEE0FEA3E0FFC3EE9404EF940050099020AE7404F0E4A3F09020ACE0FEA3E0FFC6
:2039D5009020B0EEF0EFA3F09020B274ACF07420A3F09020B0E0FEA3E0FF4E7003023AD6E6
:2039F5008E828F83E0FCA3E0FD8C028D038E008F01EAC398FAEB99FB8A008B019020AEE0E6
:203A1500F518A3E0F519C3E89518E995195003023AB374042518F8E43519F9C3EA98EB9921
:203A3500404C8E028F03E5182AFAE5193BFB8A828B83ECF0EDA3F074022AFCE43BFD8E8230
:203A55008F83A3A3E0F8A3E0F98C828D83E8F0E9A3F09020B2E0FCA3E0FD8C828D83EAF07D
:203A7500EBA3F08E828F83EAF0EBA3F0801C9020B2E0FCA3E0FD8E828F83A3A3E0FAA3E01A
:203A9500FB8C828D83EAF0EBA3F09020B0E0FCA3E0FD74022CFCE43DFD8C828D8322740272
:203AB5002EFEE43FFF9020B2EEF0EFA3F08E828F83E0FEA3E0FF9020B0EEF0EFA3F0023964
:053AD500E79000002253
:20201100E58124FCC3C8C0E0C082E608467006E5824583601218E58296F58208E58396429D
:1B2031008208E5F0964582D082C8D0E0C82275812112209BE582600302200E46
:1C3ADA0020F71430F6148883A88220F507E6A88375830022E280F7E49322E022FB
:00000001FF
