:0320000002203487
:03208D000220032B
:032003000234762E
:2020900090000022E582900017F0E0FF24A592004007BF410092005016900017E0FF2485D8
:2020B00092004007BF610092005004C2008002D200A200E433F58222AFF0AE83E582900002
:2020D00018F0EEA3F0EFA3F0900018E0FDA3E0FEA3E0FF74022DFAE43EFB8F048A828B83F6
:2020F0008CF0E4123DC2A3123DC274062DFAE43EFB8F048A828B838CF0E4123DC2A3123DDD
:20211000C274082DFAE43EFB8F048A828B838CF0E4123DC2A3123DC2A3123DC28D828E8387
:202130008FF0124A1CFBA3124A1CFC7A0074042DFDE43EFE8D828E838FF0124A1CFDA31281
:202150004A1CFE90206FE4F0902070EDF0EEA3F08B828C838AF0023C76AF83E58290001B0C
:20217000F0EFA3F090000B123E19AE82AD837F00EE4D7006900000F5F02274042EFAE43DF1
:20219000FB8F0490001BE0F8A3E0F98A828B838CF0E8123DC2A3E9123DC288828983C00799
:2021B000C006C005123E19AB82AC83D005D006D0078E828D838FF0EB123DC2A3EC123DC202
:2021D000EB4C70168E028D038F048A828B838CF0123AAB90000075F000228E828D838FF03C
:2021F000C007C006C0051220C8D005D006D0078E828D838FF0229020BAE4F0A3F0A3F07468
:2022100038C0E0744AC0E07480C0E0123FF0158115811581123590123589123C9E85822522
:20223000E583F52620E7D8C37463952574808526F063F08095F040C790001DE4F07404A34E
:20225000F090206FE4F09020707416F0E4A3F090000175F000123C7674022525FCE43526C5
:20227000FD90001DE0FAA3E0FB8A828B83C005C004122BACAA82AB83D004D00578007900CC
:20229000C3E89402E964809480400302241DC004C005902081E8F0E9A3F090000BC005C058
:2022B00004C003C002C001C000123F82858221858322D000D001D002D003D004D005E521EA
:2022D0002401F523E5223400F5248A828B83C003C002C001C000123E19AC82AD83D000D0D6
:2022F00001D002D003852382852483ECF0EDA3F07F00C005C004C003C002C001C000C004A4
:20231000C005C007C000C0017467C0E0744AC0E07480C0E0123FF0E58124F8F581D000D05A
:2023300001D002D003D004D005852382852483E0FEA3E0FFD005D004EE4F703BC005C0046E
:20235000C003C002122C067487C0E0744AC0E07480C0E0123FF0158115811581D002D0036F
:20237000D004D005EA24FFFEEB34FFFF90001DEEF0EFA3F0022271C004C005E5212401F531
:2023900023E5223400F524852382852483A3A3A3A3EAF0EBA3F0AC23AD247F008C828D833F
:2023B0008FF0C005C004C003C002C001C0001220C8D000D001D002D003D004D005852382EC
:2023D000852483E0FEA3E0FF7D00C005C004C003C002C001C000C006C007C005C000C00182
:2023F0007467C0E0744AC0E07480C0E0123FF0E58124F8F581D000D001D002D003D004D03D
:202410000508B8000109D005D0040222907E007F00C3EE9404EF6480948040030224CF8A91
:20243000828B83C007C006C005C004C003C00212216985822785832885F029D002D003D054
:2024500004D005D006D007E5274528703BC005C004C003C002122C067487C0E0744AC0E077
:202470007480C0E0123FF0158115811581D002D003D004D005EA24FFF8EB34FFF990001D9E
:20249000E8F0E9A3F0022271902041E527F0E528A3F0E529A3F09020BA75F000C007C006B9
:2024B000C005C004C003C0021236D5D002D003D004D005D006D0070EBE00010F0224219033
:2024D0002081ECF0EDA3F090000AC005C004C003C002123F82122169A982AE83D002D003D7
:2024F000D004D005E94E703BC005C004C003C002122C067487C0E0744AC0E07480C0E01250
:202510003FF0158115811581D002D003D004D005EA24FFFEEB34FFFF90001DEEF0EFA3F037
:20253000022271EA2AFEEB33FF8E828F83C005C004C003C002122169A982AE83D002D003FA
:20255000D004D005E94E703BC005C004C003C002122C067487C0E0744AC0E07480C0E012EF
:202570003FF0158115811581D002D003D004D005EA24FFFEEB34FFFF90001DEEF0EFA3F0D7
:20259000022271C003C002C025C02674C0C0E0744AC0E07480C0E0123FF0E58124FBF58144
:2025B000D002D003C002C00374D5C0E0744AC0E07480C0E0123FF0E58124FBF58190001F1B
:2025D000E4F0A3F07E007F00902081EEF0EFA3F090000BC007C006123F82AC82AD83D006C7
:2025F000D007EC2401F527ED3400F528852782852883E0F8A3E0F97B00C007C006C005C04A
:2026100004C000C001C003C006C0077467C0E0744AC0E07480C0E0123FF0E58124F8F5812F
:20263000D004D005D006D007852782852883E0FAA3E0FB4A70030226D9EC2401FCED340092
:20265000FD74042CFAE43DFB8A828B83E0F525A3E0F5268C828D83E0F527A3E0F528E5253D
:202670002527FCE5263528FD8C2A8D2B752C00A827AD287C00C007C006C003C002C025C0B7
:2026900026C02AC02BC02CC000C005C004C006C00774EDC0E0744AC0E07480C0E0123FF039
:2026B000E58124F3F581D002D003D006D0078A828B83E0FAA3E0FB90001FE0FCA3E0FD90B8
:2026D000001FEA2CF0EB3DA3F00EBE00010FC3EE9402EF6480948050030225D89020BAE064
:2026F000FBA3E0FCA3E0FD900021EBF0ECA3F0EDA3F08E2A8F2B900021E0FBA3E0FCA3E045
:20271000FDEB4C70030227E88B828C838DF0124A1CF9A3124A1CFA4970030227AC74042B9E
:20273000FBE43CFC8B828C838DF0124A1CF527A3124A1CF528E52729FEE5283AFF8E2D8F4A
:202750002E752F007F00C005C004C003C027C028C02DC02EC02FC001C002C007C02AC02B14
:2027700074EDC0E0744AC0E07480C0E0123FF0E58124F3F581D003D004D0058B828C838DFD
:20279000F0124A1CFBA3124A1CFC90001FE0FEA3E0FF90001FEB2EF0EC3FA3F0052AE4B562
:2027B0002A02052B900021E0FDA3E0FEA3E0FF74082DFDE43EFE8D828E838FF0124A1CFD42
:2027D000A3124A1CFEA3124A1CFF900021EDF0EEA3F0EFA3F002270690001FE0C0E0A3E044
:2027F000C0E07434C0E07420C0E0E4C0E07434C0E07400C0E0E4C0E07419C0E0744BC0E0BD
:202810007480C0E0123FF0E58124F5F58122AFF0AE83E582900025F0EEA3F0EFA3F090004D
:2028300025E0FDA3E0FEA3E0FF74062DF532E43EF5338F348532828533838534F0124A1C13
:20285000F530A3124A1CF53174042DF8E43EF98F04888289838CF0124A1CF8A3124A1CF9A1
:20287000C3E53098E531994001228D828E838FF0124A1CFBA3124A1CFCE5302BFBE5313C10
:20289000FC900024E0FA8B828C83F08532828533838534F0124A1CFCA3124A1CFB0CBC0023
:2028B000010B8532828533838534F0EC123DC2A3EB123DC28A82C007C006C005122094E53A
:2028D00082D005D006D007602A74022DFDE43EFE8D828E838FF0124A1CFBA3124A1CFC0B66
:2028F000BB00010C8D828E838FF0EB123DC2A3EC023DC222AFF0AE83E582900028F0EEA343
:20291000F0EFA3F0900028E0C0E0A3E0C0E0A3E0C0E07442C0E0744BC0E07480C0E0123F1D
:20293000F0E58124FAF581744FC0E0744BC0E07480C0E0123FF015811581158122904B70D7
:2029500075F08012290490002BE4F0A3F07E007F00902081EEF0EFA3F090000BC007C0066B
:20297000123F82AC82AD83D006D007EC2401F582ED3400F583E0FAA3E0FB4A7003022A46C1
:20299000EC2401FCED3400FD74042CF535E43DF536853582853683E0F8A3E0F974062CF579
:2029B00082E43DF583E0FAA3E0FBE8C39AF537E99BF5388C828D83A3A3E0F539A3E0F53A4E
:2029D0008C828D83E0F53BA3E0F53CE8253BFAE9353CFB8A3D8B3E753F00AC3BAD3C7B00DF
:2029F000C007C006C037C038C039C03AC000C001C03DC03EC03FC004C005C003C006C00704
:202A1000747CC0E0744BC0E07480C0E0123FF0E58124EFF581D006D007853582853683E0EC
:202A3000FCA3E0FD90002BE0FAA3E0FB90002BEC2AF0ED3BA3F00EBE00010FC3EE9402EF69
:202A50006480948050030229619020BAE0FBA3E0FCA3E0FD74042BF8E43CF98D0274022B67
:202A7000F53DE43CF53E8D3F8E398F3AEB4C7003022B618B828C838DF0124A1CF53BA31237
:202A90004A1CF53CE53B453C7003022B56C003C004C005888289838AF0124A1CFCA3124AA9
:202AB0001CFD853D82853E83853FF0124A1CF537A3124A1CF538ECC39537F535ED9538F56F
:202AD00036EC253BFBED353CFF8B408F41754200AE3BAF3C7B00C005C004C003C002C0019C
:202AF000C000C035C036C037C038C004C005C040C041C042C006C007C003C039C03A747C6D
:202B1000C0E0744BC0E07480C0E0123FF0E58124EFF581D000D001D002D003D004D005886B
:202B30008289838AF0124A1CFEA3124A1CFF90002BE0FCA3E0FD90002BEE2CF0EF3DA3F052
:202B5000D005D004D0030539E4B53902053A022A7C90002BE0C0E0A3E0C0E07434C0E074D6
:202B700020C0E0E4C0E07434C0E07400C0E0E4C0E07419C0E0744BC0E07480C0E0123FF0C0
:202B9000E58124F5F58174DEC0E0744BC0E07480C0E0123FF015811581158122AF83E5828D
:202BB00090002DF0EFA3F090002DE0FEA3E0FFC007C006C006C00774E1C0E0744BC0E074D7
:202BD00080C0E0123FF0E58124FBF581123590123589123C9EAC82AD83D006D007C3EE9C9E
:202BF000EF9D40CBEC9440ED940040C3EC541F70BE8C828D83227427C0E0744CC0E074808E
:202C1000C0E0123FF01581158115817E007F00C3EE9402EF648094804003022CB090208184
:202C3000EEF0EFA3F090000BC007C006123F82AC82AD83D006D007EC2401F582ED3400F580
:202C500083E0FCA3E0FD4C60137B008C828D838BF0C007C006123AABD006D007902081EE62
:202C7000F0EFA3F090000BC007C006123F82AC82AD83D006D007EC2401F582ED3400F583AB
:202C9000E4F0A3F0EC2401FCED3400FD8C828D83A3A3A3A3E4F0A3F00EBE00010F022C1F58
:202CB0009020BA75F00002396D12294D1236C1AE82AF83C007C0061236CDD006D007C00685
:202CD000C007743EC0E0744CC0E07480C0E0123FF0E58124FBF58190002FE4F0A3F07E00F7
:202CF0007F00C3EE9402EF648094804003022E7B902081EEF0EFA3F090000BC007C006125E
:202D10003F82AC82AD83D006D007EC2401FCED3400FD8C828D83E0FAA3E0FB8A828B83E03C
:202D3000900031F090002FE0FAA3E0FB78007900900031E07003022DEEEA541F7035C007D0
:202D5000C006C005C004C003C002C001C00074DEC0E0744BC0E07480C0E0123FF01581153D
:202D7000811581D000D001D002D003D004D005D006D007C006C007900031E0FF7E00C0071E
:202D9000C006C005C004C003C002C001C000C007C006746FC0E0744CC0E07480C0E0123F79
:202DB000F0E58124FBF581D000D001D002D003D004D005D006D0070ABA00010B08B80001EB
:202DD000098C828D83E0FEA3E0FFE82EF582E93FF583E0900031F0D007D006022D409000F2
:202DF0002FEAF0EBA3F0902081EEF0EFA3F090000BC007C006123F82AC82AD83EC2401F54C
:202E100082ED3400F583E0FAA3E0FB8A438B44754500EC2401FCED3400FD8C828D83A3A34A
:202E3000A3A3E0F8A3E0FB90206FE4F0902070E8F0EBA3F08543828544838545F0C005C0A8
:202E500004123C76D004D005D006D0078C828D83A3A3E4F0A3F074062CF582E43DF583E4DF
:202E7000F0A3F00EBE00010F022CF274DEC0E0744BC0E07480C0E0123FF0158115811581DB
:202E900074DEC0E0744BC0E07480C0E0123FF015811581158122904C7275F0801229047E28
:202EB000007F00C3EE9402EF64809480400122C007C006C006C0077485C0E0744CC0E0746B
:202ED00080C0E0123FF0E58124FBF5817493C0E0744CC0E07480C0E0123FF0158115811569
:202EF00081D006D007902081EEF0EFA3F090000BC007C006123F82AC82AD83D006D007EC11
:202F10002401FAED3400FB8A828B83E0F8A3E0F9884689477548008E008F018A4D8B4EECE3
:202F30002401FCED3400FD74042CF549E43DF54AC000C001854D82854E83E0F8A3E0F985FC
:202F50004982854A83E0FCA3E0FDEC28F54BED39F54CA946AC47AD48A84BAA4C7B00C00032
:202F7000C002C00389828C838DF0122006158115811581D001D000400302302CAB46AC4705
:202F9000C001C000C003C00474A0C0E0744CC0E07480C0E0123FF0E58124FBF581D000D095
:202FB00001AB46AC47AD48E4F54BF54CC3E54B9410E54C648094805055C000C001E54B2B81
:202FD000F8E54C3CF98D02888289838AF0124A1CF87A00C005C004C003C001C000C000C02D
:202FF0000274A8C0E0744CC0E07480C0E0123FF0E58124FBF581D000D001D003D004D005B6
:20301000054BE4B54B02054CD001D000809E74102546F546E43547F547022F40C001C000A2
:2030300074DEC0E0744BC0E07480C0E0123FF0158115811581D000D001740128FEE439FF40
:20305000022EB3904CB075F0801229047E007F00C3EE9402EF6480948040030230FF90207E
:2030700081EEF0EFA3F090000BC007C006123F82AC82AD83D006D007EC2401F582ED3400B0
:20309000F583E0FAA3E0FB4A605DC006C0078B017B00EC2401FCED3400FD8C828D83A3A326
:2030B000A3A3E0F8A3E0FF90206FE4F0902070E8F0EFA3F08A8289838BF0C007C006C0050E
:2030D000C004123C76D004D005D006D00774062CF582E43DF583E4F0A3F08C828D83A3A381
:2030F000F0A3F0D007D0060EBE00010F0230609020BAE0FDA3E0FEA3E0FFED4E7001228D7D
:20311000828E838FF0124A1CFBA3124A1CFC8B4F8C5075510074042DF8E43EF98F04888232
:2031300089838CF0124A1CF8A3124A1CF990206FE4F0902070E8F0E9A3F0854F828550835E
:203150008551F0C007C006C005123C76D005D006D00774062DFAE43EFB8F048A828B838C0A
:20317000F0E4123DC2A3123DC274022DFDE43EFE8D828E838FF0E4123DC2A3023DC2D2904C
:203190009020BAE0FDA3E0FEA3E0FFED4E601F74082DFDE43EFE8D828E838FF0124A1CFD41
:2031B000A3124A1CFEA3124A1CFFED4E7003C290228D828E838FF0124A1CFBA3124A1CFC81
:2031D0008B528C53755400900001E0F8A3E0F97C00900005E0FAA3E0FB902067E8F0E9A391
:2031F000F0ECA3F090206AEAF0EBA3F08552828553838554F0C007C006C005123C02D005EA
:20321000D006D00774022DFAE43EFB8F04900003E0F8A3E0F98A828B838CF0E8123DC2A38B
:20323000E9123DC274062DFDE43EFE900007E0FBA3E0FC8D828E838FF0EB123DC2A3EC1293
:203250003DC2C29022D2909020BAE0FDA3E0FEA3E0FFED4E601F74082DFDE43EFE8D828E22
:20327000838FF0124A1CFDA3124A1CFEA3124A1CFFED4E7003C290228D028E038F04740645
:203290002DFDE43EFE78007900C002C003C0048D828E838FF0124A1CFBA3124A1CFCC3E8C6
:2032B0009BE99CD004D003D002506BC005C006C0078A828B838CF0124A1CFEA3124A1CFF32
:2032D000E82EF582E93FF583E0F51BC3745A951BD007D006D005500674BF251B5030C005F0
:2032F000C006C0078A828B838CF0124A1CFEA3124A1CFFE82EFEE93FFF8E828F83E0FD438E
:2033100005208E828F83EDF0D007D006D00508B8000109023299C2902274BEC0E0744CC09A
:20333000E07480C0E0123FF0158115811581123590123589123C9EAE82AF83C374589E7470
:20335000828FF063F08095F0400AEE94C8EF64809480501774F4C0E0744CC0E07480C0E026
:20337000123FF015811581158180AE8E828F83122169AD82AE83AFF0ED4E7016741DC0E05D
:20339000744DC0E07480C0E0123FF015811581158122902041EDF0EEA3F0EFA3F09020BAC8
:2033B00075F0001236D5745AC0E0744DC0E07480C0E0123FF0158115811581227486C0E059
:2033D000744DC0E07480C0E0123FF0158115811581123590123589123C9EAE82E583FF308B
:2033F000E71674C7C0E0744DC0E07480C0E0123FF015811581158122C374019E74808FF082
:2034100063F08095F0401674F5C0E0744DC0E07480C0E0123FF015811581158122EE24FEBB
:20343000FEEF34FFFF90204AEEF0EFA3F09020BA75F0001237BBE5826016742BC0E0744E52
:20345000C0E07480C0E0123FF015811581158122744AC0E0744EC0E07480C0E0123FF01559
:203470008115811581221222067F0090205BEFF00F90FFFFC007123A8E7472C0E0744EC084
:20349000E07480C0E0123FF015811581158112369EAE82C006122094E582D006D007601877
:2034B000900024EEF090000175F000C007C00612281ED006D0078016900024EEF090000C1E
:2034D00075F000C007C00612281ED006D007BE2302805BBE2402804CBE25028030BE2B02F7
:2034F0008056BE2D02805BBE3D028017BE3F028008BE4002802102347BC007122CB9D0071C
:2035100002347BC007122EA6D00702347BC007123053D00702347BC007122C06122206D0BC
:203530000702347BC00712318ED00702347BC007123255D00702347BC007123329D00702AD
:0C355000347BC0071233CCD00702347B60
:204A38000D0A506C6561736520656E74657220746865206C6173742074776F206469676943
:204A58007473206F6620796F75722049443A000D0A207374617469635F6275666665727381
:204A78005B25645D2E627566666572202570000D0A4275666665722053697A6520746F6FE2
:204A9800206269672C20706C65617365207069636B206120736D616C6C65722062756666CB
:204AB80065722073697A65000D0A73747564656E745F6E756D6265723A202564000D0A75B7
:204AD8007365725F6275666665725F73697A653A20257A75000D0A6275666665725F25649A
:204AF8002073746172747320402025702C20656E6473204025702C2073697A6520257A75A2
:204B1800000D0A486561702073746172747320402025702C20656E647320402025702C20BB
:204B380073697A653A20257A75000D0A20202020202020202573000D0A2D2D2D2D2D2D2D33
:204B58002D2D2D2D2D2D2D2D2D2D2D2D2D2D2D2D2D2D2D2D2D2D2D0048454150205245500D
:204B78004F5254000D0A6275666665725F25642073746172747320402025702C20656E6456
:204B980073204025702C2073697A6520257A752C20636F6E7461696E7320257A7520616C8E
:204BB8007068616265742063686172732C2068617320257A752063686172732072656D6186
:204BD800696E696E67000D0A000D0A506C6561736520656E74657220612076616C69642011
:204BF8006275666665722073697A65207468617420697320646976697369626C65206279A5
:204C1800203332205B36342C257A755D3A20000D0A2046726565696E6720414C4C20425574
:204C38004646455253000D0A20526563656976656420257A752063686172732073696E6356
:204C580065206C61737420696E766F636174696F6E206F66203F0025630044756D702041D6
:204C7800646D696E2042756666657273000D0A2042756666657220256420000D0A2D2D2D8F
:204C98002D2D2D2D2D2D2D000D0A253034583A002025303268685800436C65617220427502
:204CB8006666657273000D0A506C6561736520656E74657220612073697A6520666F722034
:204CD800746865206E6577206275666665722C205B3230302C3630305D3A20000D0A4275F7
:204CF800666665722073697A6520696E76616C6964212120506C656173652074727920615B
:204D18006761696E000D0A20416C6C6F636174696F6E206661696C65643B2061626C65200B
:204D3800746F20616C6C6F636174652068656164657220627574206E6F7420627566666586
:204D580072000D0A20416C6C6F636174696F6E207375636365737366756C2121204E6577A0
:204D780020627566666572206164646564000D0A506C6561736520656E746572207468655F
:204D9800206E756D626572206F66207468652062756666657220796F7520776F756C64207A
:204DB8006C696B6520746F20667265653A20000D0A20496E76616C6964206275666665727F
:204DD800206E756D6265722C206E6567617469766573206E6F742076616C6964000D0A2028
:204DF800496E76616C696420627566666572206E756D6265722C2062756666657273203008
:204E180020262031206172652070726F746563746564000D0A205375636365737366756C4A
:204E38006C792072656D6F76656420627566666572000D0A204661696C656420746F2072B8
:204E5800656D6F7665206275666665722C2069647820746F6F20626967000D0A456E74658C
:0B4E780072206120636861723A200024
:034E90000000001F
:20355C00AF83E582900032F0EFA3F010990280FB900032E0FEA3E0FF8E998E828F832210BF
:0D357C00980280FBAE997F008E828F832223
:024E830000200D
:2035890090203475F0002290206FE4F0902070740AF0E4A3F090203475F000123C76902002
:2035A9003E7434F07420A3F0E4A3F012357BAE828E057F008D828F83C00612355CD006BE6C
:2035C9000D03D38001C392014032BE0A02802DEE602ABE7F02802590203EE0FCA3E0FDA3F6
:2035E900E0FF8C828D838FF0EE123DC290203E74012CF0E43DA3F0EFA3F0804FBE7F4C90AA
:20360900203EE0FCA3E0FDA3E0FF7434C0E07420C0E0E4C0E08C828D838FF01220061581FA
:203629001581158160101CBCFF011D90203EECF0EDA3F0EFA3F090203EE0FCA3E0FDA3E057
:20364900FF8C828D838FF0E4123DC2200132BE0A02802DEE602A90203EE0FDA3E0FEA3E0BF
:20366900FF743EC0E07420C0E0E4C0E08D828E838FF012200615811581158150030235B461
:2036890090203EE0FDA3E0FEA3E0FF8D828E838FF0E4023DC212357BAE828E057F008D82BC
:2036A9008F83C00612355CD0069020BDE02401F0A3E03400F08E82229020BDE0FEA3E08E19
:0C36C90082F583229020BDE4F0A3F022E3
:024E930000001D
:2036D500AFF0AE83E582902044F0EEA3F0EFA3F0902044E0F51BA3E0F51CA3E0F51D851B0A
:2036F50082851C83851DF0124A1CFAA3124A1CFBA3124A1CFCEA4B7024902041E0F8A3E0C9
:20371500F9A3E0FF851B82851C83851DF0E8123DC2A3E9123DC2A3EF123DC2806190204730
:20373500EAF0EBA3F0ECA3F0902047E0FDA3E0FEA3E0FF74082DFDE43EFE8D828E838FF061
:20375500124A1CFAA3124A1CFBA3124A1CFCEA4B600D902047EAF0EBA3F0ECA3F080C9906C
:203775002041E0FAA3E0FBA3E0FC8D828E838FF0EA123DC2A3EB123DC2A3EC123DC2902073
:2037950041E0FDA3E0FEA3E0FF74082DFDE43EFE8D828E838FF0E4123DC2A3123DC2A31230
:2037B5003DC275820122AFF0AE83E58290204CF0EEA3F0EFA3F090204CE0F508A3E0F5095B
:2037D500A3E0F50AE50845097003F58222850882850983850AF0124A1CFAA3124A1CFBA341
:2037F500124A1CFCEA4B7003F5822290204AE0F8A3E0F990204AE0F5F0A3E045F0704290F8
:20381500204FEAF0EBA3F0ECA3F074082AFDE43BFE8C078D828E838FF0124A1CFDA3124AE7
:203835001CFEA3124A1CFF850882850983850AF0ED123DC2A3EE123DC2A3EF123DC2023922
:203855001E902052EAF0EBA3F0ECA3F018B8FF011990204AE8F0E9A3F090204AE0FEA3E0CA
:20387500FFEE4F603C902052E0FBA3E0FCA3E0FD74082BFBE43CFC8B828C838DF0124A1CB0
:20389500FBA3124A1CFCA3124A1CFDEB4C6012902052EBF0ECA3F0EDA3F01EBEFF011F80E9
:2038B500C0EE4F600475820022902052E0FDA3E0FEA3E0FF74082DFDE43EFE8D828E838F22
:2038D500F0124A1CFAA3124A1CFBA3124A1CFC90204FEAF0EBA3F0ECA3F074082AFAE43BAF
:2038F500FB8A828B838CF0124A1CFAA3124A1CFBA3124A1CFC8D828E838FF0EA123DC2A346
:20391500EB123DC2A3EC123DC290204FE0FEA3E0FDA3E0FF90204FE0F5F0A3E045F0700328
:20393500F582228E828D838FF0124A1CFEA3124A1CFF4E600B7D008E828F838DF0123AABDE
:2039550090204FE0FDA3E0FEA3E0FF8D828E838FF0123AAB75820122AFF0AE83E5829020DC
:2039750055F0EEA3F0EFA3F0902055E0FDA3E0FEA3E0FF8D828E838FF0124A1CFAA3124AF5
:203995001CFBA3124A1CFC902058EAF0EBA3F0ECA3F0902055E0FAA3E0FBA3E0FC8A828B92
:2039B500838CF0124A1CF50BA3124A1CF50CA3124A1CF50DE50B450C700122C005C006C023
:2039D500077408250BF8E4350CF9AF0D888289838FF0124A1CF8A3124A1CF9A3124A1CFF1A
:2039F5008A828B838CF0E8123DC2A3E9123DC2A3EF123DC2902058E0FDA3E0FEA3E0FF8D6E
:203A1500828E838FF0124A1CF50BA3124A1CF50CD007D006D005E50B450C601BAB0BAC0C3F
:203A35007A008B828C838AF0C007C006C005123AABD005D006D007902058E0FAA3E0FBA393
:203A5500E0FC8A828B838CF0C007C006C005123AABD005D006D0078D828E838FF0124A1CFD
:193A7500FAA3124A1CFBA3124A1CFC902058EAF0EBA3F0ECA3F00239A750
:1D3A8E00AF83E58290205CF0EFA3F090205CE0FEA3E0FF90205BE08E828F83F02279
:203AAB00AFF0AE83E58290205EF0EEA3F0EFA3F090205EE0FDA3E0FEA3E090205EE0F5F001
:203ACB00A3E045F0700122902063E4F0A3F0902079E0FBA3E0FC902061EBF0ECA3F0902078
:203AEB00657479F07420A3F0902061E0FBA3E0FC4B60418B018C02C003C0048D008E04C378
:203B0B00E998EA9CD004D003502A902063EBF0ECA3F074022BFBE43CFC902065EBF0ECA3CE
:203B2B00F08B828C83E0FBA3E0FC902061EBF0ECA3F080B4902061E0FEA3E0FF90205EE016
:203B4B00FBA3E0FCA3E0EB24FEFBEC34FFFC74022BFAE43CFD8A828D83EEF0EFA3F0902056
:203B6B0065E0F8A3E0F988828983EBF0ECA3F08B828C83E0F8A3E0F9EEB50033EFB5012FF7
:203B8B0088828983A3A3E0FEA3E0FF8A828D83EEF0EFA3F08B828C83E0FEA3E0FF8E828FC7
:203BAB0083E0FEA3E0FF8B828C83EEF0EFA3F0902063E0FEA3E0FF4E603C8E828F83E0F844
:203BCB00A3E0F9E8B5032FE9B5042B8B828C83E0FBA3E0FC8E828F83EBF0ECA3F074022E2C
:173BEB00FEE43FFF8A828D83E0FAA3E0FD8E828F83EAF0EDA3F0228F
:06206300E478FFF6D8FD51
:203C0200AFF0AE83E58290206CF0EEA3F0EFA3F090206CE0F51BA3E0F51CA3E0F51DAA1B62
:203C2200AB1CAC1D902067E0F8A3E0F9A3E0FF90206AE0F51EA3E0F51FAD1EAE1F151E7422
:203C4200FFB51E02151FED4E6020888289838FF0124A1CFEA3A882A9838A828B838CF0EE17
:143C6200123DC2A3AA82AB8380CF851B82851C83851DF022F7
:203C7600AC82AD83902070E0FEA3E0FFBE000360121F0F90206FE08C828D83123DC2A3DE40
:083C9600FADFF88C828D832215
:203C9E00AFF0AE83E582902072F0EEA3F0EFA3F0902075E4F0A3F0902072E0FDA3E0FEA30B
:203CBE00E0FF8D828E838FF0124A1CFCBC20028003BC09120DBD00010E902072EDF0EEA353
:203CDE00F0EFA3F080DC902072EDF0EEA3F0EFA3F08D828E838FF0124A1CFC902077E4BC1C
:203CFE002D0104F0BC2D028003BC2B0E90207274012DF0E43EA3F0EFA3F0902072E0FDA394
:203D1E00E0FEA3E0FF8D828E838FF0124A1CFCBC30009202405FEC24C692024058902075CC
:203D3E00E0FBA3E0FC902081EBF0ECA3F090000AC007C006C005123F82AB82AC83D005D0C0
:203D5E0006D0078D828E838FF0124A1CFAA3AD82AE83902072EDF0EEA3F0EFA3F08A017A4D
:203D7E0000E924D0F9EA34FFFA902075E92BF0EA3CA3F08090902072EDF0EEA3F0EFA3F044
:203D9E00902077E06011902075E0FEA3E0FFC3E49EFEE49FFF8008902075E0FEA3E0FF8EA8
:043DBE00828F83224B
:202041007905E94400601B7A01904E9078BA75A020E493F2A308B8000205A0D9F4DAF27588
:02206100A0FFDE
:1B3DC20020F71130F6138883A88220F509F6A8837583002280FEF280F5F02200
:203DDD009020797434F07400A3F0904E83E493FE740193FF1EBEFF011FEE2434FEEF3400BF
:203DFD00FF900034EEF0EFA3F0902079E0FEA3E0FF8E828F83A3A3E4F0A3F022AF83E58270
:203E1D0090207BF0EFA3F0902079E0F5F0A3E045F07003123DDD90207BE0FEA3E0FF4E606A
:203E3D000E74022EFCE43FFDC3EC9EED9F50049000002290207B74022EF0E43FA3F0902093
:203E5D007BE0FEA3E0FFC3EE9404EF9400500990207B7404F0E4A3F0902079E0FEA3E0FFB2
:203E7D0090207DEEF0EFA3F090207F7479F07420A3F090207DE0FEA3E0FF4E7003023F7E58
:203E9D008E828F83E0FCA3E0FD8C028D038E008F01EAC398FAEB99FB8A008B0190207BE06C
:203EBD00F50EA3E0F50FC3E8950EE9950F5003023F5B7404250EF8E4350FF9C3EA98EB9904
:203EDD00404C8E028F03E50E2AFAE50F3BFB8A828B83ECF0EDA3F074022AFCE43BFD8E8298
:203EFD008F83A3A3E0F8A3E0F98C828D83E8F0E9A3F090207FE0FCA3E0FD8C828D83EAF004
:203F1D00EBA3F08E828F83EAF0EBA3F0801C90207FE0FCA3E0FD8E828F83A3A3E0FAA3E0A0
:203F3D00FB8C828D83EAF0EBA3F090207DE0FCA3E0FD74022CFCE43DFD8C828D83227402F8
:203F5D002EFEE43FFF90207FEEF0EFA3F08E828F83E0FEA3E0FF90207DEEF0EFA3F0023E18
:053F7D008F90000022FE
:203F8200AA83AB828BF0902081E0A4F8A9F08AF0E0A429F98BF0A3E0A429F5838882222253
:202069007800E84400600A790175A000E4F309D8FC78B9E84420600C7921900001E4F0A37B
:04208900D8FCD9FAAC
:203FA200C01A85811A7E008E8312355CD01A22AFF0AE83E582902084F0EEA3F0EFA3F090D9
:203FC2002084E0FDA3E0FEA3E0FF902083E0FC902098E4F0A3F0A3F090209BEDF0EEA3F061
:203FE200EFA3F090209EECF0903FA20240F6C01AE581F51A24FBFF902098E4F0A3F0A3F0BB
:20400200E51A24FBF890209BE6F008E6A3F008E6A3F090209EEFF0903FA21240F6D01A2273
:20402200E582902094F0E0FF90208AE0C0E0A3E0C0E0A3E0C0E012403D800D902088E0C010
:20404200E0A3E0C0E08F8222158115811581902092E02401F0A3E03400F022E582902095BA
:20406200F0E02430FF24C6500D74072FFF902087E060034307208F82024022E58290209625
:20408200F0E0FFC4540FF582C00712405DD00753070F8F8202405DE582902097F090208D70
:2040A200E0FCA3E0FDA3E0FEA3E0FF902091E0FB902097E0FA79208B00E828F51BEF2354B8
:2040C20001451BFBEC2CFCED33FDEE33FEEF33FFC3EB9A4007EBC39AFB43040119E970D7AE
:2040E20090208DECF0EDA3F0EEA3F0EFA3F0902091EBF022AF83E58290209FF0EFA3F090FA
:20410200209FE0FEA3E0FF902088EEF0EFA3F0902098E0FDA3E0FEA3E0FF90208AEDF0EEB9
:20412200A3F0EFA3F0902092E4F0A3F090209BE0FDA3E0FEA3E0FF8D828E838FF0124A1C7D
:20414200FC90209B74012DF0E43EA3F0EFA3F0EC70030249F8BC250280030249F09020A1B9
:20416200E4F09020A2F09020A3F09020A4F09020A5F09020A6F09020A7F09020A8F09020D6
:20418200AAF09020ABF0A3F09020AD14F0A3F090209BE0FDA3E0FEA3E0FF8D828E838FF0E7
:2041A200124A1CFBA3AD82AE8390209BEDF0EEA3F0EFA3F09020B1EBF0BB25088B821240D9
:2041C2002202412EBB3000500302428FEB24C6500302428F9020ADE0F510A3E0F51174FF00
:2041E200B51063B51160C005C006C0079020ABE0FAA3E0FF902081EAF0EFA3F090000AC07F
:2042020005C003123F82AE82AF83D003D0058B027D00EA2EFEED3FFFEE24D0FEEF34FFFFAB
:204222009020ABEEF0EFA3F0D007D006D0059020ABE0F5F0A3E045F0600302419C9020A2D3
:204242007401F002419CC005C006C007902081E510F0E511A3F090000AC006C005C003122D
:204262003F82AA82AF83D003D005D0067E00EB2AFAEE3FFFEA24D0FAEF34FFFF9020ADEAA6
:20428200F0EFA3F0D007D006D00502419C9020B1E0FBBB2E2FC005C006C0079020ADE0FA6C
:2042A200A3E0FFBAFF05BFFF028009D007D006D00502419CD007D006D0059020ADE4F0A3BC
:2042C200F002419CBB61004014EB2485400F9020B174DF5BF09020877401F0800590208763
:2042E200E4F09020B1E0FBBB20028075BB2B028067BB2D028059BB4202806FBB4302807C5E
:20430200BB4403024586BB46030245ACBB480302419CBB4903024586BB4A0302419CBB4C2E
:20432200028050BB4F03024594BB50030244F4BB53028077BB540302419CBB550302459C8B
:20434200BB58030245A4BB5A0302419C0245B49020A17401F002419C9020A37401F00241D8
:204362009C9020A47401F002419C9020A67401F002419C9020A77401F002419C9020A6E09C
:20438200600E90209EE014F9F09020B1E7F0800F90209EE024FEFFF08F019020B1E7F09024
:2043A20020B1E0F5821240220245C390209EE024FDFFF08F0187050987060987071919900C
:2043C200208DEDF0EEA3F0EFA3F08D828E838FF0124A048582108583119020ADE0FAA3E065
:2043E200FDBAFF0DBDFF0A9020ADE510F0E511A3F09020A1E0704B9020ABE0FAA3E0FDC303
:20440200E5109AE5119D503A9020ABEAC39510F0ED9511A3F09020ABE0FAA3E0FD8A068D59
:20442200071ABAFF011DEE4F6010758220C005C002124022D002D00580E39020ABEAF0ED97
:20444200A3F09020ADE0F513A3E0F51490208DE0FAA3E0FDA3E0FF8A828D838FF0124A1CCA
:20446200F512603CC3E4951374808514F063F08095F0502C151374FFB51302151485128250
:2044820012402290208DE0FAA3E0FDA3E0FF0ABA00010D90208DEAF0EDA3F0EFA3F080AC76
:2044A2009020A1E070030245C39020ABE0FEA3E0FFC3E5109EE5119F40030245C39020ABFE
:2044C200EEC39510F0EF9511A3F09020ABE0FEA3E0FF8E028F051EBEFF011FEA4D700302E6
:2044E20045BB758220C007C006124022D006D00780E090209EE024FDFDF08D01871509879F
:2045020016098717191990208DE515F0E516A3F0E517A3F090208FE0FDBD80004008902015
:20452200B17443F08020BD600040089020B17450F08013BD400040089020B17449F080069B
:204542009020B17458F09020B1E0FDF582C00512402275823A124022758230124022758217
:2045620078124022D005BD4902800EBD5002800990208EE0F58212407D90208DE0F5821240
:20458200407D803D9020A57401F09020AA740AF0802F9020AA7408F080279020AA740AF039
:2045A200801F9020AA7410F080179020A87401F0800F8B8212402280089020ABEEF0EFA3D5
:2045C200F09020A8E0607190209EE024FCFFF08F01870309870509870609870719191990EC
:2045E200208DEBF0EDA3F0EEA3F0EFA3F090208D7485F0744EA3F07480A3F090208DE0F59A
:2046020015A3E0F516A3E0F51774012515FAE43516FBAF1790208DEAF0EBA3F0EFA3F08531
:2046220015828516838517F0124A1CFF700302412E8F8212402280C39020AAE07003024124
:204642002E9020A6E0604790209EE014F9F087077E007D007B0090208DEFF0EEA3F0EDA3F1
:20466200F0EBA3F09020A5E0600302470690208DE0FBA3E0A3E0A3E07D007E007F00902018
:204682008DEBF0EDA3F0EEA3F0EFA3F080769020A7E0602890209EE024FCFFF08F01870321
:2046A20009870509870609870719191990208DEBF0EDA3F0EEA3F0EFA3F0804890209EE05A
:2046C20024FEFFF08F01870609870719EF3395E0FDFB90208DEEF0EFA3F0EDA3F0EBA3F0D0
:2046E2009020A5E0701E90208DE0FBA3E0FDA3E0A3E07E007F0090208DEBF0EDA3F0EEA331
:20470200F0EFA3F09020A5E0604190208DE0FBA3E0FDA3E0FEA3E0FF30E72B90208DE0FB5A
:20472200A3E0FDA3E0FEA3E0FFC3E49BFBE49DFDE49EFEE49FFF90208DEBF0EDA3F0EEA30E
:20474200F0EFA3F080059020A5E4F09020A97401F09020AAE0F5137518B7751920E4F5105C
:20476200F511902091E4F08513821240999020A9E07033902091E0C454F0F515902091E0E7
:20478200C4540F4515F515851882851983E0FFE5154207851882851983EFF0151874FFB5B6
:2047A20018021519800C902091E0FF851882851983F00510E4B5100205119020A9E0B4010F
:2047C20000E433F090208DE0FAA3E0FBA3E0FEA3E0FFEA4B4E4F708A9020B8E518F0E51919
:2047E200A3F09020AFE510F0E511A3F09020ABE0F5F0A3E045F070099020AB7401F0E4A3BF
:20480200F09020A2E0FFE070479020A1E070418510188511199020ABE0FAA3E0FBC007AF77
:20482200180F8F067F00C3EE9AEF9BD0075019758220C007C003C002124022D002D003D0DA
:20484200071ABAFF011B80D59020ABEAF0EBA3F09020A5E0602075822DC007124022D0076D
:204862009020ABE024FFFDA3E034FFFE9020ABEDF0EEA3F080569020AFE0F5F0A3E045F0BC
:20488200604A9020A3E0602075822BC007124022D0079020ABE024FFFDA3E034FFFE9020C6
:2048A200ABEDF0EEA3F080249020A4E0601E758220C007124022D0079020ABE024FFFDA370
:2048C200E034FFFE9020ABEDF0EEA3F09020A1E070489020AFE0F518A3E0F5199020ABE00B
:2048E200FAA3E0FBC0078A068B071ABAFF011BC3E5189EE5199FD0075053EF60067D307E71
:204902000080047D207E008D82C007C003C002124022D002D003D00780CA9020ABE0FEA385
:20492200E0FF9020AFE0F518A3E0F519C3E5189EE5199F500F9020ABEEC39518F0EF951919
:20494200A3F080119020ABE4F0A3F080089020ABEAF0EBA3F09020B8E0FEA3E0FF9020AF0D
:20496200E0F518A3E0F519AA18AD19151874FFB518021519EA4D60459020A9E0B40100E4E4
:2049820033F09020A9E070140EBE00010F8E828F83E0C4540FFD902091F0800E8E828F8352
:2049A200E0FD53050F902091EDF0902091E0F582C007C00612405DD006D00780AA9020A197
:2049C200E0700302412E9020ABE0FEA3E0FF8E038F051EBEFF011FEB4D700302412E758223
:2049E20020C007C006124022D006D00780E08C8212402202412E902092E0FEA3E08E82F5EC
:024A020083220D
:0B4E85003C4E4F20464C4F41543E0075
:184A0400AA82AB83124A1C6003A380F8C3E5829AF582E5839BF5832272
:20200600E58124FCC3C8C0E0C082E608467006E5824583601218E58296F58208E5839642A8
:1B2026008208E5F0964582D082C8D0E0C822758154122090E582600302200334
:1C4A1C0020F71430F6148883A88220F507E6A88375830022E280F7E49322E022A9
:00000001FF
