:03200000022006B5
:03205F0002200359
:032003000220694F
:202062009000002202000074F2C0E07434C0E07480C0E0122AAA1581158115811225461291
:20208200253F122758AE82E583FF20E7DAC374639E74808FF063F08095F040CB900019E436
:2020A200F07404A3F0900434E4F09004357412F0E4A3F090000175F000C007C006122730E5
:2020C200D006D00774022EFCE43FFD900019E0FAA3E0FB8A828B83C007C006C005C004124E
:2020E2002452AA82AB83D004D005D006D00778007900C3E89404E96480948040030221CB72
:20210200C004C005E828F508E933F509E5082508F508E50933F509E5082401F50AE50934A4
:2021220000F50B8A828B83C007C006C003C002C001C0001228D3AC82AD83D000D001D00212
:20214200D003D006D007850A82850B83ECF0EDA3F0EC4DD005D004704BC004C005C007C0D0
:2021620006C005C004C003C0021224AC7421C0E07435C0E07480C0E0122AAA15811581152E
:2021820081D002D003D004D005D006D007EA24FFFCEB34FFFD900019ECF0EDA3F0D005D0F3
:2021A200040220CDC004C005E5082401FCE5093400FD8C828D83A3A3EAF0EBA3F008B800F8
:2021C2000109D005D0040220F4C006C007900009E0F8A3E0F97F00888289838FF0C007C01F
:2021E20006C005C004C003C0021225D9D002D003D004D005D006D007900009E4F0A3F0902E
:20220200000BF0A3F0900446ECF0EDA3F090000AC005C004C003C002122A3CAE82AF8390E6
:202222000013EEF0EFA3F08E828F831228D3AE82AF83D002D003D004D005900011EEF0EFDC
:20224200A3F0EE4FD007D0067043C007C006C005C004C003C0021224AC7421C0E07435C031
:20226200E07480C0E0122AAA158115811581D002D003D004D005D006D007EA24FFF8EB3421
:20228200FFF9900019E8F0E9A3F00220CDEA2AF8EB33F9900017E8F0E9A3F088828983C064
:2022A20007C006C005C004C003C0021228D3A882A983D002D003D004D005D006D007900053
:2022C20015E8F0E9A3F0E8497043C007C006C005C004C003C0021224AC7421C0E07435C094
:2022E200E07480C0E0122AAA158115811581D002D003D004D005D006D007EA24FFF8EB34A1
:20230200FFF9900019E8F0E9A3F00220CDC003C002C006C007745AC0E07435C0E07480C05A
:20232200E0122AAAE58124FBF581D002D003C002C003746FC0E07435C0E07480C0E0122A14
:20234200AAE58124FBF58190001BE4F0A3F07E007F00C3EE9406EF64809480400302241B11
:20236200EE2EFCEF33FDEC2CFCED33FDEC2401F582ED3400F583E0FAA3E0FB4A7003022497
:2023820013EC2401FCED3400FD74022CFAE43DFB8A828B83E0F508A3E0F5098C828D83E0CF
:2023A200F50AA3E0F50BE508250AFCE509350BFD8C0C8D0D750E00A80AAD0B7C00C007C034
:2023C20006C003C002C008C009C00CC00DC00EC000C005C004C006C0077487C0E07435C09E
:2023E200E07480C0E0122AAAE58124F3F581D002D003D006D0078A828B83E0FAA3E0FB903A
:20240200001BE0FCA3E0FD90001BEA2CF0EB3DA3F00EBE00010F02235490001BE0C0E0A3B4
:20242200E0C0E07421C0E07404C0E0E4C0E07421C0E07400C0E0E4C0E074B3C0E07435C04C
:20244200E07480C0E0122AAAE58124F5F58180FEAF83E58290001DF0EFA3F090001DE0FE6A
:20246200A3E0FFC007C006C006C00774DCC0E07435C0E07480C0E0122AAAE58124FBF58110
:2024820012254612253F122758AC82AD83D006D007C3EE9CEF9D40CBEC9440ED940040C383
:2024A200EC541F70BE8C828D83227E007F00C3EE9406EF648094805056EE2EFCEF33FDEC55
:2024C2002CFCED33FDEC2401F582ED3400F583E0FCA3E0FD4C60137B008C828D838BF0C0A5
:2024E20007C0061225D9D006D007EE2EFCEF33FDEC2CFCED33FDEC2401FCED3400FD8C82AF
:102502008D83A3A3E4F0A3F00EBE00A20F809F224E
:2034F2000D0A506C6561736520656E74657220746865206C6173742074776F20646967699F
:203512007473206F6620796F75722049443A000D0A4275666665722053697A6520746F6F49
:20353200206269672C20706C65617365207069636B206120736D616C6C6572206275666646
:2035520065722073697A65000D0A73747564656E745F6E756D6265723A202564000D0A7532
:203572007365725F6275666665725F73697A653A20257A75000D0A6275666665725F256415
:203592002073746172747320402025702C20656E6473204025702C2073697A6520257A751D
:2035B200000D0A486561702073746172747320402025702C20656E647320402025702C2037
:2035D20073697A653A20257A75000D0A506C6561736520656E74657220612076616C696450
:2035F200206275666665722073697A65207468617420697320646976697369626C6520621A
:1036120079203332205B36342C257A755D3A2000CE
:20251200AF83E58290001FF0EFA3F010990280FB90001FE0FEA3E0FF8E998E828F8322103F
:0D253200980280FBAE997F008E828F83227D
:023622000004A2
:20253F0090042175F00022900434E4F0900435740AF0E4A3F090042175F0001227307D21D5
:20255F007E047F007B0A7C00C007C006C005C004C003122531A98289007A0088828A83C014
:20257F0001122512D001D003D004D005D006D0071BBBFF011CB90D03D38001C3920050063E
:20259F00B90A03E9600F8D828E838FF0E912287CA3AD82AE8320000CB90A028007E96004F8
:1A25BF00EB4C70A47409C39BFB3395E0FFEB2421F582EF3404F583E4F022FE
:2025D900AFF0AE83E58290042BF0EEA3F0EFA3F090042BE0FDA3E0FEA3E090042BE0F5F0D5
:2025F900A3E045F0700122900430E4F0A3F090043EE0FBA3E0FC90042EEBF0ECA3F0900470
:2026190032743EF07404A3F090042EE0FBA3E0FC4B60418B018C02C003C0048D008E04C337
:20263900E998EA9CD004D003502A900430EBF0ECA3F074022BFBE43CFC900432EBF0ECA353
:20265900F08B828C83E0FBA3E0FC90042EEBF0ECA3F080B490042EE0FEA3E0FF90042BE0EA
:20267900FBA3E0FCA3E0EB24FEFBEC34FFFC74022BFAE43CFD8A828D83EEF0EFA3F0900459
:2026990032E0F8A3E0F988828983EBF0ECA3F08B828C83E0F8A3E0F9EEB50033EFB5012F11
:2026B90088828983A3A3E0FEA3E0FF8A828D83EEF0EFA3F08B828C83E0FEA3E0FF8E828FAE
:2026D90083E0FEA3E0FF8B828C83EEF0EFA3F0900430E0FEA3E0FF4E603C8E828F83E0F87A
:2026F900A3E0F9E8B5032FE9B5042B8B828C83E0FBA3E0FC8E828F83EBF0ECA3F074022E13
:17271900FEE43FFF8A828D83E0FAA3E0FD8E828F83EAF0EDA3F02275
:06203500E478FFF6D8FD7F
:20273000AC82AD83900435E0FEA3E0FFBE000360121F0F900434E08C828D8312287CA3DEA4
:08275000FADFF88C828D832270
:20275800AFF0AE83E582900437F0EEA3F0EFA3F090043AE4F0A3F0900437E0FDA3E0FEA36B
:20277800E0FF8D828E838FF01234D6FCBC20028003BC09120DBD00010E900437EDF0EEA361
:20279800F0EFA3F080DC900437EDF0EEA3F0EFA3F08D828E838FF01234D6FC90043CE4BC81
:2027B8002D0104F0BC2D028003BC2B0E90043774012DF0E43EA3F0EFA3F0900437E0FDA39D
:2027D800E0FEA3E0FF8D828E838FF01234D6FCBC30009201405FEC24C69201405890043ADD
:2027F800E0FBA3E0FC900446EBF0ECA3F090000AC007C006C005122A3CAB82AC83D005D0CE
:2028180006D0078D828E838FF01234D6FAA3AD82AE83900437EDF0EEA3F0EFA3F08A017A5B
:2028380000E924D0F9EA34FFFA90043AE92BF0EA3CA3F08090900437EDF0EEA3F0EFA3F04D
:2028580090043CE0601190043AE0FEA3E0FFC3E49EFEE49FFF800890043AE0FEA3E0FF8E08
:04287800828F8322A6
:202013007900E94400601B7A0090362F787F75A004E493F2A308B8000205A0D9F4DAF2758C
:02203300A0FF0C
:1B287C0020F71130F6138883A88220F509F6A8837583002280FEF280F5F0225B
:2028970090043E7421F07400A3F0903622E493FE740193FF1EBEFF011FEE2421FEEF340010
:2028B700FF900021EEF0EFA3F090043EE0FEA3E0FF8E828F83A3A3E4F0A3F022AF83E58235
:2028D700900440F0EFA3F090043EE0F5F0A3E045F07003122897900440E0FEA3E0FF4E6026
:2028F7000E74022EFCE43FFDC3EC9EED9F50049000002290044074022EF0E43FA3F0900462
:2029170040E0FEA3E0FFC3EE9404EF940050099004407404F0E4A3F090043EE0FEA3E0FFF6
:20293700900442EEF0EFA3F0900444743EF07404A3F0900442E0FEA3E0FF4E7003022A386A
:202957008E828F83E0FCA3E0FD8C028D038E008F01EAC398FAEB99FB8A008B01900440E01E
:20297700F50FA3E0F510C3E8950FE995105003022A157404250FF8E43510F9C3EA98EB99B4
:20299700404C8E028F03E50F2AFAE5103BFB8A828B83ECF0EDA3F074022AFCE43BFD8E82F1
:2029B7008F83A3A3E0F8A3E0F98C828D83E8F0E9A3F0900444E0FCA3E0FD8C828D83EAF0B6
:2029D700EBA3F08E828F83EAF0EBA3F0801C900444E0FCA3E0FD8E828F83A3A3E0FAA3E053
:2029F700FB8C828D83EAF0EBA3F0900442E0FCA3E0FD74022CFCE43DFD8C828D83227402AB
:202A17002EFEE43FFF900444EEF0EFA3F08E828F83E0FEA3E0FF900442EEF0EFA3F0022936
:052A370049900000229F
:202A3C00AA83AB828BF0900446E0A4F8A9F08AF0E0A429F98BF0A3E0A429F5838882222205
:20203B007800E84400600A790175A000E4F309D8FC787EE84404600C7905900001E4F0A31C
:04205B00D8FCD9FADA
:202A5C00C01B85811B7E008E83122512D01B22AFF0AE83E582900449F0EEA3F0EFA3F090E2
:202A7C000449E0FDA3E0FEA3E0FF900448E0FC90045DE4F0A3F0A3F0900460EDF0EEA3F018
:202A9C00EFA3F0900463ECF0902A5C022BB0C01BE581F51B24FBFF90045DE4F0A3F0A3F078
:202ABC00E51B24FBF8900460E6F008E6A3F008E6A3F0900463EFF0902A5C122BB0D01B2231
:202ADC00E582900459F0E0FF90044FE0C0E0A3E0C0E0A3E0C0E0122AF7800D90044DE0C0CD
:202AFC00E0A3E0C0E08F8222158115811581900457E02401F0A3E03400F022E58290045AC4
:202B1C00F0E02430FF24C6500D74072FFF90044CE060034307208F82022ADCE58290045B8A
:202B3C00F0E0FFC4540FF582C007122B17D00753070F8F82022B17E58290045CF09004522F
:202B5C00E0FCA3E0FDA3E0FEA3E0FF900456E0FB90045CE0FA79208B00E828F51CEF2354C0
:202B7C0001451CFBEC2CFCED33FDEE33FEEF33FFC3EB9A4007EBC39AFB43040119E970D708
:202B9C00900452ECF0EDA3F0EEA3F0EFA3F0900456EBF022AF83E582900464F0EFA3F0905A
:202BBC000464E0FEA3E0FF90044DEEF0EFA3F090045DE0FDA3E0FEA3E0FF90044FEDF0EE71
:202BDC00A3F0EFA3F0900457E4F0A3F0900460E0FDA3E0FEA3E0FF8D828E838FF01234D6E3
:202BFC00FC90046074012DF0E43EA3F0EFA3F0EC70030234B2BC250280030234AA90046679
:202C1C00E4F0900467F0900468F0900469F090046AF090046BF090046CF090046DF09004AE
:202C3C006FF0900470F0A3F090047214F0A3F0900460E0FDA3E0FEA3E0FF8D828E838FF082
:202C5C001234D6FBA3AD82AE83900460EDF0EEA3F0EFA3F0900476EBF0BB25088B82122A54
:202C7C00DC022BE8BB30005003022D49EB24C65003022D49900472E0F511A3E0F51274FF08
:202C9C00B51163B51260C005C006C007900470E0FAA3E0FF900446EAF0EFA3F090000AC086
:202CBC0005C003122A3CAE82AF83D003D0058B027D00EA2EFEED3FFFEE24D0FEEF34FFFF62
:202CDC00900470EEF0EFA3F0D007D006D005900470E0F5F0A3E045F06003022C569004678F
:202CFC007401F0022C56C005C006C007900446E511F0E512A3F090000AC006C005C0031239
:202D1C002A3CAA82AF83D003D005D0067E00EB2AFAEE3FFFEA24D0FAEF34FFFF900472EAB3
:202D3C00F0EFA3F0D007D006D005022C56900476E0FBBB2E2FC005C006C007900472E0FAD0
:202D5C00A3E0FFBAFF05BFFF028009D007D006D005022C56D007D006D005900472E4F0A3C9
:202D7C00F0022C56BB61004014EB2485400F90047674DF5BF090044C7401F0800590044C1E
:202D9C00E4F0900476E0FBBB20028075BB2B028067BB2D028059BB4202806FBB4302807C10
:202DBC00BB4403023040BB4603023066BB4803022C56BB4903023040BB4A03022C56BB4C51
:202DDC00028050BB4F0302304EBB5003022FAEBB53028077BB5403022C56BB550302305653
:202DFC00BB580302305EBB5A03022C5602306E9004667401F0022C569004687401F0022C63
:202E1C00569004697401F0022C5690046B7401F0022C5690046C7401F0022C5690046BE0AA
:202E3C00600E900463E014F9F0900476E7F0800F900463E024FEFFF08F01900476E7F090DB
:202E5C000476E0F582122ADC02307D900463E024FDFFF08F018705098706098707191990CC
:202E7C000452EDF0EEA3F0EFA3F08D828E838FF01234BE858211858312900472E0FAA3E0C8
:202E9C00FDBAFF0DBDFF0A900472E511F0E512A3F0900466E0704B900470E0FAA3E0FDC361
:202EBC00E5119AE5129D503A900470EAC39511F0ED9512A3F0900470E0FAA3E0FD8A068D5F
:202EDC00071ABAFF011DEE4F6010758220C005C002122ADCD002D00580E3900470EAF0EDA6
:202EFC00A3F0900472E0F514A3E0F515900452E0FAA3E0FDA3E0FF8A828D838FF01234D62E
:202F1C00F513603CC3E4951474808515F063F08095F0502C151474FFB514021515851382A4
:202F3C00122ADC900452E0FAA3E0FDA3E0FF0ABA00010D900452EAF0EDA3F0EFA3F080ACDB
:202F5C00900466E0700302307D900470E0FEA3E0FFC3E5119EE5129F400302307D90047012
:202F7C00EEC39511F0EF9512A3F0900470E0FEA3E0FF8E028F051EBEFF011FEA4D70030296
:202F9C003075758220C007C006122ADCD006D00780E0900463E024FDFDF08D018716098707
:202FBC00170987181919900452E516F0E517A3F0E518A3F0900454E0FDBD80004008900436
:202FDC00767443F08020BD600040089004767450F08013BD400040089004767449F08006E0
:202FFC009004767458F0900476E0FDF582C005122ADC75823A122ADC758230122ADC758235
:20301C0078122ADCD005BD4902800EBD50028009900453E0F582122B37900452E0F5821200
:20303C002B37803D90046A7401F090046F740AF0802F90046F7408F0802790046F740AF04B
:20305C00801F90046F7410F0801790046D7401F0800F8B82122ADC8008900470EEF0EFA391
:20307C00F090046DE06071900463E024FCFFF08F01870309870509870609870719191990F5
:20309C000452EBF0EDA3F0EEA3F0EFA3F09004527424F07436A3F07480A3F0900452E0F573
:2030BC0016A3E0F517A3E0F51874012516FAE43517FBAF18900452EAF0EBA3F0EFA3F085DE
:2030DC0016828517838518F01234D6FF7003022BE88F82122ADC80C390046FE07003022BFE
:2030FC00E890046BE06047900463E014F9F087077E007D007B00900452EFF0EEA3F0EDA398
:20311C00F0EBA3F090046AE060030231C0900452E0FBA3E0A3E0A3E07D007E007F00900499
:20313C0052EBF0EDA3F0EEA3F0EFA3F0807690046CE06028900463E024FCFFF08F01870365
:20315C00098705098706098707191919900452EBF0EDA3F0EEA3F0EFA3F08048900463E063
:20317C0024FEFFF08F01870609870719EF3395E0FDFB900452EEF0EFA3F0EDA3F0EBA3F082
:20319C0090046AE0701E900452E0FBA3E0FDA3E0A3E07E007F00900452EBF0EDA3F0EEA391
:2031BC00F0EFA3F090046AE06041900452E0FBA3E0FDA3E0FEA3E0FF30E72B900452E0FBBB
:2031DC00A3E0FDA3E0FEA3E0FFC3E49BFBE49DFDE49EFEE49FFF900452EBF0EDA3F0EEA3C1
:2031FC00F0EFA3F0800590046AE4F090046E7401F090046FE0F51475197C751A04E4F51110
:20321C00F512900456E4F0851482122B5390046EE07033900456E0C454F0F516900456E0F6
:20323C00C4540F4516F516851982851A83E0FFE5164207851982851A83EFF0151974FFB509
:20325C001902151A800C900456E0FF851982851A83F00511E4B51102051290046EE0B40111
:20327C0000E433F0900452E0FAA3E0FBA3E0FEA3E0FFEA4B4E4F708A90047DE519F0E51A20
:20329C00A3F0900474E511F0E512A3F0900470E0F5F0A3E045F070099004707401F0E4A31D
:2032BC00F0900467E0FFE07047900466E0704185111985121A900470E0FAA3E0FBC007AFD4
:2032DC00190F8F067F00C3EE9AEF9BD0075019758220C007C003C002122ADCD002D003D091
:2032FC00071ABAFF011B80D5900470EAF0EBA3F090046AE0602075822DC007122ADCD007D3
:20331C00900470E024FFFDA3E034FFFE900470EDF0EEA3F08056900474E0F5F0A3E045F01C
:20333C00604A900468E0602075822BC007122ADCD007900470E024FFFDA3E034FFFE900447
:20335C0070EDF0EEA3F08024900469E0601E758220C007122ADCD007900470E024FFFDA310
:20337C00E034FFFE900470EDF0EEA3F0900466E07048900474E0F519A3E0F51A900470E0C0
:20339C00FAA3E0FBC0078A068B071ABAFF011BC3E5199EE51A9FD0075053EF60067D307ECA
:2033BC000080047D207E008D82C007C003C002122ADCD002D003D00780CA900470E0FEA394
:2033DC00E0FF900474E0F519A3E0F51AC3E5199EE51A9F500F900470EEC39519F0EF951A1D
:2033FC00A3F08011900470E4F0A3F08008900470EAF0EBA3F090047DE0FEA3E0FF900474C5
:20341C00E0F519A3E0F51AAA19AD1A151974FFB51902151AEA4D604590046EE0B40100E48F
:20343C0033F090046EE070140EBE00010F8E828F83E0C4540FFD900456F0800E8E828F835B
:20345C00E0FD53050F900456EDF0900456E0F582C007C006122B17D006D00780AA90046652
:20347C00E07003022BE8900470E0FEA3E0FF8E038F051EBEFF011FEB4D7003022BE875828D
:20349C0020C007C006122ADCD006D00780E08C82122ADC022BE8900457E0FEA3E08E82F5B2
:0234BC00832269
:0B3624003C4E4F20464C4F41543E00EE
:1834BE00AA82AB831234D66003A380F8C3E5829AF582E5839BF583222A
:0D200600758120122062E582600302200334
:1C34D60020F71430F6148883A88220F507E6A88375830022E280F7E49322E02205
:00000001FF
