:0320000002203487
:03208D000220032B
:03200300022CE8C4
:2020900090000022E582900031F0E0FF24A592004007BF410092005016900031E0FF2485A4
:2020B00092004007BF610092005004C2008002D200A200E433F582227404C0E0743EC0E05F
:2020D0007480C0E01233BC158115811581122DAD122DA612306AAE82E583FF20E7DAC3746D
:2020F000639E74808FF063F08095F040CB900032E4F07404A3F0900461E4F0900462741213
:20211000F0E4A3F090000175F000C007C006123042D006D00774022EFCE43FFD900032E032
:20213000FAA3E0FB8A828B83C007C006C005C004122749AA82AB83D004D005D006D007783D
:20215000007900C3E89404E964809480400302223CC004C0058821E9C40354F8C521C40354
:20217000C5216521C52154F8C5216521F522E5212401F523E5223400F5248A828B83C007B6
:20219000C006C003C002C001C0001231E5AC82AD83D000D001D002D003D006D007852382C0
:2021B000852483ECF0EDA3F0EC4DD005D004704BC004C005C007C006C005C004C003C002C6
:2021D0001227A37433C0E0743EC0E07480C0E01233BC158115811581D002D003D004D005D5
:2021F000D006D007EA24FFFCEB34FFFD900032ECF0EDA3F0D005D00402212CC004C005E57A
:20221000212401FCE5223400FD8C828D83A3A3A3A3EAF0EBA3F08C828D83A3A3E4F0A3F067
:2022300008B8000109D005D004022153C006C007900011E0F8A3E0F97F00888289838FF00F
:20225000C007C006C005C004C003C002122E77D002D003D004D005D006D007900011E4F0AC
:20227000A3F0900015F0A3F0900473ECF0EDA3F090000AC005C004C003C00212334EAE82C5
:20229000AF83900025EEF0EFA3F08E828F831231E5AE82AF83D002D003D004D0059000213C
:2022B000EEF0EFA3F0EE4FD007D0067043C007C006C005C004C003C0021227A37433C0E053
:2022D000743EC0E07480C0E01233BC158115811581D002D003D004D005D006D007EA24FF3D
:2022F000F8EB34FFF9900032E8F0E9A3F002212CEA2AF8EB33F990002DE8F0E9A3F088821C
:202310008983C007C006C005C004C003C0021231E5A882A983D002D003D004D005D006D094
:2023300007900029E8F0E9A3F0E8497043C007C006C005C004C003C0021227A37433C0E0D7
:20235000743EC0E07480C0E01233BC158115811581D002D003D004D005D006D007EA24FFBC
:20237000F8EB34FFF9900032E8F0E9A3F002212CC003C002C006C007746CC0E0743EC0E0F5
:202390007480C0E01233BCE58124FBF581D002D003C002C0037481C0E0743EC0E07480C0D8
:2023B000E01233BCE58124FBF581900034E4F0A3F07E007F00C3EE9406EF64809480400394
:2023D0000224928E04EFC40354F8CCC403CC6CCC54F8CC6CFDEC2401F582ED3400F583E088
:2023F000FAA3E0FB4A700302248AEC2401FCED3400FD74042CFAE43DFB8A828B83E0F521F3
:20241000A3E0F5228C828D83E0F523A3E0F524E5212523FCE5223524FD8C258D26752700B9
:20243000A823AD247C00C007C006C003C002C021C022C025C026C027C000C005C004C006DE
:20245000C0077499C0E0743EC0E07480C0E01233BCE58124F3F581D002D003D006D0078A42
:20247000828B83E0FAA3E0FB900034E0FCA3E0FD900034EA2CF0EB3DA3F00EBE00010F02E1
:2024900023C5900034E0C0E0A3E0C0E07446C0E07404C0E0E4C0E07446C0E07400C0E0E495
:2024B000C0E074C5C0E0743EC0E07480C0E01233BCE58124F5F58122AFF0AE83E5829000CE
:2024D00037F0EEA3F0EFA3F0900037E0FDA3E0FEA3E0FF74062DF52AE43EF52B8F2C852AA9
:2024F00082852B83852CF0123DE8F528A3123DE8F52974042DF8E43EF98F04888289838C3D
:20251000F0123DE8F8A3123DE8F9C3E52898E529994001228D828E838FF0123DE8FBA312C1
:202530003DE8FCE5282BFBE5293CFC900036E0FA8B828C83F0852A82852B83852CF0123DF1
:20255000E8FCA3123DE8FB0CBC00010B852A82852B83852CF0EC12318EA3EB12318E8A82B1
:20257000C007C006C005122094E582D005D006D007602A74022DFDE43EFE8D828E838FF061
:20259000123DE8FBA3123DE8FC0BBB00010C8D828E838FF0EB12318EA3EC02318E22AFF0E4
:2025B000AE83E58290003AF0EEA3F0EFA3F090003AE0C0E0A3E0C0E0A3E0C0E074EEC0E024
:2025D000743EC0E07480C0E01233BCE58124FAF58174FBC0E0743EC0E07480C0E01233BC14
:2025F00015811581158122903F1C75F0801225AE90003DE4F0A3F07E007F00C3EE9406EFC7
:202610006480948040030226FE8E04EFC40354F8CCC403CC6CCC54F8CC6CFDEC2401F58215
:20263000ED3400F583E0FAA3E0FB4A70030226F6EC2401FCED3400FD74042CF52DE43DF5B7
:202650002E852D82852E83E0F8A3E0F974062CF582E43DF583E0FAA3E0FBE8C39AF52FE91E
:202670009BF5308C828D83A3A3E0F531A3E0F5328C828D83E0F533A3E0F534E82533FAE981
:202690003534FB8A358B36753700AC33AD347B00C007C006C02FC030C031C032C000C0018F
:2026B000C035C036C037C004C005C003C006C0077428C0E0743FC0E07480C0E01233BCE546
:2026D0008124EFF581D006D007852D82852E83E0FCA3E0FD90003DE0FAA3E0FB90003DEC8F
:2026F0002AF0ED3BA3F00EBE00010F02260B90003DE0C0E0A3E0C0E07446C0E07404C0E004
:20271000E4C0E07446C0E07400C0E0E4C0E074C5C0E0743EC0E07480C0E01233BCE58124E9
:20273000F5F581748AC0E0743FC0E07480C0E01233BC15811581158122AF83E58290003F4C
:20275000F0EFA3F090003FE0FEA3E0FFC007C006C006C007748DC0E0743FC0E07480C0E026
:202770001233BCE58124FBF581122DAD122DA612306AAC82AD83D006D007C3EE9CEF9D40AC
:20279000CBEC9440ED940040C3EC541F70BE8C828D83227E007F00C3EE9406EF648094801E
:2027B00050738E04EFC40354F8CCC403CC6CCC54F8CC6CFDEC2401F582ED3400F583E0FC9D
:2027D000A3E0FD4C60137B008C828D838BF0C007C006122E77D006D0078E04EFC40354F811
:2027F000CCC403CC6CCC54F8CC6CFDEC2401F582ED3400F583E4F0A3F0EC2401FCED3400FB
:20281000FD8C828D83A3A3A3A3E4F0A3F00EBE00010F0227A7221225F7122E63AE82AF8399
:20283000C007C006122E6FD006D007C006C00774D3C0E0743FC0E07480C0E01233BCE581DD
:2028500024FBF581900041E4F0A3F07E007F00C3EE9402EF6480948040030229E28E04EF9F
:20287000C40354F8CCC403CC6CCC54F8CC6CFDEC2401FCED3400FD8C828D83E0FAA3E0FB7C
:202890008A828B83E0900043F0900041E0FAA3E0FB78007900900043E07003022955EA546D
:2028B0001F60028035C007C006C005C004C003C002C001C000748AC0E0743FC0E07480C011
:2028D000E01233BC158115811581D000D001D002D003D004D005D006D007C006C00790008C
:2028F00043E0FF7E00C007C006C005C004C003C002C001C000C007C0067404C0E07440C0F3
:20291000E07480C0E01233BCE58124FBF581D000D001D002D003D004D005D006D0070ABAD7
:2029300000010B08B80001098C828D83E0FEA3E0FFE82EF582E93FF583E0900043F0D0078C
:20295000D0060228A5900041EAF0EBA3F08E04EFC40354F8CCC403CC6CCC54F8CC6CFDEC01
:202970002401F582ED3400F583E0FAA3E0FB8A388B39753A00EC2401FCED3400FD8C828DBF
:2029900083A3A3A3A3E0F8A3E0FB900461E4F0900462E8F0EBA3F0853882853983853AF07E
:2029B000C007C006C005C004123042D004D005D006D0078C828D83A3A3E4F0A3F074062CA6
:2029D000F582E43DF583E4F0A3F00EBE00010F02285F748AC0E0743FC0E07480C0E0123341
:2029F000BC158115811581748AC0E0743FC0E07480C0E01233BC1581158115812290400708
:202A100075F0801225AE7E007F00C3EE9402EF64809480400122C007C006C006C0077413AD
:202A3000C0E07440C0E07480C0E01233BCE58124FBF5817421C0E07440C0E07480C0E012D3
:202A500033BC158115811581D006D0078E04EFC40354F8CCC403CC6CCC54F8CC6CFDEC244C
:202A700001FAED3400FB8A828B83E0F8A3E0F9883B893C753D008E008F018A428B43EC24BF
:202A900001FCED3400FD74042CF53EE43DF53FC000C001854282854383E0F8A3E0F9853EB3
:202AB00082853F83E0FCA3E0FDEC28F540ED39F541A93BAC3CAD3DA840AA417B00C000C0B8
:202AD00002C00389828C838DF0122006158115811581D001D0004003022B8BAB3BAC3CC066
:202AF00001C000C003C004742EC0E07440C0E07480C0E01233BCE58124FBF581D000D001B7
:202B1000AB3BAC3CAD3DE4F540F541C3E5409410E541648094805055C000C001E5402BF886
:202B3000E5413CF98D02888289838AF0123DE8F87A00C005C004C003C001C000C000C00213
:202B50007436C0E07440C0E07480C0E01233BCE58124FBF581D000D001D003D004D0050515
:202B700040E4B540020541D001D000809E7410253BF53BE4353CF53C022A9FC001C00074CB
:202B90008AC0E0743FC0E07480C0E01233BC158115811581D000D001740128FEE439FF02F7
:202BB0002A1A90403E75F0801225AE7E007F00C3EE9406EF648094804001228E04EFC4030F
:202BD00054F8CCC403CC6CCC54F8CC6CFDEC2401F582ED3400F583E0FAA3E0FB8A448B456A
:202BF000754600EC2401FCED3400FD8C828D83A3A3A3A3E0F8A3E0FB900461E4F090046220
:202C1000E8F0EBA3F08544828545838546F0C007C006C005C004123042D004D005D006D012
:202C30000774062CF582E43DF583E4F0A3F08C828D83A3A3F0A3F00EBE00010F022BBFD2DF
:202C500090900019E0FEA3E0FF7D00900001E0FBA3E0FC7A00900005E0F8A3E0F990045913
:202C7000EBF0ECA3F0EAA3F090045CE8F0E9A3F08E828F838DF0122FCE900003E0FEA3E087
:202C9000FF90001BEEF0EFA3F0900007E0FEA3E0FF90001FEEF0EFA3F0C29022D2907E00C0
:202CB0007F0090001FE0FCA3E0FDC3EE9CEF9D5024900019E0FCA3E0FDEE2CFCEF3DFD8C5D
:202CD000828D83E0FB4303208C828D83EBF00EBE00D00F80CDC290221220C8744CC0E074DE
:202CF00040C0E07480C0E01233BC158115811581122E40AF82C007122094E582D00760149D
:202D1000900036EFF090000175F000C0071224C8D0078012900036EFF090000975F000C077
:202D3000071224C8D007BF23028038BF2402802DBF25028019BF3D02800FBF3F028005BF29
:202D5000409980101228268092122A0D808D122BB2022CEB1227A31220C8022CEB122C4FAE
:092D7000022CEB122CAC022CEB3E
:203E04000D0A506C6561736520656E74657220746865206C6173742074776F206469676983
:203E24007473206F6620796F75722049443A000D0A4275666665722053697A6520746F6F2E
:203E4400206269672C20706C65617365207069636B206120736D616C6C657220627566662B
:203E640065722073697A65000D0A73747564656E745F6E756D6265723A202564000D0A7517
:203E84007365725F6275666665725F73697A653A20257A75000D0A6275666665725F2564FA
:203EA4002073746172747320402025702C20656E6473204025702C2073697A6520257A7502
:203EC400000D0A486561702073746172747320402025702C20656E647320402025702C201C
:203EE40073697A653A20257A75000D0A20202020202020202573000D0A2D2D2D2D2D2D2D94
:203F04002D2D2D2D2D2D2D2D2D2D2D2D2D2D2D2D2D2D2D2D2D2D2D0048454150205245506D
:203F24004F5254000D0A6275666665725F25642073746172747320402025702C20656E64B6
:203F440073204025702C2073697A6520257A752C20636F6E7461696E7320257A7520616CEE
:203F64007068616265742063686172732C2068617320257A752063686172732072656D61E6
:203F8400696E696E67000D0A000D0A506C6561736520656E74657220612076616C69642071
:203FA4006275666665722073697A65207468617420697320646976697369626C6520627905
:203FC400203332205B36342C257A755D3A20000D0A20526563656976656420257A75206367
:203FE400686172732073696E6365206C61737420696E766F636174696F6E206F66203F005B
:2040040025630044756D7020427566666572000D0A2042756666657220256420000D0A2D66
:204024002D2D2D2D2D2D2D2D2D000D0A253034583A002025303268685800436C65617220DF
:1940440042756666657273000D0A456E746572206120636861723A2000E8
:202D7900AF83E582900044F0EFA3F010990280FB900044E0FEA3E0FF8E998E828F83221086
:0D2D9900980280FBAE997F008E828F83220E
:02405D0000045D
:202DA60090044675F00022900461E4F0900462740AF0E4A3F090044675F0001230427D4682
:202DC6007E047F007B0A7C00C007C006C005C004C003122D98A98289007A0088828A83C036
:202DE60001122D79D001D003D004D005D006D0071BBBFF011CB90D03D38001C3920150065F
:202E0600B90A03E9600F8D828E838FF0E912318EA3AD82AE8320010CB90A028007E960046C
:202E2600EB4C70A47409C39BFB3395E0FFEB2446F582EF3404F583E4F022122D98AE828ECE
:202E4600057F008D828F83C006122D79D0069004ACE02401F0A3E03400F08E82229004AC25
:112E6600E0FEA3E08E82F583229004ACE4F0A3F02287
:02406A00000054
:202E7700AFF0AE83E582900450F0EEA3F0EFA3F0900450E0FDA3E0FEA3E0900450E0F5F0BF
:202E9700A3E045F0700122900455E4F0A3F090046BE0FBA3E0FC900453EBF0ECA3F0900452
:202EB70057746BF07404A3F0900453E0FBA3E0FC4B60418B018C02C003C0048D008E04C31A
:202ED700E998EA9CD004D003502A900455EBF0ECA3F074022BFBE43CFC900457EBF0ECA363
:202EF700F08B828C83E0FBA3E0FC900453EBF0ECA3F080B4900453E0FEA3E0FF900450E0D5
:202F1700FBA3E0FCA3E0EB24FEFBEC34FFFC74022BFAE43CFD8A828D83EEF0EFA3F09004B2
:202F370057E0F8A3E0F988828983EBF0ECA3F08B828C83E0F8A3E0F9EEB50033EFB5012F45
:202F570088828983A3A3E0FEA3E0FF8A828D83EEF0EFA3F08B828C83E0FEA3E0FF8E828F07
:202F770083E0FEA3E0FF8B828C83EEF0EFA3F0900455E0FEA3E0FF4E603C8E828F83E0F8AE
:202F9700A3E0F9E8B5032FE9B5042B8B828C83E0FBA3E0FC8E828F83EBF0ECA3F074022E6C
:172FB700FEE43FFF8A828D83E0FAA3E0FD8E828F83EAF0EDA3F022CF
:06206300E478FFF6D8FD51
:202FCE00AFF0AE83E58290045EF0EEA3F0EFA3F090045EE0F515A3E0F516A3E0F517AA150F
:202FEE00AB16AC17900459E0F8A3E0F9A3E0FF90045CE0F518A3E0F519AD18AE19151874E1
:20300E00FFB518021519ED4E6020888289838FF0123DE8FEA3A882A9838A828B838CF0EEA4
:14302E0012318EA3AA82AB8380CF8515828516838517F02289
:20304200AC82AD83900462E0FEA3E0FFBE000360121F0F900461E08C828D8312318EA3DE14
:08306200FADFF88C828D832255
:20306A00AFF0AE83E582900464F0EEA3F0EFA3F0900467E4F0A3F0900464E0FDA3E0FEA3C9
:20308A00E0FF8D828E838FF0123DE8FCBC20028003BC09120DBD00010E900464EDF0EEA3FE
:2030AA00F0EFA3F080DC900464EDF0EEA3F0EFA3F08D828E838FF0123DE8FC900469E4BCF1
:2030CA002D0104F0BC2D028003BC2B0E90046474012DF0E43EA3F0EFA3F0900464E0FDA328
:2030EA00E0FEA3E0FF8D828E838FF0123DE8FCBC30009202405FEC24C69202405890046778
:20310A00E0FBA3E0FC900473EBF0ECA3F090000AC007C006C00512334EAB82AC83D005D06A
:20312A0006D0078D828E838FF0123DE8FAA3AD82AE83900464EDF0EEA3F0EFA3F08A017AF8
:20314A0000E924D0F9EA34FFFA900467E92BF0EA3CA3F08090900464EDF0EEA3F0EFA3F0D8
:20316A00900469E06011900467E0FEA3E0FFC3E49EFEE49FFF8008900467E0FEA3E0FF8E66
:04318A00828F83228B
:202041007902E94400601B7A0190406A78AC75A004E493F2A308B8000205A0D9F4DAF275E9
:02206100A0FFDE
:1B318E0020F71130F6138883A88220F509F6A8837583002280FEF280F5F02240
:2031A90090046B7446F07400A3F090405DE493FE740193FF1EBEFF011FEE2446FEEF340039
:2031C900FF900046EEF0EFA3F090046BE0FEA3E0FF8E828F83A3A3E4F0A3F022AF83E582C8
:2031E90090046DF0EFA3F090046BE0F5F0A3E045F070031231A990046DE0FEA3E0FF4E6069
:203209000E74022EFCE43FFDC3EC9EED9F50049000002290046D74022EF0E43FA3F0900419
:203229006DE0FEA3E0FFC3EE9404EF9400500990046D7404F0E4A3F090046BE0FEA3E0FF54
:2032490090046FEEF0EFA3F0900471746BF07404A3F090046FE0FEA3E0FF4E700302334A80
:203269008E828F83E0FCA3E0FD8C028D038E008F01EAC398FAEB99FB8A008B0190046DE0D6
:20328900F508A3E0F509C3E89508E99509500302332774042508F8E43509F9C3EA98EB99A8
:2032A900404C8E028F03E5082AFAE5093BFB8A828B83ECF0EDA3F074022AFCE43BFD8E82E4
:2032C9008F83A3A3E0F8A3E0F98C828D83E8F0E9A3F0900471E0FCA3E0FD8C828D83EAF06E
:2032E900EBA3F08E828F83EAF0EBA3F0801C900471E0FCA3E0FD8E828F83A3A3E0FAA3E00B
:20330900FB8C828D83EAF0EBA3F090046FE0FCA3E0FD74022CFCE43DFD8C828D8322740262
:203329002EFEE43FFF900471EEF0EFA3F08E828F83E0FEA3E0FF90046FEEF0EFA3F00232B8
:053349005B9000002272
:20334E00AA83AB828BF0900473E0A4F8A9F08AF0E0A429F98BF0A3E0A429F58388822222BD
:202069007800E84400600A790175A000E4F309D8FC78ABE84404600C7905900001E4F0A3C1
:04208900D8FCD9FAAC
:20336E00C0148581147E008E83122D79D01422AFF0AE83E582900476F0EEA3F0EFA3F09040
:20338E000476E0FDA3E0FEA3E0FF900475E0FC90048AE4F0A3F0A3F090048DEDF0EEA3F049
:2033AE00EFA3F0900490ECF090336E0234C2C014E581F51424FBFF90048AE4F0A3F0A3F0DB
:2033CE00E51424FBF890048DE6F008E6A3F008E6A3F0900490EFF090336E1234C2D0142294
:2033EE00E582900486F0E0FF90047CE0C0E0A3E0C0E0A3E0C0E0123409800D90047AE0C00F
:20340E00E0A3E0C0E08F8222158115811581900484E02401F0A3E03400F022E5829004874E
:20342E00F0E02430FF24C6500D74072FFF900479E060034307208F820233EEE582900488FA
:20344E00F0E0FFC4540FF582C007123429D00753070F8F82023429E582900489F090047F84
:20346E00E0FCA3E0FDA3E0FEA3E0FF900483E0FB900489E0FA79208B00E828F515EF235452
:20348E00014515FBEC2CFCED33FDEE33FEEF33FFC3EB9A4007EBC39AFB43040119E970D7F4
:2034AE0090047FECF0EDA3F0EEA3F0EFA3F0900483EBF022AF83E582900491F0EFA3F090B8
:2034CE000491E0FEA3E0FF90047AEEF0EFA3F090048AE0FDA3E0FEA3E0FF90047CEDF0EEA2
:2034EE00A3F0EFA3F0900484E4F0A3F090048DE0FDA3E0FEA3E0FF8D828E838FF0123DE853
:20350E00FC90048D74012DF0E43EA3F0EFA3F0EC7003023DC4BC25028003023DBC900493CD
:20352E00E4F0900494F0900495F0900496F0900497F0900498F0900499F090049AF0900458
:20354E009CF090049DF0A3F090049F14F0A3F090048DE0FDA3E0FEA3E0FF8D828E838FF0B3
:20356E00123DE8FBA3AD82AE8390048DEDF0EEA3F0EFA3F09004A3EBF0BB25088B821233BB
:20358E00EE0234FABB3000500302365BEB24C6500302365B90049FE0F50AA3E0F50B74FF6B
:2035AE00B50A63B50B60C005C006C00790049DE0FAA3E0FF900473EAF0EFA3F090000AC01F
:2035CE0005C00312334EAE82AF83D003D0058B027D00EA2EFEED3FFFEE24D0FEEF34FFFF2C
:2035EE0090049DEEF0EFA3F0D007D006D00590049DE0F5F0A3E045F06003023568900494D2
:20360E007401F0023568C005C006C007900473E50AF0E50BA3F090000AC006C005C00312E3
:20362E00334EAA82AF83D003D005D0067E00EB2AFAEE3FFFEA24D0FAEF34FFFF90049FEA50
:20364E00F0EFA3F0D007D006D0050235689004A3E0FBBB2E2FC005C006C00790049FE0FA40
:20366E00A3E0FFBAFF05BFFF028009D007D006D005023568D007D006D00590049FE4F0A366
:20368E00F0023568BB61004014EB2485400F9004A374DF5BF09004797401F0800590047961
:2036AE00E4F09004A3E0FBBB20028075BB2B028067BB2D028059BB4202806FBB4302807CC8
:2036CE00BB4403023952BB4603023978BB4803023568BB4903023952BB4A03023568BB4CAF
:2036EE00028050BB4F03023960BB50030238C0BB53028077BB5403023568BB5503023968CC
:20370E00BB5803023970BB5A030235680239809004937401F00235689004957401F0023578
:20372E00689004967401F00235689004987401F00235689004997401F0023568900498E078
:20374E00600E900490E014F9F09004A3E7F0800F900490E024FEFFF08F019004A3E7F0900C
:20376E0004A3E0F5821233EE02398F900490E024FDFFF08F01870509870609870719199021
:20378E00047FEDF0EEA3F0EFA3F08D828E838FF0123DD085820A85830B90049FE0FAA3E046
:2037AE00FDBAFF0DBDFF0A90049FE50AF0E50BA3F0900493E0704B90049DE0FAA3E0FDC3CD
:2037CE00E50A9AE50B9D503A90049DEAC3950AF0ED950BA3F090049DE0FAA3E0FD8A068D06
:2037EE00071ABAFF011DEE4F6010758220C005C0021233EED002D00580E390049DEAF0ED43
:20380E00A3F090049FE0F50DA3E0F50E90047FE0FAA3E0FDA3E0FF8A828D838FF0123DE8AB
:20382E00F50C603CC3E4950D7480850EF063F08095F0502C150D74FFB50D02150E850C82BA
:20384E001233EE90047FE0FAA3E0FDA3E0FF0ABA00010D90047FEAF0EDA3F0EFA3F080AC4B
:20386E00900493E0700302398F90049DE0FEA3E0FFC3E50A9EE50B9F400302398F90049D48
:20388E00EEC3950AF0EF950BA3F090049DE0FEA3E0FF8E028F051EBEFF011FEA4D7003025C
:2038AE003987758220C007C0061233EED006D00780E0900490E024FDFDF08D01870F098790
:2038CE0010098711191990047FE50FF0E510A3F0E511A3F0900481E0FDBD800040089004E4
:2038EE00A37443F08020BD600040089004A37450F08013BD400040089004A37449F080063E
:20390E009004A37458F09004A3E0FDF582C0051233EE75823A1233EE7582301233EE75826E
:20392E00781233EED005BD4902800EBD50028009900480E0F58212344990047FE0F5821255
:20394E003449803D9004977401F090049C740AF0802F90049C7408F0802790049C740AF061
:20396E00801F90049C7410F0801790049A7401F0800F8B821233EE800890049DEEF0EFA3D4
:20398E00F090049AE06071900490E024FCFFF08F0187030987050987060987071919199080
:2039AE00047FEBF0EDA3F0EEA3F0EFA3F090047F745FF07440A3F07480A3F090047FE0F58C
:2039CE000FA3E0F510A3E0F5117401250FFAE43510FBAF1190047FEAF0EBA3F0EFA3F085C0
:2039EE000F828510838511F0123DE8FF70030234FA8F821233EE80C390049CE07003023471
:203A0E00FA900498E06047900490E014F9F087077E007D007B0090047FEFF0EEA3F0EDA3E3
:203A2E00F0EBA3F0900497E06003023AD290047FE0FBA3E0A3E0A3E07D007E007F00900409
:203A4E007FEBF0EDA3F0EEA3F0EFA3F08076900499E06028900490E024FCFFF08F018703C3
:203A6E0009870509870609870719191990047FEBF0EDA3F0EEA3F0EFA3F08048900490E0EE
:203A8E0024FEFFF08F01870609870719EF3395E0FDFB90047FEEF0EFA3F0EDA3F0EBA3F03A
:203AAE00900497E0701E90047FE0FBA3E0FDA3E0A3E07E007F0090047FEBF0EDA3F0EEA3EF
:203ACE00F0EFA3F0900497E0604190047FE0FBA3E0FDA3E0FEA3E0FF30E72B90047FE0FB19
:203AEE00A3E0FDA3E0FEA3E0FFC3E49BFBE49DFDE49EFEE49FFF90047FEBF0EDA3F0EEA379
:203B0E00F0EFA3F08005900497E4F090049B7401F090049CE0F50D7512A9751304E4F50A5C
:203B2E00F50B900483E4F0850D8212346590049BE07033900483E0C454F0F50F900483E021
:203B4E00C4540F450FF50F851282851383E0FFE50F4207851282851383EFF0151274FFB526
:203B6E0012021513800C900483E0FF851282851383F0050AE4B50A02050B90049BE0B401CD
:203B8E0000E433F090047FE0FAA3E0FBA3E0FEA3E0FFEA4B4E4F708A9004AAE512F0E513B9
:203BAE00A3F09004A1E50AF0E50BA3F090049DE0F5F0A3E045F0700990049D7401F0E4A389
:203BCE00F0900494E0FFE07047900493E07041850A12850B1390049DE0FAA3E0FBC007AF4E
:203BEE00120F8F067F00C3EE9AEF9BD0075019758220C007C003C0021233EED002D003D062
:203C0E00071ABAFF011B80D590049DEAF0EBA3F0900497E0602075822DC0071233EED00742
:203C2E0090049DE024FFFDA3E034FFFE90049DEDF0EEA3F080569004A1E0F5F0A3E045F07A
:203C4E00604A900495E0602075822BC0071233EED00790049DE024FFFDA3E034FFFE9004B7
:203C6E009DEDF0EEA3F08024900496E0601E758220C0071233EED00790049DE024FFFDA353
:203C8E00E034FFFE90049DEDF0EEA3F0900493E070489004A1E0F512A3E0F51390049DE0FF
:203CAE00FAA3E0FBC0078A068B071ABAFF011BC3E5129EE5139FD0075053EF60067D307EBD
:203CCE000080047D207E008D82C007C003C0021233EED002D003D00780CA90049DE0FEA331
:203CEE00E0FF9004A1E0F512A3E0F513C3E5129EE5139F500F90049DEEC39512F0EF9513D2
:203D0E00A3F0801190049DE4F0A3F0800890049DEAF0EBA3F09004AAE0FEA3E0FF9004A1F5
:203D2E00E0F512A3E0F513AA12AD13151274FFB512021513EA4D604590049BE0B40100E478
:203D4E0033F090049BE070140EBE00010F8E828F83E0C4540FFD900483F0800E8E828F83E6
:203D6E00E0FD53050F900483EDF0900483E0F582C007C006123429D006D00780AA90049395
:203D8E00E070030234FA90049DE0FEA3E0FF8E038F051EBEFF011FEB4D70030234FA75820F
:203DAE0020C007C0061233EED006D00780E08C821233EE0234FA900484E0FEA3E08E82F519
:023DCE0083224E
:0B405F003C4E4F20464C4F41543E00A9
:183DD000AA82AB83123DE86003A380F8C3E5829AF582E5839BF58322F4
:20200600E58124FCC3C8C0E0C082E608467006E5824583601218E58296F58208E5839642A8
:1B2026008208E5F0964582D082C8D0E0C822758146122090E582600302200342
:1C3DE80020F71430F6148883A88220F507E6A88375830022E280F7E49322E022EA
:00000001FF
