:0320000002203487
:03208D000220032B
:032003000238A4FC
:2020900090000022E582900017F0E0FF24A592004007BF410092005016900017E0FF2485D8
:2020B00092004007BF610092005004C2008002D200A200E433F58222AFF0AE83E582900002
:2020D00018F0EEA3F0EFA3F0900018E0FDA3E0FEA3E0FF74022DFAE43EFB8F048A828B83F6
:2020F0008CF0E4124328A312432874062DFAE43EFB8F048A828B838CF0E4124328A3124393
:202110002874082DFAE43EFB8F048A828B838CF0E4124328A3124328A31243288D828E83DD
:202130008FF0124F82FBA3124F82FC7A0074042DFDE43EFE8D828E838FF0124F82FDA31240
:202150004F82FE902088E4F0902089EDF0EEA3F08B828C838AF00241DCAF83E58290001B04
:20217000F0EFA3F090000B12437FAE82AD837F00EE4D7006900000F5F02274042EFAE43D86
:20219000FB8F0490001BE0F8A3E0F98A828B838CF0E8124328A3E912432888828983C007C1
:2021B000C006C00512437FAB82AC83D005D006D0078E828D838FF0EB124328A3EC124328BF
:2021D000EB4C70168E028D038F048A828B838CF012401190000075F000228E828D838FF0D0
:2021F000C007C006C0051220C8D005D006D0078E828D838FF022E58290001DF0E0FFBF306E
:202210000092014007EF24C692015004C2018002D201A201E433F582229020D3E4F0A3F0BF
:20223000A3F0749EC0E0744FC0E07480C0E01245561581158115811239A91239A2124F6A37
:20225000AE82AF83BE0232BF002F1239A2124F82F582122206E58260201239A2AD82AE8377
:20227000AFF00DBD00010E8D828E838FF0124F82F582122206E582701774CDC0E0744FC051
:20229000E07480C0E012455615811581158180921239A2124204858225E583F52620E7112D
:2022B000C37463952574808526F063F08095F050187407C0E07450C0E07480C0E0124556AB
:2022D00015811581158102223290001EE4F07404A3F0902088E4F09020897416F0E4A3F013
:2022F00090000175F0001241DC90209A74022525F0E43526A3F090000A1244E8AC82AD83A7
:2023100090001EE0FAA3E0FB8A828B83C005C004122BFDAA82AB83D004D00578007900C313
:20233000E89402E9648094804003022434C004C00590209AE8F0E9A3F090000BC005C00446
:20235000C003C002C001C0001244E8858221858322D000D001D002D003D004D005E52124BE
:2023700001F523E5223400F5248A828B83C003C002C001C00012437FAC82AD83D000D001ED
:20239000D002D003852382852483ECF0EDA3F0EC4DD005D0047043C004C005C005C004C06F
:2023B00003C002122CB77446C0E07450C0E07480C0E0124556158115811581D002D003D01D
:2023D00004D005EA24FFFCEB34FFFD90001EECF0EDA3F0D005D004022310C004C005E52179
:2023F0002401FCE5223400FD8C828D83A3A3A3A3EAF0EBA3F07F008C828D838FF0C005C0D1
:2024100004C003C002C001C0001220C8D000D001D002D003D004D00508B8000109D005D04A
:202430000402232F7E007F00C3EE9402EF6480948040030224E68A828B83C007C006C0054E
:20245000C004C003C00212216985822785832885F029D002D003D004D005D006D007E52784
:202470004528703BC005C004C003C002122CB77446C0E07450C0E07480C0E012455615819C
:2024900015811581D002D003D004D005EA24FFF8EB34FFF990001EE8F0E9A3F002231090CF
:2024B000204AE527F0E528A3F0E529A3F09020D375F000C007C006C005C004C003C00212D0
:2024D0003B14D002D003D004D005D006D0070EBE00010F0224389020537402F0E4A3F090F8
:2024F00020D375F000C005C004C003C002123BFAD002D003D004D0058C068D078E828F8389
:20251000C005C004C003C002122169A982AE83AFF0D002D003D004D005E94E7043C004C04A
:2025300005C005C004C003C002122CB77446C0E07450C0E07480C0E0124556158115811543
:2025500081D002D003D004D005EA24FFF8EB34FFFD90001EE8F0EDA3F0D005D00402231098
:2025700090204AE9F0EEA3F0EFA3F09020D375F000C005C004C003C002123B14D002D00379
:20259000EA2AFEEB33FF8E828F83C003C002122169A982AE83AFF0D002D003D004D005E987
:2025B0004E7043C004C005C005C004C003C002122CB77446C0E07450C0E07480C0E01245D5
:2025D00056158115811581D002D003D004D005EA24FFF8EB34FFFD90001EE8F0EDA3F0D08F
:2025F00005D00402231090204AE9F0EEA3F0EFA3F09020D375F000C003C002123B14C02534
:20261000C026747FC0E07450C0E07480C0E0124556E58124FBF581D002D003C002C00374F3
:2026300094C0E07450C0E07480C0E0124556E58124FBF581900020E4F0A3F07E007F009012
:20265000209AEEF0EFA3F090000BC007C0061244E8AC82AD83D006D007EC2401F582ED3436
:2026700000F583E0FAA3E0FB4A700302270EEC2401FCED3400FD74042CFAE43DFB8A828B0A
:2026900083E0F525A3E0F5268C828D83E0F527A3E0F528E5252527FCE5263528FD8C2A8D5B
:2026B0002B752C00A827AD287C00C007C006C003C002C025C026C02AC02BC02CC000C005FB
:2026D000C004C006C00774ACC0E07450C0E07480C0E0124556E58124F3F581D002D003D0CC
:2026F00006D0078A828B83E0FAA3E0FB900020E0FCA3E0FD900020EA2CF0EB3DA3F00EBE32
:2027100000010FC3EE9402EF64809480500302264F9020D3E0FBA3E0FCA3E0FD900022EBA7
:20273000F0ECA3F0EDA3F08E2A8F2B900022E0FBA3E0FCA3E0FDEB4C700302281D8B828C12
:20275000838DF0124F82F9A3124F82FA4970030227E174042BFBE43CFC8B828C838DF012E2
:202770004F82F527A3124F82F528E52729FEE5283AFF8E2D8F2E752F007F00C005C004C05C
:2027900003C027C028C02DC02EC02FC001C002C007C02AC02B74ACC0E07450C0E07480C096
:2027B000E0124556E58124F3F581D003D004D0058B828C838DF0124F82FBA3124F82FC9084
:2027D0000020E0FEA3E0FF900020EB2EF0EC3FA3F0052AE4B52A02052B900022E0FDA3E0BC
:2027F000FEA3E0FF74082DFDE43EFE8D828E838FF0124F82FDA3124F82FEA3124F82FF906B
:202810000022EDF0EEA3F0EFA3F002273B900020E0C0E0A3E0C0E0743BC0E07420C0E0E488
:20283000C0E0743BC0E07400C0E0E4C0E074D8C0E07450C0E07480C0E0124556E58124F5F1
:20285000F581023B0CAFF0AE83E582900026F0EEA3F0EFA3F0900026E0FDA3E0FEA3E0FF33
:2028700074062DF532E43EF5338F348532828533838534F0124F82F530A3124F82F5317428
:20289000042DF8E43EF98F04888289838CF0124F82F8A3124F82F9C3E53098E53199400105
:2028B000228D828E838FF0124F82FBA3124F82FCE5302BFBE5313CFC900025E0FA8B828C36
:2028D00083F08532828533838534F0124F82FCA3124F82FB0CBC00010B853282853383852B
:2028F00034F0EC124328A3EB1243288A82C007C006C005122094E582D005D006D007602A99
:2029100074022DFDE43EFE8D828E838FF0124F82FBA3124F82FC0BBB00010C8D828E838F66
:20293000F0EB124328A3EC024328227401C0E07451C0E07480C0E012455615811581158194
:2029500022AFF0AE83E582900029F0EEA3F0EFA3F012293B900029E0C0E0A3E0C0E0A3E00D
:20297000C0E07434C0E07451C0E07480C0E0124556E58124FAF58102293B90513975F0805A
:2029900012295190002CE4F0A3F07E007F0090209AEEF0EFA3F090000BC007C0061244E86B
:2029B000AC82AD83D006D007EC2401F582ED3400F583E0FAA3E0FB4A7003022A83EC240106
:2029D000FCED3400FD74042CF535E43DF536853582853683E0F8A3E0F974062CF582E43DA7
:2029F000F583E0FAA3E0FBE8C39AF537E99BF5388C828D83A3A3E0F539A3E0F53A8C828D16
:202A100083E0F53BA3E0F53CE8253BFAE9353CFB8A3D8B3E753F00AC3BAD3C7B00C007C0B2
:202A300006C037C038C039C03AC000C001C03DC03EC03FC004C005C003C006C0077445C0D1
:202A5000E07451C0E07480C0E0124556E58124EFF581D006D007853582853683E0FCA3E06B
:202A7000FD90002CE0FAA3E0FB90002CEC2AF0ED3BA3F00EBE00010FC3EE9402EF6480942E
:202A900080500302299E9020D3E0FBA3E0FCA3E0FD90002EEBF0ECA3F0EDA3F08E3D8F3EFD
:202AB00090002EE0FBA3E0FCA3E0FDEB4C7003022BB28B828C838DF0124F82F9A3124F82EA
:202AD000FA497003022B7674042BF540E43CF5418D428540828541838542F0124F82FEA3C5
:202AF000124F82FF74022BFBE43CFC8B828C838DF0124F82F539A3124F82F53AEEC395394E
:202B1000F53BEF953AF53CEE29F8EF3AFC7D007B00C03BC03CC039C03AC006C007C000C063
:202B300004C005C001C002C003C03DC03E7445C0E07451C0E07480C0E0124556E58124EF03
:202B5000F5818540828541838542F0124F82FEA3124F82FF90002CE0FCA3E0FD90002CEE80
:202B70002CF0EF3DA3F0053DE4B53D02053E90002EE0FDA3E0FEA3E0FF74082DFDE43EFEA9
:202B90008D828E838FF0124F82FDA3124F82FEA3124F82FF90002EEDF0EEA3F0EFA3F002FD
:202BB0002AB090002CE0C0E0A3E0C0E0743BC0E07420C0E0E4C0E0743BC0E07400C0E0E47E
:202BD000C0E074D8C0E07450C0E07480C0E0124556E58124F5F58174A7C0E07451C0E0742B
:202BF00080C0E012455615811581158122AF83E582900031F0EFA3F0900031E0FEA3E0FF27
:202C1000C007C006C006C00774AAC0E07451C0E07480C0E0124556E58124FBF5811239A937
:202C30001239A2124204AC82AD83D006D007C3EE9CEF9D501FC007C00674F0C0E07451C0D6
:202C5000E07480C0E0124556158115811581D006D00780ACC3EC9440ED94005020C007C0AD
:202C7000067418C0E07452C0E07480C0E0124556158115811581D006D007022C10EC541F5F
:202C90006020C007C006744DC0E07452C0E07480C0E0124556158115811581D006D007029E
:202CB0002C108C828D83227478C0E07452C0E07480C0E01245561581158115817E007F0096
:202CD000C3EE9402EF648094804003022D6190209AEEF0EFA3F090000BC007C0061244E8D3
:202CF000AC82AD83D006D007EC2401F582ED3400F583E0FCA3E0FD4C60137B008C828D83E4
:202D10008BF0C007C006124011D006D00790209AEEF0EFA3F090000BC007C0061244E8ACCF
:202D300082AD83D006D007EC2401F582ED3400F583E4F0A3F0EC2401FCED3400FD8C828DD6
:202D500083A3A3A3A3E4F0A3F00EBE00010F022CD09020D375F000023DAC12298A123B002E
:202D7000AE82AF83C007C006123B0CD006D007C006C007748FC0E07452C0E07480C0E01212
:202D90004556E58124FBF581900033E4F0A3F07E007F00C3EE9402EF648094804003022FC4
:202DB0006490209AEEF0EFA3F090000BC007C0061244E8AC82AD83D006D007EC2401F582FC
:202DD000ED3400F583E0FAA3E0FB8A828B83E0900035F0EC2401FAED3400FB74042AFAE49C
:202DF0003BFBEC2401FCED3400FD900033E0F8A3E0F9E4F543F544900035E07003022ED7D7
:202E1000C004C0058A828B83E0FCA3E0FDC3E5439CE5449DD005D0044003022ED7E8541F08
:202E30007035C007C006C005C004C003C002C001C00074A7C0E07451C0E07480C0E01245B6
:202E500056158115811581D000D001D002D003D004D005D006D007C002C003900035E0FB89
:202E70007A00C007C006C005C004C003C002C001C000C003C00274C0C0E07452C0E07480F9
:202E9000C0E0124556E58124FBF581D000D001D002D003D004D005D006D00708B800010974
:202EB0000543E4B5430205448C828D83E0FAA3E0FBE5432AF582E5443BF583E0900035F0E3
:202ED000D003D002022E07900033E8F0E9A3F090209AEEF0EFA3F090000BC007C0061244C7
:202EF000E8AC82AD83EC2401F582ED3400F583E0FAA3E0FB8A458B46754700EC2401FCEDAD
:202F10003400FD8C828D83A3A3A3A3E0F8A3E0FB902088E4F0902089E8F0EBA3F085458289
:202F30008546838547F0C005C0041241DCD004D005D006D0078C828D83A3A3E4F0A3F0742A
:202F5000062CF582E43DF583E4F0A3F00EBE00010F022DA374A7C0E07451C0E07480C0E056
:202F700012455615811581158174A7C0E07451C0E07480C0E01245561581158115812290FD
:202F900052C375F0801229517E007F00C3EE9402EF64809480400122C007C006C006C007F3
:202FB00074D6C0E07452C0E07480C0E0124556E58124FBF58174E4C0E07452C0E07480C063
:202FD000E0124556158115811581D006D00790209AEEF0EFA3F090000BC007C0061244E8D5
:202FF000AC82AD83D006D007EC2401FAED3400FB8A828B83E0F8A3E0F988488949754A00C0
:203010008E008F018A4F8B50EC2401FCED3400FD74042CF54BE43DF54CC000C001854F8286
:20303000855083E0F8A3E0F9854B82854C83E0FCA3E0FDEC28F54DED39F54EA948AC49AD80
:203050004AA84DAA4E7B00C000C002C00389828C838DF0122006158115811581D001D00037
:203070004003023115AB48AC49C001C000C003C00474F1C0E07452C0E07480C0E012455619
:20309000E58124FBF581D000D001AB48AC49AD4AE4F54DF54EC3E54D9410E54E6480948078
:2030B0005055C000C001E54D2BF8E54E3CF98D02888289838AF0124F82F87A00C005C00420
:2030D000C003C001C000C000C00274F9C0E07452C0E07480C0E0124556E58124FBF581D09B
:2030F00000D001D003D004D005054DE4B54D02054ED001D000809E74102548F548E4354997
:20311000F549023029C001C00074A7C0E07451C0E07480C0E0124556158115811581D00092
:20313000D001740128FEE439FF022F9C90530175F0801229517E007F00C3EE9402EF6480BE
:20315000948040030231E890209AEEF0EFA3F090000BC007C0061244E8AC82AD83D006D0D9
:2031700007EC2401F582ED3400F583E0FAA3E0FB4A605DC006C0078B017B00EC2401FCED2A
:203190003400FD8C828D83A3A3A3A3E0F8A3E0FF902088E4F0902089E8F0EFA3F08A8289B6
:2031B000838BF0C007C006C005C0041241DCD004D005D006D00774062CF582E43DF583E4CC
:2031D000F0A3F08C828D83A3A3F0A3F0D007D0060EBE00010F0231499020D3E0FDA3E0FE8F
:2031F000A3E0FF900036EDF0EEA3F0EFA3F0900036E0FDA3E0FEA3E0FFED4E7001228D8214
:203210008E838FF0124F82FBA3124F82FC8B518C5275530074042DF8E43EF98F048882894E
:20323000838CF0124F82F8A3124F82F9902088E4F0902089E8F0E9A3F08551828552838555
:2032500053F0C007C006C0051241DCD005D006D00774062DFAE43EFB8F048A828B838CF031
:20327000E4124328A312432874022DFAE43EFB8F048A828B838CF0E4124328A312432874E5
:20329000082DFDE43EFE8D828E838FF0124F82FDA3124F82FEA3124F82FF900036EDF0EEB3
:2032B000A3F0EFA3F00231FE90530F75F080122951D2909020D3E0FEA3E0FDA3E0FFEE4D55
:2032D000601F74082EFEE43DFD8E828D838FF0124F82FEA3124F82FDA3124F82FFEE4D7066
:2032F00018C290742BC0E07453C0E07480C0E0124556158115811581228E028D038F047462
:20331000042EFEE43DFD8E828D838FF0124F82FEA3124F82FF900005E0F9A3E0FDC3E99E12
:20333000ED9F500689548D5580048E548F558A828B838CF0124F82FEA3124F82F87F00908E
:203350000001E0F9A3E0FD902080E9F0EDA3F0E4A3F0902083E554F0E555A3F08E828883BF
:203370008FF0C004C003C002124168D002D003D00474022AFDE43BFE8C07900003E0F8A3E6
:20339000E0F98D828E838FF0E8124328A3E912432874062AFAE43BFB900007E0FEA3E0FF88
:2033B0008A828B838CF0EE124328A3EF124328C290744EC0E07453C0E07480C0E012455691
:2033D0001581158115812290535675F080122951D2909020D3E0FDA3E0FEA3E0FFED4E60EF
:2033F0001F74082DFDE43EFE8D828E838FF0124F82FDA3124F82FEA3124F82FFED4E7003A2
:20341000C290228D028E038F0474062DFDE43EFE78007900C002C003C0048D828E838FF0D8
:20343000124F82FBA3124F82FCC3E89BE99CD004D003D002506BC005C006C0078A828B83B1
:203450008CF0124F82FEA3124F82FFE82EF582E93FF583E0F556C3745A9556D007D006D029
:2034700005500674BF25565030C005C006C0078A828B838CF0124F82FEA3124F82FFE82E4F
:20349000FEE93FFF8E828F83E0FD4305208E828F83EDF0D007D006D00508B800010902340F
:2034B00024C290744EC0E07453C0E07480C0E01245561581158115812290537A75F0801244
:2034D0002951748AC0E07453C0E07480C0E01245561581158115811239A91239A212420421
:2034F000AE82AF83C374589E74828FF063F08095F0400AEE94C8EF64809480501774C0C08A
:20351000E07453C0E07480C0E012455615811581158180AE8E828F83122169AD82AE83AF56
:20353000F0ED4E701674E9C0E07453C0E07480C0E01245561581158115812290204AEDF06A
:20355000EEA3F0EFA3F09020D375F000123B147426C0E07454C0E07480C0E0124556158196
:20357000158115812290545275F0801229519020D375F000123ECDAE82AF8374012EFCE45C
:203590003FFDC007C006C004C005745EC0E07454C0E07480C0E0124556E58124FBF58112A1
:2035B00039A91239A2124204AC82AD83D006D007ED30E71674A6C0E07454C0E07480C0E0F9
:2035D00012455615811581158122C374019C74808DF063F08095F0401674D4C0E07454C0E7
:2035F000E07480C0E0124556158115811581228C028D03C3EA9EEB9F4016740AC0E0745586
:20361000C0E07480C0E012455615811581158122EC24FEFCED34FFFD902053ECF0EDA3F04F
:203630009020D375F000123BFAE58260167431C0E07455C0E07480C0E01245561581158153
:203650001581227450C0E07455C0E07480C0E0124556158115811581227475C0E07455C09E
:20367000E07480C0E012455615811581158175A61E75A6E180FE90558875F0801229519036
:2036900020D375F000123ECDAE82AF8374012EFCE43FFDC007C006C004C0057497C0E0744F
:2036B00055C0E07480C0E0124556E58124FBF5811239A91239A2124204AC82AD83D006D08C
:2036D00007C3EC9402ED64809480401274022EFEE43FFF8C028D03C3EA9EEB9F401674BA1C
:2036F000C0E07455C0E07480C0E012455615811581158122EC24FEFEED34FFFF90206CEE57
:20371000F0EFA3F09020D375F000C005C004123F58AB82AE83AFF0D004D005EB4E70167434
:20373000E7C0E07455C0E07480C0E012455615811581158122C007C006C003C004C0057417
:2037500007C0E07456C0E07480C0E0124556E58124FBF58174E4C0E07452C0E07480C0E01A
:20377000124556158115811581D003D006D0078B828E838FF0124F82FCA3124F82FA7D00D1
:2037900074042BF557E43EF5588F598B828E838FF0124F82F8A3124F82F9C003C006C0078C
:2037B0008557828558838559F0124F82FEA3124F82FFEE28F55AEF39F55B8C5C8A5D8D5E70
:2037D000AB5AAE5B7F00C003C006C007855C82855D83855EF0122006158115811581D00790
:2037F000D006D003400302388EECC398F8EA99E8541F7043C003C006C0078C008A018D073A
:20381000C007C006C005C004C003C002C000C00174F1C0E07452C0E07480C0E0124556E5EB
:203830008124FBF581D002D003D004D005D006D007D007D006D0038C828A838DF0124F826C
:20385000F9A3AC82AA8389007900C007C006C005C004C003C002C000C00174F9C0E0745270
:20387000C0E07480C0E0124556E58124FBF581D002D003D004D005D006D00702379B74A772
:20389000C0E07451C0E07480C0E0124556158115811581221222297414C0E07456C0E0748B
:2038B00080C0E0124556158115811581123ADDAF82C007122094E582D0076014900025EF2C
:2038D000F090000175F000C007122855D0078012900025EFF090000C75F000C00712285548
:2038F000D007BF2302804CBF24028042BF25028030BF26028051BF2A028047BF2B028038E6
:20391000BF2D028038BF3D028012BF3F028008BF400280120238A7122D6A802E122F8F80BE
:203930002912313C8024122CB7122229801C1232B880171233D780121234C9800D123575A4
:20395000800812366980031236867425C0E07456C0E07480C0E01245561581158115811215
:05397000293B0238A70D
:204F9E000D0A506C6561736520656E74657220746865206C6173742074776F2064696769D8
:204FBE007473206F6620796F75722049443A000D0A20446964206E6F7420656E746572200A
:204FDE0076616C69642074776F206469676974206E756D6265722C20706C656173652074F5
:204FFE00727920616761696E000D0A41746F69206572726F723A206E756D62657220696EC0
:20501E0076616C6964206F72206F7574206F662072616E67652C20706C65617365207472FB
:20503E007920616761696E000D0A4275666665722053697A6520746F6F206269672C20700D
:20505E006C65617365207069636B206120736D616C6C6572206275666665722073697A655B
:20507E00000D0A73747564656E745F6E756D6265723A202564000D0A757365725F627566B7
:20509E006665725F73697A653A20257A75000D0A6275666665725F256420737461727473F3
:2050BE0020402025702C20656E6473204025702C2073697A6520257A75000D0A4865617002
:2050DE002073746172747320402025702C20656E647320402025702C2073697A653A20254B
:2050FE007A75000D0A2D2D2D2D2D2D2D2D2D2D2D2D2D2D2D2D2D2D2D2D2D2D2D2D2D2D2DCD
:20511E002D2D2D2D2D2D2D2D2D2D2D2D2D2D2D2D2D2D2D2D2D000D0A257300486561702073
:20513E005265706F7274000D0A6275666665725F25642073746172747320402025702C203A
:20515E00656E6473204025702C2073697A6520257A752C20636F6E7461696E7320257A7578
:20517E0020616C7068616265742063686172732C2068617320257A75206368617273207200
:20519E00656D61696E696E67000D0A000D0A506C6561736520656E74657220612076616CFF
:2051BE006964206275666665722073697A65207468617420697320646976697369626C65E7
:2051DE00206279203332205B36342C257A755D3A20000D0A205573657220627566666572E5
:2051FE002073697A65206C6172676572207468616E206D6178696D756D000D0A20557365CC
:20521E0072206275666665722073697A6520746F6F20736D616C6C206F72206572726F7293
:20523E0020696E20636F6E76657273696F6E000D0A20557365722062756666657220736987
:20525E007A65206973206E6F7420646976697369626C65206279203332000D0A2046726535
:20527E0065696E6720414C4C2042554646455253000D0A20526563656976656420257A75B5
:20529E002063686172732073696E6365206C61737420696E766F636174696F6E206F66204A
:2052BE003F0025630044756D702041646D696E2042756666657273000D0A2042756666655E
:2052DE007220256420000D0A2D2D2D2D2D2D2D2D2D2D000D0A253034583A0020253032685B
:2052FE00685800436C656172204275666665727300436F7079206275666665725F302069AF
:20531E006E746F206275666665725F33000D0A206275666665725F33206E6F7420616C6CE5
:20533E006F63617465643B2065786974696E67000D0A20446F6E6500436F6E7665727420CE
:20535E006275666665725F3320636861727320746F206C6F77657263617365000D0A204192
:20537E006C6C6F6320427566666572000D0A506C6561736520656E74657220612073697A45
:20539E006520666F7220746865206E6577206275666665722C205B3230302C3630305D3A2C
:2053BE0020000D0A4275666665722073697A6520696E76616C6964212120506C65617365A0
:2053DE002074727920616761696E000D0A20416C6C6F636174696F6E206661696C65643B13
:2053FE002061626C6520746F20616C6C6F636174652068656164657220627574206E6F740E
:20541E0020627566666572000D0A20416C6C6F636174696F6E207375636365737366756C37
:20543E002121204E657720627566666572206164646564004672656520427566666572001A
:20545E000D0A506C6561736520656E74657220746865206E756D626572206F66207468651F
:20547E002062756666657220796F7520776F756C64206C696B6520746F20667265655B3295
:20549E002D257A755D3A20000D0A20496E76616C696420627566666572206E756D626572B5
:2054BE002C206E6567617469766573206E6F742076616C6964000D0A20496E76616C69641D
:2054DE0020627566666572206E756D6265722C206275666665727320302026203120617258
:2054FE00652070726F746563746564000D0A20496E76616C696420427566666572206E75C4
:20551E006D6265723B206F7574206F662072616E6765000D0A205375636365737366756C9B
:20553E006C792072656D6F76656420627566666572000D0A204661696C656420746F2072AB
:20555E00656D6F7665206275666665722C206C6C206572726F72000D0A5265736574746912
:20557E006E6720646576696365000D0A2044756D7020427566666572000D0A456E7465724C
:20559E0020612076616C6964206275666665722023205B322D257A755D3A20000D0A496EEC
:2055BE0076616C696420627566666572206E756D6265723B2072657475726E696E672074AD
:2055DE006F2070726F6D7074000D0A4C4C206572726F723B2072657475726E696E672074B6
:2055FE006F2070726F6D7074000D0A20427566666572202564000D0A456E7465722061206C
:15561E00636861723A20000D0A454E4420434F4D4D414E440072
:0356400000000067
:20397500AF83E582900039F0EFA3F010990280FB900039E0FEA3E0FF8E998E828F83221094
:0D399500980280FBAE997F008E828F832206
:02563300002055
:2039A20090203B75F00022902088E4F0902089740AF0E4A3F090203B75F0001241DC90203A
:2039C20047743BF07420A3F0E4A3F0123994AE828E057F008D828F83C006123975D006E4DF
:2039E200BE080104FF6014900020C007C006123975900008123975D006D007BE0D03D38064
:203A020001C392024037BE0A028032EE602FBE7F02802ABE08028025902047E0FBA3E0FC35
:203A2200A3E0FD8B828C838DF0EE12432890204774012BF0E43CA3F0EDA3F08054BE7F0233
:203A42008003EF604C902047E0FCA3E0FDA3E0FF743BC0E07420C0E0E4C0E08C828D838FBD
:203A6200F012200615811581158160101CBCFF011D902047ECF0EDA3F0EFA3F0902047E049
:203A8200FCA3E0FDA3E0FF8C828D838FF0E4124328200232BE0A02802DEE602A902047E00E
:203AA200FDA3E0FEA3E0FF7444C0E07420C0E0E4C0E08D828E838FF01220061581158115DC
:203AC2008150030239CD902047E0FDA3E0FEA3E0FF8D828E838FF0E4024328123994AE8232
:203AE2008E057F008D828F83C006123975D006902045E02401F0A3E03400F08E82229020C2
:123B020045E0FEA3E08E82F58322902045E4F0A3F022E3
:203B1400AFF0AE83E58290204DF0EEA3F0EFA3F090204DE0F51BA3E0F51CA3E0F51D851BB4
:203B340082851C83851DF0124F82FAA3124F82FBA3124F82FCEA4B702490204AE0F8A3E03B
:203B5400F9A3E0FF851B82851C83851DF0E8124328A3E9124328A3EF1243288061902050A0
:203B7400EAF0EBA3F0ECA3F0902050E0FDA3E0FEA3E0FF74082DFDE43EFE8D828E838FF015
:203B9400124F82FAA3124F82FBA3124F82FCEA4B600D902050EAF0EBA3F0ECA3F080C990DF
:203BB400204AE0FAA3E0FBA3E0FC8D828E838FF0EA124328A3EB124328A3EC1243289020E3
:203BD4004AE0FDA3E0FEA3E0FF74082DFDE43EFE8D828E838FF0E4124328A3124328A3120C
:203BF400432875820122AFF0AE83E582902055F0EEA3F0EFA3F0902055E0F508A3E0F5099A
:203C1400A3E0F50AE50845097003F58222850882850983850AF0124F82FAA3124F82FBA327
:203C3400124F82FCEA4B7003F58222902053E0F8A3E0F9902053E0F5F0A3E045F070429037
:203C54002058EAF0EBA3F0ECA3F074082AFDE43BFE8C078D828E838FF0124F82FDA3124F2B
:203C740082FEA3124F82FF850882850983850AF0ED124328A3EE124328A3EF124328023DC6
:203C94005D90205BEAF0EBA3F0ECA3F018B8FF0119902053E8F0E9A3F0902053E0FEA3E02D
:203CB400FFEE4F603C90205BE0FBA3E0FCA3E0FD74082BFBE43CFC8B828C838DF0124F82F9
:203CD400FBA3124F82FCA3124F82FDEB4C601290205BEBF0ECA3F0EDA3F01EBEFF011F80C7
:203CF400C0EE4F60047582002290205BE0FDA3E0FEA3E0FF74082DFDE43EFE8D828E838FD6
:203D1400F0124F82FAA3124F82FBA3124F82FC902058EAF0EBA3F0ECA3F074082AFAE43B21
:203D3400FB8A828B838CF0124F82FAA3124F82FBA3124F82FC8D828E838FF0EA124328A355
:203D5400EB124328A3EC124328902058E0FEA3E0FDA3E0FF902058E0F5F0A3E045F07003FB
:203D7400F582228E828D838FF0124F82FEA3124F82FF4E600B7D008E828F838DF012401159
:203D9400902058E0FDA3E0FEA3E0FF8D828E838FF012401175820122AFF0AE83E582902024
:203DB4005EF0EEA3F0EFA3F090205EE0FDA3E0FEA3E0FF8D828E838FF0124F82FAA3124F30
:203DD40082FBA3124F82FC902061EAF0EBA3F0ECA3F090205EE0FAA3E0FBA3E0FC8A828B6C
:203DF400838CF0124F82F50BA3124F82F50CA3124F82F50DE50B450C700122C005C006C09F
:203E1400077408250BF8E4350CF9AF0D888289838FF0124F82F8A3124F82F9A3124F82FF95
:203E34008A828B838CF0E8124328A3E9124328A3EF124328902061E0FDA3E0FEA3E0FF8DDD
:203E5400828E838FF0124F82F50BA3124F82F50CD007D006D005E50B450C601BAB0BAC0C26
:203E74007A008B828C838AF0C007C006C005124011D005D006D007902061E0FAA3E0FBA3DB
:203E9400E0FC8A828B838CF0C007C006C005124011D005D006D0078D828E838FF0124F82E3
:203EB400FAA3124F82FBA3124F82FC902061EAF0EBA3F0ECA3F0023DE6AFF0AE83E582901D
:203ED4002064F0EEA3F0EFA3F0902064E0FDA3E0FEA3E0FF8D828E838FF0124F82FDA3122F
:203EF4004F82FEA3124F82FF902069EDF0EEA3F0EFA3F0902067E0FEA3E0FF902069E0FBF6
:203F1400A3E0FCA3E0FD902069E0F5F0A3E045F0602D0EBE00010F74082BFBE43CFC8B82C4
:203F34008C838DF0124F82FBA3124F82FCA3124F82FD902069EBF0ECA3F0EDA3F080BC8E41
:203F5400828F8322AFF0AE83E58290206EF0EEA3F0EFA3F090206EE0FDA3E0FEA3E0FF8DC4
:203F7400828E838FF0124F82FDA3124F82FEA3124F82FF902071EDF0EEA3F0EFA3F0902081
:203F94006CE0FEA3E0FF902071E0FBA3E0FCA3E0FD902071E0F5F0A3E045F06031EE4F607A
:203FB4002D74082BFBE43CFC8B828C838DF0124F82FBA3124F82FCA3124F82FD902071EB7A
:203FD400F0ECA3F0EDA3F01EBEFF011F80B8902071E0FDA3E0FEA3E0FF8D828E838FF022E9
:1D3FF400AF83E582902075F0EFA3F0902075E0FEA3E0FF902074E08E828F83F022C3
:20401100AFF0AE83E582902077F0EEA3F0EFA3F0902077E0FDA3E0FEA3E0902077E0F5F04A
:20403100A3E045F070012290207CE4F0A3F0902092E0FBA3E0FC90207AEBF0ECA3F09020C1
:204051007E7492F07420A3F090207AE0FBA3E0FC4B60418B018C02C003C0048D008E04C3C1
:20407100E998EA9CD004D003502A90207CEBF0ECA3F074022BFBE43CFC90207EEBF0ECA331
:20409100F08B828C83E0FBA3E0FC90207AEBF0ECA3F080B490207AE0FEA3E0FF902077E060
:2040B100FBA3E0FCA3E0EB24FEFBEC34FFFC74022BFAE43CFD8A828D83EEF0EFA3F09020EB
:2040D1007EE0F8A3E0F988828983EBF0ECA3F08B828C83E0F8A3E0F9EEB50033EFB5012F73
:2040F10088828983A3A3E0FEA3E0FF8A828D83EEF0EFA3F08B828C83E0FEA3E0FF8E828F5C
:2041110083E0FEA3E0FF8B828C83EEF0EFA3F090207CE0FEA3E0FF4E603C8E828F83E0F8BF
:20413100A3E0F9E8B5032FE9B5042B8B828C83E0FBA3E0FC8E828F83EBF0ECA3F074022EC0
:17415100FEE43FFF8A828D83E0FAA3E0FD8E828F83EAF0EDA3F02223
:06206300E478FFF6D8FD51
:20416800AFF0AE83E582902085F0EEA3F0EFA3F0902085E0F51BA3E0F51CA3E0F51DAA1BC5
:20418800AB1CAC1D902080E0F8A3E0F9A3E0FF902083E0F51EA3E0F51FAD1EAE1F151E7485
:2041A800FFB51E02151FED4E6020888289838FF0124F82FEA3A882A9838A828B838CF0EE41
:1441C800124328A3AA82AB8380CF851B82851C83851DF02220
:2041DC00AC82AD83902089E0FEA3E0FFBE000360121F0F902088E08C828D83124328A3DE37
:0841FC00FADFF88C828D8322AA
:20420400AFF0AE83E58290208BF0EEA3F0EFA3F090208EE4F0A3F090208BE0FDA3E0FEA354
:20422400E0FF8D828E838FF0124F82FCBC20028003BC09120DBD00010E90208BEDF0EEA363
:20424400F0EFA3F080DC90208BEDF0EEA3F0EFA3F08D828E838FF0124F82FC902090E4BC13
:204264002D0104F0BC2D028003BC2B0E90208B74012DF0E43EA3F0EFA3F090208BE0FDA3F6
:20428400E0FEA3E0FF8D828E838FF0124F82FCBC30009203405FEC24C69203405890208EDB
:2042A400E0FBA3E0FC90209AEBF0ECA3F090000AC007C006C0051244E8AB82AC83D005D0D1
:2042C40006D0078D828E838FF0124F82FAA3AD82AE8390208BEDF0EEA3F0EFA3F08A017A5E
:2042E40000E924D0F9EA34FFFA90208EE92BF0EA3CA3F0809090208BEDF0EEA3F0EFA3F0A7
:20430400902090E0601190208EE0FEA3E0FFC3E49EFEE49FFF800890208EE0FEA3E0FF8EF1
:04432400828F8322DF
:202041007903E94400601B7A0190564078D375A020E493F2A308B8000205A0D9F4DAF275B9
:02206100A0FFDE
:1B43280020F71130F6138883A88220F509F6A8837583002280FEF280F5F02294
:20434300902092743BF07400A3F0905633E493FE740193FF1EBEFF011FEE243BFEEF340074
:20436300FF90003BEEF0EFA3F0902092E0FEA3E0FF8E828F83A3A3E4F0A3F022AF83E582E4
:20438300902094F0EFA3F0902092E0F5F0A3E045F07003124343902094E0FEA3E0FF4E6048
:2043A3000E74022EFCE43FFDC3EC9EED9F50049000002290209474022EF0E43FA3F090200F
:2043C30094E0FEA3E0FFC3EE9404EF940050099020947404F0E4A3F0902092E0FEA3E0FFFC
:2043E300902096EEF0EFA3F09020987492F07420A3F0902096E0FEA3E0FF4E70030244E41E
:204403008E828F83E0FCA3E0FD8C028D038E008F01EAC398FAEB99FB8A008B01902094E0E7
:20442300F50EA3E0F50FC3E8950EE9950F50030244C17404250EF8E4350FF9C3EA98EB992D
:20444300404C8E028F03E50E2AFAE50F3BFB8A828B83ECF0EDA3F074022AFCE43BFD8E822C
:204463008F83A3A3E0F8A3E0F98C828D83E8F0E9A3F0902098E0FCA3E0FD8C828D83EAF07F
:20448300EBA3F08E828F83EAF0EBA3F0801C902098E0FCA3E0FD8E828F83A3A3E0FAA3E01C
:2044A300FB8C828D83EAF0EBA3F0902096E0FCA3E0FD74022CFCE43DFD8C828D8322740274
:2044C3002EFEE43FFF902098EEF0EFA3F08E828F83E0FEA3E0FF902096EEF0EFA3F0024376
:0544E300F5900000222D
:2044E800AA83AB828BF090209AE0A4F8A9F08AF0E0A429F98BF0A3E0A429F58388822222CF
:202069007800E84400600A790175A000E4F309D8FC78D2E84420600C7921900001E4F0A362
:04208900D8FCD9FAAC
:20450800C01A85811A7E008E83123975D01A22AFF0AE83E58290209DF0EEA3F0EFA3F09037
:20452800209DE0FDA3E0FEA3E0FF90209CE0FC9020B1E4F0A3F0A3F09020B4EDF0EEA3F091
:20454800EFA3F09020B7ECF090450802465CC01AE581F51A24FBFF9020B1E4F0A3F0A3F045
:20456800E51A24FBF89020B4E6F008E6A3F008E6A3F09020B7EFF090450812465CD01A22FE
:20458800E5829020ADF0E0FF9020A3E0C0E0A3E0C0E0A3E0C0E01245A3800D9020A1E0C0EF
:2045A800E0A3E0C0E08F82221581158115819020ABE02401F0A3E03400F022E5829020AE1D
:2045C800F0E02430FF24C6500D74072FFF9020A0E060034307208F82024588E5829020AF1D
:2045E800F0E0FFC4540FF582C0071245C3D00753070F8F820245C3E5829020B0F09020A6FD
:20460800E0FCA3E0FDA3E0FEA3E0FF9020AAE0FB9020B0E0FA79208B00E828F51BEF23541A
:2046280001451BFBEC2CFCED33FDEE33FEEF33FFC3EB9A4007EBC39AFB43040119E970D742
:204648009020A6ECF0EDA3F0EEA3F0EFA3F09020AAEBF022AF83E5829020B8F0EFA3F09043
:2046680020B8E0FEA3E0FF9020A1EEF0EFA3F09020B1E0FDA3E0FEA3E0FF9020A3EDF0EEEA
:20468800A3F0EFA3F09020ABE4F0A3F09020B4E0FDA3E0FEA3E0FF8D828E838FF0124F8275
:2046A800FC9020B474012DF0E43EA3F0EFA3F0EC7003024F5EBC25028003024F569020BA44
:2046C800E4F09020BBF09020BCF09020BDF09020BEF09020BFF09020C0F09020C1F09020BC
:2046E800C3F09020C4F0A3F09020C614F0A3F09020B4E0FDA3E0FEA3E0FF8D828E838FF018
:20470800124F82FBA3AD82AE839020B4EDF0EEA3F0EFA3F09020CAEBF0BB25088B821245CB
:2047280088024694BB300050030247F5EB24C650030247F59020C6E0F510A3E0F51174FFD4
:20474800B51063B51160C005C006C0079020C4E0FAA3E0FF90209AEAF0EFA3F090000AC0E1
:2047680005C0031244E8AE82AF83D003D0058B027D00EA2EFEED3FFFEE24D0FEEF34FFFFD5
:204788009020C4EEF0EFA3F0D007D006D0059020C4E0F5F0A3E045F060030247029020BBB1
:2047A8007401F0024702C005C006C00790209AE510F0E511A3F090000AC006C005C003123D
:2047C80044E8AA82AF83D003D005D0067E00EB2AFAEE3FFFEA24D0FAEF34FFFF9020C6EAB7
:2047E800F0EFA3F0D007D006D0050247029020CAE0FBBB2E2FC005C006C0079020C6E0FA63
:20480800A3E0FFBAFF05BFFF028009D007D006D005024702D007D006D0059020C6E4F0A3CB
:20482800F0024702BB61004014EB2485400F9020CA74DF5BF09020A07401F080059020A040
:20484800E4F09020CAE0FBBB20028075BB2B028067BB2D028059BB4202806FBB4302807CD9
:20486800BB4403024AECBB4603024B12BB4803024702BB4903024AECBB4A03024702BB4CA9
:20488800028050BB4F03024AFABB5003024A5ABB53028077BB5403024702BB5503024B0271
:2048A800BB5803024B0ABB5A03024702024B1A9020BA7401F00247029020BC7401F0024785
:2048C800029020BD7401F00247029020BF7401F00247029020C07401F00247029020BFE023
:2048E800600E9020B7E014F9F09020CAE7F0800F9020B7E024FEFFF08F019020CAE7F09055
:2049080020CAE0F582124588024B299020B7E024FDFFF08F01870509870609870719199097
:2049280020A6EDF0EEA3F0EFA3F08D828E838FF0124F6A8582108583119020C6E0FAA3E05C
:20494800FDBAFF0DBDFF0A9020C6E510F0E511A3F09020BAE0704B9020C4E0FAA3E0FDC34C
:20496800E5109AE5119D503A9020C4EAC39510F0ED9511A3F09020C4E0FAA3E0FD8A068DBC
:20498800071ABAFF011DEE4F6010758220C005C002124588D002D00580E39020C4EAF0EDA8
:2049A800A3F09020C6E0F513A3E0F5149020A6E0FAA3E0FDA3E0FF8A828D838FF0124F82C2
:2049C800F512603CC3E4951374808514F063F08095F0502C151374FFB513021514851282E5
:2049E8001245889020A6E0FAA3E0FDA3E0FF0ABA00010D9020A6EAF0EDA3F0EFA3F080AC6E
:204A08009020BAE07003024B299020C4E0FEA3E0FFC3E5109EE5119F4003024B299020C46F
:204A2800EEC39510F0EF9511A3F09020C4E0FEA3E0FF8E028F051EBEFF011FEA4D70030261
:204A48004B21758220C007C006124588D006D00780E09020B7E024FDFDF08D018715098743
:204A68001609871719199020A6E515F0E516A3F0E517A3F09020A8E0FDBD80004008902078
:204A8800CA7443F08020BD600040089020CA7450F08013BD400040089020CA7449F08006E5
:204AA8009020CA7458F09020CAE0FDF582C00512458875823A124588758230124588758239
:204AC80078124588D005BD4902800EBD500280099020A7E0F5821245E39020A6E0F58212CD
:204AE80045E3803D9020BE7401F09020C3740AF0802F9020C37408F080279020C3740AF0FF
:204B0800801F9020C37410F080179020C17401F0800F8B8212458880089020C4EEF0EFA3B3
:204B2800F09020C1E060719020B7E024FCFFF08F018703098705098706098707191919904E
:204B480020A6EBF0EDA3F0EEA3F0EFA3F09020A67435F07456A3F07480A3F09020A6E0F52B
:204B680015A3E0F516A3E0F51774012515FAE43516FBAF179020A6EAF0EBA3F0EFA3F085AD
:204B880015828516838517F0124F82FF70030246948F8212458880C39020C3E0700302465A
:204BA800949020BFE060479020B7E014F9F087077E007D007B009020A6EFF0EEA3F0EDA3D5
:204BC800F0EBA3F09020BEE06003024C6C9020A6E0FBA3E0A3E0A3E07D007E007F00902010
:204BE800A6EBF0EDA3F0EEA3F0EFA3F080769020C0E060289020B7E024FCFFF08F0187036B
:204C08000987050987060987071919199020A6EBF0EDA3F0EEA3F0EFA3F080489020B7E0BC
:204C280024FEFFF08F01870609870719EF3395E0FDFB9020A6EEF0EFA3F0EDA3F0EBA3F04B
:204C48009020BEE0701E9020A6E0FBA3E0FDA3E0A3E07E007F009020A6EBF0EDA3F0EEA37A
:204C6800F0EFA3F09020BEE060419020A6E0FBA3E0FDA3E0FEA3E0FF30E72B9020A6E0FBA4
:204C8800A3E0FDA3E0FEA3E0FFC3E49BFBE49DFDE49EFEE49FFF9020A6EBF0EDA3F0EEA38A
:204CA800F0EFA3F080059020BEE4F09020C27401F09020C3E0F5137518D0751920E4F5108D
:204CC800F5119020AAE4F08513821245FF9020C2E070339020AAE0C454F0F5159020AAE0AD
:204CE800C4540F4515F515851882851983E0FFE5154207851882851983EFF0151874FFB54B
:204D080018021519800C9020AAE0FF851882851983F00510E4B5100205119020C2E0B40171
:204D280000E433F09020A6E0FAA3E0FBA3E0FEA3E0FFEA4B4E4F708A9020D1E518F0E5197B
:204D4800A3F09020C8E510F0E511A3F09020C4E0F5F0A3E045F070099020C47401F0E4A308
:204D6800F09020BBE0FFE070479020BAE070418510188511199020C4E0FAA3E0FBC007AFC1
:204D8800180F8F067F00C3EE9AEF9BD0075019758220C007C003C002124588D002D003D004
:204DA800071ABAFF011B80D59020C4EAF0EBA3F09020BEE0602075822DC007124588D00765
:204DC8009020C4E024FFFDA3E034FFFE9020C4EDF0EEA3F080569020C8E0F5F0A3E045F006
:204DE800604A9020BCE0602075822BC007124588D0079020C4E024FFFDA3E034FFFE9020BE
:204E0800C4EDF0EEA3F080249020BDE0601E758220C007124588D0079020C4E024FFFDA34E
:204E2800E034FFFE9020C4EDF0EEA3F09020BAE070489020C8E0F518A3E0F5199020C4E03B
:204E4800FAA3E0FBC0078A068B071ABAFF011BC3E5189EE5199FD0075053EF60067D307E05
:204E68000080047D207E008D82C007C003C002124588D002D003D00780CA9020C4E0FEA396
:204E8800E0FF9020C8E0F518A3E0F519C3E5189EE5199F500F9020C4EEC39518F0EF95197C
:204EA800A3F080119020C4E4F0A3F080089020C4EAF0EBA3F09020D1E0FEA3E0FF9020C83E
:204EC800E0F518A3E0F519AA18AD19151874FFB518021519EA4D60459020C2E0B40100E460
:204EE80033F09020C2E070140EBE00010F8E828F83E0C4540FFD9020AAF0800E8E828F83B5
:204F0800E0FD53050F9020AAEDF09020AAE0F582C007C0061245C3D006D00780AA9020BA75
:204F2800E070030246949020C4E0FEA3E0FF8E038F051EBEFF011FEB4D70030246947582C8
:204F480020C007C006124588D006D00780E08C821245880246949020ABE0FEA3E08E82F526
:024F68008322A2
:0B5635003C4E4F20464C4F41543E00BD
:184F6A00AA82AB83124F826003A380F8C3E5829AF582E5839BF583229C
:20200600E58124FCC3C8C0E0C082E608467006E5824583601218E58296F58208E5839642A8
:1B2026008208E5F0964582D082C8D0E0C82275815E122090E58260030220032A
:1C4F820020F71430F6148883A88220F507E6A88375830022E280F7E49322E0223E
:00000001FF
