:0320000002203487
:03208D000220032B
:032003000234762E
:2020900090000022E582900017F0E0FF24A592004007BF410092005016900017E0FF2485D8
:2020B00092004007BF610092005004C2008002D200A200E433F58222AFF0AE83E582900002
:2020D00018F0EEA3F0EFA3F0900018E0FDA3E0FEA3E0FF74022DFAE43EFB8F048A828B83F6
:2020F0008CF0E4123D85A3123D8574062DFAE43EFB8F048A828B838CF0E4123D85A3123D94
:202110008574082DFAE43EFB8F048A828B838CF0E4123D85A3123D85A3123D858D828E837B
:202130008FF01249DFFBA31249DFFC7A0074042DFDE43EFE8D828E838FF01249DFFDA3123B
:2021500049DFFE90206FE4F0902070EDF0EEA3F08B828C838AF0023C39AF83E58290001B87
:20217000F0EFA3F090000B123DDCAE82AD837F00EE4D7006900000F5F02274042EFAE43D2F
:20219000FB8F0490001BE0F8A3E0F98A828B838CF0E8123D85A3E9123D8588828983C00713
:2021B000C006C005123DDCAB82AC83D005D006D0078E828D838FF0EB123D85A3EC123D85BA
:2021D000EB4C70168E028D038F048A828B838CF0123A6E90000075F000228E828D838FF079
:2021F000C007C006C0051220C8D005D006D0078E828D838FF0229020BAE4F0A3F0A3F07468
:20221000FBC0E07449C0E07480C0E0123FB315811581158112355312354C123C6185822554
:20223000E583F52620E7D8C37463952574808526F063F08095F040C790001DE4F07404A34E
:20225000F090206FE4F09020707416F0E4A3F090000175F000123C3974022525FCE4352602
:20227000FD90001DE0FAA3E0FB8A828B83C005C004122BACAA82AB83D004D00578007900CC
:20229000C3E89402E964809480400302241DC004C005902081E8F0E9A3F090000BC005C058
:2022B00004C003C002C001C000123F45858221858322D000D001D002D003D004D005E52127
:2022D0002401F523E5223400F5248A828B83C003C002C001C000123DDCAC82AD83D000D014
:2022F00001D002D003852382852483ECF0EDA3F07F00C005C004C003C002C001C000C004A4
:20231000C005C007C000C001742AC0E0744AC0E07480C0E0123FB3E58124F8F581D000D0D4
:2023300001D002D003D004D005852382852483E0FEA3E0FFD005D004EE4F703BC005C0046E
:20235000C003C002122C06744AC0E0744AC0E07480C0E0123FB3158115811581D002D003E9
:20237000D004D005EA24FFFEEB34FFFF90001DEEF0EFA3F0022271C004C005E5212401F531
:2023900023E5223400F524852382852483A3A3A3A3EAF0EBA3F0AC23AD247F008C828D833F
:2023B0008FF0C005C004C003C002C001C0001220C8D000D001D002D003D004D005852382EC
:2023D000852483E0FEA3E0FF7D00C005C004C003C002C001C000C006C007C005C000C00182
:2023F000742AC0E0744AC0E07480C0E0123FB3E58124F8F581D000D001D002D003D004D0B7
:202410000508B8000109D005D0040222907E007F00C3EE9404EF6480948040030224CF8A91
:20243000828B83C007C006C005C004C003C00212216985822785832885F029D002D003D054
:2024500004D005D006D007E5274528703BC005C004C003C002122C06744AC0E0744AC0E0B4
:202470007480C0E0123FB3158115811581D002D003D004D005EA24FFF8EB34FFF990001DDB
:20249000E8F0E9A3F0022271902041E527F0E528A3F0E529A3F09020BA75F000C007C006B9
:2024B000C005C004C003C002123698D002D003D004D005D006D0070EBE00010F0224219070
:2024D0002081ECF0EDA3F090000AC005C004C003C002123F45122169A982AE83D002D00314
:2024F000D004D005E94E703BC005C004C003C002122C06744AC0E0744AC0E07480C0E0128D
:202510003FB3158115811581D002D003D004D005EA24FFFEEB34FFFF90001DEEF0EFA3F074
:20253000022271EA2AFEEB33FF8E828F83C005C004C003C002122169A982AE83D002D003FA
:20255000D004D005E94E703BC005C004C003C002122C06744AC0E0744AC0E07480C0E0122C
:202570003FB3158115811581D002D003D004D005EA24FFFEEB34FFFF90001DEEF0EFA3F014
:20259000022271C003C002C025C0267483C0E0744AC0E07480C0E0123FB3E58124FBF581BE
:2025B000D002D003C002C0037498C0E0744AC0E07480C0E0123FB3E58124FBF58190001F95
:2025D000E4F0A3F07E007F00902081EEF0EFA3F090000BC007C006123F45AC82AD83D00604
:2025F000D007EC2401F527ED3400F528852782852883E0F8A3E0F97B00C007C006C005C04A
:2026100004C000C001C003C006C007742AC0E0744AC0E07480C0E0123FB3E58124F8F581A9
:20263000D004D005D006D007852782852883E0FAA3E0FB4A70030226D9EC2401FCED340092
:20265000FD74042CFAE43DFB8A828B83E0F525A3E0F5268C828D83E0F527A3E0F528E5253D
:202670002527FCE5263528FD8C2A8D2B752C00A827AD287C00C007C006C003C002C025C0B7
:2026900026C02AC02BC02CC000C005C004C006C00774B0C0E0744AC0E07480C0E0123FB3B3
:2026B000E58124F3F581D002D003D006D0078A828B83E0FAA3E0FB90001FE0FCA3E0FD90B8
:2026D000001FEA2CF0EB3DA3F00EBE00010FC3EE9402EF6480948050030225D89020BAE064
:2026F000FBA3E0FCA3E0FD900021EBF0ECA3F0EDA3F08E2A8F2B900021E0FBA3E0FCA3E045
:20271000FDEB4C70030227E88B828C838DF01249DFF9A31249DFFA4970030227AC74042B1A
:20273000FBE43CFC8B828C838DF01249DFF527A31249DFF528E52729FEE5283AFF8E2D8FC6
:202750002E752F007F00C005C004C003C027C028C02DC02EC02FC001C002C007C02AC02B14
:2027700074B0C0E0744AC0E07480C0E0123FB3E58124F3F581D003D004D0058B828C838D77
:20279000F01249DFFBA31249DFFC90001FE0FEA3E0FF90001FEB2EF0EC3FA3F0052AE4B5DE
:2027B0002A02052B900021E0FDA3E0FEA3E0FF74082DFDE43EFE8D828E838FF01249DFFD80
:2027D000A31249DFFEA31249DFFF900021EDF0EEA3F0EFA3F002270690001FE0C0E0A3E0C0
:2027F000C0E07434C0E07420C0E0E4C0E07434C0E07400C0E0E4C0E074DCC0E0744AC0E0FB
:202810007480C0E0123FB3E58124F5F58122AFF0AE83E582900025F0EEA3F0EFA3F090008A
:2028300025E0FDA3E0FEA3E0FF74062DF532E43EF5338F348532828533838534F01249DF51
:20285000F530A31249DFF53174042DF8E43EF98F04888289838CF01249DFF8A31249DFF95B
:20287000C3E53098E531994001228D828E838FF01249DFFBA31249DFFCE5302BFBE5313C8C
:20289000FC900024E0FA8B828C83F08532828533838534F01249DFFCA31249DFFB0CBC009F
:2028B000010B8532828533838534F0EC123D85A3EB123D858A82C007C006C005122094E5B4
:2028D00082D005D006D007602A74022DFDE43EFE8D828E838FF01249DFFBA31249DFFC0BE2
:2028F000BB00010C8D828E838FF0EB123D85A3EC023D8522AFF0AE83E582900028F0EEA3BD
:20291000F0EFA3F0900028E0C0E0A3E0C0E0A3E0C0E07405C0E0744BC0E07480C0E0123F5A
:20293000B3E58124FAF5817412C0E0744BC0E07480C0E0123FB315811581158122904B33CB
:2029500075F08012290490002BE4F0A3F07E007F00902081EEF0EFA3F090000BC007C0066B
:20297000123F45AC82AD83D006D007EC2401F582ED3400F583E0FAA3E0FB4A7003022A46FE
:20299000EC2401FCED3400FD74042CF535E43DF536853582853683E0F8A3E0F974062CF579
:2029B00082E43DF583E0FAA3E0FBE8C39AF537E99BF5388C828D83A3A3E0F539A3E0F53A4E
:2029D0008C828D83E0F53BA3E0F53CE8253BFAE9353CFB8A3D8B3E753F00AC3BAD3C7B00DF
:2029F000C007C006C037C038C039C03AC000C001C03DC03EC03FC004C005C003C006C00704
:202A1000743FC0E0744BC0E07480C0E0123FB3E58124EFF581D006D007853582853683E066
:202A3000FCA3E0FD90002BE0FAA3E0FB90002BEC2AF0ED3BA3F00EBE00010FC3EE9402EF69
:202A50006480948050030229619020BAE0FBA3E0FCA3E0FD74042BF8E43CF98D0274022B67
:202A7000F53DE43CF53E8D3F8E398F3AEB4C7003022B618B828C838DF01249DFF53BA31275
:202A900049DFF53CE53B453C7003022B56C003C004C005888289838AF01249DFFCA3124926
:202AB000DFFD853D82853E83853FF01249DFF537A31249DFF538ECC39537F535ED9538F528
:202AD00036EC253BFBED353CFF8B408F41754200AE3BAF3C7B00C005C004C003C002C0019C
:202AF000C000C035C036C037C038C004C005C040C041C042C006C007C003C039C03A743FAA
:202B1000C0E0744BC0E07480C0E0123FB3E58124EFF581D000D001D002D003D004D00588A8
:202B30008289838AF01249DFFEA31249DFFF90002BE0FCA3E0FD90002BEE2CF0EF3DA3F0CE
:202B5000D005D004D0030539E4B53902053A022A7C90002BE0C0E0A3E0C0E07434C0E074D6
:202B700020C0E0E4C0E07434C0E07400C0E0E4C0E074DCC0E0744AC0E07480C0E0123FB33B
:202B9000E58124F5F58174A1C0E0744BC0E07480C0E0123FB315811581158122AF83E58207
:202BB00090002DF0EFA3F090002DE0FEA3E0FFC007C006C006C00774A4C0E0744BC0E07414
:202BD00080C0E0123FB3E58124FBF58112355312354C123C61AC82AD83D006D007C3EE9C92
:202BF000EF9D40CBEC9440ED940040C3EC541F70BE8C828D832274EAC0E0744BC0E07480CC
:202C1000C0E0123FB31581158115817E007F00C3EE9402EF648094804003022CB0902081C1
:202C3000EEF0EFA3F090000BC007C006123F45AC82AD83D006D007EC2401F582ED3400F5BD
:202C500083E0FCA3E0FD4C60137B008C828D838BF0C007C006123A6ED006D007902081EE9F
:202C7000F0EFA3F090000BC007C006123F45AC82AD83D006D007EC2401F582ED3400F583E8
:202C9000E4F0A3F0EC2401FCED3400FD8C828D83A3A3A3A3E4F0A3F00EBE00010F022C1F58
:202CB0009020BA75F00002393012294D123684AE82AF83C007C006123690D006D007C0063C
:202CD000C0077401C0E0744CC0E07480C0E0123FB3E58124FBF58190002FE4F0A3F07E0071
:202CF0007F00C3EE9402EF648094804003022E7B902081EEF0EFA3F090000BC007C006125E
:202D10003F45AC82AD83D006D007EC2401FCED3400FD8C828D83E0FAA3E0FB8A828B83E079
:202D3000900031F090002FE0FAA3E0FB78007900900031E07003022DEEEA541F7035C007D0
:202D5000C006C005C004C003C002C001C00074A1C0E0744BC0E07480C0E0123FB3158115B7
:202D7000811581D000D001D002D003D004D005D006D007C006C007900031E0FF7E00C0071E
:202D9000C006C005C004C003C002C001C000C007C0067432C0E0744CC0E07480C0E0123FB6
:202DB000B3E58124FBF581D000D001D002D003D004D005D006D0070ABA00010B08B8000128
:202DD000098C828D83E0FEA3E0FFE82EF582E93FF583E0900031F0D007D006022D409000F2
:202DF0002FEAF0EBA3F0902081EEF0EFA3F090000BC007C006123F45AC82AD83EC2401F589
:202E100082ED3400F583E0FAA3E0FB8A438B44754500EC2401FCED3400FD8C828D83A3A34A
:202E3000A3A3E0F8A3E0FB90206FE4F0902070E8F0EBA3F08543828544838545F0C005C0A8
:202E500004123C39D004D005D006D0078C828D83A3A3E4F0A3F074062CF582E43DF583E41C
:202E7000F0A3F00EBE00010F022CF274A1C0E0744BC0E07480C0E0123FB315811581158155
:202E900074A1C0E0744BC0E07480C0E0123FB315811581158122904C3575F0801229047EDF
:202EB000007F00C3EE9402EF64809480400122C007C006C006C0077448C0E0744CC0E074A8
:202ED00080C0E0123FB3E58124FBF5817456C0E0744CC0E07480C0E0123FB3158115811520
:202EF00081D006D007902081EEF0EFA3F090000BC007C006123F45AC82AD83D006D007EC4E
:202F10002401FAED3400FB8A828B83E0F8A3E0F9884689477548008E008F018A4D8B4EECE3
:202F30002401FCED3400FD74042CF549E43DF54AC000C001854D82854E83E0F8A3E0F985FC
:202F50004982854A83E0FCA3E0FDEC28F54BED39F54CA946AC47AD48A84BAA4C7B00C00032
:202F7000C002C00389828C838DF0122006158115811581D001D000400302302CAB46AC4705
:202F9000C001C000C003C0047463C0E0744CC0E07480C0E0123FB3E58124FBF581D000D00F
:202FB00001AB46AC47AD48E4F54BF54CC3E54B9410E54C648094805055C000C001E54B2B81
:202FD000F8E54C3CF98D02888289838AF01249DFF87A00C005C004C003C001C000C000C06B
:202FF00002746BC0E0744CC0E07480C0E0123FB3E58124FBF581D000D001D003D004D00530
:20301000054BE4B54B02054CD001D000809E74102546F546E43547F547022F40C001C000A2
:2030300074A1C0E0744BC0E07480C0E0123FB3158115811581D000D001740128FEE439FFBA
:20305000022EB3904C7375F0801229047E007F00C3EE9402EF6480948040030230FF9020BB
:2030700081EEF0EFA3F090000BC007C006123F45AC82AD83D006D007EC2401F582ED3400ED
:20309000F583E0FAA3E0FB4A605DC006C0078B017B00EC2401FCED3400FD8C828D83A3A326
:2030B000A3A3E0F8A3E0FF90206FE4F0902070E8F0EFA3F08A8289838BF0C007C006C0050E
:2030D000C004123C39D004D005D006D00774062CF582E43DF583E4F0A3F08C828D83A3A3BE
:2030F000F0A3F0D007D0060EBE00010F0230609020BAE0FDA3E0FEA3E0FFED4E7001228D7D
:20311000828E838FF01249DFFBA31249DFFC8B4F8C5075510074042DF8E43EF98F048882AE
:2031300089838CF01249DFF8A31249DFF990206FE4F0902070E8F0E9A3F0854F82855083DA
:203150008551F0C007C006C005123C39D005D006D00774062DFAE43EFB8F048A828B838C47
:20317000F0E4123D85A3123D8574022DFDE43EFE8D828E838FF0E4123D85A3023D85D29040
:203190009020BAE0FDA3E0FEA3E0FFED4E601F74082DFDE43EFE8D828E838FF01249DFFD7F
:2031B000A31249DFFEA31249DFFFED4E7003C290228D828E838FF01249DFFBA31249DFFC79
:2031D0008B528C53755400900001E0F8A3E0F97C00900005E0FAA3E0FB902067E8F0E9A391
:2031F000F0ECA3F090206AEAF0EBA3F08552828553838554F0C007C006C005123BC5D00528
:20321000D006D00774022DFAE43EFB8F04900003E0F8A3E0F98A828B838CF0E8123D85A3C8
:20323000E9123D8574062DFDE43EFE900007E0FBA3E0FC8D828E838FF0EB123D85A3EC120D
:203250003D85C29022D2909020BAE0FDA3E0FEA3E0FFED4E601F74082DFDE43EFE8D828E5F
:20327000838FF01249DFFDA31249DFFEA31249DFFFED4E7003C290228D028E038F047406FF
:203290002DFDE43EFE78007900C002C003C0048D828E838FF01249DFFBA31249DFFCC3E842
:2032B0009BE99CD004D003D002506BC005C006C0078A828B838CF01249DFFEA31249DFFFAE
:2032D000E82EF582E93FF583E0F51BC3745A951BD007D006D005500674BF251B5030C005F0
:2032F000C006C0078A828B838CF01249DFFEA31249DFFFE82EFEE93FFF8E828F83E0FD430A
:2033100005208E828F83EDF0D007D006D00508B8000109023299C290227481C0E0744CC0D7
:20333000E07480C0E0123FB315811581158112355312354C123C61AE82AF83C374589E7464
:20335000828FF063F08095F0400AEE94C8EF64809480501774B7C0E0744CC0E07480C0E063
:20337000123FB315811581158180AE8E828F83122169AD82AE83AFF0ED4E701674E0C0E0D7
:20339000744CC0E07480C0E0123FB315811581158122902041EDF0EEA3F0EFA3F09020BA06
:2033B00075F000123698741DC0E0744DC0E07480C0E0123FB3158115811581227449C0E04D
:2033D000744DC0E07480C0E0123FB315811581158112355312354C123C61AE82E583FF307F
:2033F000E716748AC0E0744DC0E07480C0E0123FB315811581158122C374019E74808FF0FC
:2034100063F08095F0401674B8C0E0744DC0E07480C0E0123FB315811581158122EE24FE35
:20343000FEEF34FFFF90204AEEF0EFA3F09020BA75F00012377EE582601674EEC0E0744DCD
:20345000C0E07480C0E0123FB315811581158122740DC0E0744EC0E07480C0E0123FB31510
:203470008115811581221222067435C0E0744EC0E07480C0E0123FB31581158115811236E6
:2034900061AF82C007122094E582D0076014900024EFF090000175F000C00712281ED007CC
:2034B0008012900024EFF090000C75F000C00712281ED007BF23028044BF24028039BF25B6
:2034D000028025BF2B02803BBF2D02803CBF3D028010BF3F028005BF408F8012122CB902B8
:2034F0003479122EA6023479123053023479122C0612220602347912318E023479123255F0
:0F3510000234791233290234791233CC02347920
:2049FB000D0A506C6561736520656E74657220746865206C6173742074776F206469676981
:204A1B007473206F6620796F75722049443A000D0A207374617469635F62756666657273BE
:204A3B005B25645D2E627566666572202570000D0A4275666665722053697A6520746F6F1F
:204A5B00206269672C20706C65617365207069636B206120736D616C6C6572206275666608
:204A7B0065722073697A65000D0A73747564656E745F6E756D6265723A202564000D0A75F4
:204A9B007365725F6275666665725F73697A653A20257A75000D0A6275666665725F2564D7
:204ABB002073746172747320402025702C20656E6473204025702C2073697A6520257A75DF
:204ADB00000D0A486561702073746172747320402025702C20656E647320402025702C20F9
:204AFB0073697A653A20257A75000D0A20202020202020202573000D0A2D2D2D2D2D2D2D71
:204B1B002D2D2D2D2D2D2D2D2D2D2D2D2D2D2D2D2D2D2D2D2D2D2D0048454150205245504A
:204B3B004F5254000D0A6275666665725F25642073746172747320402025702C20656E6493
:204B5B0073204025702C2073697A6520257A752C20636F6E7461696E7320257A7520616CCB
:204B7B007068616265742063686172732C2068617320257A752063686172732072656D61C3
:204B9B00696E696E67000D0A000D0A506C6561736520656E74657220612076616C6964204E
:204BBB006275666665722073697A65207468617420697320646976697369626C65206279E2
:204BDB00203332205B36342C257A755D3A20000D0A2046726565696E6720414C4C204255B2
:204BFB004646455253000D0A20526563656976656420257A752063686172732073696E6394
:204C1B0065206C61737420696E766F636174696F6E206F66203F0025630044756D70204113
:204C3B00646D696E2042756666657273000D0A2042756666657220256420000D0A2D2D2DCC
:204C5B002D2D2D2D2D2D2D000D0A253034583A002025303268685800436C6561722042753F
:204C7B006666657273000D0A506C6561736520656E74657220612073697A6520666F722071
:204C9B00746865206E6577206275666665722C205B3230302C3630305D3A20000D0A427534
:204CBB00666665722073697A6520696E76616C6964212120506C6561736520747279206198
:204CDB006761696E000D0A20416C6C6F636174696F6E206661696C65643B2061626C652049
:204CFB00746F20616C6C6F636174652068656164657220627574206E6F74206275666665C4
:204D1B0072000D0A20416C6C6F636174696F6E207375636365737366756C2121204E6577DD
:204D3B0020627566666572206164646564000D0A506C6561736520656E746572207468659C
:204D5B00206E756D626572206F66207468652062756666657220796F7520776F756C6420B7
:204D7B006C696B6520746F20667265653A20000D0A20496E76616C696420627566666572BC
:204D9B00206E756D6265722C206E6567617469766573206E6F742076616C6964000D0A2065
:204DBB00496E76616C696420627566666572206E756D6265722C2062756666657273203045
:204DDB0020262031206172652070726F746563746564000D0A205375636365737366756C88
:204DFB006C792072656D6F76656420627566666572000D0A204661696C656420746F2072F6
:204E1B00656D6F7665206275666665722C2069647820746F6F20626967000D0A456E7465C9
:0B4E3B0072206120636861723A200061
:034E53000000005C
:20351F00AF83E582900032F0EFA3F010990280FB900032E0FEA3E0FF8E998E828F832210FC
:0D353F00980280FBAE997F008E828F832260
:024E460000204A
:20354C0090203475F0002290206FE4F0902070740AF0E4A3F090203475F000123C3990207C
:20356C003E7434F07420A3F0E4A3F012353EAE828E057F008D828F83C00612351FD006BE23
:20358C000D03D38001C392014032BE0A02802DEE602ABE7F02802590203EE0FCA3E0FDA333
:2035AC00E0FF8C828D838FF0EE123D8590203E74012CF0E43DA3F0EFA3F0804FBE7F4C9024
:2035CC00203EE0FCA3E0FDA3E0FF7434C0E07420C0E0E4C0E08C828D838FF0122006158138
:2035EC001581158160101CBCFF011D90203EECF0EDA3F0EFA3F090203EE0FCA3E0FDA3E095
:20360C00FF8C828D838FF0E4123D85200132BE0A02802DEE602A90203EE0FDA3E0FEA3E039
:20362C00FF743EC0E07420C0E0E4C0E08D828E838FF01220061581158115815003023577DB
:20364C0090203EE0FDA3E0FEA3E0FF8D828E838FF0E4023D8512353EAE828E057F008D8273
:20366C008F83C00612351FD0069020BDE02401F0A3E03400F08E82229020BDE0FEA3E08E93
:0C368C0082F583229020BDE4F0A3F02220
:024E560000005A
:20369800AFF0AE83E582902044F0EEA3F0EFA3F0902044E0F51BA3E0F51CA3E0F51D851B47
:2036B80082851C83851DF01249DFFAA31249DFFBA31249DFFCEA4B7024902041E0F8A3E0C0
:2036D800F9A3E0FF851B82851C83851DF0E8123D85A3E9123D85A3EF123D85806190204725
:2036F800EAF0EBA3F0ECA3F0902047E0FDA3E0FEA3E0FF74082DFDE43EFE8D828E838FF09F
:203718001249DFFAA31249DFFBA31249DFFCEA4B600D902047EAF0EBA3F0ECA3F080C99063
:203738002041E0FAA3E0FBA3E0FC8D828E838FF0EA123D85A3EB123D85A3EC123D85902067
:2037580041E0FDA3E0FEA3E0FF74082DFDE43EFE8D828E838FF0E4123D85A3123D85A312E7
:203778003D8575820122AFF0AE83E58290204CF0EEA3F0EFA3F090204CE0F508A3E0F509D5
:20379800A3E0F50AE50845097003F58222850882850983850AF01249DFFAA31249DFFBA3FA
:2037B8001249DFFCEA4B7003F5822290204AE0F8A3E0F990204AE0F5F0A3E045F070429073
:2037D800204FEAF0EBA3F0ECA3F074082AFDE43BFE8C078D828E838FF01249DFFDA3124964
:2037F800DFFEA31249DFFF850882850983850AF0ED123D85A3EE123D85A3EF123D85023893
:20381800E1902052EAF0EBA3F0ECA3F018B8FF011990204AE8F0E9A3F090204AE0FEA3E044
:20383800FFEE4F603C902052E0FBA3E0FCA3E0FD74082BFBE43CFC8B828C838DF01249DF2B
:20385800FBA31249DFFCA31249DFFDEB4C6012902052EBF0ECA3F0EDA3F01EBEFF011F80A2
:20387800C0EE4F600475820022902052E0FDA3E0FEA3E0FF74082DFDE43EFE8D828E838F5F
:20389800F01249DFFAA31249DFFBA31249DFFC90204FEAF0EBA3F0ECA3F074082AFAE43BA6
:2038B800FB8A828B838CF01249DFFAA31249DFFBA31249DFFC8D828E838FF0EA123D85A37A
:2038D800EB123D85A3EC123D8590204FE0FEA3E0FDA3E0FF90204FE0F5F0A3E045F07003E0
:2038F800F582228E828D838FF01249DFFEA31249DFFF4E600B7D008E828F838DF0123A6ED5
:2039180090204FE0FDA3E0FEA3E0FF8D828E838FF0123A6E75820122AFF0AE83E582902056
:2039380055F0EEA3F0EFA3F0902055E0FDA3E0FEA3E0FF8D828E838FF01249DFFAA3124971
:20395800DFFBA31249DFFC902058EAF0EBA3F0ECA3F0902055E0FAA3E0FBA3E0FC8A828B4A
:20397800838CF01249DFF50BA31249DFF50CA31249DFF50DE50B450C700122C005C006C01A
:20399800077408250BF8E4350CF9AF0D888289838FF01249DFF8A31249DFF9A31249DFFF11
:2039B8008A828B838CF0E8123D85A3E9123D85A3EF123D85902058E0FDA3E0FEA3E0FF8D62
:2039D800828E838FF01249DFF50BA31249DFF50CD007D006D005E50B450C601BAB0BAC0CF9
:2039F8007A008B828C838AF0C007C006C005123A6ED005D006D007902058E0FAA3E0FBA30E
:203A1800E0FC8A828B838CF0C007C006C005123A6ED005D006D0078D828E838FF01249DFB5
:193A3800FAA31249DFFBA31249DFFC902058EAF0EBA3F0ECA3F002396A46
:1D3A5100AF83E58290205CF0EFA3F090205CE0FEA3E0FF90205BE08E828F83F022B6
:203A6E00AFF0AE83E58290205EF0EEA3F0EFA3F090205EE0FDA3E0FEA3E090205EE0F5F03E
:203A8E00A3E045F0700122902063E4F0A3F0902079E0FBA3E0FC902061EBF0ECA3F09020B5
:203AAE00657479F07420A3F0902061E0FBA3E0FC4B60418B018C02C003C0048D008E04C3B5
:203ACE00E998EA9CD004D003502A902063EBF0ECA3F074022BFBE43CFC902065EBF0ECA30C
:203AEE00F08B828C83E0FBA3E0FC902061EBF0ECA3F080B4902061E0FEA3E0FF90205EE054
:203B0E00FBA3E0FCA3E0EB24FEFBEC34FFFC74022BFAE43CFD8A828D83EEF0EFA3F0902093
:203B2E0065E0F8A3E0F988828983EBF0ECA3F08B828C83E0F8A3E0F9EEB50033EFB5012F34
:203B4E0088828983A3A3E0FEA3E0FF8A828D83EEF0EFA3F08B828C83E0FEA3E0FF8E828F04
:203B6E0083E0FEA3E0FF8B828C83EEF0EFA3F0902063E0FEA3E0FF4E603C8E828F83E0F881
:203B8E00A3E0F9E8B5032FE9B5042B8B828C83E0FBA3E0FC8E828F83EBF0ECA3F074022E69
:173BAE00FEE43FFF8A828D83E0FAA3E0FD8E828F83EAF0EDA3F022CC
:06206300E478FFF6D8FD51
:203BC500AFF0AE83E58290206CF0EEA3F0EFA3F090206CE0F51BA3E0F51CA3E0F51DAA1BA0
:203BE500AB1CAC1D902067E0F8A3E0F9A3E0FF90206AE0F51EA3E0F51FAD1EAE1F151E7460
:203C0500FFB51E02151FED4E6020888289838FF01249DFFEA3A882A9838A828B838CF0EE92
:143C2500123D85A3AA82AB8380CF851B82851C83851DF02271
:203C3900AC82AD83902070E0FEA3E0FFBE000360121F0F90206FE08C828D83123D85A3DEBA
:083C5900FADFF88C828D832252
:203C6100AFF0AE83E582902072F0EEA3F0EFA3F0902075E4F0A3F0902072E0FDA3E0FEA348
:203C8100E0FF8D828E838FF01249DFFCBC20028003BC09120DBD00010E902072EDF0EEA3CE
:203CA100F0EFA3F080DC902072EDF0EEA3F0EFA3F08D828E838FF01249DFFC902077E4BC97
:203CC1002D0104F0BC2D028003BC2B0E90207274012DF0E43EA3F0EFA3F0902072E0FDA3D1
:203CE100E0FEA3E0FF8D828E838FF01249DFFCBC30009202405FEC24C69202405890207548
:203D0100E0FBA3E0FC902081EBF0ECA3F090000AC007C006C005123F45AB82AC83D005D03A
:203D210006D0078D828E838FF01249DFFAA3AD82AE83902072EDF0EEA3F0EFA3F08A017AC8
:203D410000E924D0F9EA34FFFA902075E92BF0EA3CA3F08090902072EDF0EEA3F0EFA3F081
:203D6100902077E06011902075E0FEA3E0FFC3E49EFEE49FFF8008902075E0FEA3E0FF8EE5
:043D8100828F832288
:202041007905E94400601B7A01904E5378BA75A020E493F2A308B8000205A0D9F4DAF275C5
:02206100A0FFDE
:1B3D850020F71130F6138883A88220F509F6A8837583002280FEF280F5F0223D
:203DA0009020797434F07400A3F0904E46E493FE740193FF1EBEFF011FEE2434FEEF340039
:203DC000FF900034EEF0EFA3F0902079E0FEA3E0FF8E828F83A3A3E4F0A3F022AF83E582AD
:203DE00090207BF0EFA3F0902079E0F5F0A3E045F07003123DA090207BE0FEA3E0FF4E60E5
:203E00000E74022EFCE43FFDC3EC9EED9F50049000002290207B74022EF0E43FA3F09020D0
:203E20007BE0FEA3E0FFC3EE9404EF9400500990207B7404F0E4A3F0902079E0FEA3E0FFEF
:203E400090207DEEF0EFA3F090207F7479F07420A3F090207DE0FEA3E0FF4E7003023F41D2
:203E60008E828F83E0FCA3E0FD8C028D038E008F01EAC398FAEB99FB8A008B0190207BE0A9
:203E8000F50EA3E0F50FC3E8950EE9950F5003023F1E7404250EF8E4350FF9C3EA98EB997E
:203EA000404C8E028F03E50E2AFAE50F3BFB8A828B83ECF0EDA3F074022AFCE43BFD8E82D5
:203EC0008F83A3A3E0F8A3E0F98C828D83E8F0E9A3F090207FE0FCA3E0FD8C828D83EAF041
:203EE000EBA3F08E828F83EAF0EBA3F0801C90207FE0FCA3E0FD8E828F83A3A3E0FAA3E0DE
:203F0000FB8C828D83EAF0EBA3F090207DE0FCA3E0FD74022CFCE43DFD8C828D8322740235
:203F20002EFEE43FFF90207FEEF0EFA3F08E828F83E0FEA3E0FF90207DEEF0EFA3F0023E55
:053F4000529000002278
:203F4500AA83AB828BF0902081E0A4F8A9F08AF0E0A429F98BF0A3E0A429F5838882222290
:202069007800E84400600A790175A000E4F309D8FC78B9E84420600C7921900001E4F0A37B
:04208900D8FCD9FAAC
:203F6500C01A85811A7E008E8312351FD01A22AFF0AE83E582902084F0EEA3F0EFA3F09053
:203F85002084E0FDA3E0FEA3E0FF902083E0FC902098E4F0A3F0A3F090209BEDF0EEA3F09E
:203FA500EFA3F090209EECF0903F650240B9C01AE581F51A24FBFF902098E4F0A3F0A3F072
:203FC500E51A24FBF890209BE6F008E6A3F008E6A3F090209EEFF0903F651240B9D01A222B
:203FE500E582902094F0E0FF90208AE0C0E0A3E0C0E0A3E0C0E0124000800D902088E0C08B
:20400500E0A3E0C0E08F8222158115811581902092E02401F0A3E03400F022E582902095F7
:20402500F0E02430FF24C6500D74072FFF902087E060034307208F82023FE5E582902096A0
:20404500F0E0FFC4540FF582C007124020D00753070F8F82024020E582902097F090208D27
:20406500E0FCA3E0FDA3E0FEA3E0FF902091E0FB902097E0FA79208B00E828F51BEF2354F5
:2040850001451BFBEC2CFCED33FDEE33FEEF33FFC3EB9A4007EBC39AFB43040119E970D7EB
:2040A50090208DECF0EDA3F0EEA3F0EFA3F0902091EBF022AF83E58290209FF0EFA3F09037
:2040C500209FE0FEA3E0FF902088EEF0EFA3F0902098E0FDA3E0FEA3E0FF90208AEDF0EEF7
:2040E500A3F0EFA3F0902092E4F0A3F090209BE0FDA3E0FEA3E0FF8D828E838FF01249DFF9
:20410500FC90209B74012DF0E43EA3F0EFA3F0EC70030249BBBC250280030249B39020A170
:20412500E4F09020A2F09020A3F09020A4F09020A5F09020A6F09020A7F09020A8F0902013
:20414500AAF09020ABF0A3F09020AD14F0A3F090209BE0FDA3E0FEA3E0FF8D828E838FF024
:204165001249DFFBA3AD82AE8390209BEDF0EEA3F0EFA3F09020B1EBF0BB25088B82123F55
:20418500E50240F1BB30005003024252EB24C650030242529020ADE0F510A3E0F51174FF32
:2041A500B51063B51160C005C006C0079020ABE0FAA3E0FF902081EAF0EFA3F090000AC0BC
:2041C50005C003123F45AE82AF83D003D0058B027D00EA2EFEED3FFFEE24D0FEEF34FFFF26
:2041E5009020ABEEF0EFA3F0D007D006D0059020ABE0F5F0A3E045F0600302415F9020A24E
:204205007401F002415FC005C006C007902081E510F0E511A3F090000AC006C005C00312A7
:204225003F45AA82AF83D003D005D0067E00EB2AFAEE3FFFEA24D0FAEF34FFFF9020ADEA20
:20424500F0EFA3F0D007D006D00502415F9020B1E0FBBB2E2FC005C006C0079020ADE0FAE6
:20426500A3E0FFBAFF05BFFF028009D007D006D00502415FD007D006D0059020ADE4F0A336
:20428500F002415FBB61004014EB2485400F9020B174DF5BF09020877401F08005902087DD
:2042A500E4F09020B1E0FBBB20028075BB2B028067BB2D028059BB4202806FBB4302807C9B
:2042C500BB4403024549BB460302456FBB480302415FBB4903024549BB4A0302415FBB4C9D
:2042E500028050BB4F03024557BB50030244B7BB53028077BB540302415FBB550302455FBD
:20430500BB5803024567BB5A0302415F0245779020A17401F002415F9020A37401F0024109
:204325005F9020A47401F002415F9020A67401F002415F9020A77401F002415F9020A6E0CD
:20434500600E90209EE014F9F09020B1E7F0800F90209EE024FEFFF08F019020B1E7F09061
:2043650020B1E0F582123FE502458690209EE024FDFFF08F018705098706098707191990C4
:20438500208DEDF0EEA3F0EFA3F08D828E838FF01249C78582108583119020ADE0FAA3E0E0
:2043A500FDBAFF0DBDFF0A9020ADE510F0E511A3F09020A1E0704B9020ABE0FAA3E0FDC340
:2043C500E5109AE5119D503A9020ABEAC39510F0ED9511A3F09020ABE0FAA3E0FD8A068D97
:2043E500071ABAFF011DEE4F6010758220C005C002123FE5D002D00580E39020ABEAF0ED13
:20440500A3F09020ADE0F513A3E0F51490208DE0FAA3E0FDA3E0FF8A828D838FF01249DF45
:20442500F512603CC3E4951374808514F063F08095F0502C151374FFB5130215148512828D
:20444500123FE590208DE0FAA3E0FDA3E0FF0ABA00010D90208DEAF0EDA3F0EFA3F080ACF1
:204465009020A1E070030245869020ABE0FEA3E0FFC3E5109EE5119F40030245869020ABB5
:20448500EEC39510F0EF9511A3F09020ABE0FEA3E0FF8E028F051EBEFF011FEA4D70030223
:2044A500457E758220C007C006123FE5D006D00780E090209EE024FDFDF08D018715098757
:2044C50016098717191990208DE515F0E516A3F0E517A3F090208FE0FDBD80004008902053
:2044E500B17443F08020BD600040089020B17450F08013BD400040089020B17449F08006D9
:204505009020B17458F09020B1E0FDF582C005123FE575823A123FE5758230123FE575820E
:2045250078123FE5D005BD4902800EBD5002800990208EE0F58212404090208DE0F58212F8
:204545004040803D9020A57401F09020AA740AF0802F9020AA7408F080279020AA740AF0B3
:20456500801F9020AA7410F080179020A87401F0800F8B82123FE580089020ABEEF0EFA350
:20458500F09020A8E0607190209EE024FCFFF08F0187030987050987060987071919199029
:2045A500208DEBF0EDA3F0EEA3F0EFA3F090208D7448F0744EA3F07480A3F090208DE0F514
:2045C50015A3E0F516A3E0F51774012515FAE43516FBAF1790208DEAF0EBA3F0EFA3F0856F
:2045E50015828516838517F01249DFFF70030240F18F82123FE580C39020AAE0700302401D
:20460500F19020A6E0604790209EE014F9F087077E007D007B0090208DEFF0EEA3F0EDA36B
:20462500F0EBA3F09020A5E060030246C990208DE0FBA3E0A3E0A3E07D007E007F00902093
:204645008DEBF0EDA3F0EEA3F0EFA3F080769020A7E0602890209EE024FCFFF08F0187035E
:2046650009870509870609870719191990208DEBF0EDA3F0EEA3F0EFA3F0804890209EE097
:2046850024FEFFF08F01870609870719EF3395E0FDFB90208DEEF0EFA3F0EDA3F0EBA3F00D
:2046A5009020A5E0701E90208DE0FBA3E0FDA3E0A3E07E007F0090208DEBF0EDA3F0EEA36E
:2046C500F0EFA3F09020A5E0604190208DE0FBA3E0FDA3E0FEA3E0FF30E72B90208DE0FB98
:2046E500A3E0FDA3E0FEA3E0FFC3E49BFBE49DFDE49EFEE49FFF90208DEBF0EDA3F0EEA34C
:20470500F0EFA3F080059020A5E4F09020A97401F09020AAE0F5137518B7751920E4F51099
:20472500F511902091E4F085138212405C9020A9E07033902091E0C454F0F515902091E061
:20474500C4540F4515F515851882851983E0FFE5154207851882851983EFF0151874FFB5F3
:2047650018021519800C902091E0FF851882851983F00510E4B5100205119020A9E0B4014C
:2047850000E433F090208DE0FAA3E0FBA3E0FEA3E0FFEA4B4E4F708A9020B8E518F0E51956
:2047A500A3F09020AFE510F0E511A3F09020ABE0F5F0A3E045F070099020AB7401F0E4A3FC
:2047C500F09020A2E0FFE070479020A1E070418510188511199020ABE0FAA3E0FBC007AFB5
:2047E500180F8F067F00C3EE9AEF9BD0075019758220C007C003C002123FE5D002D003D056
:20480500071ABAFF011B80D59020ABEAF0EBA3F09020A5E0602075822DC007123FE5D007E8
:204825009020ABE024FFFDA3E034FFFE9020ABEDF0EEA3F080569020AFE0F5F0A3E045F0F9
:20484500604A9020A3E0602075822BC007123FE5D0079020ABE024FFFDA3E034FFFE902041
:20486500ABEDF0EEA3F080249020A4E0601E758220C007123FE5D0079020ABE024FFFDA3EB
:20488500E034FFFE9020ABEDF0EEA3F09020A1E070489020AFE0F518A3E0F5199020ABE048
:2048A500FAA3E0FBC0078A068B071ABAFF011BC3E5189EE5199FD0075053EF60067D307EAE
:2048C5000080047D207E008D82C007C003C002123FE5D002D003D00780CA9020ABE0FEA301
:2048E500E0FF9020AFE0F518A3E0F519C3E5189EE5199F500F9020ABEEC39518F0EF951957
:20490500A3F080119020ABE4F0A3F080089020ABEAF0EBA3F09020B8E0FEA3E0FF9020AF4A
:20492500E0F518A3E0F519AA18AD19151874FFB518021519EA4D60459020A9E0B40100E421
:2049450033F09020A9E070140EBE00010F8E828F83E0C4540FFD902091F0800E8E828F838F
:20496500E0FD53050F902091EDF0902091E0F582C007C006124020D006D00780AA9020A111
:20498500E070030240F19020ABE0FEA3E0FF8E038F051EBEFF011FEB4D70030240F17582DC
:2049A50020C007C006123FE5D006D00780E08C82123FE50240F1902092E0FEA3E08E82F5E3
:0249C50083224B
:0B4E48003C4E4F20464C4F41543E00B2
:1849C700AA82AB831249DF6003A380F8C3E5829AF582E5839BF58322EE
:20200600E58124FCC3C8C0E0C082E608467006E5824583601218E58296F58208E5839642A8
:1B2026008208E5F0964582D082C8D0E0C822758154122090E582600302200334
:1C49DF0020F71430F6148883A88220F507E6A88375830022E280F7E49322E022E7
:00000001FF
