:042000000220113277
:03200B0002207F31
:03206A0002200E43
:03200E000220B7F6
:20206D0090000022438901758C4C758A0DD2A9D2AF22C0E0C082C083C007C006C0D075D0D6
:20208D0000900001E0FEA3E0FF90000174012EF0E43FA3F09000037401F0E4A3F0D0D0D089
:2020AD0006D007D083D082D0E03274BBC0E07426C0E01223F115811581900001E4F0A3F05C
:2020CD00900003F0A3F090000A122536AE82AD837F00EE4D701274E3C0E07426C0E01223D4
:2020ED00F1158115810222037B007C00C3EB940AEC648094805029EB2EF8EC3DF98F02C06B
:20210D0006C005C0078B0774612F888289838AF01223D60BBB00010CD007D005D00680CC4E
:20212D007B007C00C3EB940AEC6480948040030221D0EB2EF8EC3DF98F02888289838AF0E1
:20214D0012269FF874612BF9E43CFAC006C005C0077F00E8B5010CEFB50208D007D005D0EB
:20216D00068029D007D005D006C007C006C005C004C0037426C0E07427C0E01223F1158117
:20218D001581D003D004D005D006D007EB2EF8EC3DF98F02888289838AF012269FF87A00D6
:2021AD0088828A83C007C006C005C004C003122252D003D004D005D006D0070BBB00010CA0
:2021CD00022131C007C006C005744AC0E07427C0E01223F115811581744DC0E07427C0E0C5
:2021ED001223F115811581D005D006D0078E828D838FF012227F122071D28C900003E0FE3A
:20220D00A3E0FFBE011BBF0018D20010AF02C200758C4C758A0D900003E4F0A3F0A20092A2
:20222D00AF900001E0FEA3E0FFBE0ACFBF00CCD20010AF02C200B291900001E4F0A3F0A29D
:05224D000092AF80B615
:2026BB00506572666F726D696E6720612073696D706C65207465737420666F72206D616C1A
:2026DB006C6F63200A200D001B5B33316D4D616C6C6F63206F7065726174696F6E206661D3
:2026FB00696C656421203A28206A756D70696E6720746F2054494D45525F4953525F54457B
:20271B00535420200A0D1B5B306D001B5B33316D457870656374656456616C7565206D6921
:20273B00736D6174636821200A0D1B5B306D000A0D001B5B33326D4D616C6C6F6320546503
:20275B007374206F7065726174696F6E20776173207375636365737366756C200A0D1B5B0E
:03277B00306D00BE
:20225200AF83E582900005F0EFA3F010990280FB900005E0FEA3E0FF8E998E828F83221036
:0D227200980280FBAE997F008E828F832240
:02277E00000455
:20227F00AFF0AE83E582900407F0EEA3F0EFA3F0900407E0FDA3E0FEA3E0900407E0F5F09E
:20229F00A3E045F070012290040CE4F0A3F0900411E0FBA3E0FC90040AEBF0ECA3F0900442
:2022BF000E7411F07404A3F090040AE0FBA3E0FC4B60418B018C02C003C0048D008E04C30A
:2022DF00E998EA9CD004D003502A90040CEBF0ECA3F074022BFBE43CFC90040EEBF0ECA3F9
:2022FF00F08B828C83E0FBA3E0FC90040AEBF0ECA3F080B490040AE0FEA3E0FF900407E0B4
:20231F00FBA3E0FCA3E0EB24FEFBEC34FFFC74022BFAE43CFD8A828D83EEF0EFA3F09004B6
:20233F000EE0F8A3E0F988828983EBF0ECA3F08B828C83E0F8A3E0F9EEB50033EFB5012F92
:20235F0088828983A3A3E0FEA3E0FF8A828D83EEF0EFA3F08B828C83E0FEA3E0FF8E828F0B
:20237F0083E0FEA3E0FF8B828C83EEF0EFA3F090040CE0FEA3E0FF4E603C8E828F83E0F8FB
:20239F00A3E0F9E8B5032FE9B5042B8B828C83E0FBA3E0FC8E828F83EBF0ECA3F074022E70
:1723BF00FEE43FFF8A828D83E0FAA3E0FD8E828F83EAF0EDA3F022D3
:06204000E478FFF6D8FD74
:20201E007900E94400601B7A00902780781975A004E493F2A308B8000205A0D9F4DAF275A5
:02203E00A0FF01
:1B23D60020F71130F6138883A88220F509F6A8837583002280FEF280F5F02206
:2023F100C00A85810AE50A24FDF8868318868218E493A324DB600C242560051224DF80F0F1
:202411000224F7D2D5E493A3C083C082B4731486F01886831886821812269F6054A31224DA
:20243100DF80F5B4630818E6181224DF8043B46417E630E74618E6F42401F608E6F4340095
:20245100F6742D1224DF8033B4782D868318868218E41224D0E5831224CFE5831224D0E5C8
:20247100821224CFE5821224D030D50574301224DFD082D083022401B475F6E6FA18E6F9D2
:20249100187C107D271224BAFF7CE87D031224BAC4F5837C647D001224BA4283E975F00A7A
:2024B10084C445F0F582EF80A97B000BC3E99CF9EA9DFA50F61BE92CF9EA3DFAEB22C45402
:2024D1000F700320D51FC2D52490D43440D4C083C082C0F0F582E8C0E0122252D0E0F8D0BC
:0924F100F0D082D08322D00A222F
:2024FA009004117407F07400A3F090277EE493FE740193FF1EBEFF011FEE2407FEEF3400C5
:20251A00FF900007EEF0EFA3F0900411E0FEA3E0FF8E828F83A3A3E4F0A3F022AF83E5821C
:20253A00900413F0EFA3F0900411E0F5F0A3E045F070031224FA900413E0FEA3E0FF4E60EE
:20255A000E74022EFCE43FFDC3EC9EED9F50049000002290041374022EF0E43FA3F090042F
:20257A0013E0FEA3E0FFC3EE9404EF940050099004137404F0E4A3F0900411E0FEA3E0FF1E
:20259A00900415EEF0EFA3F09004177411F07404A3F0900415E0FEA3E0FF4E700302269B60
:2025BA008E828F83E0FCA3E0FD8C028D038E008F01EAC398FAEB99FB8A008B01900413E0EC
:2025DA00F508A3E0F509C3E89508E99509500302267874042508F8E43509F9C3EA98EB9920
:2025FA00404C8E028F03E5082AFAE5093BFB8A828B83ECF0EDA3F074022AFCE43BFD8E82A0
:20261A008F83A3A3E0F8A3E0F98C828D83E8F0E9A3F0900417E0FCA3E0FD8C828D83EAF083
:20263A00EBA3F08E828F83EAF0EBA3F0801C900417E0FCA3E0FD8E828F83A3A3E0FAA3E020
:20265A00FB8C828D83EAF0EBA3F0900415E0FCA3E0FD74022CFCE43DFD8C828D8322740278
:20267A002EFEE43FFF900417EEF0EFA3F08E828F83E0FEA3E0FF900415EEF0EFA3F0022535
:05269A00AC90000022DD
:202046007800E84400600A790175A000E4F309D8FC7818E84404600C7905900001E4F0A377
:04206600D8FCD9FACF
:0D20110075812012206DE582600302200E13
:1C269F0020F71430F6148883A88220F507E6A88375830022E280F7E49322E0224A
:00000001FF
