:0320000002203487
:03208D000220032B
:032003000234772D
:2020900090000022E582900017F0E0FF24A592004007BF410092005016900017E0FF2485D8
:2020B00092004007BF610092005004C2008002D200A200E433F58222AFF0AE83E582900002
:2020D00018F0EEA3F0EFA3F0900018E0FDA3E0FEA3E0FF74022DFAE43EFB8F048A828B83F6
:2020F0008CF0E4123CEEA3123CEE74062DFAE43EFB8F048A828B838CF0E4123CEEA3123C5D
:20211000EE74082DFAE43EFB8F048A828B838CF0E4123CEEA3123CEEA3123CEE8D828E83DA
:202130008FF0124948FBA3124948FC7A0074042DFDE43EFE8D828E838FF0124948FDA31200
:202150004948FE901069E4F090106AEDF0EEA3F08B828C838AF0023BA2AF83E58290001BE2
:20217000F0EFA3F090000B123D45AE82AD837F00EE4D7006900000F5F02274042EFAE43DC6
:20219000FB8F0490001BE0F8A3E0F98A828B838CF0E8123CEEA3E9123CEE88828983C00743
:2021B000C006C005123D45AB82AC83D005D006D0078E828D838FF0EB123CEEA3EC123CEE81
:2021D000EB4C70168E028D038F048A828B838CF01239D790000075F000228E828D838FF011
:2021F000C007C006C0051220C8D005D006D0078E828D838FF0229010B4E4F0A3F0A3F0747E
:2022100064C0E07449C0E07480C0E0123F1C15811581158112355412354D123BCA85822518
:20223000E583F52620E7D8C37463952574808526F063F08095F040C790001DE4F07404A34E
:20225000F0901069E4F090106A7416F0E4A3F090000175F000123BA274022525FCE43526C6
:20227000FD90001DE0FAA3E0FB8A828B83C005C004122BACAA82AB83D004D00578007900CC
:20229000C3E89402E964809480400302241DC004C00590107BE8F0E9A3F090000BC005C06E
:2022B00004C003C002C001C000123EAE858221858322D000D001D002D003D004D005E521BF
:2022D0002401F523E5223400F5248A828B83C003C002C001C000123D45AC82AD83D000D0AB
:2022F00001D002D003852382852483ECF0EDA3F07F00C005C004C003C002C001C000C004A4
:20231000C005C007C000C0017493C0E07449C0E07480C0E0123F1CE58124F8F581D000D003
:2023300001D002D003D004D005852382852483E0FEA3E0FFD005D004EE4F703BC005C0046E
:20235000C003C002122C0674B3C0E07449C0E07480C0E0123F1C158115811581D002D00318
:20237000D004D005EA24FFFEEB34FFFF90001DEEF0EFA3F0022271C004C005E5212401F531
:2023900023E5223400F524852382852483A3A3A3A3EAF0EBA3F0AC23AD247F008C828D833F
:2023B0008FF0C005C004C003C002C001C0001220C8D000D001D002D003D004D005852382EC
:2023D000852483E0FEA3E0FF7D00C005C004C003C002C001C000C006C007C005C000C00182
:2023F0007493C0E07449C0E07480C0E0123F1CE58124F8F581D000D001D002D003D004D0E6
:202410000508B8000109D005D0040222907E007F00C3EE9404EF6480948040030224CF8A91
:20243000828B83C007C006C005C004C003C00212216985822785832885F029D002D003D054
:2024500004D005D006D007E5274528703BC005C004C003C002122C0674B3C0E07449C0E04C
:202470007480C0E0123F1C158115811581D002D003D004D005EA24FFF8EB34FFF990001D72
:20249000E8F0E9A3F002227190103EE527F0E528A3F0E529A3F09010B475F000C007C006E2
:2024B000C005C004C003C00212361ED002D003D004D005D006D0070EBE00010F02242190EA
:2024D000107BECF0EDA3F090000AC005C004C003C002123EAE122169A982AE83D002D003C2
:2024F000D004D005E94E703BC005C004C003C002122C0674B3C0E07449C0E07480C0E01225
:202510003F1C158115811581D002D003D004D005EA24FFFEEB34FFFF90001DEEF0EFA3F00B
:20253000022271EA2AFEEB33FF8E828F83C005C004C003C002122169A982AE83D002D003FA
:20255000D004D005E94E703BC005C004C003C002122C0674B3C0E07449C0E07480C0E012C4
:202570003F1C158115811581D002D003D004D005EA24FFFEEB34FFFF90001DEEF0EFA3F0AB
:20259000022271C003C002C025C02674ECC0E07449C0E07480C0E0123F1CE58124FBF581ED
:2025B000D002D003C002C0037401C0E0744AC0E07480C0E0123F1CE58124FBF58190001FC3
:2025D000E4F0A3F07E007F0090107BEEF0EFA3F090000BC007C006123EAEAC82AD83D006B2
:2025F000D007EC2401F527ED3400F528852782852883E0F8A3E0F97B00C007C006C005C04A
:2026100004C000C001C003C006C0077493C0E07449C0E07480C0E0123F1CE58124F8F581D8
:20263000D004D005D006D007852782852883E0FAA3E0FB4A70030226D9EC2401FCED340092
:20265000FD74042CFAE43DFB8A828B83E0F525A3E0F5268C828D83E0F527A3E0F528E5253D
:202670002527FCE5263528FD8C2A8D2B752C00A827AD287C00C007C006C003C002C025C0B7
:2026900026C02AC02BC02CC000C005C004C006C0077419C0E0744AC0E07480C0E0123F1CE1
:2026B000E58124F3F581D002D003D006D0078A828B83E0FAA3E0FB90001FE0FCA3E0FD90B8
:2026D000001FEA2CF0EB3DA3F00EBE00010FC3EE9402EF6480948050030225D89010B4E07A
:2026F000FBA3E0FCA3E0FD900021EBF0ECA3F0EDA3F08E2A8F2B900021E0FBA3E0FCA3E045
:20271000FDEB4C70030227E88B828C838DF0124948F9A3124948FA4970030227AC74042B48
:20273000FBE43CFC8B828C838DF0124948F527A3124948F528E52729FEE5283AFF8E2D8FF4
:202750002E752F007F00C005C004C003C027C028C02DC02EC02FC001C002C007C02AC02B14
:202770007419C0E0744AC0E07480C0E0123F1CE58124F3F581D003D004D0058B828C838DA5
:20279000F0124948FBA3124948FC90001FE0FEA3E0FF90001FEB2EF0EC3FA3F0052AE4B50C
:2027B0002A02052B900021E0FDA3E0FEA3E0FF74082DFDE43EFE8D828E838FF0124948FD17
:2027D000A3124948FEA3124948FF900021EDF0EEA3F0EFA3F002270690001FE0C0E0A3E0EE
:2027F000C0E07434C0E07410C0E0E4C0E07434C0E07400C0E0E4C0E07445C0E0744AC0E0A2
:202810007480C0E0123F1CE58124F5F58122AFF0AE83E582900025F0EEA3F0EFA3F0900021
:2028300025E0FDA3E0FEA3E0FF74062DF532E43EF5338F348532828533838534F0124948E8
:20285000F530A3124948F53174042DF8E43EF98F04888289838CF0124948F8A3124948F920
:20287000C3E53098E531994001228D828E838FF0124948FBA3124948FCE5302BFBE5313CBA
:20289000FC900024E0FA8B828C83F08532828533838534F0124948FCA3124948FB0CBC00CD
:2028B000010B8532828533838534F0EC123CEEA3EB123CEE8A82C007C006C005122094E5E4
:2028D00082D005D006D007602A74022DFDE43EFE8D828E838FF0124948FBA3124948FC0B10
:2028F000BB00010C8D828E838FF0EB123CEEA3EC023CEE22AFF0AE83E582900028F0EEA3ED
:20291000F0EFA3F0900028E0C0E0A3E0C0E0A3E0C0E0746EC0E0744AC0E07480C0E0123FF2
:202930001CE58124FAF581747BC0E0744AC0E07480C0E0123F1C15811581158122904A9C29
:2029500075F08012290490002BE4F0A3F07E007F0090107BEEF0EFA3F090000BC007C00681
:20297000123EAEAC82AD83D006D007EC2401F582ED3400F583E0FAA3E0FB4A7003022A4696
:20299000EC2401FCED3400FD74042CF535E43DF536853582853683E0F8A3E0F974062CF579
:2029B00082E43DF583E0FAA3E0FBE8C39AF537E99BF5388C828D83A3A3E0F539A3E0F53A4E
:2029D0008C828D83E0F53BA3E0F53CE8253BFAE9353CFB8A3D8B3E753F00AC3BAD3C7B00DF
:2029F000C007C006C037C038C039C03AC000C001C03DC03EC03FC004C005C003C006C00704
:202A100074A8C0E0744AC0E07480C0E0123F1CE58124EFF581D006D007853582853683E095
:202A3000FCA3E0FD90002BE0FAA3E0FB90002BEC2AF0ED3BA3F00EBE00010FC3EE9402EF69
:202A50006480948050030229619010B4E0FBA3E0FCA3E0FD74042BF8E43CF98D0274022B7D
:202A7000F53DE43CF53E8D3F8E398F3AEB4C7003022B618B828C838DF0124948F53BA3120C
:202A90004948F53CE53B453C7003022B56C003C004C005888289838AF0124948FCA3124954
:202AB00048FD853D82853E83853FF0124948F537A3124948F538ECC39537F535ED9538F5ED
:202AD00036EC253BFBED353CFF8B408F41754200AE3BAF3C7B00C005C004C003C002C0019C
:202AF000C000C035C036C037C038C004C005C040C041C042C006C007C003C039C03A74A841
:202B1000C0E0744AC0E07480C0E0123F1CE58124EFF581D000D001D002D003D004D0058840
:202B30008289838AF0124948FEA3124948FF90002BE0FCA3E0FD90002BEE2CF0EF3DA3F0FC
:202B5000D005D004D0030539E4B53902053A022A7C90002BE0C0E0A3E0C0E07434C0E074D6
:202B700010C0E0E4C0E07434C0E07400C0E0E4C0E07445C0E0744AC0E07480C0E0123F1C79
:202B9000E58124F5F581740AC0E0744BC0E07480C0E0123F1C15811581158122AF83E58235
:202BB00090002DF0EFA3F090002DE0FEA3E0FFC007C006C006C007740DC0E0744BC0E074AB
:202BD00080C0E0123F1CE58124FBF58112355412354D123BCAAC82AD83D006D007C3EE9CBF
:202BF000EF9D40CBEC9440ED940040C3EC541F70BE8C828D83227453C0E0744BC0E0748063
:202C1000C0E0123F1C1581158115817E007F00C3EE9402EF648094804003022CB090107B6E
:202C3000EEF0EFA3F090000BC007C006123EAEAC82AD83D006D007EC2401F582ED3400F555
:202C500083E0FCA3E0FD4C60137B008C828D838BF0C007C0061239D7D006D00790107BEE4D
:202C7000F0EFA3F090000BC007C006123EAEAC82AD83D006D007EC2401F582ED3400F58380
:202C9000E4F0A3F0EC2401FCED3400FD8C828D83A3A3A3A3E4F0A3F00EBE00010F022C1F58
:202CB0009010B475F0000238B612294D12360AAE82AF83C007C006123616D006D007C006C1
:202CD000C007746AC0E0744BC0E07480C0E0123F1CE58124FBF58190002FE4F0A3F07E00A0
:202CF0007F00C3EE9402EF648094804003022E7B90107BEEF0EFA3F090000BC007C0061274
:202D10003EAEAC82AD83D006D007EC2401FCED3400FD8C828D83E0FAA3E0FB8A828B83E011
:202D3000900031F090002FE0FAA3E0FB78007900900031E07003022DEEEA541F7035C007D0
:202D5000C006C005C004C003C002C001C000740AC0E0744BC0E07480C0E0123F1C158115E5
:202D7000811581D000D001D002D003D004D005D006D007C006C007900031E0FF7E00C0071E
:202D9000C006C005C004C003C002C001C000C007C006749BC0E0744BC0E07480C0E0123F4E
:202DB0001CE58124FBF581D000D001D002D003D004D005D006D0070ABA00010B08B80001BF
:202DD000098C828D83E0FEA3E0FFE82EF582E93FF583E0900031F0D007D006022D409000F2
:202DF0002FEAF0EBA3F090107BEEF0EFA3F090000BC007C006123EAEAC82AD83EC2401F537
:202E100082ED3400F583E0FAA3E0FB8A438B44754500EC2401FCED3400FD8C828D83A3A34A
:202E3000A3A3E0F8A3E0FB901069E4F090106AE8F0EBA3F08543828544838545F0C005C0D4
:202E500004123BA2D004D005D006D0078C828D83A3A3E4F0A3F074062CF582E43DF583E4B4
:202E7000F0A3F00EBE00010F022CF2740AC0E0744BC0E07480C0E0123F1C15811581158183
:202E9000740AC0E0744BC0E07480C0E0123F1C15811581158122904B9E75F0801229047EA5
:202EB000007F00C3EE9402EF64809480400122C007C006C006C00774B1C0E0744BC0E07440
:202ED00080C0E0123F1CE58124FBF58174BFC0E0744BC0E07480C0E0123F1C1581158115E6
:202EF00081D006D00790107BEEF0EFA3F090000BC007C006123EAEAC82AD83D006D007ECFC
:202F10002401FAED3400FB8A828B83E0F8A3E0F9884689477548008E008F018A4D8B4EECE3
:202F30002401FCED3400FD74042CF549E43DF54AC000C001854D82854E83E0F8A3E0F985FC
:202F50004982854A83E0FCA3E0FDEC28F54BED39F54CA946AC47AD48A84BAA4C7B00C00032
:202F7000C002C00389828C838DF0122006158115811581D001D000400302302CAB46AC4705
:202F9000C001C000C003C00474CCC0E0744BC0E07480C0E0123F1CE58124FBF581D000D03E
:202FB00001AB46AC47AD48E4F54BF54CC3E54B9410E54C648094805055C000C001E54B2B81
:202FD000F8E54C3CF98D02888289838AF0124948F87A00C005C004C003C001C000C000C002
:202FF0000274D4C0E0744BC0E07480C0E0123F1CE58124FBF581D000D001D003D004D0055F
:20301000054BE4B54B02054CD001D000809E74102546F546E43547F547022F40C001C000A2
:20303000740AC0E0744BC0E07480C0E0123F1C158115811581D000D001740128FEE439FFE8
:20305000022EB3904BDC75F0801229047E007F00C3EE9402EF6480948040030230FF901063
:203070007BEEF0EFA3F090000BC007C006123EAEAC82AD83D006D007EC2401F582ED34008B
:20309000F583E0FAA3E0FB4A605DC006C0078B017B00EC2401FCED3400FD8C828D83A3A326
:2030B000A3A3E0F8A3E0FF901069E4F090106AE8F0EFA3F08A8289838BF0C007C006C0053A
:2030D000C004123BA2D004D005D006D00774062CF582E43DF583E4F0A3F08C828D83A3A356
:2030F000F0A3F0D007D0060EBE00010F0230609010B4E0FDA3E0FEA3E0FFED4E7001228D93
:20311000828E838FF0124948FBA3124948FC8B4F8C5075510074042DF8E43EF98F048882DC
:2031300089838CF0124948F8A3124948F9901069E4F090106AE8F0E9A3F0854F8285508334
:203150008551F0C007C006C005123BA2D005D006D00774062DFAE43EFB8F048A828B838CDF
:20317000F0E4123CEEA3123CEE74022DFDE43EFE8D828E838FF0E4123CEEA3023CEED290A0
:203190009010B4E0FDA3E0FEA3E0FFED4E601F74082DFDE43EFE8D828E838FF0124948FD2C
:2031B000A3124948FEA3124948FFED4E7003C290228D828E838FF0124948FBA3124948FCD5
:2031D0008B528C53755400900001E0F8A3E0F97C00900005E0FAA3E0FB901061E8F0E9A3A7
:2031F000F0ECA3F0901064EAF0EBA3F08552828553838554F0C007C006C005123B2ED005D5
:20321000D006D00774022DFAE43EFB8F04900003E0F8A3E0F98A828B838CF0E8123CEEA360
:20323000E9123CEE74062DFDE43EFE900007E0FBA3E0FC8D828E838FF0EB123CEEA3EC123D
:203250003CEEC29022D2909010B4E0FDA3E0FEA3E0FFED4E601F74082DFDE43EFE8D828E0D
:20327000838FF0124948FDA3124948FEA3124948FFED4E7003C290228D028E038F047406C4
:203290002DFDE43EFE78007900C002C003C0048D828E838FF0124948FBA3124948FCC3E870
:2032B0009BE99CD004D003D002506BC005C006C0078A828B838CF0124948FEA3124948FFDC
:2032D000E82EF582E93FF583E0F51BC3745A951BD007D006D005500674BF251B5030C005F0
:2032F000C006C0078A828B838CF0124948FEA3124948FFE82EFEE93FFF8E828F83E0FD4338
:2033100005208E828F83EDF0D007D006D00508B8000109023299C2902274EAC0E0744BC06F
:20333000E07480C0E0123F1C15811581158112355412354D123BCAAE82AF83C3EE9458EFA6
:2033500064809482500FC374C89E74808FF063F08095F040177420C0E0744CC0E07480C0FD
:20337000E0123F1C15811581158180AD8E828F83122169AD82AE83AFF0ED4E70167449C006
:20339000E0744CC0E07480C0E0123F1C1581158115812290103EEDF0EEA3F0EFA3F090109A
:2033B000B475F00012361E7486C0E0744CC0E07480C0E0123F1C1581158115812274B2C0B9
:2033D000E0744CC0E07480C0E0123F1C15811581158112355412354D123BCAAE82E583FFFD
:2033F00030E71674F3C0E0744CC0E07480C0E0123F1C15811581158122C374019E74808FEB
:20341000F063F08095F040167421C0E0744DC0E07480C0E0123F1C15811581158122EE2471
:20343000FEFEEF34FFFF901047EEF0EFA3F09010B475F000123704E58260167457C0E07456
:203450004DC0E07480C0E0123F1C158115811581227476C0E0744DC0E07480C0E0123F1C9E
:2034700015811581158122122206749EC0E0744DC0E07480C0E0123F1C1581158115811236
:2034900035E7AF82C007122094E582D0076014900024EFF090000175F000C00712281ED018
:2034B000078012900024EFF090000C75F000C00712281ED007BF23028044BF24028039BFD4
:2034D00025028025BF2B02803BBF2D02803CBF3D028010BF3F028005BF408F8012122CB995
:2034F00002347A122EA602347A12305302347A122C0612220602347A12318E02347A12323E
:103510005502347A12332902347A1233CD02347AC6
:204964000D0A506C6561736520656E74657220746865206C6173742074776F206469676918
:204984007473206F6620796F75722049443A000D0A207374617469635F6275666665727356
:2049A4005B25645D2E627566666572202570000D0A4275666665722053697A6520746F6FB7
:2049C400206269672C20706C65617365207069636B206120736D616C6C65722062756666A0
:2049E40065722073697A65000D0A73747564656E745F6E756D6265723A202564000D0A758C
:204A04007365725F6275666665725F73697A653A20257A75000D0A6275666665725F25646E
:204A24002073746172747320402025702C20656E6473204025702C2073697A6520257A7576
:204A4400000D0A486561702073746172747320402025702C20656E647320402025702C2090
:204A640073697A653A20257A75000D0A20202020202020202573000D0A2D2D2D2D2D2D2D08
:204A84002D2D2D2D2D2D2D2D2D2D2D2D2D2D2D2D2D2D2D2D2D2D2D004845415020524550E2
:204AA4004F5254000D0A6275666665725F25642073746172747320402025702C20656E642B
:204AC40073204025702C2073697A6520257A752C20636F6E7461696E7320257A7520616C63
:204AE4007068616265742063686172732C2068617320257A752063686172732072656D615B
:204B0400696E696E67000D0A000D0A506C6561736520656E74657220612076616C696420E5
:204B24006275666665722073697A65207468617420697320646976697369626C6520627979
:204B4400203332205B36342C257A755D3A20000D0A2046726565696E6720414C4C20425549
:204B64004646455253000D0A20526563656976656420257A752063686172732073696E632B
:204B840065206C61737420696E766F636174696F6E206F66203F0025630044756D702041AB
:204BA400646D696E2042756666657273000D0A2042756666657220256420000D0A2D2D2D64
:204BC4002D2D2D2D2D2D2D000D0A253034583A002025303268685800436C656172204275D7
:204BE4006666657273000D0A506C6561736520656E74657220612073697A6520666F722009
:204C0400746865206E6577206275666665722C205B3230302C3630305D3A20000D0A4275CB
:204C2400666665722073697A6520696E76616C6964212120506C656173652074727920612F
:204C44006761696E000D0A20416C6C6F636174696F6E206661696C65643B2061626C6520E0
:204C6400746F20616C6C6F636174652068656164657220627574206E6F742062756666655B
:204C840072000D0A20416C6C6F636174696F6E207375636365737366756C2121204E657775
:204CA40020627566666572206164646564000D0A506C6561736520656E7465722074686534
:204CC400206E756D626572206F66207468652062756666657220796F7520776F756C64204F
:204CE4006C696B6520746F20667265653A20000D0A20496E76616C69642062756666657254
:204D0400206E756D6265722C206E6567617469766573206E6F742076616C6964000D0A20FC
:204D2400496E76616C696420627566666572206E756D6265722C20627566666572732030DC
:204D440020262031206172652070726F746563746564000D0A205375636365737366756C1F
:204D64006C792072656D6F76656420627566666572000D0A204661696C656420746F20728D
:204D8400656D6F7665206275666665722C2069647820746F6F20626967000D0A456E746561
:0B4DA40072206120636861723A2000F9
:034DBC00000000F4
:20352000AF83E582900032F0EFA3F010990280FB900032E0FEA3E0FF8E998E828F832210FB
:0D354000980280FBAE997F008E828F83225F
:024DAF000010F2
:20354D0090103475F00022901069E4F090106A740AF0E4A3F090103475F000123BA27D345E
:20356D007E107F007B0A7C00C007C006C005C004C00312353FA98289007A0088828A83C0CC
:20358D0001123520D001D003D004D005D006D0071BBBFF011CB90D03D38001C39201500601
:2035AD00B90A03E9600F8D828E838FF0E9123CEEA3AD82AE8320010CB90A028007E9600453
:2035CD00EB4C70A47409C39BFB3395E0FFEB2434F582EF3410F583E4F02212353FAE828E77
:2035ED00057F008D828F83C006123520D0069010B7E02401F0A3E03400F08E82229010B79A
:11360D00E0FEA3E08E82F583229010B7E4F0A3F022C1
:024DBF000000F2
:20361E00AFF0AE83E582901041F0EEA3F0EFA3F0901041E0F51BA3E0F51CA3E0F51D851BE7
:20363E0082851C83851DF0124948FAA3124948FBA3124948FCEA4B702490103EE0F8A3E012
:20365E00F9A3E0FF851B82851C83851DF0E8123CEEA3E9123CEEA3EF123CEE80619010447A
:20367E00EAF0EBA3F0ECA3F0901044E0FDA3E0FEA3E0FF74082DFDE43EFE8D828E838FF02C
:20369E00124948FAA3124948FBA3124948FCEA4B600D901044EAF0EBA3F0ECA3F080C990B6
:2036BE00103EE0FAA3E0FBA3E0FC8D828E838FF0EA123CEEA3EB123CEEA3EC123CEE9010CD
:2036DE003EE0FDA3E0FEA3E0FF74082DFDE43EFE8D828E838FF0E4123CEEA3123CEEA31295
:2036FE003CEE75820122AFF0AE83E582901049F0EEA3F0EFA3F0901049E0F508A3E0F5090E
:20371E00A3E0F50AE50845097003F58222850882850983850AF0124948FAA3124948FBA3A2
:20373E00124948FCEA4B7003F58222901047E0F8A3E0F9901047E0F5F0A3E045F0704290AA
:20375E00104CEAF0EBA3F0ECA3F074082AFDE43BFE8C078D828E838FF0124948FDA3124988
:20377E0048FEA3124948FF850882850983850AF0ED123CEEA3EE123CEEA3EF123CEE023803
:20379E006790104FEAF0EBA3F0ECA3F018B8FF0119901047E8F0E9A3F0901047E0FEA3E072
:2037BE00FFEE4F603C90104FE0FBA3E0FCA3E0FD74082BFBE43CFC8B828C838DF012494850
:2037DE00FBA3124948FCA3124948FDEB4C601290104FEBF0ECA3F0EDA3F01EBEFF011F805E
:2037FE00C0EE4F60047582002290104FE0FDA3E0FEA3E0FF74082DFDE43EFE8D828E838FED
:20381E00F0124948FAA3124948FBA3124948FC90104CEAF0EBA3F0ECA3F074082AFAE43BF8
:20383E00FB8A828B838CF0124948FAA3124948FBA3124948FC8D828E838FF0EA123CEEA351
:20385E00EB123CEEA3EC123CEE90104CE0FEA3E0FDA3E0FF90104CE0F5F0A3E045F07003B0
:20387E00F582228E828D838FF0124948FEA3124948FF4E600B7D008E828F838DF01239D715
:20389E0090104CE0FDA3E0FEA3E0FF8D828E838FF01239D775820122AFF0AE83E58290108C
:2038BE0052F0EEA3F0EFA3F0901052E0FDA3E0FEA3E0FF8D828E838FF0124948FAA3124999
:2038DE0048FBA3124948FC901055EAF0EBA3F0ECA3F0901052E0FAA3E0FBA3E0FC8A828B19
:2038FE00838CF0124948F50BA3124948F50CA3124948F50DE50B450C700122C005C006C05A
:20391E00077408250BF8E4350CF9AF0D888289838FF0124948F8A3124948F9A3124948FF50
:20393E008A828B838CF0E8123CEEA3E9123CEEA3EF123CEE901055E0FDA3E0FEA3E0FF8DB7
:20395E00828E838FF0124948F50BA3124948F50CD007D006D005E50B450C601BAB0BAC0CA1
:20397E007A008B828C838AF0C007C006C0051239D7D005D006D007901055E0FAA3E0FBA333
:20399E00E0FC8A828B838CF0C007C006C0051239D7D005D006D0078D828E838FF01249485F
:1939BE00FAA3124948FBA3124948FC901055EAF0EBA3F0ECA3F00238F07D
:2039D700AFF0AE83E582901058F0EEA3F0EFA3F0901058E0FDA3E0FEA3E0901058E0F5F018
:2039F700A3E045F070012290105DE4F0A3F0901073E0FBA3E0FC90105BEBF0ECA3F090109F
:203A17005F7473F07410A3F090105BE0FBA3E0FC4B60418B018C02C003C0048D008E04C37E
:203A3700E998EA9CD004D003502A90105DEBF0ECA3F074022BFBE43CFC90105FEBF0ECA3CF
:203A5700F08B828C83E0FBA3E0FC90105BEBF0ECA3F080B490105BE0FEA3E0FF901058E02D
:203A7700FBA3E0FCA3E0EB24FEFBEC34FFFC74022BFAE43CFD8A828D83EEF0EFA3F090103B
:203A97005FE0F8A3E0F988828983EBF0ECA3F08B828C83E0F8A3E0F9EEB50033EFB5012FD2
:203AB70088828983A3A3E0FEA3E0FF8A828D83EEF0EFA3F08B828C83E0FEA3E0FF8E828F9C
:203AD70083E0FEA3E0FF8B828C83EEF0EFA3F090105DE0FEA3E0FF4E603C8E828F83E0F82F
:203AF700A3E0F9E8B5032FE9B5042B8B828C83E0FBA3E0FC8E828F83EBF0ECA3F074022E01
:173B1700FEE43FFF8A828D83E0FAA3E0FD8E828F83EAF0EDA3F02263
:06206300E478FFF6D8FD51
:203B2E00AFF0AE83E582901066F0EEA3F0EFA3F0901066E0F51BA3E0F51CA3E0F51DAA1B63
:203B4E00AB1CAC1D901061E0F8A3E0F9A3E0FF901064E0F51EA3E0F51FAD1EAE1F151E7423
:203B6E00FFB51E02151FED4E6020888289838FF0124948FEA3A882A9838A828B838CF0EEC1
:143B8E00123CEEA3AA82AB8380CF851B82851C83851DF022A1
:203BA200AC82AD8390106AE0FEA3E0FFBE000360121F0F901069E08C828D83123CEEA3DE16
:083BC200FADFF88C828D8322EA
:203BCA00AFF0AE83E58290106CF0EEA3F0EFA3F090106FE4F0A3F090106CE0FDA3E0FEA322
:203BEA00E0FF8D828E838FF0124948FCBC20028003BC09120DBD00010E90106CEDF0EEA313
:203C0A00F0EFA3F080DC90106CEDF0EEA3F0EFA3F08D828E838FF0124948FC901071E4BCF1
:203C2A002D0104F0BC2D028003BC2B0E90106C74012DF0E43EA3F0EFA3F090106CE0FDA394
:203C4A00E0FEA3E0FF8D828E838FF0124948FCBC30009202405FEC24C69202405890106F8C
:203C6A00E0FBA3E0FC90107BEBF0ECA3F090000AC007C006C005123EAEAB82AC83D005D080
:203C8A0006D0078D828E838FF0124948FAA3AD82AE8390106CEDF0EEA3F0EFA3F08A017A0D
:203CAA0000E924D0F9EA34FFFA90106FE92BF0EA3CA3F0809090106CEDF0EEA3F0EFA3F045
:203CCA00901071E0601190106FE0FEA3E0FFC3E49EFEE49FFF800890106FE0FEA3E0FF8EBF
:043CEA00828F832220
:202041007905E94400601B7A01904DBC78B475A010E493F2A308B8000205A0D9F4DAF27573
:02206100A0FFDE
:1B3CEE0020F71130F6138883A88220F509F6A8837583002280FEF280F5F022D5
:203D09009010737434F07400A3F0904DAFE493FE740193FF1EBEFF011FEE2434FEEF34007E
:203D2900FF900034EEF0EFA3F0901073E0FEA3E0FF8E828F83A3A3E4F0A3F022AF83E5825A
:203D4900901075F0EFA3F0901073E0F5F0A3E045F07003123D09901075E0FEA3E0FF4E6055
:203D69000E74022EFCE43FFDC3EC9EED9F50049000002290107574022EF0E43FA3F090108E
:203D890075E0FEA3E0FFC3EE9404EF940050099010757404F0E4A3F0901073E0FEA3E0FFB9
:203DA900901077EEF0EFA3F09010797473F07410A3F0901077E0FEA3E0FF4E7003023EAA5A
:203DC9008E828F83E0FCA3E0FD8C028D038E008F01EAC398FAEB99FB8A008B01901075E057
:203DE900F50EA3E0F50FC3E8950EE9950F5003023E877404250EF8E4350FF9C3EA98EB99AE
:203E0900404C8E028F03E50E2AFAE50F3BFB8A828B83ECF0EDA3F074022AFCE43BFD8E826C
:203E29008F83A3A3E0F8A3E0F98C828D83E8F0E9A3F0901079E0FCA3E0FD8C828D83EAF0EE
:203E4900EBA3F08E828F83EAF0EBA3F0801C901079E0FCA3E0FD8E828F83A3A3E0FAA3E08B
:203E6900FB8C828D83EAF0EBA3F0901077E0FCA3E0FD74022CFCE43DFD8C828D83227402E3
:203E89002EFEE43FFF901079EEF0EFA3F08E828F83E0FEA3E0FF901077EEF0EFA3F0023D1A
:053EA900BB90000022A7
:203EAE00AA83AB828BF090107BE0A4F8A9F08AF0E0A429F98BF0A3E0A429F583888222223E
:202069007800E84400600A790175A000E4F309D8FC78B3E84410600C7911900001E4F0A3A1
:04208900D8FCD9FAAC
:203ECE00C01A85811A7E008E83123520D01A22AFF0AE83E58290107EF0EEA3F0EFA3F09000
:203EEE00107EE0FDA3E0FEA3E0FF90107DE0FC901092E4F0A3F0A3F0901095EDF0EEA3F08E
:203F0E00EFA3F0901098ECF0903ECE024022C01AE581F51A24FBFF901092E4F0A3F0A3F064
:203F2E00E51A24FBF8901095E6F008E6A3F008E6A3F0901098EFF0903ECE124022D01A221D
:203F4E00E58290108EF0E0FF901084E0C0E0A3E0C0E0A3E0C0E0123F69800D901082E0C0FC
:203F6E00E0A3E0C0E08F822215811581158190108CE02401F0A3E03400F022E58290108FBB
:203F8E00F0E02430FF24C6500D74072FFF901081E060034307208F82023F4EE582901090FB
:203FAE00F0E0FFC4540FF582C007123F89D00753070F8F82023F89E582901091F09010871B
:203FCE00E0FCA3E0FDA3E0FEA3E0FF90108BE0FB901091E0FA79208B00E828F51BEF2354B9
:203FEE0001451BFBEC2CFCED33FDEE33FEEF33FFC3EB9A4007EBC39AFB43040119E970D783
:20400E00901087ECF0EDA3F0EEA3F0EFA3F090108BEBF022AF83E582901099F0EFA3F09010
:20402E001099E0FEA3E0FF901082EEF0EFA3F0901092E0FDA3E0FEA3E0FF901084EDF0EEE6
:20404E00A3F0EFA3F090108CE4F0A3F0901095E0FDA3E0FEA3E0FF8D828E838FF012494853
:20406E00FC90109574012DF0E43EA3F0EFA3F0EC7003024924BC2502800302491C90109B62
:20408E00E4F090109CF090109DF090109EF090109FF09010A0F09010A1F09010A2F0901055
:2040AE00A4F09010A5F0A3F09010A714F0A3F0901095E0FDA3E0FEA3E0FF8D828E838FF004
:2040CE00124948FBA3AD82AE83901095EDF0EEA3F0EFA3F09010ABEBF0BB25088B82123FB0
:2040EE004E02405ABB300050030241BBEB24C650030241BB9010A7E0F510A3E0F51174FF3E
:20410E00B51063B51160C005C006C0079010A5E0FAA3E0FF90107BEAF0EFA3F090000AC07F
:20412E0005C003123EAEAE82AF83D003D0058B027D00EA2EFEED3FFFEE24D0FEEF34FFFF55
:20414E009010A5EEF0EFA3F0D007D006D0059010A5E0F5F0A3E045F060030240C890109CBF
:20416E007401F00240C8C005C006C00790107BE510F0E511A3F090000AC006C005C00312ED
:20418E003EAEAA82AF83D003D005D0067E00EB2AFAEE3FFFEA24D0FAEF34FFFF9010A7EA66
:2041AE00F0EFA3F0D007D006D0050240C89010ABE0FBBB2E2FC005C006C0079010A7E0FA42
:2041CE00A3E0FFBAFF05BFFF028009D007D006D0050240C8D007D006D0059010A7E4F0A37C
:2041EE00F00240C8BB61004014EB2485400F9010AB74DF5BF09010817401F080059010814F
:20420E00E4F09010ABE0FBBB20028075BB2B028067BB2D028059BB4202806FBB4302807C48
:20422E00BB44030244B2BB46030244D8BB48030240C8BB49030244B2BB4A030240C8BB4C2C
:20424E00028050BB4F030244C0BB5003024420BB53028077BB54030240C8BB55030244C8B3
:20426E00BB58030244D0BB5A030240C80244E090109B7401F00240C890109D7401F002402E
:20428E00C890109E7401F00240C89010A07401F00240C89010A17401F00240C89010A0E01C
:2042AE00600E901098E014F9F09010ABE7F0800F901098E024FEFFF08F019010ABE7F09051
:2042CE0010ABE0F582123F4E0244EF901098E024FDFFF08F018705098706098707191990B7
:2042EE001087EDF0EEA3F0EFA3F08D828E838FF01249308582108583119010A7E0FAA3E03B
:20430E00FDBAFF0DBDFF0A9010A7E510F0E511A3F090109BE0704B9010A5E0FAA3E0FDC319
:20432E00E5109AE5119D503A9010A5EAC39510F0ED9511A3F09010A5E0FAA3E0FD8A068D5A
:20434E00071ABAFF011DEE4F6010758220C005C002123F4ED002D00580E39010A5EAF0ED57
:20436E00A3F09010A7E0F513A3E0F514901087E0FAA3E0FDA3E0FF8A828D838FF0124948A0
:20438E00F512603CC3E4951374808514F063F08095F0502C151374FFB51302151485128225
:2043AE00123F4E901087E0FAA3E0FDA3E0FF0ABA00010D901087EAF0EDA3F0EFA3F080AC4C
:2043CE0090109BE070030244EF9010A5E0FEA3E0FFC3E5109EE5119F40030244EF9010A5BF
:2043EE00EEC39510F0EF9511A3F09010A5E0FEA3E0FF8E028F051EBEFF011FEA4D700302D1
:20440E0044E7758220C007C006123F4ED006D00780E0901098E024FDFDF08D018715098733
:20442E00160987171919901087E515F0E516A3F0E517A3F0901089E0FDBD80004008901026
:20444E00AB7443F08020BD600040089010AB7450F08013BD400040089010AB7449F08006A2
:20446E009010AB7458F09010ABE0FDF582C005123F4E75823A123F4E758230123F4E758297
:20448E0078123F4ED005BD4902800EBD50028009901088E0F582123FA9901087E0F58212EB
:2044AE003FA9803D90109F7401F09010A4740AF0802F9010A47408F080279010A4740AF03B
:2044CE00801F9010A47410F080179010A27401F0800F8B82123F4E80089010A5EEF0EFA3C1
:2044EE00F09010A2E06071901098E024FCFFF08F01870309870509870609870719191990ED
:20450E001087EBF0EDA3F0EEA3F0EFA3F090108774B1F0744DA3F07480A3F0901087E0F585
:20452E0015A3E0F516A3E0F51774012515FAE43516FBAF17901087EAF0EBA3F0EFA3F0851C
:20454E0015828516838517F0124948FF700302405A8F82123F4E80C39010A4E0700302408F
:20456E005A9010A0E06047901098E014F9F087077E007D007B00901087EFF0EEA3F0EDA3DC
:20458E00F0EBA3F090109FE06003024632901087E0FBA3E0A3E0A3E07D007E007F009010FE
:2045AE0087EBF0EDA3F0EEA3F0EFA3F080769010A1E06028901098E024FCFFF08F01870328
:2045CE00098705098706098707191919901087EBF0EDA3F0EEA3F0EFA3F08048901098E05B
:2045EE0024FEFFF08F01870609870719EF3395E0FDFB901087EEF0EFA3F0EDA3F0EBA3F0BB
:20460E0090109FE0701E901087E0FBA3E0FDA3E0A3E07E007F00901087EBF0EDA3F0EEA347
:20462E00F0EFA3F090109FE06041901087E0FBA3E0FDA3E0FEA3E0FF30E72B901087E0FB71
:20464E00A3E0FDA3E0FEA3E0FFC3E49BFBE49DFDE49EFEE49FFF901087EBF0EDA3F0EEA3F9
:20466E00F0EFA3F0800590109FE4F09010A37401F09010A4E0F5137518B1751910E4F51089
:20468E00F51190108BE4F0851382123FC59010A3E0703390108BE0C454F0F51590108BE0E9
:2046AE00C4540F4515F515851882851983E0FFE5154207851882851983EFF0151874FFB58B
:2046CE0018021519800C90108BE0FF851882851983F00510E4B5100205119010A3E0B40110
:2046EE0000E433F0901087E0FAA3E0FBA3E0FEA3E0FFEA4B4E4F708A9010B2E518F0E5191A
:20470E00A3F09010A9E510F0E511A3F09010A5E0F5F0A3E045F070099010A57401F0E4A3D5
:20472E00F090109CE0FFE0704790109BE070418510188511199010A5E0FAA3E0FBC007AF8E
:20474E00180F8F067F00C3EE9AEF9BD0075019758220C007C003C002123F4ED002D003D084
:20476E00071ABAFF011B80D59010A5EAF0EBA3F090109FE0602075822DC007123F4ED00743
:20478E009010A5E024FFFDA3E034FFFE9010A5EDF0EEA3F080569010A9E0F5F0A3E045F0D3
:2047AE00604A90109DE0602075822BC007123F4ED0079010A5E024FFFDA3E034FFFE9010AC
:2047CE00A5EDF0EEA3F0802490109EE0601E758220C007123F4ED0079010A5E024FFFDA34C
:2047EE00E034FFFE9010A5EDF0EEA3F090109BE070489010A9E0F518A3E0F5199010A5E038
:20480E00FAA3E0FBC0078A068B071ABAFF011BC3E5189EE5199FD0075053EF60067D307E45
:20482E000080047D207E008D82C007C003C002123F4ED002D003D00780CA9010A5E0FEA345
:20484E00E0FF9010A9E0F518A3E0F519C3E5189EE5199F500F9010A5EEC39518F0EF95191A
:20486E00A3F080119010A5E4F0A3F080089010A5EAF0EBA3F09010B2E0FEA3E0FF9010A93A
:20488E00E0F518A3E0F519AA18AD19151874FFB518021519EA4D60459010A3E0B40100E4CF
:2048AE0033F09010A3E070140EBE00010F8E828F83E0C4540FFD90108BF0800E8E828F8353
:2048CE00E0FD53050F90108BEDF090108BE0F582C007C006123F89D006D00780AA90109B83
:2048EE00E0700302405A9010A5E0FEA3E0FF8E038F051EBEFF011FEB4D700302405A7582B8
:20490E0020C007C006123F4ED006D00780E08C82123F4E02405A90108CE0FEA3E08E82F555
:02492E008322E2
:0B4DB1003C4E4F20464C4F41543E004A
:18493000AA82AB831249486003A380F8C3E5829AF582E5839BF583221C
:20200600E58124FCC3C8C0E0C082E608467006E5824583601218E58296F58208E5839642A8
:1B2026008208E5F0964582D082C8D0E0C822758154122090E582600302200334
:1C49480020F71430F6148883A88220F507E6A88375830022E280F7E49322E0227E
:00000001FF
