:0320000002203487
:03208D000220032B
:032003000238BEE2
:2020900090000022E582900017F0E0FF24A592004007BF410092005016900017E0FF2485D8
:2020B00092004007BF610092005004C2008002D200A200E433F58222AFF0AE83E582900002
:2020D00018F0EEA3F0EFA3F0900018E0FDA3E0FEA3E0FF74022DFAE43EFB8F048A828B83F6
:2020F0008CF0E4124342A312434274062DFAE43EFB8F048A828B838CF0E4124342A3124345
:202110004274082DFAE43EFB8F048A828B838CF0E4124342A3124342A31243428D828E8375
:202130008FF0124F9CFBA3124F9CFC7A0074042DFDE43EFE8D828E838FF0124F9CFDA312F2
:202150004F9CFE902088E4F0902089EDF0EEA3F08B828C838AF00241F6AF83E58290001BD0
:20217000F0EFA3F090000B124399AE82AD837F00EE4D7006900000F5F02274042EFAE43D6C
:20219000FB8F0490001BE0F8A3E0F98A828B838CF0E8124342A3E912434288828983C0078D
:2021B000C006C005124399AB82AC83D005D006D0078E828D838FF0EB124342A3EC12434271
:2021D000EB4C70168E028D038F048A828B838CF012402B90000075F000228E828D838FF0B6
:2021F000C007C006C0051220C8D005D006D0078E828D838FF022E58290001DF0E0FFBF306E
:202210000092014007EF24C692015004C2018002D201A201E433F582229020D3E4F0A3F0BF
:20223000A3F074B8C0E0744FC0E07480C0E01245701581158115811239C31239BC124F84B5
:20225000AE82AF83BE0232BF002F1239BC124F9CF582122206E58260201239BCAD82AE8329
:20227000AFF00DBD00010E8D828E838FF0124F9CF582122206E582701774E7C0E0744FC01D
:20229000E07480C0E012457015811581158180921239BC12421E858225E583F52620E711DF
:2022B000C37463952574808526F063F08095F050187421C0E07450C0E07480C0E012457077
:2022D00015811581158102223290001EE4F07404A3F0902088E4F09020897416F0E4A3F013
:2022F00090000175F0001241F690209A74022525F0E43526A3F090000A124502AC82AD8372
:2023100090001EE0FAA3E0FB8A828B83C005C004122BFDAA82AB83D004D00578007900C313
:20233000E89402E9648094804003022434C004C00590209AE8F0E9A3F090000BC005C00446
:20235000C003C002C001C000124502858221858322D000D001D002D003D004D005E52124A3
:2023700001F523E5223400F5248A828B83C003C002C001C000124399AC82AD83D000D001D3
:20239000D002D003852382852483ECF0EDA3F0EC4DD005D0047043C004C005C005C004C06F
:2023B00003C002122CB77460C0E07450C0E07480C0E0124570158115811581D002D003D0E9
:2023D00004D005EA24FFFCEB34FFFD90001EECF0EDA3F0D005D004022310C004C005E52179
:2023F0002401FCE5223400FD8C828D83A3A3A3A3EAF0EBA3F07F008C828D838FF0C005C0D1
:2024100004C003C002C001C0001220C8D000D001D002D003D004D00508B8000109D005D04A
:202430000402232F7E007F00C3EE9402EF6480948040030224E68A828B83C007C006C0054E
:20245000C004C003C00212216985822785832885F029D002D003D004D005D006D007E52784
:202470004528703BC005C004C003C002122CB77460C0E07450C0E07480C0E0124570158168
:2024900015811581D002D003D004D005EA24FFF8EB34FFF990001EE8F0E9A3F002231090CF
:2024B000204AE527F0E528A3F0E529A3F09020D375F000C007C006C005C004C003C00212D0
:2024D0003B2ED002D003D004D005D006D0070EBE00010F0224389020537402F0E4A3F090DE
:2024F00020D375F000C005C004C003C002123C14D002D003D004D0058C068D078E828F836E
:20251000C005C004C003C002122169A982AE83AFF0D002D003D004D005E94E7043C004C04A
:2025300005C005C004C003C002122CB77460C0E07450C0E07480C0E012457015811581150F
:2025500081D002D003D004D005EA24FFF8EB34FFFD90001EE8F0EDA3F0D005D00402231098
:2025700090204AE9F0EEA3F0EFA3F09020D375F000C005C004C003C002123B2ED002D0035F
:20259000EA2AFEEB33FF8E828F83C003C002122169A982AE83AFF0D002D003D004D005E987
:2025B0004E7043C004C005C005C004C003C002122CB77460C0E07450C0E07480C0E01245BB
:2025D00070158115811581D002D003D004D005EA24FFF8EB34FFFD90001EE8F0EDA3F0D075
:2025F00005D00402231090204AE9F0EEA3F0EFA3F09020D375F000C003C002123B2EC0251A
:20261000C0267499C0E07450C0E07480C0E0124570E58124FBF581D002D003C002C00374BF
:20263000AEC0E07450C0E07480C0E0124570E58124FBF581900020E4F0A3F07E007F0090DE
:20265000209AEEF0EFA3F090000BC007C006124502AC82AD83D006D007EC2401F582ED341B
:2026700000F583E0FAA3E0FB4A700302270EEC2401FCED3400FD74042CFAE43DFB8A828B0A
:2026900083E0F525A3E0F5268C828D83E0F527A3E0F528E5252527FCE5263528FD8C2A8D5B
:2026B0002B752C00A827AD287C00C007C006C003C002C025C026C02AC02BC02CC000C005FB
:2026D000C004C006C00774C6C0E07450C0E07480C0E0124570E58124F3F581D002D003D098
:2026F00006D0078A828B83E0FAA3E0FB900020E0FCA3E0FD900020EA2CF0EB3DA3F00EBE32
:2027100000010FC3EE9402EF64809480500302264F9020D3E0FBA3E0FCA3E0FD900022EBA7
:20273000F0ECA3F0EDA3F08E2A8F2B900022E0FBA3E0FCA3E0FDEB4C700302281D8B828C12
:20275000838DF0124F9CF9A3124F9CFA4970030227E174042BFBE43CFC8B828C838DF012AE
:202770004F9CF527A3124F9CF528E52729FEE5283AFF8E2D8F2E752F007F00C005C004C028
:2027900003C027C028C02DC02EC02FC001C002C007C02AC02B74C6C0E07450C0E07480C07C
:2027B000E0124570E58124F3F581D003D004D0058B828C838DF0124F9CFBA3124F9CFC9036
:2027D0000020E0FEA3E0FF900020EB2EF0EC3FA3F0052AE4B52A02052B900022E0FDA3E0BC
:2027F000FEA3E0FF74082DFDE43EFE8D828E838FF0124F9CFDA3124F9CFEA3124F9CFF901D
:202810000022EDF0EEA3F0EFA3F002273B900020E0C0E0A3E0C0E0743BC0E07420C0E0E488
:20283000C0E0743BC0E07400C0E0E4C0E074F2C0E07450C0E07480C0E0124570E58124F5BD
:20285000F581023B26AFF0AE83E582900026F0EEA3F0EFA3F0900026E0FDA3E0FEA3E0FF19
:2028700074062DF532E43EF5338F348532828533838534F0124F9CF530A3124F9CF53174F4
:20289000042DF8E43EF98F04888289838CF0124F9CF8A3124F9CF9C3E53098E531994001D1
:2028B000228D828E838FF0124F9CFBA3124F9CFCE5302BFBE5313CFC900025E0FA8B828C02
:2028D00083F08532828533838534F0124F9CFCA3124F9CFB0CBC00010B85328285338385F7
:2028F00034F0EC124342A3EB1243428A82C007C006C005122094E582D005D006D007602A65
:2029100074022DFDE43EFE8D828E838FF0124F9CFBA3124F9CFC0BBB00010C8D828E838F32
:20293000F0EB124342A3EC02434222741BC0E07451C0E07480C0E01245701581158115812C
:2029500022AFF0AE83E582900029F0EEA3F0EFA3F012293B900029E0C0E0A3E0C0E0A3E00D
:20297000C0E0744EC0E07451C0E07480C0E0124570E58124FAF58102293B90515375F0800C
:2029900012295190002CE4F0A3F07E007F0090209AEEF0EFA3F090000BC007C00612450250
:2029B000AC82AD83D006D007EC2401F582ED3400F583E0FAA3E0FB4A7003022A83EC240106
:2029D000FCED3400FD74042CF535E43DF536853582853683E0F8A3E0F974062CF582E43DA7
:2029F000F583E0FAA3E0FBE8C39AF537E99BF5388C828D83A3A3E0F539A3E0F53A8C828D16
:202A100083E0F53BA3E0F53CE8253BFAE9353CFB8A3D8B3E753F00AC3BAD3C7B00C007C0B2
:202A300006C037C038C039C03AC000C001C03DC03EC03FC004C005C003C006C007745FC0B7
:202A5000E07451C0E07480C0E0124570E58124EFF581D006D007853582853683E0FCA3E051
:202A7000FD90002CE0FAA3E0FB90002CEC2AF0ED3BA3F00EBE00010FC3EE9402EF6480942E
:202A900080500302299E9020D3E0FBA3E0FCA3E0FD90002EEBF0ECA3F0EDA3F08E3D8F3EFD
:202AB00090002EE0FBA3E0FCA3E0FDEB4C7003022BB28B828C838DF0124F9CF9A3124F9CB6
:202AD000FA497003022B7674042BF540E43CF5418D428540828541838542F0124F9CFEA3AB
:202AF000124F9CFF74022BFBE43CFC8B828C838DF0124F9CF539A3124F9CF53AEEC3953900
:202B1000F53BEF953AF53CEE29F8EF3AFC7D007B00C03BC03CC039C03AC006C007C000C063
:202B300004C005C001C002C003C03DC03E745FC0E07451C0E07480C0E0124570E58124EFCF
:202B5000F5818540828541838542F0124F9CFEA3124F9CFF90002CE0FCA3E0FD90002CEE4C
:202B70002CF0EF3DA3F0053DE4B53D02053E90002EE0FDA3E0FEA3E0FF74082DFDE43EFEA9
:202B90008D828E838FF0124F9CFDA3124F9CFEA3124F9CFF90002EEDF0EEA3F0EFA3F002AF
:202BB0002AB090002CE0C0E0A3E0C0E0743BC0E07420C0E0E4C0E0743BC0E07400C0E0E47E
:202BD000C0E074F2C0E07450C0E07480C0E0124570E58124F5F58174C1C0E07451C0E074DD
:202BF00080C0E012457015811581158122AF83E582900031F0EFA3F0900031E0FEA3E0FF0D
:202C1000C007C006C006C00774C4C0E07451C0E07480C0E0124570E58124FBF5811239C3E9
:202C30001239BC12421EAC82AD83D006D007C3EE9CEF9D501FC007C006740AC0E07452C087
:202C5000E07480C0E0124570158115811581D006D00780ACC3EC9440ED94005020C007C093
:202C7000067432C0E07452C0E07480C0E0124570158115811581D006D007022C10EC541F2B
:202C90006020C007C0067467C0E07452C0E07480C0E0124570158115811581D006D007026A
:202CB0002C108C828D83227492C0E07452C0E07480C0E01245701581158115817E007F0062
:202CD000C3EE9402EF648094804003022D6190209AEEF0EFA3F090000BC007C006124502B8
:202CF000AC82AD83D006D007EC2401F582ED3400F583E0FCA3E0FD4C60137B008C828D83E4
:202D10008BF0C007C00612402BD006D00790209AEEF0EFA3F090000BC007C006124502AC9A
:202D300082AD83D006D007EC2401F582ED3400F583E4F0A3F0EC2401FCED3400FD8C828DD6
:202D500083A3A3A3A3E4F0A3F00EBE00010F022CD09020D375F000023DC612298A123B1AFA
:202D7000AE82AF83C007C006123B26D006D007C006C00774A9C0E07452C0E07480C0E012DE
:202D90004570E58124FBF581900033E4F0A3F07E007F00C3EE9402EF648094804003022FAA
:202DB0006490209AEEF0EFA3F090000BC007C006124502AC82AD83D006D007EC2401F582E1
:202DD000ED3400F583E0FAA3E0FB8A828B83E0900035F0EC2401FAED3400FB74042AFAE49C
:202DF0003BFBEC2401FCED3400FD900033E0F8A3E0F9E4F543F544900035E07003022ED7D7
:202E1000C004C0058A828B83E0FCA3E0FDC3E5439CE5449DD005D0044003022ED7E8541F08
:202E30007035C007C006C005C004C003C002C001C00074C1C0E07451C0E07480C0E012459C
:202E500070158115811581D000D001D002D003D004D005D006D007C002C003900035E0FB6F
:202E70007A00C007C006C005C004C003C002C001C000C003C00274DAC0E07452C0E07480DF
:202E9000C0E0124570E58124FBF581D000D001D002D003D004D005D006D00708B80001095A
:202EB0000543E4B5430205448C828D83E0FAA3E0FBE5432AF582E5443BF583E0900035F0E3
:202ED000D003D002022E07900033E8F0E9A3F090209AEEF0EFA3F090000BC007C0061245C6
:202EF00002AC82AD83EC2401F582ED3400F583E0FAA3E0FB8A458B46754700EC2401FCED93
:202F10003400FD8C828D83A3A3A3A3E0F8A3E0FB902088E4F0902089E8F0EBA3F085458289
:202F30008546838547F0C005C0041241F6D004D005D006D0078C828D83A3A3E4F0A3F07410
:202F5000062CF582E43DF583E4F0A3F00EBE00010F022DA374C1C0E07451C0E07480C0E03C
:202F700012457015811581158174C1C0E07451C0E07480C0E01245701581158115812290AF
:202F900052DD75F0801229517E007F00C3EE9402EF64809480400122C007C006C006C007D9
:202FB00074F0C0E07452C0E07480C0E0124570E58124FBF58174FEC0E07452C0E07480C015
:202FD000E0124570158115811581D006D00790209AEEF0EFA3F090000BC007C006124502A0
:202FF000AC82AD83D006D007EC2401FAED3400FB8A828B83E0F8A3E0F988488949754A00C0
:203010008E008F018A4F8B50EC2401FCED3400FD74042CF54BE43DF54CC000C001854F8286
:20303000855083E0F8A3E0F9854B82854C83E0FCA3E0FDEC28F54DED39F54EA948AC49AD80
:203050004AA84DAA4E7B00C000C002C00389828C838DF0122006158115811581D001D00037
:203070004003023115AB48AC49C001C000C003C004740BC0E07453C0E07480C0E0124570E4
:20309000E58124FBF581D000D001AB48AC49AD4AE4F54DF54EC3E54D9410E54E6480948078
:2030B0005055C000C001E54D2BF8E54E3CF98D02888289838AF0124F9CF87A00C005C00406
:2030D000C003C001C000C000C0027413C0E07453C0E07480C0E0124570E58124FBF581D066
:2030F00000D001D003D004D005054DE4B54D02054ED001D000809E74102548F548E4354997
:20311000F549023029C001C00074C1C0E07451C0E07480C0E0124570158115811581D0005E
:20313000D001740128FEE439FF022F9C90531B75F0801229517E007F00C3EE9402EF6480A4
:20315000948040030231E890209AEEF0EFA3F090000BC007C006124502AC82AD83D006D0BE
:2031700007EC2401F582ED3400F583E0FAA3E0FB4A605DC006C0078B017B00EC2401FCED2A
:203190003400FD8C828D83A3A3A3A3E0F8A3E0FF902088E4F0902089E8F0EFA3F08A8289B6
:2031B000838BF0C007C006C005C0041241F6D004D005D006D00774062CF582E43DF583E4B2
:2031D000F0A3F08C828D83A3A3F0A3F0D007D0060EBE00010F0231499020D3E0FDA3E0FE8F
:2031F000A3E0FF900036EDF0EEA3F0EFA3F0900036E0FDA3E0FEA3E0FFED4E7001228D8214
:203210008E838FF0124F9CFBA3124F9CFC8B518C5275530074042DF8E43EF98F048882891A
:20323000838CF0124F9CF8A3124F9CF9902088E4F0902089E8F0E9A3F08551828552838521
:2032500053F0C007C006C0051241F6D005D006D00774062DFAE43EFB8F048A828B838CF017
:20327000E4124342A312434274022DFAE43EFB8F048A828B838CF0E4124342A3124342747D
:20329000082DFDE43EFE8D828E838FF0124F9CFDA3124F9CFEA3124F9CFF900036EDF0EE65
:2032B000A3F0EFA3F00231FE90532975F080122951D2909020D3E0FEA3E0FDA3E0FFEE4D3B
:2032D000601F74082EFEE43DFD8E828D838FF0124F9CFEA3124F9CFDA3124F9CFFEE4D7018
:2032F00018C2907445C0E07453C0E07480C0E0124570158115811581228E028D038F04742E
:20331000042EFEE43DFD8E828D838FF0124F9CFEA3124F9CFF900005E0F9A3E0FDC3E99EDE
:20333000ED9F500689548D5580048E548F558A828B838CF0124F9CFEA3124F9CF87F00905A
:203350000001E0F9A3E0FD902080E9F0EDA3F0E4A3F0902083E554F0E555A3F08E828883BF
:203370008FF0C004C003C002124182D002D003D00474022AFDE43BFE8C07900003E0F8A3CC
:20339000E0F98D828E838FF0E8124342A3E912434274062AFAE43BFB900007E0FEA3E0FF54
:2033B0008A828B838CF0EE124342A3EF124342C2907468C0E07453C0E07480C0E012457029
:2033D0001581158115812290537075F080122951D2909020D3E0FDA3E0FEA3E0FFED4E60D5
:2033F0001F74082DFDE43EFE8D828E838FF0124F9CFDA3124F9CFEA3124F9CFFED4E700354
:20341000C290228D028E038F0474062DFDE43EFE78007900C002C003C0048D828E838FF0D8
:20343000124F9CFBA3124F9CFCC3E89BE99CD004D003D002506BC005C006C0078A828B837D
:203450008CF0124F9CFEA3124F9CFFE82EF582E93FF583E0F556C3745A9556D007D006D0F5
:2034700005500674BF25565030C005C006C0078A828B838CF0124F9CFEA3124F9CFFE82E1B
:20349000FEE93FFF8E828F83E0FD4305208E828F83EDF0D007D006D00508B800010902340F
:2034B00024C2907468C0E07453C0E07480C0E01245701581158115812290539475F08012F6
:2034D000295174A4C0E07453C0E07480C0E01245701581158115811239C31239BC12421E9F
:2034F000AE82AF83C374589E74828FF063F08095F0400AEE94C8EF64809480501774DAC070
:20351000E07453C0E07480C0E012457015811581158180AE8E828F83122169AD82AE83AF3C
:20353000F0ED4E70167403C0E07454C0E07480C0E01245701581158115812290204AEDF035
:20355000EEA3F0EFA3F09020D375F000123B2E7433C0E07454C0E07480C0E0124570158155
:20357000158115812290545F75F0801229519020D375F000123EE7AE82AF83EE4F70167481
:203590006BC0E07454C0E07480C0E01245701581158115812274012EFCE43FFDC007C0061D
:2035B000C004C0057481C0E07454C0E07480C0E0124570E58124FBF5811239C31239BC12F8
:2035D000421EAC82AD83D006D007ED30E71674C9C0E07454C0E07480C0E01245701581150B
:2035F00081158122C374019C74808DF063F08095F0401674F7C0E07454C0E07480C0E01276
:203610004570158115811581228C028D03C3EA9EEB9F4016742DC0E07455C0E07480C0E07A
:2036300012457015811581158122EC24FEFCED34FFFD902053ECF0EDA3F09020D375F00061
:20365000123C14E58260167454C0E07455C0E07480C0E0124570158115811581227473C064
:20367000E07455C0E07480C0E0124570158115811581227498C0E07455C0E07480C0E012F7
:20369000457015811581158175A61E75A6E180FE9055AB75F0801229519020D375F00012F5
:2036B0003EE7AE82AF8374012EFCE43FFDC007C006C004C00574BAC0E07455C0E07480C0B3
:2036D000E0124570E58124FBF5811239C31239BC12421EAC82AD83D006D007C3EC9402ED74
:2036F00064809480401274022EFEE43FFF8C028D03C3EA9EEB9F401674DDC0E07455C0E009
:203710007480C0E012457015811581158122EC24FEFEED34FFFF90206CEEF0EFA3F0902003
:20373000D375F000C005C004123F72AB82AE83AFF0D004D005EB4E7016740AC0E07456C0E8
:20375000E07480C0E012457015811581158122C007C006C003C004C005742AC0E07456C099
:20377000E07480C0E0124570E58124FBF58174FEC0E07452C0E07480C0E012457015811585
:20379000811581D003D006D0078B828E838FF0124F9CFCA3124F9CFA7D0074042BF557E402
:2037B0003EF5588F598B828E838FF0124F9CF8A3124F9CF9C003C006C0078557828558834D
:2037D0008559F0124F9CFEA3124F9CFFEE28F55AEF39F55B8C5C8A5D8D5EAB5AAE5B7F004D
:2037F000C003C006C007855C82855D83855EF0122006158115811581D007D006D003400311
:203810000238A8ECC398F8EA99E8541F7043C003C006C0078C008A018D07C007C006C00599
:20383000C004C003C002C000C001740BC0E07453C0E07480C0E0124570E58124FBF581D002
:2038500002D003D004D005D006D007D007D006D0038C828A838DF0124F9CF9A3AC82AA8321
:2038700089007900C007C006C005C004C003C002C000C0017413C0E07453C0E07480C0E0F8
:20389000124570E58124FBF581D002D003D004D005D006D0070237B574C1C0E07451C0E033
:2038B0007480C0E0124570158115811581221222297437C0E07456C0E07480C0E01245704C
:2038D000158115811581123AF7AF82C007122094E582D0076014900025EFF090000175F0D9
:2038F00000C007122855D0078012900025EFF090000C75F000C007122855D007BF230280D3
:203910004CBF24028042BF25028030BF26028051BF2A028047BF2B028038BF2D028038BF9B
:203930003D028012BF3F028008BF400280120238C1122D6A802E122F8F802912313C80249D
:20395000122CB7122229801C1232B880171233D780121234C9800D123575800812368380FD
:1F397000031236A07448C0E07456C0E07480C0E012457015811581158112293B0238C1F9
:204FB8000D0A506C6561736520656E74657220746865206C6173742074776F2064696769BE
:204FD8007473206F6620796F75722049443A000D0A20446964206E6F7420656E74657220F0
:204FF80076616C69642074776F206469676974206E756D6265722C20706C656173652074DB
:20501800727920616761696E000D0A41746F69206572726F723A206E756D62657220696EA5
:2050380076616C6964206F72206F7574206F662072616E67652C20706C65617365207472E1
:205058007920616761696E000D0A4275666665722053697A6520746F6F206269672C2070F3
:205078006C65617365207069636B206120736D616C6C6572206275666665722073697A6541
:20509800000D0A73747564656E745F6E756D6265723A202564000D0A757365725F6275669D
:2050B8006665725F73697A653A20257A75000D0A6275666665725F256420737461727473D9
:2050D80020402025702C20656E6473204025702C2073697A6520257A75000D0A48656170E8
:2050F8002073746172747320402025702C20656E647320402025702C2073697A653A202531
:205118007A75000D0A2D2D2D2D2D2D2D2D2D2D2D2D2D2D2D2D2D2D2D2D2D2D2D2D2D2D2DB2
:205138002D2D2D2D2D2D2D2D2D2D2D2D2D2D2D2D2D2D2D2D2D000D0A257300486561702059
:205158005265706F7274000D0A6275666665725F25642073746172747320402025702C2020
:20517800656E6473204025702C2073697A6520257A752C20636F6E7461696E7320257A755E
:2051980020616C7068616265742063686172732C2068617320257A752063686172732072E6
:2051B800656D61696E696E67000D0A000D0A506C6561736520656E74657220612076616CE5
:2051D8006964206275666665722073697A65207468617420697320646976697369626C65CD
:2051F800206279203332205B36342C257A755D3A20000D0A205573657220627566666572CB
:205218002073697A65206C6172676572207468616E206D6178696D756D000D0A20557365B1
:2052380072206275666665722073697A6520746F6F20736D616C6C206F72206572726F7279
:2052580020696E20636F6E76657273696F6E000D0A2055736572206275666665722073696D
:205278007A65206973206E6F7420646976697369626C65206279203332000D0A204672651B
:2052980065696E6720414C4C2042554646455253000D0A20526563656976656420257A759B
:2052B8002063686172732073696E6365206C61737420696E766F636174696F6E206F662030
:2052D8003F0025630044756D702041646D696E2042756666657273000D0A20427566666544
:2052F8007220256420000D0A2D2D2D2D2D2D2D2D2D2D000D0A253034583A00202530326841
:20531800685800436C656172204275666665727300436F7079206275666665725F30206994
:205338006E746F206275666665725F33000D0A206275666665725F33206E6F7420616C6CCB
:205358006F63617465643B2065786974696E67000D0A20446F6E6500436F6E7665727420B4
:205378006275666665725F3320636861727320746F206C6F77657263617365000D0A204178
:205398006C6C6F6320427566666572000D0A506C6561736520656E74657220612073697A2B
:2053B8006520666F7220746865206E6577206275666665722C205B3230302C3630305D3A12
:2053D80020000D0A4275666665722073697A6520696E76616C6964212120506C6561736586
:2053F8002074727920616761696E000D0A20416C6C6F636174696F6E206661696C65643BF9
:2054180020756E61626C6520746F20616C6C6F6361746520627566666572000D0A20416CF7
:205438006C6F636174696F6E207375636365737366756C2121204E65772062756666657275
:20545800206164646564004672656520427566666572000D0A204E6F206275666665727325
:2054780020746F2066726565000D0A506C6561736520656E74657220746865206E756D626D
:205498006572206F66207468652062756666657220796F7520776F756C64206C696B652080
:2054B800746F20667265655B322D257A755D3A20000D0A20496E76616C69642062756666E9
:2054D8006572206E756D6265722C206E6567617469766573206E6F742076616C6964000D74
:2054F8000A20496E76616C696420627566666572206E756D6265722C206275666665727327
:20551800203020262031206172652070726F746563746564000D0A20496E76616C6964202C
:20553800427566666572206E756D6265723B206F7574206F662072616E6765000D0A2053F1
:2055580075636365737366756C6C792072656D6F76656420627566666572000D0A204661F7
:20557800696C656420746F2072656D6F7665206275666665722C206C6C206572726F7200BC
:205598000D0A526573657474696E6720646576696365000D0A2044756D70204275666665C2
:2055B80072000D0A456E74657220612076616C6964206275666665722023205B322D257A45
:2055D800755D3A20000D0A496E76616C696420627566666572206E756D6265723B20726534
:2055F8007475726E696E6720746F2070726F6D7074000D0A4C4C206572726F723B2072659C
:205618007475726E696E6720746F2070726F6D7074000D0A20427566666572202564000D5F
:1E5638000A456E746572206120636861723A20000D0A454E4420434F4D4D414E4400A6
:0356630000000044
:20398F00AF83E582900039F0EFA3F010990280FB900039E0FEA3E0FF8E998E828F8322107A
:0D39AF00980280FBAE997F008E828F8322EC
:02565600002032
:2039BC0090203B75F00022902088E4F0902089740AF0E4A3F090203B75F0001241F6902006
:2039DC0047743BF07420A3F0E4A3F01239AEAE828E057F008D828F83C00612398FD006E491
:2039FC00BE080104FF6014900020C007C00612398F90000812398FD006D007BE0D03D38016
:203A1C0001C392024037BE0A028032EE602FBE7F02802ABE08028025902047E0FBA3E0FC1B
:203A3C00A3E0FD8B828C838DF0EE12434290204774012BF0E43CA3F0EDA3F08054BE7F02FF
:203A5C008003EF604C902047E0FCA3E0FDA3E0FF743BC0E07420C0E0E4C0E08C828D838FA3
:203A7C00F012200615811581158160101CBCFF011D902047ECF0EDA3F0EFA3F0902047E02F
:203A9C00FCA3E0FDA3E0FF8C828D838FF0E4124342200232BE0A02802DEE602A902047E0DA
:203ABC00FDA3E0FEA3E0FF7444C0E07420C0E0E4C0E08D828E838FF01220061581158115C2
:203ADC008150030239E7902047E0FDA3E0FEA3E0FF8D828E838FF0E40243421239AEAE82CA
:203AFC008E057F008D828F83C00612398FD006902045E02401F0A3E03400F08E822290208E
:123B1C0045E0FEA3E08E82F58322902045E4F0A3F022C9
:203B2E00AFF0AE83E58290204DF0EEA3F0EFA3F090204DE0F51BA3E0F51CA3E0F51D851B9A
:203B4E0082851C83851DF0124F9CFAA3124F9CFBA3124F9CFCEA4B702490204AE0F8A3E0D3
:203B6E00F9A3E0FF851B82851C83851DF0E8124342A3E9124342A3EF124342806190205038
:203B8E00EAF0EBA3F0ECA3F0902050E0FDA3E0FEA3E0FF74082DFDE43EFE8D828E838FF0FB
:203BAE00124F9CFAA3124F9CFBA3124F9CFCEA4B600D902050EAF0EBA3F0ECA3F080C99077
:203BCE00204AE0FAA3E0FBA3E0FC8D828E838FF0EA124342A3EB124342A3EC12434290207B
:203BEE004AE0FDA3E0FEA3E0FF74082DFDE43EFE8D828E838FF0E4124342A3124342A312BE
:203C0E00434275820122AFF0AE83E582902055F0EEA3F0EFA3F0902055E0F508A3E0F50965
:203C2E00A3E0F50AE50845097003F58222850882850983850AF0124F9CFAA3124F9CFBA3D9
:203C4E00124F9CFCEA4B7003F58222902053E0F8A3E0F9902053E0F5F0A3E045F070429003
:203C6E002058EAF0EBA3F0ECA3F074082AFDE43BFE8C078D828E838FF0124F9CFDA3124FF7
:203C8E009CFEA3124F9CFF850882850983850AF0ED124342A3EE124342A3EF124342023D2A
:203CAE007790205BEAF0EBA3F0ECA3F018B8FF0119902053E8F0E9A3F0902053E0FEA3E0F9
:203CCE00FFEE4F603C90205BE0FBA3E0FCA3E0FD74082BFBE43CFC8B828C838DF0124F9CC5
:203CEE00FBA3124F9CFCA3124F9CFDEB4C601290205BEBF0ECA3F0EDA3F01EBEFF011F8079
:203D0E00C0EE4F60047582002290205BE0FDA3E0FEA3E0FF74082DFDE43EFE8D828E838FBB
:203D2E00F0124F9CFAA3124F9CFBA3124F9CFC902058EAF0EBA3F0ECA3F074082AFAE43BB9
:203D4E00FB8A828B838CF0124F9CFAA3124F9CFBA3124F9CFC8D828E838FF0EA124342A3D3
:203D6E00EB124342A3EC124342902058E0FEA3E0FDA3E0FF902058E0F5F0A3E045F07003AD
:203D8E00F582228E828D838FF0124F9CFEA3124F9CFF4E600B7D008E828F838DF012402BF1
:203DAE00902058E0FDA3E0FEA3E0FF8D828E838FF012402B75820122AFF0AE83E5829020F0
:203DCE005EF0EEA3F0EFA3F090205EE0FDA3E0FEA3E0FF8D828E838FF0124F9CFAA3124FFC
:203DEE009CFBA3124F9CFC902061EAF0EBA3F0ECA3F090205EE0FAA3E0FBA3E0FC8A828B1E
:203E0E00838CF0124F9CF50BA3124F9CF50CA3124F9CF50DE50B450C700122C005C006C036
:203E2E00077408250BF8E4350CF9AF0D888289838FF0124F9CF8A3124F9CF9A3124F9CFF2D
:203E4E008A828B838CF0E8124342A3E9124342A3EF124342902061E0FDA3E0FEA3E0FF8D75
:203E6E00828E838FF0124F9CF50BA3124F9CF50CD007D006D005E50B450C601BAB0BAC0CD8
:203E8E007A008B828C838AF0C007C006C00512402BD005D006D007902061E0FAA3E0FBA3A7
:203EAE00E0FC8A828B838CF0C007C006C00512402BD005D006D0078D828E838FF0124F9C95
:203ECE00FAA3124F9CFBA3124F9CFC902061EAF0EBA3F0ECA3F0023E00AFF0AE83E58290B4
:203EEE002064F0EEA3F0EFA3F0902064E0FDA3E0FEA3E0FF8D828E838FF0124F9CFDA312FB
:203F0E004F9CFEA3124F9CFF902069EDF0EEA3F0EFA3F0902067E0FEA3E0FF902069E0FBA7
:203F2E00A3E0FCA3E0FD902069E0F5F0A3E045F0602D0EBE00010F74082BFBE43CFC8B82AA
:203F4E008C838DF0124F9CFBA3124F9CFCA3124F9CFD902069EBF0ECA3F0EDA3F080BC8ED9
:203F6E00828F8322AFF0AE83E58290206EF0EEA3F0EFA3F090206EE0FDA3E0FEA3E0FF8DAA
:203F8E00828E838FF0124F9CFDA3124F9CFEA3124F9CFF902071EDF0EEA3F0EFA3F0902019
:203FAE006CE0FEA3E0FF902071E0FBA3E0FCA3E0FD902071E0F5F0A3E045F06031EE4F6060
:203FCE002D74082BFBE43CFC8B828C838DF0124F9CFBA3124F9CFCA3124F9CFD902071EB12
:203FEE00F0ECA3F0EDA3F01EBEFF011F80B8902071E0FDA3E0FEA3E0FF8D828E838FF022CF
:1D400E00AF83E582902075F0EFA3F0902075E0FEA3E0FF902074E08E828F83F022A8
:20402B00AFF0AE83E582902077F0EEA3F0EFA3F0902077E0FDA3E0FEA3E0902077E0F5F030
:20404B00A3E045F070012290207CE4F0A3F0902092E0FBA3E0FC90207AEBF0ECA3F09020A7
:20406B007E7492F07420A3F090207AE0FBA3E0FC4B60418B018C02C003C0048D008E04C3A7
:20408B00E998EA9CD004D003502A90207CEBF0ECA3F074022BFBE43CFC90207EEBF0ECA317
:2040AB00F08B828C83E0FBA3E0FC90207AEBF0ECA3F080B490207AE0FEA3E0FF902077E046
:2040CB00FBA3E0FCA3E0EB24FEFBEC34FFFC74022BFAE43CFD8A828D83EEF0EFA3F09020D1
:2040EB007EE0F8A3E0F988828983EBF0ECA3F08B828C83E0F8A3E0F9EEB50033EFB5012F59
:20410B0088828983A3A3E0FEA3E0FF8A828D83EEF0EFA3F08B828C83E0FEA3E0FF8E828F41
:20412B0083E0FEA3E0FF8B828C83EEF0EFA3F090207CE0FEA3E0FF4E603C8E828F83E0F8A5
:20414B00A3E0F9E8B5032FE9B5042B8B828C83E0FBA3E0FC8E828F83EBF0ECA3F074022EA6
:17416B00FEE43FFF8A828D83E0FAA3E0FD8E828F83EAF0EDA3F02209
:06206300E478FFF6D8FD51
:20418200AFF0AE83E582902085F0EEA3F0EFA3F0902085E0F51BA3E0F51CA3E0F51DAA1BAB
:2041A200AB1CAC1D902080E0F8A3E0F9A3E0FF902083E0F51EA3E0F51FAD1EAE1F151E746B
:2041C200FFB51E02151FED4E6020888289838FF0124F9CFEA3A882A9838A828B838CF0EE0D
:1441E200124342A3AA82AB8380CF851B82851C83851DF022EC
:2041F600AC82AD83902089E0FEA3E0FFBE000360121F0F902088E08C828D83124342A3DE03
:08421600FADFF88C828D83228F
:20421E00AFF0AE83E58290208BF0EEA3F0EFA3F090208EE4F0A3F090208BE0FDA3E0FEA33A
:20423E00E0FF8D828E838FF0124F9CFCBC20028003BC09120DBD00010E90208BEDF0EEA32F
:20425E00F0EFA3F080DC90208BEDF0EEA3F0EFA3F08D828E838FF0124F9CFC902090E4BCDF
:20427E002D0104F0BC2D028003BC2B0E90208B74012DF0E43EA3F0EFA3F090208BE0FDA3DC
:20429E00E0FEA3E0FF8D828E838FF0124F9CFCBC30009203405FEC24C69203405890208EA7
:2042BE00E0FBA3E0FC90209AEBF0ECA3F090000AC007C006C005124502AB82AC83D005D09C
:2042DE0006D0078D828E838FF0124F9CFAA3AD82AE8390208BEDF0EEA3F0EFA3F08A017A2A
:2042FE0000E924D0F9EA34FFFA90208EE92BF0EA3CA3F0809090208BEDF0EEA3F0EFA3F08D
:20431E00902090E0601190208EE0FEA3E0FFC3E49EFEE49FFF800890208EE0FEA3E0FF8ED7
:04433E00828F8322C5
:202041007903E94400601B7A0190566378D375A020E493F2A308B8000205A0D9F4DAF27596
:02206100A0FFDE
:1B43420020F71130F6138883A88220F509F6A8837583002280FEF280F5F0227A
:20435D00902092743BF07400A3F0905656E493FE740193FF1EBEFF011FEE243BFEEF340037
:20437D00FF90003BEEF0EFA3F0902092E0FEA3E0FF8E828F83A3A3E4F0A3F022AF83E582CA
:20439D00902094F0EFA3F0902092E0F5F0A3E045F0700312435D902094E0FEA3E0FF4E6014
:2043BD000E74022EFCE43FFDC3EC9EED9F50049000002290209474022EF0E43FA3F09020F5
:2043DD0094E0FEA3E0FFC3EE9404EF940050099020947404F0E4A3F0902092E0FEA3E0FFE2
:2043FD00902096EEF0EFA3F09020987492F07420A3F0902096E0FEA3E0FF4E70030244FEEA
:20441D008E828F83E0FCA3E0FD8C028D038E008F01EAC398FAEB99FB8A008B01902094E0CD
:20443D00F50EA3E0F50FC3E8950EE9950F50030244DB7404250EF8E4350FF9C3EA98EB99F9
:20445D00404C8E028F03E50E2AFAE50F3BFB8A828B83ECF0EDA3F074022AFCE43BFD8E8212
:20447D008F83A3A3E0F8A3E0F98C828D83E8F0E9A3F0902098E0FCA3E0FD8C828D83EAF065
:20449D00EBA3F08E828F83EAF0EBA3F0801C902098E0FCA3E0FD8E828F83A3A3E0FAA3E002
:2044BD00FB8C828D83EAF0EBA3F0902096E0FCA3E0FD74022CFCE43DFD8C828D832274025A
:2044DD002EFEE43FFF902098EEF0EFA3F08E828F83E0FEA3E0FF902096EEF0EFA3F002445B
:0544FD000F90000022F9
:20450200AA83AB828BF090209AE0A4F8A9F08AF0E0A429F98BF0A3E0A429F58388822222B4
:202069007800E84400600A790175A000E4F309D8FC78D2E84420600C7921900001E4F0A362
:04208900D8FCD9FAAC
:20452200C01A85811A7E008E8312398FD01A22AFF0AE83E58290209DF0EEA3F0EFA3F09003
:20454200209DE0FDA3E0FEA3E0FF90209CE0FC9020B1E4F0A3F0A3F09020B4EDF0EEA3F077
:20456200EFA3F09020B7ECF0904522024676C01AE581F51A24FBFF9020B1E4F0A3F0A3F0F7
:20458200E51A24FBF89020B4E6F008E6A3F008E6A3F09020B7EFF0904522124676D01A22B0
:2045A200E5829020ADF0E0FF9020A3E0C0E0A3E0C0E0A3E0C0E01245BD800D9020A1E0C0BB
:2045C200E0A3E0C0E08F82221581158115819020ABE02401F0A3E03400F022E5829020AE03
:2045E200F0E02430FF24C6500D74072FFF9020A0E060034307208F820245A2E5829020AFE9
:20460200F0E0FFC4540FF582C0071245DDD00753070F8F820245DDE5829020B0F09020A6AE
:20462200E0FCA3E0FDA3E0FEA3E0FF9020AAE0FB9020B0E0FA79208B00E828F51BEF235400
:2046420001451BFBEC2CFCED33FDEE33FEEF33FFC3EB9A4007EBC39AFB43040119E970D728
:204662009020A6ECF0EDA3F0EEA3F0EFA3F09020AAEBF022AF83E5829020B8F0EFA3F09029
:2046820020B8E0FEA3E0FF9020A1EEF0EFA3F09020B1E0FDA3E0FEA3E0FF9020A3EDF0EED0
:2046A200A3F0EFA3F09020ABE4F0A3F09020B4E0FDA3E0FEA3E0FF8D828E838FF0124F9C41
:2046C200FC9020B474012DF0E43EA3F0EFA3F0EC7003024F78BC25028003024F709020BAF6
:2046E200E4F09020BBF09020BCF09020BDF09020BEF09020BFF09020C0F09020C1F09020A2
:20470200C3F09020C4F0A3F09020C614F0A3F09020B4E0FDA3E0FEA3E0FF8D828E838FF0FD
:20472200124F9CFBA3AD82AE839020B4EDF0EEA3F0EFA3F09020CAEBF0BB25088B82124597
:20474200A20246AEBB3000500302480FEB24C6500302480F9020C6E0F510A3E0F51174FF50
:20476200B51063B51160C005C006C0079020C4E0FAA3E0FF90209AEAF0EFA3F090000AC0C7
:2047820005C003124502AE82AF83D003D0058B027D00EA2EFEED3FFFEE24D0FEEF34FFFFA0
:2047A2009020C4EEF0EFA3F0D007D006D0059020C4E0F5F0A3E045F0600302471C9020BB7D
:2047C2007401F002471CC005C006C00790209AE510F0E511A3F090000AC006C005C0031209
:2047E2004502AA82AF83D003D005D0067E00EB2AFAEE3FFFEA24D0FAEF34FFFF9020C6EA82
:20480200F0EFA3F0D007D006D00502471C9020CAE0FBBB2E2FC005C006C0079020C6E0FA2E
:20482200A3E0FFBAFF05BFFF028009D007D006D00502471CD007D006D0059020C6E4F0A397
:20484200F002471CBB61004014EB2485400F9020CA74DF5BF09020A07401F080059020A00C
:20486200E4F09020CAE0FBBB20028075BB2B028067BB2D028059BB4202806FBB4302807CBF
:20488200BB4403024B06BB4603024B2CBB480302471CBB4903024B06BB4A0302471CBB4C0B
:2048A200028050BB4F03024B14BB5003024A74BB53028077BB540302471CBB5503024B1CEE
:2048C200BB5803024B24BB5A0302471C024B349020BA7401F002471C9020BC7401F0024703
:2048E2001C9020BD7401F002471C9020BF7401F002471C9020C07401F002471C9020BFE0A1
:20490200600E9020B7E014F9F09020CAE7F0800F9020B7E024FEFFF08F019020CAE7F0903A
:2049220020CAE0F5821245A2024B439020B7E024FDFFF08F01870509870609870719199049
:2049420020A6EDF0EEA3F0EFA3F08D828E838FF0124F848582108583119020C6E0FAA3E028
:20496200FDBAFF0DBDFF0A9020C6E510F0E511A3F09020BAE0704B9020C4E0FAA3E0FDC332
:20498200E5109AE5119D503A9020C4EAC39510F0ED9511A3F09020C4E0FAA3E0FD8A068DA2
:2049A200071ABAFF011DEE4F6010758220C005C0021245A2D002D00580E39020C4EAF0ED74
:2049C200A3F09020C6E0F513A3E0F5149020A6E0FAA3E0FDA3E0FF8A828D838FF0124F9C8E
:2049E200F512603CC3E4951374808514F063F08095F0502C151374FFB513021514851282CB
:204A02001245A29020A6E0FAA3E0FDA3E0FF0ABA00010D9020A6EAF0EDA3F0EFA3F080AC39
:204A22009020BAE07003024B439020C4E0FEA3E0FFC3E5109EE5119F4003024B439020C421
:204A4200EEC39510F0EF9511A3F09020C4E0FEA3E0FF8E028F051EBEFF011FEA4D70030247
:204A62004B3B758220C007C0061245A2D006D00780E09020B7E024FDFDF08D0187150987F5
:204A82001609871719199020A6E515F0E516A3F0E517A3F09020A8E0FDBD8000400890205E
:204AA200CA7443F08020BD600040089020CA7450F08013BD400040089020CA7449F08006CB
:204AC2009020CA7458F09020CAE0FDF582C0051245A275823A1245A27582301245A27582D1
:204AE200781245A2D005BD4902800EBD500280099020A7E0F5821245FD9020A6E0F582127F
:204B020045FD803D9020BE7401F09020C3740AF0802F9020C37408F080279020C3740AF0CA
:204B2200801F9020C37410F080179020C17401F0800F8B821245A280089020C4EEF0EFA37F
:204B4200F09020C1E060719020B7E024FCFFF08F0187030987050987060987071919199034
:204B620020A6EBF0EDA3F0EEA3F0EFA3F09020A67458F07456A3F07480A3F09020A6E0F5EE
:204B820015A3E0F516A3E0F51774012515FAE43516FBAF179020A6EAF0EBA3F0EFA3F08593
:204BA20015828516838517F0124F9CFF70030246AE8F821245A280C39020C3E070030246F2
:204BC200AE9020BFE060479020B7E014F9F087077E007D007B009020A6EFF0EEA3F0EDA3A1
:204BE200F0EBA3F09020BEE06003024C869020A6E0FBA3E0A3E0A3E07D007E007F009020DC
:204C0200A6EBF0EDA3F0EEA3F0EFA3F080769020C0E060289020B7E024FCFFF08F01870350
:204C22000987050987060987071919199020A6EBF0EDA3F0EEA3F0EFA3F080489020B7E0A2
:204C420024FEFFF08F01870609870719EF3395E0FDFB9020A6EEF0EFA3F0EDA3F0EBA3F031
:204C62009020BEE0701E9020A6E0FBA3E0FDA3E0A3E07E007F009020A6EBF0EDA3F0EEA360
:204C8200F0EFA3F09020BEE060419020A6E0FBA3E0FDA3E0FEA3E0FF30E72B9020A6E0FB8A
:204CA200A3E0FDA3E0FEA3E0FFC3E49BFBE49DFDE49EFEE49FFF9020A6EBF0EDA3F0EEA370
:204CC200F0EFA3F080059020BEE4F09020C27401F09020C3E0F5137518D0751920E4F51073
:204CE200F5119020AAE4F08513821246199020C2E070339020AAE0C454F0F5159020AAE078
:204D0200C4540F4515F515851882851983E0FFE5154207851882851983EFF0151874FFB530
:204D220018021519800C9020AAE0FF851882851983F00510E4B5100205119020C2E0B40157
:204D420000E433F09020A6E0FAA3E0FBA3E0FEA3E0FFEA4B4E4F708A9020D1E518F0E51961
:204D6200A3F09020C8E510F0E511A3F09020C4E0F5F0A3E045F070099020C47401F0E4A3EE
:204D8200F09020BBE0FFE070479020BAE070418510188511199020C4E0FAA3E0FBC007AFA7
:204DA200180F8F067F00C3EE9AEF9BD0075019758220C007C003C0021245A2D002D003D0D0
:204DC200071ABAFF011B80D59020C4EAF0EBA3F09020BEE0602075822DC0071245A2D00731
:204DE2009020C4E024FFFDA3E034FFFE9020C4EDF0EEA3F080569020C8E0F5F0A3E045F0EC
:204E0200604A9020BCE0602075822BC0071245A2D0079020C4E024FFFDA3E034FFFE902089
:204E2200C4EDF0EEA3F080249020BDE0601E758220C0071245A2D0079020C4E024FFFDA31A
:204E4200E034FFFE9020C4EDF0EEA3F09020BAE070489020C8E0F518A3E0F5199020C4E021
:204E6200FAA3E0FBC0078A068B071ABAFF011BC3E5189EE5199FD0075053EF60067D307EEB
:204E82000080047D207E008D82C007C003C0021245A2D002D003D00780CA9020C4E0FEA362
:204EA200E0FF9020C8E0F518A3E0F519C3E5189EE5199F500F9020C4EEC39518F0EF951962
:204EC200A3F080119020C4E4F0A3F080089020C4EAF0EBA3F09020D1E0FEA3E0FF9020C824
:204EE200E0F518A3E0F519AA18AD19151874FFB518021519EA4D60459020C2E0B40100E446
:204F020033F09020C2E070140EBE00010F8E828F83E0C4540FFD9020AAF0800E8E828F839A
:204F2200E0FD53050F9020AAEDF09020AAE0F582C007C0061245DDD006D00780AA9020BA41
:204F4200E070030246AE9020C4E0FEA3E0FF8E038F051EBEFF011FEB4D70030246AE75827A
:204F620020C007C0061245A2D006D00780E08C821245A20246AE9020ABE0FEA3E08E82F5BE
:024F8200832288
:0B5658003C4E4F20464C4F41543E009A
:184F8400AA82AB83124F9C6003A380F8C3E5829AF582E5839BF5832268
:20200600E58124FCC3C8C0E0C082E608467006E5824583601218E58296F58208E5839642A8
:1B2026008208E5F0964582D082C8D0E0C82275815E122090E58260030220032A
:1C4F9C0020F71430F6148883A88220F507E6A88375830022E280F7E49322E02224
:00000001FF
