:0320000002203487
:03208D000220032B
:032003000238247C
:2020900090000022E582900017F0E0FF24A592004007BF410092005016900017E0FF2485D8
:2020B00092004007BF610092005004C2008002D200A200E433F58222AFF0AE83E582900002
:2020D00018F0EEA3F0EFA3F0900018E0FDA3E0FEA3E0FF74022DFAE43EFB8F048A828B83F6
:2020F0008CF0E41242A8A31242A874062DFAE43EFB8F048A828B838CF0E41242A8A3124217
:20211000A874082DFAE43EFB8F048A828B838CF0E41242A8A31242A8A31242A88D828E83E0
:202130008FF0124F02FBA3124F02FC7A0074042DFDE43EFE8D828E838FF0124F02FDA312C0
:202150004F02FE902085E4F0902086EDF0EEA3F08B828C838AF002415CAF83E58290001B0A
:20217000F0EFA3F090000B1242FFAE82AD837F00EE4D7006900000F5F02274042EFAE43D07
:20219000FB8F0490001BE0F8A3E0F98A828B838CF0E81242A8A3E91242A888828983C007C3
:2021B000C006C0051242FFAB82AC83D005D006D0078E828D838FF0EB1242A8A3EC1242A842
:2021D000EB4C70168E028D038F048A828B838CF0123F9190000075F000228E828D838FF051
:2021F000C007C006C0051220C8D005D006D0078E828D838FF022E58290001DF0E0FFBF306E
:202210000092014007EF24C692015004C2018002D201A201E433F582229020D0E4F0A3F0C2
:20223000A3F0741EC0E0744FC0E07480C0E01244D6158115811581123929123922124EEAB9
:20225000AE82AF83BE0232BF002F123922124F02F582122206E5826020123922AD82AE83F7
:20227000AFF00DBD00010E8D828E838FF0124F02F582122206E5827017744DC0E0744FC051
:20229000E07480C0E01244D61581158115818092123922124184858225E583F52620E711AF
:2022B000C37463952574808526F063F08095F050187487C0E0744FC0E07480C0E01244D6AD
:2022D00015811581158102223290001EE4F07404A3F0902085E4F09020867416F0E4A3F019
:2022F00090000175F00012415C90209774022525F0E43526A3F090000A124468AC82AD83AA
:2023100090001EE0FAA3E0FB8A828B83C005C004122BFDAA82AB83D004D00578007900C313
:20233000E89402E9648094804003022434C004C005902097E8F0E9A3F090000BC005C00449
:20235000C003C002C001C000124468858221858322D000D001D002D003D004D005E521243E
:2023700001F523E5223400F5248A828B83C003C002C001C0001242FFAC82AD83D000D0016E
:20239000D002D003852382852483ECF0EDA3F0EC4DD005D0047043C004C005C005C004C06F
:2023B00003C002122CB774C6C0E0744FC0E07480C0E01244D6158115811581D002D003D01F
:2023D00004D005EA24FFFCEB34FFFD90001EECF0EDA3F0D005D004022310C004C005E52179
:2023F0002401FCE5223400FD8C828D83A3A3A3A3EAF0EBA3F07F008C828D838FF0C005C0D1
:2024100004C003C002C001C0001220C8D000D001D002D003D004D00508B8000109D005D04A
:202430000402232F7E007F00C3EE9402EF6480948040030224E68A828B83C007C006C0054E
:20245000C004C003C00212216985822785832885F029D002D003D004D005D006D007E52784
:202470004528703BC005C004C003C002122CB774C6C0E0744FC0E07480C0E01244D615819E
:2024900015811581D002D003D004D005EA24FFF8EB34FFF990001EE8F0E9A3F002231090CF
:2024B0002047E527F0E528A3F0E529A3F09020D075F000C007C006C005C004C003C00212D6
:2024D0003A94D002D003D004D005D006D0070EBE00010F0224389020507402F0E4A3F0907C
:2024F00020D075F000C005C004C003C002123B7AD002D003D004D0058C068D078E828F830C
:20251000C005C004C003C002122169A982AE83AFF0D002D003D004D005E94E7043C004C04A
:2025300005C005C004C003C002122CB774C6C0E0744FC0E07480C0E01244D6158115811545
:2025500081D002D003D004D005EA24FFF8EB34FFFD90001EE8F0EDA3F0D005D00402231098
:20257000902047E9F0EEA3F0EFA3F09020D075F000C005C004C003C002123A94D002D00300
:20259000EA2AFEEB33FF8E828F83C003C002122169A982AE83AFF0D002D003D004D005E987
:2025B0004E7043C004C005C005C004C003C002122CB774C6C0E0744FC0E07480C0E0124457
:2025D000D6158115811581D002D003D004D005EA24FFF8EB34FFFD90001EE8F0EDA3F0D00F
:2025F00005D004022310902047E9F0EEA3F0EFA3F09020D075F000C003C002123A94C025BB
:20261000C02674FFC0E0744FC0E07480C0E01244D6E58124FBF581D002D003C002C00374F5
:2026300014C0E07450C0E07480C0E01244D6E58124FBF581900020E4F0A3F07E007F009013
:202650002097EEF0EFA3F090000BC007C006124468AC82AD83D006D007EC2401F582ED34B9
:2026700000F583E0FAA3E0FB4A700302270EEC2401FCED3400FD74042CFAE43DFB8A828B0A
:2026900083E0F525A3E0F5268C828D83E0F527A3E0F528E5252527FCE5263528FD8C2A8D5B
:2026B0002B752C00A827AD287C00C007C006C003C002C025C026C02AC02BC02CC000C005FB
:2026D000C004C006C007742CC0E07450C0E07480C0E01244D6E58124F3F581D002D003D0CD
:2026F00006D0078A828B83E0FAA3E0FB900020E0FCA3E0FD900020EA2CF0EB3DA3F00EBE32
:2027100000010FC3EE9402EF64809480500302264F9020D0E0FBA3E0FCA3E0FD900022EBAA
:20273000F0ECA3F0EDA3F08E2A8F2B900022E0FBA3E0FCA3E0FDEB4C700302281D8B828C12
:20275000838DF0124F02F9A3124F02FA4970030227E174042BFBE43CFC8B828C838DF012E2
:202770004F02F527A3124F02F528E52729FEE5283AFF8E2D8F2E752F007F00C005C004C05C
:2027900003C027C028C02DC02EC02FC001C002C007C02AC02B742CC0E07450C0E07480C016
:2027B000E01244D6E58124F3F581D003D004D0058B828C838DF0124F02FBA3124F02FC9005
:2027D0000020E0FEA3E0FF900020EB2EF0EC3FA3F0052AE4B52A02052B900022E0FDA3E0BC
:2027F000FEA3E0FF74082DFDE43EFE8D828E838FF0124F02FDA3124F02FEA3124F02FF90EB
:202810000022EDF0EEA3F0EFA3F002273B900020E0C0E0A3E0C0E07438C0E07420C0E0E48B
:20283000C0E07438C0E07400C0E0E4C0E07458C0E07450C0E07480C0E01244D6E58124F5F5
:20285000F581023A8CAFF0AE83E582900026F0EEA3F0EFA3F0900026E0FDA3E0FEA3E0FFB4
:2028700074062DF532E43EF5338F348532828533838534F0124F02F530A3124F02F5317428
:20289000042DF8E43EF98F04888289838CF0124F02F8A3124F02F9C3E53098E53199400105
:2028B000228D828E838FF0124F02FBA3124F02FCE5302BFBE5313CFC900025E0FA8B828C36
:2028D00083F08532828533838534F0124F02FCA3124F02FB0CBC00010B853282853383852B
:2028F00034F0EC1242A8A3EB1242A88A82C007C006C005122094E582D005D006D007602A9B
:2029100074022DFDE43EFE8D828E838FF0124F02FBA3124F02FC0BBB00010C8D828E838F66
:20293000F0EB1242A8A3EC0242A8227481C0E07450C0E07480C0E01244D615811581158198
:2029500022AFF0AE83E582900029F0EEA3F0EFA3F012293B900029E0C0E0A3E0C0E0A3E00D
:20297000C0E074B4C0E07450C0E07480C0E01244D6E58124FAF58102293B9050B975F080DD
:2029900012295190002CE4F0A3F07E007F00902097EEF0EFA3F090000BC007C006124468EE
:2029B000AC82AD83D006D007EC2401F582ED3400F583E0FAA3E0FB4A7003022A83EC240106
:2029D000FCED3400FD74042CF535E43DF536853582853683E0F8A3E0F974062CF582E43DA7
:2029F000F583E0FAA3E0FBE8C39AF537E99BF5388C828D83A3A3E0F539A3E0F53A8C828D16
:202A100083E0F53BA3E0F53CE8253BFAE9353CFB8A3D8B3E753F00AC3BAD3C7B00C007C0B2
:202A300006C037C038C039C03AC000C001C03DC03EC03FC004C005C003C006C00774C5C051
:202A5000E07450C0E07480C0E01244D6E58124EFF581D006D007853582853683E0FCA3E0ED
:202A7000FD90002CE0FAA3E0FB90002CEC2AF0ED3BA3F00EBE00010FC3EE9402EF6480942E
:202A900080500302299E9020D0E0FBA3E0FCA3E0FD90002EEBF0ECA3F0EDA3F08E3D8F3E00
:202AB00090002EE0FBA3E0FCA3E0FDEB4C7003022BB28B828C838DF0124F02F9A3124F02EA
:202AD000FA497003022B7674042BF540E43CF5418D428540828541838542F0124F02FEA345
:202AF000124F02FF74022BFBE43CFC8B828C838DF0124F02F539A3124F02F53AEEC39539CE
:202B1000F53BEF953AF53CEE29F8EF3AFC7D007B00C03BC03CC039C03AC006C007C000C063
:202B300004C005C001C002C003C03DC03E74C5C0E07450C0E07480C0E01244D6E58124EF05
:202B5000F5818540828541838542F0124F02FEA3124F02FF90002CE0FCA3E0FD90002CEE80
:202B70002CF0EF3DA3F0053DE4B53D02053E90002EE0FDA3E0FEA3E0FF74082DFDE43EFEA9
:202B90008D828E838FF0124F02FDA3124F02FEA3124F02FF90002EEDF0EEA3F0EFA3F0027D
:202BB0002AB090002CE0C0E0A3E0C0E07438C0E07420C0E0E4C0E07438C0E07400C0E0E484
:202BD000C0E07458C0E07450C0E07480C0E01244D6E58124F5F5817427C0E07451C0E074AC
:202BF00080C0E01244D615811581158122AF83E582900031F0EFA3F0900031E0FEA3E0FFA8
:202C1000C007C006C006C007742AC0E07451C0E07480C0E01244D6E58124FBF581123929B8
:202C3000123922124184AC82AD83D006D007C3EE9CEF9D501FC007C0067470C0E07451C057
:202C5000E07480C0E01244D6158115811581D006D00780ACC3EC9440ED94005020C007C02E
:202C7000067498C0E07451C0E07480C0E01244D6158115811581D006D007022C10EC541F61
:202C90006020C007C00674CDC0E07451C0E07480C0E01244D6158115811581D006D00702A0
:202CB0002C108C828D832274F8C0E07451C0E07480C0E01244D61581158115817E007F0098
:202CD000C3EE9402EF648094804003022D61902097EEF0EFA3F090000BC007C00612446856
:202CF000AC82AD83D006D007EC2401F582ED3400F583E0FCA3E0FD4C60137B008C828D83E4
:202D10008BF0C007C006123F91D006D007902097EEF0EFA3F090000BC007C006124468ACD3
:202D300082AD83D006D007EC2401F582ED3400F583E4F0A3F0EC2401FCED3400FD8C828DD6
:202D500083A3A3A3A3E4F0A3F00EBE00010F022CD09020D075F000023D2C12298A123A8032
:202D7000AE82AF83C007C006123A8CD006D007C006C007740FC0E07452C0E07480C0E01213
:202D900044D6E58124FBF581900033E4F0A3F07E007F00C3EE9402EF648094804003022F45
:202DB00064902097EEF0EFA3F090000BC007C006124468AC82AD83D006D007EC2401F5827F
:202DD000ED3400F583E0FAA3E0FB8A828B83E0900035F0EC2401FAED3400FB74042AFAE49C
:202DF0003BFBEC2401FCED3400FD900033E0F8A3E0F9E4F543F544900035E07003022ED7D7
:202E1000C004C0058A828B83E0FCA3E0FDC3E5439CE5449DD005D0044003022ED7E8541F08
:202E30007035C007C006C005C004C003C002C001C0007427C0E07451C0E07480C0E0124437
:202E5000D6158115811581D000D001D002D003D004D005D006D007C002C003900035E0FB09
:202E70007A00C007C006C005C004C003C002C001C000C003C0027440C0E07452C0E0748079
:202E9000C0E01244D6E58124FBF581D000D001D002D003D004D005D006D00708B8000109F5
:202EB0000543E4B5430205448C828D83E0FAA3E0FBE5432AF582E5443BF583E0900035F0E3
:202ED000D003D002022E07900033E8F0E9A3F0902097EEF0EFA3F090000BC007C0061244CA
:202EF00068AC82AD83EC2401F582ED3400F583E0FAA3E0FB8A458B46754700EC2401FCED2D
:202F10003400FD8C828D83A3A3A3A3E0F8A3E0FB902085E4F0902086E8F0EBA3F08545828F
:202F30008546838547F0C005C00412415CD004D005D006D0078C828D83A3A3E4F0A3F074AA
:202F5000062CF582E43DF583E4F0A3F00EBE00010F022DA37427C0E07451C0E07480C0E0D6
:202F70001244D61581158115817427C0E07451C0E07480C0E01244D615811581158122907F
:202F9000524375F0801229517E007F00C3EE9402EF64809480400122C007C006C006C00773
:202FB0007456C0E07452C0E07480C0E01244D6E58124FBF5817464C0E07452C0E07480C0E4
:202FD000E01244D6158115811581D006D007902097EEF0EFA3F090000BC007C006124468D9
:202FF000AC82AD83D006D007EC2401FAED3400FB8A828B83E0F8A3E0F988488949754A00C0
:203010008E008F018A4F8B50EC2401FCED3400FD74042CF54BE43DF54CC000C001854F8286
:20303000855083E0F8A3E0F9854B82854C83E0FCA3E0FDEC28F54DED39F54EA948AC49AD80
:203050004AA84DAA4E7B00C000C002C00389828C838DF0122006158115811581D001D00037
:203070004003023115AB48AC49C001C000C003C0047471C0E07452C0E07480C0E01244D61A
:20309000E58124FBF581D000D001AB48AC49AD4AE4F54DF54EC3E54D9410E54E6480948078
:2030B0005055C000C001E54D2BF8E54E3CF98D02888289838AF0124F02F87A00C005C004A0
:2030D000C003C001C000C000C0027479C0E07452C0E07480C0E01244D6E58124FBF581D09C
:2030F00000D001D003D004D005054DE4B54D02054ED001D000809E74102548F548E4354997
:20311000F549023029C001C0007427C0E07451C0E07480C0E01244D6158115811581D00093
:20313000D001740128FEE439FF022F9C90528175F0801229517E007F00C3EE9402EF64803F
:20315000948040030231E8902097EEF0EFA3F090000BC007C006124468AC82AD83D006D05C
:2031700007EC2401F582ED3400F583E0FAA3E0FB4A605DC006C0078B017B00EC2401FCED2A
:203190003400FD8C828D83A3A3A3A3E0F8A3E0FF902085E4F0902086E8F0EFA3F08A8289BC
:2031B000838BF0C007C006C005C00412415CD004D005D006D00774062CF582E43DF583E44C
:2031D000F0A3F08C828D83A3A3F0A3F0D007D0060EBE00010F0231499020D0E0FDA3E0FE92
:2031F000A3E0FFED4E7001228D828E838FF0124F02FBA3124F02FC8B518C52755300740476
:203210002DF8E43EF98F04888289838CF0124F02F8A3124F02F9902085E4F0902086E8F0C8
:20323000E9A3F08551828552838553F0C007C006C00512415CD005D006D00774062DFAE480
:203250003EFB8F048A828B838CF0E41242A8A31242A874022DFDE43EFE8D828E838FF0E43A
:203270001242A8A30242A890528F75F080122951D2909020D0E0FEA3E0FDA3E0FFEE4D6074
:203290001F74082EFEE43DFD8E828D838FF0124F02FEA3124F02FDA3124F02FFEE4D70186E
:2032B000C29074ABC0E07452C0E07480C0E01244D6158115811581228E028D038F047404B8
:2032D0002EFEE43DFD8E828D838FF0124F02FEA3124F02FF900005E0F9A3E0FDC3E99EED6A
:2032F0009F500689548D5580048E548F558A828B838CF0124F02FEA3124F02F87F009000BC
:2033100001E0F9A3E0FD90207DE9F0EDA3F0E4A3F0902080E554F0E555A3F08E8288838F76
:20333000F0C004C003C0021240E8D002D003D00474022AFDE43BFE8C07900003E0F8A3E056
:20335000F98D828E838FF0E81242A8A3E91242A874062AFAE43BFB900007E0FEA3E0FF8A20
:20337000828B838CF0EE1242A8A3EF1242A8C29074CEC0E07452C0E07480C0E01244D6154A
:203390008115811581229052D675F080122951D2909020D0E0FDA3E0FEA3E0FFED4E601FA9
:2033B00074082DFDE43EFE8D828E838FF0124F02FDA3124F02FEA3124F02FFED4E7003C2BF
:2033D00090228D028E038F0474062DFDE43EFE78007900C002C003C0048D828E838FF012C9
:2033F0004F02FBA3124F02FCC3E89BE99CD004D003D002506BC005C006C0078A828B838C78
:20341000F0124F02FEA3124F02FFE82EF582E93FF583E0F556C3745A9556D007D006D005F0
:20343000500674BF25565030C005C006C0078A828B838CF0124F02FEA3124F02FFE82EFE96
:20345000E93FFF8E828F83E0FD4305208E828F83EDF0D007D006D00508B80001090233E36B
:20347000C29074CEC0E07452C0E07480C0E01244D6158115811581229052FA75F080122902
:2034900051740AC0E07453C0E07480C0E01244D6158115811581123929123922124184AE5E
:2034B00082AF83C374589E74828FF063F08095F0400AEE94C8EF6480948050177440C0E018
:2034D0007453C0E07480C0E01244D615811581158180AE8E828F83122169AD82AE83AFF008
:2034F000ED4E70167469C0E07453C0E07480C0E01244D615811581158122902047EDF0EEB1
:20351000A3F0EFA3F09020D075F000123A9474A6C0E07453C0E07480C0E01244D615811535
:20353000811581229053D275F08012295174DEC0E07453C0E07480C0E01244D615811581D7
:203550001581123929123922124184AE82E583FF30E716741FC0E07454C0E07480C0E01208
:2035700044D615811581158122C374019E74808FF063F08095F04016744DC0E07454C0E07D
:203590007480C0E01244D615811581158122EE24FEFEEF34FFFF902050EEF0EFA3F0902038
:2035B000D075F000123B7AE58260167483C0E07454C0E07480C0E01244D6158115811581A1
:2035D0002274A2C0E07454C0E07480C0E01244D61581158115812274CAC0E07454C0E0743D
:2035F00080C0E01244D615811581158175A61E75A6E180FE9054DD75F0801229519020D048
:2036100075F000123E4DAE82AF8374022EFCE43FFDC007C006C004C00574ECC0E07454C0D8
:20363000E07480C0E01244D6E58124FBF581123929123922124184AC82AD83D006D007C359
:20365000EC9402ED64809480401274022EFEE43FFF8C028D03C3EE9AEF9B5016740FC0E061
:203670007455C0E07480C0E01244D615811581158122EC24FEFEED34FFFF902069EEF0EF1C
:20369000A3F09020D075F000C005C004123ED8AE82AF83D004D0058F037F00EE4B701674A2
:2036B0003CC0E07455C0E07480C0E01244D615811581158122C007C006C003C004C00574C4
:2036D0005CC0E07455C0E07480C0E01244D6E58124FBF5817464C0E07452C0E07480C0E048
:2036F0001244D6158115811581D003D006D0078E828B838FF0124F02FCA3124F02FA7D00D3
:2037100074042EF557E43BF5588F598E828B838FF0124F02F8A3124F02F9C006C003C0070C
:203730008557828558838559F0124F02FEA3124F02FFEE28F55AEF39F55B8C5C8A5D8D5EF0
:20375000AB5AAE5B7F00C003C006C007855C82855D83855EF0122006158115811581D00710
:20377000D003D006400302380EECC398F8EA99E8541F7043C006C003C0078C008A018D073A
:20379000C007C006C005C004C003C002C000C0017471C0E07452C0E07480C0E01244D6E56D
:2037B0008124FBF581D002D003D004D005D006D007D007D003D0068C828A838DF0124F026D
:2037D000F9A3AC82AA8389007900C007C006C005C004C003C002C000C0017479C0E0745271
:2037F000C0E07480C0E01244D6E58124FBF581D002D003D004D005D006D00702371B742774
:20381000C0E07451C0E07480C0E01244D6158115811581221222297469C0E07455C0E07438
:2038300080C0E01244D6158115811581123A5DAF82C007122094E582D0076014900025EFAD
:20385000F090000175F000C007122855D0078012900025EFF090000C75F000C007122855C8
:20387000D007BF2302804CBF24028042BF25028030BF26028051BF2A028047BF2B02803866
:20389000BF2D028038BF3D028012BF3F028008BF40028012023827122D6A802E122F8F80BF
:2038B0002912313C8024122CB7122229801C12327780171233968012123488800D12353429
:2038D00080081235E78003123604747AC0E07455C0E07480C0E01244D615811581158112C8
:0538F000293B0238270E
:204F1E000D0A506C6561736520656E74657220746865206C6173742074776F206469676958
:204F3E007473206F6620796F75722049443A000D0A20446964206E6F7420656E746572208A
:204F5E0076616C69642074776F206469676974206E756D6265722C20706C65617365207475
:204F7E00727920616761696E000D0A41746F69206572726F723A206E756D62657220696E40
:204F9E0076616C6964206F72206F7574206F662072616E67652C20706C656173652074727C
:204FBE007920616761696E000D0A4275666665722053697A6520746F6F206269672C20708E
:204FDE006C65617365207069636B206120736D616C6C6572206275666665722073697A65DC
:204FFE00000D0A73747564656E745F6E756D6265723A202564000D0A757365725F62756638
:20501E006665725F73697A653A20257A75000D0A6275666665725F25642073746172747373
:20503E0020402025702C20656E6473204025702C2073697A6520257A75000D0A4865617082
:20505E002073746172747320402025702C20656E647320402025702C2073697A653A2025CB
:20507E007A75000D0A2D2D2D2D2D2D2D2D2D2D2D2D2D2D2D2D2D2D2D2D2D2D2D2D2D2D2D4D
:20509E002D2D2D2D2D2D2D2D2D2D2D2D2D2D2D2D2D2D2D2D2D000D0A2573004865617020F4
:2050BE005265706F7274000D0A6275666665725F25642073746172747320402025702C20BB
:2050DE00656E6473204025702C2073697A6520257A752C20636F6E7461696E7320257A75F9
:2050FE0020616C7068616265742063686172732C2068617320257A75206368617273207281
:20511E00656D61696E696E67000D0A000D0A506C6561736520656E74657220612076616C7F
:20513E006964206275666665722073697A65207468617420697320646976697369626C6567
:20515E00206279203332205B36342C257A755D3A20000D0A20557365722062756666657265
:20517E002073697A65206C6172676572207468616E206D6178696D756D000D0A205573654C
:20519E0072206275666665722073697A6520746F6F20736D616C6C206F72206572726F7214
:2051BE0020696E20636F6E76657273696F6E000D0A20557365722062756666657220736908
:2051DE007A65206973206E6F7420646976697369626C65206279203332000D0A20467265B6
:2051FE0065696E6720414C4C2042554646455253000D0A20526563656976656420257A7536
:20521E002063686172732073696E6365206C61737420696E766F636174696F6E206F6620CA
:20523E003F0025630044756D702041646D696E2042756666657273000D0A204275666665DE
:20525E007220256420000D0A2D2D2D2D2D2D2D2D2D2D000D0A253034583A002025303268DB
:20527E00685800436C656172204275666665727300436F7079206275666665725F3020692F
:20529E006E746F206275666665725F33000D0A206275666665725F33206E6F7420616C6C66
:2052BE006F63617465643B2065786974696E67000D0A20446F6E6500436F6E76657274204F
:2052DE006275666665725F3320636861727320746F206C6F77657263617365000D0A204113
:2052FE006C6C6F6320427566666572000D0A506C6561736520656E74657220612073697AC6
:20531E006520666F7220746865206E6577206275666665722C205B3230302C3630305D3AAC
:20533E0020000D0A4275666665722073697A6520696E76616C6964212120506C6561736520
:20535E002074727920616761696E000D0A20416C6C6F636174696F6E206661696C65643B93
:20537E002061626C6520746F20616C6C6F636174652068656164657220627574206E6F748E
:20539E0020627566666572000D0A20416C6C6F636174696F6E207375636365737366756CB8
:2053BE002121204E657720627566666572206164646564004672656520427566666572009B
:2053DE000D0A506C6561736520656E74657220746865206E756D626572206F6620746865A0
:2053FE002062756666657220796F7520776F756C64206C696B6520746F20667265653A2049
:20541E00000D0A20496E76616C696420627566666572206E756D6265722C206E65676174D2
:20543E0069766573206E6F742076616C6964000D0A20496E76616C6964206275666665725E
:20545E00206E756D6265722C2062756666657273203020262031206172652070726F7465C3
:20547E0063746564000D0A205375636365737366756C6C792072656D6F76656420627566C3
:20549E00666572000D0A204661696C656420746F2072656D6F7665206275666665722C209E
:2054BE0069647820746F6F20626967000D0A526573657474696E6720646576696365000D5C
:2054DE000A2044756D7020427566666572000D0A456E74657220612076616C6964206275B7
:2054FE00666665722023205B322D257A755D3A20000D0A496E76616C6964206275666665FD
:20551E0072206E756D6265723B2072657475726E696E6720746F2070726F6D7074000D0A3D
:20553E004C4C206572726F723B2072657475726E696E6720746F2070726F6D7074000D0A56
:20555E0020427566666572202564000D0A456E746572206120636861723A20000D0A454EB2
:0A557E004420434F4D4D414E4400C0
:0355950000000013
:2038F500AF83E582900036F0EFA3F010990280FB900036E0FEA3E0FF8E998E828F8322101B
:0D391500980280FBAE997F008E828F832286
:02558800002001
:2039220090203875F00022902085E4F0902086740AF0E4A3F090203875F00012415C902046
:20394200447438F07420A3F0E4A3F0123914AE828E057F008D828F83C0061238F5D006E466
:20396200BE080104FF6014900020C007C0061238F59000081238F5D006D007BE0D03D380E6
:2039820001C392024037BE0A028032EE602FBE7F02802ABE08028025902044E0FBA3E0FCB9
:2039A200A3E0FD8B828C838DF0EE1242A890204474012BF0E43CA3F0EDA3F08054BE7F0238
:2039C2008003EF604C902044E0FCA3E0FDA3E0FF7438C0E07420C0E0E4C0E08C828D838F44
:2039E200F012200615811581158160101CBCFF011D902044ECF0EDA3F0EFA3F0902044E0D0
:203A0200FCA3E0FDA3E0FF8C828D838FF0E41242A8200232BE0A02802DEE602A902044E012
:203A2200FDA3E0FEA3E0FF7441C0E07420C0E0E4C0E08D828E838FF012200615811581155F
:203A420081500302394D902044E0FDA3E0FEA3E0FF8D828E838FF0E40242A8123914AE8236
:203A62008E057F008D828F83C0061238F5D006902042E02401F0A3E03400F08E82229020C6
:123A820042E0FEA3E08E82F58322902042E4F0A3F0226A
:203A9400AFF0AE83E58290204AF0EEA3F0EFA3F090204AE0F51BA3E0F51CA3E0F51D851B3B
:203AB40082851C83851DF0124F02FAA3124F02FBA3124F02FCEA4B7024902047E0F8A3E03F
:203AD400F9A3E0FF851B82851C83851DF0E81242A8A3E91242A8A3EF1242A8806190204DA7
:203AF400EAF0EBA3F0ECA3F090204DE0FDA3E0FEA3E0FF74082DFDE43EFE8D828E838FF099
:203B1400124F02FAA3124F02FBA3124F02FCEA4B600D90204DEAF0EBA3F0ECA3F080C990E2
:203B34002047E0FAA3E0FBA3E0FC8D828E838FF0EA1242A8A3EB1242A8A3EC1242A89020E9
:203B540047E0FDA3E0FEA3E0FF74082DFDE43EFE8D828E838FF0E41242A8A31242A8A31291
:203B740042A875820122AFF0AE83E582902052F0EEA3F0EFA3F0902052E0F508A3E0F509A1
:203B9400A3E0F50AE50845097003F58222850882850983850AF0124F02FAA3124F02FBA3A8
:203BB400124F02FCEA4B7003F58222902050E0F8A3E0F9902050E0F5F0A3E045F07042903E
:203BD4002055EAF0EBA3F0ECA3F074082AFDE43BFE8C078D828E838FF0124F02FDA3124F2F
:203BF40002FEA3124F02FF850882850983850AF0ED1242A8A3EE1242A8A3EF1242A8023CCB
:203C1400DD902058EAF0EBA3F0ECA3F018B8FF0119902050E8F0E9A3F0902050E0FEA3E036
:203C3400FFEE4F603C902058E0FBA3E0FCA3E0FD74082BFBE43CFC8B828C838DF0124F02FC
:203C5400FBA3124F02FCA3124F02FDEB4C6012902058EBF0ECA3F0EDA3F01EBEFF011F804A
:203C7400C0EE4F600475820022902058E0FDA3E0FEA3E0FF74082DFDE43EFE8D828E838F59
:203C9400F0124F02FAA3124F02FBA3124F02FC902055EAF0EBA3F0ECA3F074082AFAE43B25
:203CB400FB8A828B838CF0124F02FAA3124F02FBA3124F02FC8D828E838FF0EA1242A8A3D7
:203CD400EB1242A8A3EC1242A8902055E0FEA3E0FDA3E0FF902055E0F5F0A3E045F0700384
:203CF400F582228E828D838FF0124F02FEA3124F02FF4E600B7D008E828F838DF0123F915B
:203D1400902055E0FDA3E0FEA3E0FF8D828E838FF0123F9175820122AFF0AE83E582902028
:203D34005BF0EEA3F0EFA3F090205BE0FDA3E0FEA3E0FF8D828E838FF0124F02FAA3124F36
:203D540002FBA3124F02FC90205EEAF0EBA3F0ECA3F090205BE0FAA3E0FBA3E0FC8A828BF2
:203D7400838CF0124F02F50BA3124F02F50CA3124F02F50DE50B450C700122C005C006C09F
:203D9400077408250BF8E4350CF9AF0D888289838FF0124F02F8A3124F02F9A3124F02FF96
:203DB4008A828B838CF0E81242A8A3E91242A8A3EF1242A890205EE0FDA3E0FEA3E0FF8DE4
:203DD400828E838FF0124F02F50BA3124F02F50CD007D006D005E50B450C601BAB0BAC0CA7
:203DF4007A008B828C838AF0C007C006C005123F91D005D006D00790205EE0FAA3E0FBA3E0
:203E1400E0FC8A828B838CF0C007C006C005123F91D005D006D0078D828E838FF0124F0264
:203E3400FAA3124F02FBA3124F02FC90205EEAF0EBA3F0ECA3F0023D66AFF0AE83E5829020
:203E54002061F0EEA3F0EFA3F0902061E0FDA3E0FEA3E0FF8D828E838FF0124F02FDA31235
:203E74004F02FEA3124F02FF902066EDF0EEA3F0EFA3F0902064E0FEA3E0FF902066E0FB7F
:203E9400A3E0FCA3E0FD902066E0F5F0A3E045F0602D0EBE00010F74082BFBE43CFC8B8248
:203EB4008C838DF0124F02FBA3124F02FCA3124F02FD902066EBF0ECA3F0EDA3F080BC8E45
:203ED400828F8322AFF0AE83E58290206BF0EEA3F0EFA3F090206BE0FDA3E0FEA3E0FF8D4B
:203EF400828E838FF0124F02FDA3124F02FEA3124F02FF90206EEDF0EEA3F0EFA3F0902085
:203F140069E0FEA3E0FF90206EE0FBA3E0FCA3E0FD90206EE0F5F0A3E045F06031EE4F6003
:203F34002D74082BFBE43CFC8B828C838DF0124F02FBA3124F02FCA3124F02FD90206EEB7D
:203F5400F0ECA3F0EDA3F01EBEFF011F80B890206EE0FDA3E0FEA3E0FF8D828E838FF0226C
:1D3F7400AF83E582902072F0EFA3F0902072E0FEA3E0FF902071E08E828F83F0224C
:203F9100AFF0AE83E582902074F0EEA3F0EFA3F0902074E0FDA3E0FEA3E0902074E0F5F0D4
:203FB100A3E045F0700122902079E4F0A3F090208FE0FBA3E0FC902077EBF0ECA3F090204B
:203FD1007B748FF07420A3F0902077E0FBA3E0FC4B60418B018C02C003C0048D008E04C34B
:203FF100E998EA9CD004D003502A902079EBF0ECA3F074022BFBE43CFC90207BEBF0ECA3B8
:20401100F08B828C83E0FBA3E0FC902077EBF0ECA3F080B4902077E0FEA3E0FF902074E0E9
:20403100FBA3E0FCA3E0EB24FEFBEC34FFFC74022BFAE43CFD8A828D83EEF0EFA3F090206B
:204051007BE0F8A3E0F988828983EBF0ECA3F08B828C83E0F8A3E0F9EEB50033EFB5012FF6
:2040710088828983A3A3E0FEA3E0FF8A828D83EEF0EFA3F08B828C83E0FEA3E0FF8E828FDC
:2040910083E0FEA3E0FF8B828C83EEF0EFA3F0902079E0FEA3E0FF4E603C8E828F83E0F843
:2040B100A3E0F9E8B5032FE9B5042B8B828C83E0FBA3E0FC8E828F83EBF0ECA3F074022E41
:1740D100FEE43FFF8A828D83E0FAA3E0FD8E828F83EAF0EDA3F022A4
:06206300E478FFF6D8FD51
:2040E800AFF0AE83E582902082F0EEA3F0EFA3F0902082E0F51BA3E0F51CA3E0F51DAA1B4C
:20410800AB1CAC1D90207DE0F8A3E0F9A3E0FF902080E0F51EA3E0F51FAD1EAE1F151E740B
:20412800FFB51E02151FED4E6020888289838FF0124F02FEA3A882A9838A828B838CF0EE41
:144148001242A8A3AA82AB8380CF851B82851C83851DF02221
:20415C00AC82AD83902086E0FEA3E0FFBE000360121F0F902085E08C828D831242A8A3DE3E
:08417C00FADFF88C828D83222A
:20418400AFF0AE83E582902088F0EEA3F0EFA3F090208BE4F0A3F0902088E0FDA3E0FEA3DE
:2041A400E0FF8D828E838FF0124F02FCBC20028003BC09120DBD00010E902088EDF0EEA367
:2041C400F0EFA3F080DC902088EDF0EEA3F0EFA3F08D828E838FF0124F02FC90208DE4BC1A
:2041E4002D0104F0BC2D028003BC2B0E90208874012DF0E43EA3F0EFA3F0902088E0FDA37D
:20420400E0FEA3E0FF8D828E838FF0124F02FCBC30009203405FEC24C69203405890208BDE
:20422400E0FBA3E0FC902097EBF0ECA3F090000AC007C006C005124468AB82AC83D005D0D4
:2042440006D0078D828E838FF0124F02FAA3AD82AE83902088EDF0EEA3F0EFA3F08A017A61
:2042640000E924D0F9EA34FFFA90208BE92BF0EA3CA3F08090902088EDF0EEA3F0EFA3F02D
:2042840090208DE0601190208BE0FEA3E0FFC3E49EFEE49FFF800890208BE0FEA3E0FF8E7B
:0442A400828F832260
:202041007903E94400601B7A0190559578D075A020E493F2A308B8000205A0D9F4DAF27568
:02206100A0FFDE
:1B42A80020F71130F6138883A88220F509F6A8837583002280FEF280F5F02215
:2042C30090208F7438F07400A3F0905588E493FE740193FF1EBEFF011FEE2438FEEF3400AA
:2042E300FF900038EEF0EFA3F090208FE0FEA3E0FF8E828F83A3A3E4F0A3F022AF83E5826B
:20430300902091F0EFA3F090208FE0F5F0A3E045F070031242C3902091E0FEA3E0FF4E6052
:204323000E74022EFCE43FFDC3EC9EED9F50049000002290209174022EF0E43FA3F0902092
:2043430091E0FEA3E0FFC3EE9404EF940050099020917404F0E4A3F090208FE0FEA3E0FF85
:20436300902093EEF0EFA3F0902095748FF07420A3F0902093E0FEA3E0FF4E70030244642A
:204383008E828F83E0FCA3E0FD8C028D038E008F01EAC398FAEB99FB8A008B01902091E06B
:2043A300F50EA3E0F50FC3E8950EE9950F50030244417404250EF8E4350FF9C3EA98EB992E
:2043C300404C8E028F03E50E2AFAE50F3BFB8A828B83ECF0EDA3F074022AFCE43BFD8E82AD
:2043E3008F83A3A3E0F8A3E0F98C828D83E8F0E9A3F0902095E0FCA3E0FD8C828D83EAF003
:20440300EBA3F08E828F83EAF0EBA3F0801C902095E0FCA3E0FD8E828F83A3A3E0FAA3E09F
:20442300FB8C828D83EAF0EBA3F0902093E0FCA3E0FD74022CFCE43DFD8C828D83227402F7
:204443002EFEE43FFF902095EEF0EFA3F08E828F83E0FEA3E0FF902093EEF0EFA3F00243FC
:0544630075900000222D
:20446800AA83AB828BF0902097E0A4F8A9F08AF0E0A429F98BF0A3E0A429F5838882222252
:202069007800E84400600A790175A000E4F309D8FC78CFE84420600C7921900001E4F0A365
:04208900D8FCD9FAAC
:20448800C01A85811A7E008E831238F5D01A22AFF0AE83E58290209AF0EEA3F0EFA3F0903C
:2044A800209AE0FDA3E0FEA3E0FF902099E0FC9020AEE4F0A3F0A3F09020B1EDF0EEA3F01E
:2044C800EFA3F09020B4ECF09044880245DCC01AE581F51A24FBFF9020AEE4F0A3F0A3F0CE
:2044E800E51A24FBF89020B1E6F008E6A3F008E6A3F09020B4EFF09044881245DCD01A2287
:20450800E5829020AAF0E0FF9020A0E0C0E0A3E0C0E0A3E0C0E0124523800D90209EE0C0F8
:20452800E0A3E0C0E08F82221581158115819020A8E02401F0A3E03400F022E5829020ABA3
:20454800F0E02430FF24C6500D74072FFF90209DE060034307208F82024508E5829020AC23
:20456800F0E0FFC4540FF582C007124543D00753070F8F82024543E5829020ADF09020A383
:20458800E0FCA3E0FDA3E0FEA3E0FF9020A7E0FB9020ADE0FA79208B00E828F51BEF2354A1
:2045A80001451BFBEC2CFCED33FDEE33FEEF33FFC3EB9A4007EBC39AFB43040119E970D7C3
:2045C8009020A3ECF0EDA3F0EEA3F0EFA3F09020A7EBF022AF83E5829020B5F0EFA3F090CD
:2045E80020B5E0FEA3E0FF90209EEEF0EFA3F09020AEE0FDA3E0FEA3E0FF9020A0EDF0EE77
:20460800A3F0EFA3F09020A8E4F0A3F09020B1E0FDA3E0FEA3E0FF8D828E838FF0124F027B
:20462800FC9020B174012DF0E43EA3F0EFA3F0EC7003024EDEBC25028003024ED69020B7CC
:20464800E4F09020B8F09020B9F09020BAF09020BBF09020BCF09020BDF09020BEF0902051
:20466800C0F09020C1F0A3F09020C314F0A3F09020B1E0FDA3E0FEA3E0FF8D828E838FF0A4
:20468800124F02FBA3AD82AE839020B1EDF0EEA3F0EFA3F09020C7EBF0BB25088B821245D2
:2046A80008024614BB30005003024775EB24C650030247759020C3E0F510A3E0F51174FF58
:2046C800B51063B51160C005C006C0079020C1E0FAA3E0FF902097EAF0EFA3F090000AC068
:2046E80005C003124468AE82AF83D003D0058B027D00EA2EFEED3FFFEE24D0FEEF34FFFFD6
:204708009020C1EEF0EFA3F0D007D006D0059020C1E0F5F0A3E045F060030246829020B8BB
:204728007401F0024682C005C006C007902097E510F0E511A3F090000AC006C005C0031241
:204748004468AA82AF83D003D005D0067E00EB2AFAEE3FFFEA24D0FAEF34FFFF9020C3EABA
:20476800F0EFA3F0D007D006D0050246829020C7E0FBBB2E2FC005C006C0079020C3E0FA6A
:20478800A3E0FFBAFF05BFFF028009D007D006D005024682D007D006D0059020C3E4F0A3D0
:2047A800F0024682BB61004014EB2485400F9020C774DF5BF090209D7401F0800590209D4B
:2047C800E4F09020C7E0FBBB20028075BB2B028067BB2D028059BB4202806FBB4302807C5D
:2047E800BB4403024A6CBB4603024A92BB4803024682BB4903024A6CBB4A03024682BB4CAD
:20480800028050BB4F03024A7ABB50030249DABB53028077BB5403024682BB5503024A82F4
:20482800BB5803024A8ABB5A03024682024A9A9020B77401F00246829020B97401F0024610
:20484800829020BA7401F00246829020BC7401F00246829020BD7401F00246829020BCE0B2
:20486800600E9020B4E014F9F09020C7E7F0800F9020B4E024FEFFF08F019020C7E7F090E1
:2048880020C7E0F582124508024AA99020B4E024FDFFF08F0187050987060987071919901F
:2048A80020A3EDF0EEA3F0EFA3F08D828E838FF0124EEA8582108583119020C3E0FAA3E064
:2048C800FDBAFF0DBDFF0A9020C3E510F0E511A3F09020B7E0704B9020C1E0FAA3E0FDC3D6
:2048E800E5109AE5119D503A9020C1EAC39510F0ED9511A3F09020C1E0FAA3E0FD8A068D43
:20490800071ABAFF011DEE4F6010758220C005C002124508D002D00580E39020C1EAF0EDAB
:20492800A3F09020C3E0F513A3E0F5149020A3E0FAA3E0FDA3E0FF8A828D838FF0124F02C8
:20494800F512603CC3E4951374808514F063F08095F0502C151374FFB51302151485128265
:204968001245089020A3E0FAA3E0FDA3E0FF0ABA00010D9020A3EAF0EDA3F0EFA3F080AC74
:204988009020B7E07003024AA99020C1E0FEA3E0FFC3E5109EE5119F4003024AA99020C1FB
:2049A800EEC39510F0EF9511A3F09020C1E0FEA3E0FF8E028F051EBEFF011FEA4D700302E5
:2049C8004AA1758220C007C006124508D006D00780E09020B4E024FDFDF08D0187150987C8
:2049E8001609871719199020A3E515F0E516A3F0E517A3F09020A5E0FDBD800040089020FF
:204A0800C77443F08020BD600040089020C77450F08013BD400040089020C77449F080066E
:204A28009020C77458F09020C7E0FDF582C00512450875823A12450875823012450875823F
:204A480078124508D005BD4902800EBD500280099020A4E0F5821245639020A3E0F5821253
:204A68004563803D9020BB7401F09020C0740AF0802F9020C07408F080279020C0740AF00B
:204A8800801F9020C07410F080179020BE7401F0800F8B8212450880089020C1EEF0EFA3BD
:204AA800F09020BEE060719020B4E024FCFFF08F01870309870509870609870719191990D5
:204AC80020A3EBF0EDA3F0EEA3F0EFA3F09020A3748AF07455A3F07480A3F09020A3E0F561
:204AE80015A3E0F516A3E0F51774012515FAE43516FBAF179020A3EAF0EBA3F0EFA3F08531
:204B080015828516838517F0124F02FF70030246148F8212450880C39020C0E0700302465D
:204B2800149020BCE060479020B4E014F9F087077E007D007B009020A3EFF0EEA3F0EDA3DE
:204B4800F0EBA3F09020BBE06003024BEC9020A3E0FBA3E0A3E0A3E07D007E007F00902017
:204B6800A3EBF0EDA3F0EEA3F0EFA3F080769020BDE060289020B4E024FCFFF08F018703F4
:204B88000987050987060987071919199020A3EBF0EDA3F0EEA3F0EFA3F080489020B4E043
:204BA80024FEFFF08F01870609870719EF3395E0FDFB9020A3EEF0EFA3F0EDA3F0EBA3F0CF
:204BC8009020BBE0701E9020A3E0FBA3E0FDA3E0A3E07E007F009020A3EBF0EDA3F0EEA304
:204BE800F0EFA3F09020BBE060419020A3E0FBA3E0FDA3E0FEA3E0FF30E72B9020A3E0FB2E
:204C0800A3E0FDA3E0FEA3E0FFC3E49BFBE49DFDE49EFEE49FFF9020A3EBF0EDA3F0EEA30D
:204C2800F0EFA3F080059020BBE4F09020BF7401F09020C0E0F5137518CD751920E4F51019
:204C4800F5119020A7E4F085138212457F9020BFE070339020A7E0C454F0F5159020A7E0B9
:204C6800C4540F4515F515851882851983E0FFE5154207851882851983EFF0151874FFB5CB
:204C880018021519800C9020A7E0FF851882851983F00510E4B5100205119020BFE0B401F8
:204CA80000E433F09020A3E0FAA3E0FBA3E0FEA3E0FFEA4B4E4F708A9020CEE518F0E51902
:204CC800A3F09020C5E510F0E511A3F09020C1E0F5F0A3E045F070099020C17401F0E4A392
:204CE800F09020B8E0FFE070479020B7E070418510188511199020C1E0FAA3E0FBC007AF4B
:204D0800180F8F067F00C3EE9AEF9BD0075019758220C007C003C002124508D002D003D004
:204D2800071ABAFF011B80D59020C1EAF0EBA3F09020BBE0602075822DC007124508D0076B
:204D48009020C1E024FFFDA3E034FFFE9020C1EDF0EEA3F080569020C5E0F5F0A3E045F08F
:204D6800604A9020B9E0602075822BC007124508D0079020C1E024FFFDA3E034FFFE9020C4
:204D8800C1EDF0EEA3F080249020BAE0601E758220C007124508D0079020C1E024FFFDA358
:204DA800E034FFFE9020C1EDF0EEA3F09020B7E070489020C5E0F518A3E0F5199020C1E0C8
:204DC800FAA3E0FBC0078A068B071ABAFF011BC3E5189EE5199FD0075053EF60067D307E86
:204DE8000080047D207E008D82C007C003C002124508D002D003D00780CA9020C1E0FEA39A
:204E0800E0FF9020C5E0F518A3E0F519C3E5189EE5199F500F9020C1EEC39518F0EF951902
:204E2800A3F080119020C1E4F0A3F080089020C1EAF0EBA3F09020CEE0FEA3E0FF9020C5CA
:204E4800E0F518A3E0F519AA18AD19151874FFB518021519EA4D60459020BFE0B40100E4E3
:204E680033F09020BFE070140EBE00010F8E828F83E0C4540FFD9020A7F0800E8E828F833B
:204E8800E0FD53050F9020A7EDF09020A7E0F582C007C006124543D006D00780AA9020B77F
:204EA800E070030246149020C1E0FEA3E0FF8E038F051EBEFF011FEB4D700302461475824C
:204EC80020C007C006124508D006D00780E08C821245080246149020A8E0FEA3E08E82F52A
:024EE800832223
:0B558A003C4E4F20464C4F41543E0069
:184EEA00AA82AB83124F026003A380F8C3E5829AF582E5839BF583229D
:20200600E58124FCC3C8C0E0C082E608467006E5824583601218E58296F58208E5839642A8
:1B2026008208E5F0964582D082C8D0E0C82275815E122090E58260030220032A
:1C4F020020F71430F6148883A88220F507E6A88375830022E280F7E49322E022BE
:00000001FF
