:0320000002203487
:03208D000220032B
:032003000224C3F1
:20209000900000227468C0E0743EC0E07480C0E012325B158115811581900001E4F0A3F0C3
:2020B00090000175F000122711E58330E716749FC0E0743EC0E07480C0E012325B15811558
:2020D00081158122900001E0FEA3E0FF20E70FC374FF9E74878FF063F08095F0501674D25E
:2020F000C0E0743EC0E07480C0E012325B15811581158122740FC0E0743FC0E07480C0E0BD
:2021100012325B158115811581900003E4F0A3F090000375F000122711E58330E716749F6A
:20213000C0E0743EC0E07480C0E012325B15811581158122900003E0FEA3E0FF20E70FC3BA
:2021500074FF9E74808FF063F08095F050167431C0E0743FC0E07480C0E012325B158115B7
:2021700081158122900001E0FCA3E0FD902065EEF08C828D83122F45E5828583F045F0609E
:2021900016746FC0E0743FC0E07480C0E012325B15811581158122748FC0E0743FC0E074C2
:2021B00080C0E012325B1581158115812274AFC0E0743FC0E07480C0E012325B15811581F7
:2021D0001581900005E4F0A3F090000575F000122711E58330E716749FC0E0743EC0E0740B
:2021F00080C0E012325B15811581158122900005E0FEA3E0FF20E70FC374FF9E74878FF0D3
:2022100063F08095F0501674D2C0E0743EC0E07480C0E012325B1581158115812290206889
:202230007407F07400A3F0E4A3F08E828F83122FC6E5828583F045F0601674E7C0E0743FC4
:20225000C0E07480C0E012325B15811581158122900007E0FF7E00C007C0067408C0E074A6
:2022700040C0E07480C0E012325BE58124FBF581227430C0E07440C0E07480C0E012325B53
:20229000158115811581227466C0E07440C0E07480C0E012325B158115811581900008E40B
:2022B000F0A3F090000875F000122711E58330E716749FC0E0743EC0E07480C0E012325B77
:2022D00015811581158122900008E0FEA3E0FF20E70FC374FF9E74878FF063F08095F05006
:2022F0001674D2C0E0743EC0E07480C0E012325B158115811581227496C0E07440C0E074F7
:2023100080C0E012325B15811581158190000AE4F0A3F090000A75F000122711E58330E763
:2023300016749FC0E0743EC0E07480C0E012325B1581158115812290000AE0FEA3E0FF2041
:20235000E70FC374FF9E74878FF063F08095F0501674D2C0E0743EC0E07480C0E012325B00
:2023700015811581158122900008E0FCA3E0FDC3EE9CEF64808DF063F08095F0501674C1E5
:20239000C0E07440C0E07480C0E012325B1581158115812290000874F05CF0EDA3F09000CA
:2023B0000A74F05EF0EFA3F090000AE0FEA3E0FF90000A74102EF0E43FA3F0900008E0FE6D
:2023D000A3E0FF90000AE0FCA3E0FDC3EE9CEF64808DF063F08095F0400122C007C006C0D0
:2023F00006C0077400C0E07441C0E07480C0E012325BE58124FBF581D006D0078E048F0596
:202410007A007B00C3EA9410EB6480948040030224B990000CE4F0A3F0EA2CF8EB3DF9909F
:202430002068740CF07400A3F0E4A3F088828983C007C006C005C004C003C002122FC6E579
:20245000828583F0D002D003D004D005D006D00745F060167409C0E07441C0E07480C0E046
:2024700012325B15811581158122C007C006C005C004C003C00290000CE0C0E0A3E0C0E0EF
:20249000743FC0E07441C0E07480C0E012325BE58124FBF581D002D003D004D005D006D062
:2024B000070ABA00010B02241474102EFEE43FFF0223D3122F427445C0E07441C0E074800C
:2024D000C0E012325B1581158115811225A5AE828E057F008D828F83C006122586D006BE95
:2024F0003F02800FBE72028050BE77028046BE7852804B746BC0E07441C0E07480C0E01230
:20251000325B158115811581747EC0E07441C0E07480C0E012325B1581158115817490C0BC
:20253000E07441C0E07480C0E012325B158115811581802712209480221221BD801D122291
:20255000978018749FC0E07441C0E07480C0E012325B1581158115810224C674D9C0E074F2
:1625700041C0E07480C0E012325B1581158115811222810224C6DE
:203E68000D0A456E74657220616E20454550524F4D206164647265737320746F20777269D3
:203E8800746520746F20696E20686578205B302C3746465D3A20000D0A204661696C656415
:203EA80020746F20656E74657220612068657820696E74656765722C20706C6561736520DF
:203EC80074727920616761696E000D0A204661696C656420746F20656E74657220616E208F
:203EE800616464726573732077697468696E2072616E67652C20706C6561736520747279AF
:203F080020616761696E000D0A456E7465722061206279746520746F207772697465205B46
:203F2800302C2046465D3A20000D0A204661696C656420746F20656E746572206120766185
:203F48006C75652074686174277320627974652073697A652C20706C6561736520747279B4
:203F680020616761696E000D0A4661696C656420746F20777269746520746F2074686520EB
:203F8800656570726F6D000D0A20537563636573733A2077726F746520746F207468652072
:203FA800656570726F6D000D0A456E74657220616E20454550524F4D20616464726573737F
:203FC80020746F20726561642066726F6D20696E20686578205B302C3746465D3A20000D8C
:203FE8000A4661696C656420746F20726561642066726F6D2074686520656570726F6D00CE
:204008000D0A20537563636573733A2072656164203078256868782066726F6D2074686528
:2040280020656570726F6D000D0A2D2D2D2D2D2D2D2D2D2D2D2D2D2D2D2D2D2D2D2D2D2DDB
:204048002D2D2D2D2D2D2D2D2D2D2D2D2D2D2D2D2D2D2D2D2D2D2D2D2D2D2D2D2D000D0A28
:20406800456E74657220612076616C6964207374617274696E672068657820616464726578
:204088007373205B302C203746465D3A20000D0A456E74657220612076616C696420656E08
:2040A80064696E67206865782061646472657373205B302C3746465D000D0A207374617203
:2040C800745F616464726573732069732067726561746572207468616E20656E6420616412
:2040E80064726573733B20706C656173652074727920616761696E000D0A253033583A20D2
:20410800000D0A204661696C656420746F207265616420627974652066726F6D206565705A
:20412800726F6D2C20656E64696E6720636F6D6D616E64200D0A002530325820000D0A45D7
:204148006E746572206120636F6D6D616E64206368617220283F20666F722068656C702980
:204168003A20000D0A77202D20777269746520612062797465000D0A72202D2072656164D0
:2041880020612062797465000D0A78202D206865782064756D70000D0A556E7265636F67C1
:2041A8006E697A656420636F6D6D616E642C20706C6561736520656E746572206120766162
:1F41C8006C696420636F6D6D616E642063686172000D0A454E4420434F4D4D414E4400D5
:20258600AF83E58290000EF0EFA3F010990280FB90000EE0FEA3E0FF8E998E828F832210ED
:0D25A600980280FBAE997F008E828F832209
:0241E7000020B6
:2025B30090201075F00022902076E4F0902077740AF0E4A3F090201075F0001231CA9020D9
:2025D3001C7410F07420A3F0E4A3F01225A5AE828E057F008D828F83C006122586D006E43E
:2025F300BE080104FF6014900020C007C006122586900008122586D006D007BE0D03D3806D
:2026130001C392004037BE0A028032EE602FBE7F02802ABE0802802590201CE0FBA3E0FC65
:20263300A3E0FD8B828C838DF0EE1231F290201C74012BF0E43CA3F0EDA3F08054BE7F02A9
:202653008003EF604C90201CE0FCA3E0FDA3E0FF7410C0E07420C0E0E4C0E08C828D838F16
:20267300F012200615811581158160101CBCFF011D90201CECF0EDA3F0EFA3F090201CE0A2
:20269300FCA3E0FDA3E0FF8C828D838FF0E41231F2200032BE0A02802DEE602A90201CE086
:2026B300FDA3E0FEA3E0FF7419C0E07420C0E0E4C0E08D828E838FF012200615811581150A
:2026D3008150030225DE90201CE0FDA3E0FEA3E0FF8D828E838FF0E40231F21225A5AE82AE
:2026F3008E057F008D828F83C006122586D00690201AE02401F0A3E03400F08E8222AFF004
:20271300AE83E58290201FF0EEA3F0EFA3F01225BA9020227410F07420A3F0E4A3F09020C7
:2027330010E0FFBF301D90201175F000123E4CFFBF781090202274022410F0E43420A3F04C
:20275300E4A3F0902025E4F0A3F0902022E0FDA3E0FEA3E0FF8D828E838FF0123E4CFC903A
:202773002027F0902027E0FC7003022838902025E0FAA3E0C454F0CAC4CA6ACA54F0CA6A49
:20279300FB902025EAF0EBA3F0BC30004023EC24C6401E7B00EC24D0FCEB34FFFB90202536
:2027B300E0F9A3E0FA902025EC29F0EB3AA3F0805E902027E0FCBC61004023EC2499401E06
:2027D3007B0074A92CFC74FF3BFB902025E0F9A3E0FA902025EC29F0EB3AA3F0803190205F
:2027F30027E0FCBC41004023EC24B9401E7B0074C92CFC74FF3BFB902025E0F9A3E0FA90F8
:202813002025EC29F0EB3AA3F0800490FFFF220DBD00010E8D828E838FF0123E4CFC9020AF
:2028330027F002277690201FE0FDA3E0FEA3E0FF902025E0FBA3E0FC8D828E838FF0EB1255
:1F28530031F2A3EC1231F29000002290201AE0FEA3E08E82F5832290201AE4F0A3F022A5
:20287200AFF0AE83E58290202BF0EEA3F0EFA3F090202BE0F51BA3E0F51CA3E0F51D851BAD
:2028920082851C83851DF0123E4CFAA3123E4CFBA3123E4CFCEA4B7024902028E0F8A3E0E7
:2028B200F9A3E0FF851B82851C83851DF0E81231F2A3E91231F2A3EF1231F2806190202E4F
:2028D200EAF0EBA3F0ECA3F090202EE0FDA3E0FEA3E0FF74082DFDE43EFE8D828E838FF0EC
:2028F200123E4CFAA3123E4CFBA3123E4CFCEA4B600D90202EEAF0EBA3F0ECA3F080C9908B
:202912002028E0FAA3E0FBA3E0FC8D828E838FF0EA1231F2A3EB1231F2A3EC1231F2902091
:2029320028E0FDA3E0FEA3E0FF74082DFDE43EFE8D828E838FF0E41231F2A31231F2A31272
:2029520031F275820122AFF0AE83E582902033F0EEA3F0EFA3F0902033E0F508A3E0F509DA
:20297200A3E0F50AE50845097003F58222850882850983850AF0123E4CFAA3123E4CFBA36A
:20299200123E4CFCEA4B7003F58222902031E0F8A3E0F9902031E0F5F0A3E045F070429077
:2029B2002036EAF0EBA3F0ECA3F074082AFDE43BFE8C078D828E838FF0123E4CFDA3123E5A
:2029D2004CFEA3123E4CFF850882850983850AF0ED1231F2A3EE1231F2A3EF1231F2022AE3
:2029F200BB902039EAF0EBA3F0ECA3F018B8FF0119902031E8F0E9A3F0902031E0FEA3E0EA
:202A1200FFEE4F603C902039E0FBA3E0FCA3E0FD74082BFBE43CFC8B828C838DF0123E4C16
:202A3200FBA3123E4CFCA3123E4CFDEB4C6012902039EBF0ECA3F0EDA3F01EBEFF011F802B
:202A5200C0EE4F600475820022902039E0FDA3E0FEA3E0FF74082DFDE43EFE8D828E838FAC
:202A7200F0123E4CFAA3123E4CFBA3123E4CFC902036EAF0EBA3F0ECA3F074082AFAE43BCD
:202A9200FB8A828B838CF0123E4CFAA3123E4CFBA3123E4CFC8D828E838FF0EA1231F2A327
:202AB200EB1231F2A3EC1231F2902036E0FEA3E0FDA3E0FF902036E0F5F0A3E045F0700384
:202AD200F582228E828D838FF0123E4CFEA3123E4CFF4E600B7D008E828F838DF01230734A
:202AF200902036E0FDA3E0FEA3E0FF8D828E838FF012307375820122AFF0AE83E5829020A9
:202B12003CF0EEA3F0EFA3F090203CE0FDA3E0FEA3E0FF8D828E838FF0123E4CFAA3123E80
:202B32004CFBA3123E4CFC90203FEAF0EBA3F0ECA3F090203CE0FAA3E0FBA3E0FC8A828BE1
:202B5200838CF0123E4CF50BA3123E4CF50CA3123E4CF50DE50B450C700122C005C006C028
:202B7200077408250BF8E4350CF9AF0D888289838FF0123E4CF8A3123E4CF9A3123E4CFF1F
:202B92008A828B838CF0E81231F2A3E91231F2A3EF1231F290203FE0FDA3E0FEA3E0FF8D8C
:202BB200828E838FF0123E4CF50BA3123E4CF50CD007D006D005E50B450C601BAB0BAC0C69
:202BD2007A008B828C838AF0C007C006C005123073D005D006D00790203FE0FAA3E0FBA360
:202BF200E0FC8A828B838CF0C007C006C005123073D005D006D0078D828E838FF0123E4C8D
:202C1200FAA3123E4CFBA3123E4CFC90203FEAF0EBA3F0ECA3F0022B44AFF0AE83E5829035
:202C32002042F0EEA3F0EFA3F0902042E0FDA3E0FEA3E0FF8D828E838FF0123E4CFDA3126E
:202C52003E4CFEA3123E4CFF902047EDF0EEA3F0EFA3F0902045E0FEA3E0FF902047E0FB9E
:202C7200A3E0FCA3E0FD902047E0F5F0A3E045F0602D0EBE00010F74082BFBE43CFC8B829B
:202C92008C838DF0123E4CFBA3123E4CFCA3123E4CFD902047EBF0ECA3F0EDA3F080BC8EED
:202CB200828F8322AFF0AE83E58290204CF0EEA3F0EFA3F090204CE0FDA3E0FEA3E0FF8DBD
:202CD200828E838FF0123E4CFDA3123E4CFEA3123E4CFF90204FEDF0EEA3F0EFA3F090202D
:202CF2004AE0FEA3E0FF90204FE0FBA3E0FCA3E0FD90204FE0F5F0A3E045F06031EE4F6095
:202D12002D74082BFBE43CFC8B828C838DF0123E4CFBA3123E4CFCA3123E4CFD90204FEB25
:202D3200F0ECA3F0EDA3F01EBEFF011F80B890204FE0FDA3E0FEA3E0FF8D828E838FF022BF
:1D2D5200AF83E582902053F0EFA3F0902053E0FEA3E0FF902052E08E828F83F022DD
:202D6F00D297D29622E582902055F07F00902055E030E706D297A2978004C297A297D29654
:202D8F00C296902055E025E0F00FBF080040DED297D296A297E433FFC296C297EF60067E5A
:202DAF00007F0080047E017F008E8222E582902056F0902057E4F0D2977F00D29690205742
:202DCF00E025E0F0309708902057E043E001F0C2960FBF080040E4D296902056E06006D26D
:202DEF0097A2978004C297A297C296C297902057E0F58222D296D29722E582902059F01248
:202E0F002D6FC297C296902059E025E0F0902058E06007902059E02401F0902059E0F582CB
:202E2F00022D74E58290205EF090205DE0FF90205EE0FE902058E4F08E82C007122E08AEFA
:202E4F0082D00790205FEEF0EE60728F0690205AE0FBA3E0FCA3E0FDEE603A90205FE0600D
:202E6F00348B828C838DF0123E4CF582C007C006C005C004C003122D74AA82D003D004D034
:202E8F0005D006D00790205FEAF0EA60CB1E0BBB00C60C80C390205FE06019E4FDFCEFC383
:202EAF009EFFED9CFD4F60067E017F00800A7E007F0080047E007F0090205FEEF0122E03F5
:202ECF0090205FE0F58222E582902064F0E0FF9020587401F08F82122E08E582FF604A90AB
:202EEF002060E0FCA3E0FDA3E0FE902063E0FB8B021BEA6034EBB401009201E433F582C0D1
:202F0F0007C006C005C004C003122DBBAA82D003D004D005D006D0078C828D838EF0EA12A2
:202F2F0031F2A3AC82AD8380C6C007122E03D0078F8222022D6FAF83E582902066F0EFA335
:202F4F00F0902066E0FEA3E0FFC374FF9E74079F5004900001228F04430450902058E4F001
:202F6F008C82C006122E08AF82D0067D00BF0105BD00028007122E03900001228E82122D52
:202F8F0074AF827E00BF0105BE00028007122E0390000122902065E0F582122D74AF827E2F
:202FAF0000BF0105BE00028007122E0390000122122E0390000022AF83E58290206BF0EF78
:202FCF00A3F090206BE0FEA3E0FFC374FF9E74079F5004900001228F047D004304508C03A9
:202FEF00902058E4F08B82C006C005C004122E08AF82D004D005D0067B00BF0105BB000295
:20300F008007122E03900001228E82C005C004122D74AF82D004D0057E00BF0105BE0002FB
:20302F008007122E03900001229020587401F08C82122E08902068E0FDA3E0FEA3E0FF75D4
:20304F008201C007C006C005122DBBAC82D005D006D0078D828E838FF0EC1231F2122E03DF
:04306F0090000022AB
:20307300AFF0AE83E58290206DF0EEA3F0EFA3F090206DE0FDA3E0FEA3E090206DE0F5F016
:20309300A3E045F0700122902072E4F0A3F09020B3E0FBA3E0FC902070EBF0ECA3F0902062
:2030B3007474B3F07420A3F0902070E0FBA3E0FC4B60418B018C02C003C0048D008E04C362
:2030D300E998EA9CD004D003502A902072EBF0ECA3F074022BFBE43CFC902074EBF0ECA3F3
:2030F300F08B828C83E0FBA3E0FC902070EBF0ECA3F080B4902070E0FEA3E0FF90206DE02C
:20311300FBA3E0FCA3E0EB24FEFBEC34FFFC74022BFAE43CFD8A828D83EEF0EFA3F0902098
:2031330074E0F8A3E0F988828983EBF0ECA3F08B828C83E0F8A3E0F9EEB50033EFB5012F2A
:2031530088828983A3A3E0FEA3E0FF8A828D83EEF0EFA3F08B828C83E0FEA3E0FF8E828F09
:2031730083E0FEA3E0FF8B828C83EEF0EFA3F0902072E0FEA3E0FF4E603C8E828F83E0F877
:20319300A3E0F9E8B5032FE9B5042B8B828C83E0FBA3E0FC8E828F83EBF0ECA3F074022E6E
:1731B300FEE43FFF8A828D83E0FAA3E0FD8E828F83EAF0EDA3F022D1
:06206300E478FFF6D8FD51
:2031CA00AC82AD83902077E0FEA3E0FFBE000360121F0F902076E08C828D831231F2A3DEC5
:0831EA00FADFF88C828D8322CC
:202041007900E94400601B7A009041F478BB75A020E493F2A308B8000205A0D9F4DAF27536
:02206100A0FFDE
:1B31F20020F71130F6138883A88220F509F6A8837583002280FEF280F5F022DC
:202069007800E84400600A790175A000E4F309D8FC78BAE84420600C7921900001E4F0A37A
:04208900D8FCD9FAAC
:20320D00C01A85811A7E008E83122586D01A22AFF0AE83E58290207BF0EEA3F0EFA3F0906A
:20322D00207BE0FDA3E0FEA3E0FF90207AE0FC90208FE4F0A3F0A3F0902092EDF0EEA3F027
:20324D00EFA3F0902095ECF090320D023361C01AE581F51A24FBFF90208FE4F0A3F0A3F0B3
:20326D00E51A24FBF8902092E6F008E6A3F008E6A3F0902095EFF090320D123361D01A226C
:20328D00E58290208BF0E0FF902081E0C0E0A3E0C0E0A3E0C0E01232A8800D90207FE0C071
:2032AD00E0A3E0C0E08F8222158115811581902089E02401F0A3E03400F022E58290208C6F
:2032CD00F0E02430FF24C6500D74072FFF90207EE060034307208F8202328DE58290208D7D
:2032ED00F0E0FFC4540FF582C0071232C8D00753070F8F820232C8E58290208EF09020846B
:20330D00E0FCA3E0FDA3E0FEA3E0FF902088E0FB90208EE0FA79208B00E828F51BEF23546C
:20332D0001451BFBEC2CFCED33FDEE33FEEF33FFC3EB9A4007EBC39AFB43040119E970D750
:20334D00902084ECF0EDA3F0EEA3F0EFA3F0902088EBF022AF83E582902096F0EFA3F090B7
:20336D002096E0FEA3E0FF90207FEEF0EFA3F090208FE0FDA3E0FEA3E0FF902081EDF0EE80
:20338D00A3F0EFA3F0902089E4F0A3F0902092E0FDA3E0FEA3E0FF8D828E838FF0123E4C0E
:2033AD00FC90209274012DF0E43EA3F0EFA3F0EC7003023C63BC25028003023C5B902098B2
:2033CD00E4F0902099F090209AF090209BF090209CF090209DF090209EF090209FF09020B8
:2033ED00A1F09020A2F0A3F09020A414F0A3F0902092E0FDA3E0FEA3E0FF8D828E838FF0AE
:20340D00123E4CFBA3AD82AE83902092EDF0EEA3F0EFA3F09020A8EBF0BB25088B82123277
:20342D008D023399BB300050030234FAEB24C650030234FA9020A4E0F50EA3E0F50F74FF2D
:20344D00B50E63B50F60C005C006C0079020A2E0FAA3E0FF9020B1EAF0EFA3F090000AC0FE
:20346D0005C003123C87AE82AF83D003D0058B027D00EA2EFEED3FFFEE24D0FEEF34FFFF4C
:20348D009020A2EEF0EFA3F0D007D006D0059020A2E0F5F0A3E045F0600302340790209933
:2034AD007401F0023407C005C006C0079020B1E50EF0E50FA3F090000AC006C005C0031246
:2034CD003C87AA82AF83D003D005D0067E00EB2AFAEE3FFFEA24D0FAEF34FFFF9020A4EA50
:2034ED00F0EFA3F0D007D006D0050234079020A8E0FBBB2E2FC005C006C0079020A4E0FAC3
:20350D00A3E0FFBAFF05BFFF028009D007D006D005023407D007D006D0059020A4E4F0A309
:20352D00F0023407BB61004014EB2485400F9020A874DF5BF090207E7401F0800590207EC2
:20354D00E4F09020A8E0FBBB20028075BB2B028067BB2D028059BB4202806FBB4302807C09
:20356D00BB44030237F1BB4603023817BB4803023407BB49030237F1BB4A03023407BB4CFD
:20358D00028050BB4F030237FFBB500302375FBB53028077BB5403023407BB5503023807B7
:2035AD00BB580302380FBB5A0302340702381F9020987401F002340790209A7401F0023422
:2035CD000790209B7401F002340790209D7401F002340790209E7401F002340790209DE0DE
:2035ED00600E902095E014F9F09020A8E7F0800F902095E024FEFFF08F019020A8E7F090EB
:20360D0020A8E0F58212328D02382E902095E024FDFFF08F01870509870609870719199005
:20362D002084EDF0EEA3F0EFA3F08D828E838FF0123C6F85820E85830F9020A4E0FAA3E0C0
:20364D00FDBAFF0DBDFF0A9020A4E50EF0E50FA3F0902098E0704B9020A2E0FAA3E0FDC3C4
:20366D00E50E9AE50F9D503A9020A2EAC3950EF0ED950FA3F09020A2E0FAA3E0FD8A068D16
:20368D00071ABAFF011DEE4F6010758220C005C00212328DD002D00580E39020A2EAF0EDE6
:2036AD00A3F09020A4E0F511A3E0F512902084E0FAA3E0FDA3E0FF8A828D838FF0123E4C5F
:2036CD00F510603CC3E4951174808512F063F08095F0502C151174FFB51102151285108201
:2036ED0012328D902084E0FAA3E0FDA3E0FF0ABA00010D902084EAF0EDA3F0EFA3F080ACCE
:20370D00902098E0700302382E9020A2E0FEA3E0FFC3E50E9EE50F9F400302382E9020A203
:20372D00EEC3950EF0EF950FA3F09020A2E0FEA3E0FF8E028F051EBEFF011FEA4D70030295
:20374D003826758220C007C00612328DD006D00780E0902095E024FDFDF08D018713098791
:20376D00140987151919902084E513F0E514A3F0E515A3F0902086E0FDBD800040089020D4
:20378D00A87443F08020BD600040089020A87450F08013BD400040089020A87449F0800659
:2037AD009020A87458F09020A8E0FDF582C00512328D75823A12328D75823012328D7582B5
:2037CD007812328DD005BD4902800EBD50028009902085E0F5821232E8902084E0F582123B
:2037ED0032E8803D90209C7401F09020A1740AF0802F9020A17408F080279020A1740AF0A3
:20380D00801F9020A17410F0801790209F7401F0800F8B8212328D80089020A2EEF0EFA335
:20382D00F090209FE06071902095E024FCFFF08F01870309870509870609870719191990A0
:20384D002084EBF0EDA3F0EEA3F0EFA3F090208474E9F07441A3F07480A3F0902084E0F500
:20386D0013A3E0F514A3E0F51574012513FAE43514FBAF15902084EAF0EBA3F0EFA3F085E9
:20388D0013828514838515F0123E4CFF70030233998F8212328D80C39020A1E07003023306
:2038AD009990209DE06047902095E014F9F087077E007D007B00902084EFF0EEA3F0EDA344
:2038CD00F0EBA3F090209CE06003023971902084E0FBA3E0A3E0A3E07D007E007F00902070
:2038ED0084EBF0EDA3F0EEA3F0EFA3F0807690209EE06028902095E024FCFFF08F018703DF
:20390D00098705098706098707191919902084EBF0EDA3F0EEA3F0EFA3F08048902095E00E
:20392D0024FEFFF08F01870609870719EF3395E0FDFB902084EEF0EFA3F0EDA3F0EBA3F07B
:20394D0090209CE0701E902084E0FBA3E0FDA3E0A3E07E007F00902084EBF0EDA3F0EEA3EE
:20396D00F0EFA3F090209CE06041902084E0FBA3E0FDA3E0FEA3E0FF30E72B902084E0FB18
:20398D00A3E0FDA3E0FEA3E0FFC3E49BFBE49DFDE49EFEE49FFF902084EBF0EDA3F0EEA3BA
:2039AD00F0EFA3F0800590209CE4F09020A07401F09020A1E0F5117516AE751720E4F50E2B
:2039CD00F50F902088E4F08511821233049020A0E07033902088E0C454F0F513902088E056
:2039ED00C4540F4513F513851682851783E0FFE5134207851682851783EFF0151674FFB569
:203A0D0016021517800C902088E0FF851682851783F0050EE4B50E02050F9020A0E0B401D1
:203A2D0000E433F0902084E0FAA3E0FBA3E0FEA3E0FFEA4B4E4F708A9020AFE516F0E517D1
:203A4D00A3F09020A6E50EF0E50FA3F09020A2E0F5F0A3E045F070099020A27401F0E4A380
:203A6D00F0902099E0FFE07047902098E07041850E16850F179020A2E0FAA3E0FBC007AF3D
:203A8D00160F8F067F00C3EE9AEF9BD0075019758220C007C003C00212328DD002D003D022
:203AAD00071ABAFF011B80D59020A2EAF0EBA3F090209CE0602075822DC00712328DD007C5
:203ACD009020A2E024FFFDA3E034FFFE9020A2EDF0EEA3F080569020A6E0F5F0A3E045F07A
:203AED00604A90209AE0602075822BC00712328DD0079020A2E024FFFDA3E034FFFE90201E
:203B0D00A2EDF0EEA3F0802490209BE0601E758220C00712328DD0079020A2E024FFFDA3D0
:203B2D00E034FFFE9020A2EDF0EEA3F0902098E070489020A6E0F516A3E0F5179020A2E0D5
:203B4D00FAA3E0FBC0078A068B071ABAFF011BC3E5169EE5179FD0075053EF60067D307E17
:203B6D000080047D207E008D82C007C003C00212328DD002D003D00780CA9020A2E0FEA3D4
:203B8D00E0FF9020A6E0F516A3E0F517C3E5169EE5179F500F9020A2EEC39516F0EF9517DA
:203BAD00A3F080119020A2E4F0A3F080089020A2EAF0EBA3F09020AFE0FEA3E0FF9020A6D4
:203BCD00E0F516A3E0F517AA16AD17151674FFB516021517EA4D60459020A0E0B40100E49E
:203BED0033F09020A0E070140EBE00010F8E828F83E0C4540FFD902088F0800E8E828F8307
:203C0D00E0FD53050F902088EDF0902088E0F582C007C0061232C8D006D00780AA902098F7
:203C2D00E070030233999020A2E0FEA3E0FF8E038F051EBEFF011FEB4D7003023399758214
:203C4D0020C007C00612328DD006D00780E08C8212328D023399902089E0FEA3E08E82F580
:023C6D008322B0
:0B41E9003C4E4F20464C4F41543E001E
:183C6F00AA82AB83123E4C6003A380F8C3E5829AF582E5839BF58322F1
:203C8700AA83AB828BF09020B1E0A4F8A9F08AF0E0A429F98BF0A3E0A429F5838882222221
:203CA7009020B37410F07400A3F09041E7E493FE740193FF1EBEFF011FEE2410FEEF3400AD
:203CC700FF900010EEF0EFA3F09020B3E0FEA3E0FF8E828F83A3A3E4F0A3F022AF83E58291
:203CE7009020B5F0EFA3F09020B3E0F5F0A3E045F07003123CA79020B5E0FEA3E0FF4E602B
:203D07000E74022EFCE43FFDC3EC9EED9F5004900000229020B574022EF0E43FA3F0902090
:203D2700B5E0FEA3E0FFC3EE9404EF940050099020B57404F0E4A3F09020B3E0FEA3E0FF3B
:203D47009020B7EEF0EFA3F09020B974B3F07420A3F09020B7E0FEA3E0FF4E7003023E48DE
:203D67008E828F83E0FCA3E0FD8C028D038E008F01EAC398FAEB99FB8A008B019020B5E069
:203D8700F518A3E0F519C3E89518E995195003023E2574042518F8E43519F9C3EA98EB9936
:203DA700404C8E028F03E5182AFAE5193BFB8A828B83ECF0EDA3F074022AFCE43BFD8E82BB
:203DC7008F83A3A3E0F8A3E0F98C828D83E8F0E9A3F09020B9E0FCA3E0FD8C828D83EAF001
:203DE700EBA3F08E828F83EAF0EBA3F0801C9020B9E0FCA3E0FD8E828F83A3A3E0FAA3E09E
:203E0700FB8C828D83EAF0EBA3F09020B7E0FCA3E0FD74022CFCE43DFD8C828D83227402F5
:203E27002EFEE43FFF9020B9EEF0EFA3F08E828F83E0FEA3E0FF9020B7EEF0EFA3F0023DDC
:053E470059900000226B
:20200600E58124FCC3C8C0E0C082E608467006E5824583601218E58296F58208E5839642A8
:1B2026008208E5F0964582D082C8D0E0C822758120122090E582600302200368
:1C3E4C0020F71430F6148883A88220F507E6A88375830022E280F7E49322E02285
:00000001FF
