:0320000002203487
:03208D000220032B
:032003000222B600
:20209000900000227451C0E0743CC0E07480C0E0123044158115811581900001E4F0A3F0F5
:2020B00090000175F0001224FAE58330E7167488C0E0743CC0E07480C0E0123044158115A4
:2020D00081158122900001E0C0E0A3E0C0E074BBC0E0743CC0E07480C0E0123044E58124C0
:2020F000FBF581900001E0FEA3E0FF20E70FC374FF9E74878FF063F08095F0501674C0C058
:20211000E0743CC0E07480C0E01230441581158115812274FDC0E0743CC0E07480C0E0127A
:202130003044158115811581900003E4F0A3F090000375F0001224FAE58330E7167488C0E6
:20215000E0743CC0E07480C0E012304415811581158122900003E0FEA3E0FF20E70FC37401
:20217000FF9E74808FF063F08095F05016741FC0E0743DC0E07480C0E012304415811581B7
:20219000158122900001E0FCA3E0FD90205FEEF08C828D83122D2EE5828583F045F0601608
:2021B000745DC0E0743DC0E07480C0E012304415811581158122747DC0E0743DC0E0748079
:2021D000C0E012304415811581158122749DC0E0743DC0E07480C0E0123044158115811588
:2021F00081900005E4F0A3F090000575F0001224FAE58330E7167488C0E0743CC0E07480B3
:20221000C0E012304415811581158122900005E0FEA3E0FF20E70FC374FF9E74878FF063E8
:20223000F08095F0501674C0C0E0743CC0E07480C0E012304415811581158122902062748B
:2022500007F07400A3F0E4A3F08E828F83122DAFE5828583F045F0601674D5C0E0743DC085
:20227000E07480C0E012304415811581158122900007E0FF7E00C007C00674F6C0E0743D34
:20229000C0E07480C0E0123044E58124FBF58122741EC0E0743EC0E07480C0E012304415A4
:2022B000811581158122122D2B7454C0E0743EC0E07480C0E012304415811581158112230A
:2022D0008EAE828E057F008D828F83C00612236FD006BE3F02800ABE7202804BBE774D8035
:2022F00041747AC0E0743EC0E07480C0E0123044158115811581748DC0E0743EC0E07480EA
:20231000C0E0123044158115811581749FC0E0743EC0E07480C0E0123044158115811581E4
:202330008022122094801D1221DC801874A2C0E0743EC0E07480C0E012304415811581157E
:1F235000810222B974DCC0E0743EC0E07480C0E01230441581158115811222A00222B941
:203C51000D0A456E74657220616E20454550524F4D206164647265737320746F20777269EC
:203C7100746520746F20696E20686578205B302C3746465D3A20000D0A204661696C65642E
:203C910020746F20656E74657220612068657820696E74656765722C20706C6561736520F8
:203CB10074727920616761696E000D0A2578000D0A204661696C656420746F20656E746575
:203CD1007220616E20616464726573732077697468696E2072616E67652C20706C6561732B
:203CF100652074727920616761696E000D0A456E7465722061206279746520746F20777239
:203D1100697465205B302C2046465D3A20000D0A204661696C656420746F20656E74657259
:203D310020612076616C75652074686174277320627974652073697A652C20706C65617339
:203D5100652074727920616761696E000D0A4661696C656420746F20777269746520746FA1
:203D71002074686520656570726F6D000D0A20537563636573733A2077726F746520746F8B
:203D91002074686520656570726F6D000D0A456E74657220616E20454550524F4D20616438
:203DB100647265737320746F20726561642066726F6D20696E20686578205B302C37464648
:203DD1005D3A20000D0A4661696C656420746F20726561642066726F6D20746865206565E1
:203DF10070726F6D000D0A20537563636573733A2072656164203078256868782066726F52
:203E11006D2074686520656570726F6D000D0A2D2D2D2D2D2D2D2D2D2D2D2D2D2D2D2D2D07
:203E31002D2D2D2D2D2D2D2D2D2D2D2D2D2D2D2D2D2D2D2D2D2D2D2D2D2D2D2D2D2D2D2DD1
:203E51002D2D000D0A456E746572206120636F6D6D616E64206368617220283F20666F72B6
:203E71002068656C70293A20000D0A77202D20777269746520612062797465000D0A7220C1
:203E91002D207265616420612062797465000D0A000D0A556E7265636F676E697A65642098
:203EB100636F6D6D616E642C20706C6561736520656E74657220612076616C696420636F6B
:193ED1006D6D616E642063686172000D0A454E4420434F4D4D414E440000
:20236F00AF83E582900008F0EFA3F010990280FB900008E0FEA3E0FF8E998E828F83221012
:0D238F00980280FBAE997F008E828F832222
:023EEA000020B6
:20239C0090200A75F00022902070E4F0902071740AF0E4A3F090200A75F000122FB3902023
:2023BC0016740AF07420A3F0E4A3F012238EAE828E057F008D828F83C00612236FD006E495
:2023DC00BE080104FF6014900020C007C00612236F90000812236FD006D007BE0D03D380B8
:2023FC0001C392004037BE0A028032EE602FBE7F02802ABE08028025902016E0FBA3E0FC85
:20241C00A3E0FD8B828C838DF0EE122FDB90201674012BF0E43CA3F0EDA3F08054BE7F02E1
:20243C008003EF604C902016E0FCA3E0FDA3E0FF740AC0E07420C0E0E4C0E08C828D838F3B
:20245C00F012200615811581158160101CBCFF011D902016ECF0EDA3F0EFA3F0902016E0C7
:20247C00FCA3E0FDA3E0FF8C828D838FF0E4122FDB200032BE0A02802DEE602A902016E0BE
:20249C00FDA3E0FEA3E0FF7413C0E07420C0E0E4C0E08D828E838FF0122006158115811529
:2024BC008150030223C7902016E0FDA3E0FEA3E0FF8D828E838FF0E4022FDB12238EAE8218
:2024DC008E057F008D828F83C00612236FD006902014E02401F0A3E03400F08E8222AFF03C
:2024FC00AE83E582902019F0EEA3F0EFA3F01223A390201C740AF07420A3F0E4A3F090200C
:20251C000AE0FFBF301D90200B75F000123C35FFBF781090201C7402240AF0E43420A3F096
:20253C00E4A3F090201FE4F0A3F090201CE0FDA3E0FEA3E0FF8D828E838FF0123C35FC9078
:20255C002021F0902021E0FC700302262190201FE0FAA3E0C454F0CAC4CA6ACA54F0CA6A8D
:20257C00FB90201FEAF0EBA3F0BC30004023EC24C6401E7B00EC24D0FCEB34FFFB90201F5B
:20259C00E0F9A3E0FA90201FEC29F0EB3AA3F0805E902021E0FCBC61004023EC2499401E2B
:2025BC007B0074A92CFC74FF3BFB90201FE0F9A3E0FA90201FEC29F0EB3AA3F08031902084
:2025DC0021E0FCBC41004023EC24B9401E7B0074C92CFC74FF3BFB90201FE0F9A3E0FA901D
:2025FC00201FEC29F0EB3AA3F0800490FFFF220DBD00010E8D828E838FF0123C35FC9020E8
:20261C0021F002255F902019E0FDA3E0FEA3E0FF90201FE0FBA3E0FC8D828E838FF0EB1299
:1F263C002FDBA3EC122FDB90000022902014E0FEA3E08E82F58322902014E4F0A3F022FC
:20265B00AFF0AE83E582902025F0EEA3F0EFA3F0902025E0F51BA3E0F51CA3E0F51D851BD2
:20267B0082851C83851DF0123C35FAA3123C35FBA3123C35FCEA4B7024902022E0F8A3E051
:20269B00F9A3E0FF851B82851C83851DF0E8122FDBA3E9122FDBA3EF122FDB8061902028B9
:2026BB00EAF0EBA3F0ECA3F0902028E0FDA3E0FEA3E0FF74082DFDE43EFE8D828E838FF00B
:2026DB00123C35FAA3123C35FBA3123C35FCEA4B600D902028EAF0EBA3F0ECA3F080C990F5
:2026FB002022E0FAA3E0FBA3E0FC8D828E838FF0EA122FDBA3EB122FDBA3EC122FDB9020FC
:20271B0022E0FDA3E0FEA3E0FF74082DFDE43EFE8D828E838FF0E4122FDBA3122FDBA312C3
:20273B002FDB75820122AFF0AE83E58290202DF0EEA3F0EFA3F090202DE0F508A3E0F50918
:20275B00A3E0F50AE50845097003F58222850882850983850AF0123C35FAA3123C35FBA3B5
:20277B00123C35FCEA4B7003F5822290202BE0F8A3E0F990202BE0F5F0A3E045F0704290B5
:20279B002030EAF0EBA3F0ECA3F074082AFDE43BFE8C078D828E838FF0123C35FDA3123C94
:2027BB0035FEA3123C35FF850882850983850AF0ED122FDBA3EE122FDBA3EF122FDB022879
:2027DB00A4902033EAF0EBA3F0ECA3F018B8FF011990202BE8F0E9A3F090202BE0FEA3E02C
:2027FB00FFEE4F603C902033E0FBA3E0FCA3E0FD74082BFBE43CFC8B828C838DF0123C354F
:20281B00FBA3123C35FCA3123C35FDEB4C6012902033EBF0ECA3F0EDA3F01EBEFF011F807C
:20283B00C0EE4F600475820022902033E0FDA3E0FEA3E0FF74082DFDE43EFE8D828E838FCB
:20285B00F0123C35FAA3123C35FBA3123C35FC902030EAF0EBA3F0ECA3F074082AFAE43B37
:20287B00FB8A828B838CF0123C35FAA3123C35FBA3123C35FC8D828E838FF0EA122FDBA3A4
:20289B00EB122FDBA3EC122FDB902030E0FEA3E0FDA3E0FF902030E0F5F0A3E045F07003DB
:2028BB00F582228E828D838FF0123C35FEA3123C35FF4E600B7D008E828F838DF0122E5CAE
:2028DB00902030E0FDA3E0FEA3E0FF8D828E838FF0122E5C75820122AFF0AE83E5829020E1
:2028FB0036F0EEA3F0EFA3F0902036E0FDA3E0FEA3E0FF8D828E838FF0123C35FAA3123CC1
:20291B0035FBA3123C35FC902039EAF0EBA3F0ECA3F0902036E0FAA3E0FBA3E0FC8A828B36
:20293B00838CF0123C35F50BA3123C35F50CA3123C35F50DE50B450C700122C005C006C08C
:20295B00077408250BF8E4350CF9AF0D888289838FF0123C35F8A3123C35F9A3123C35FF83
:20297B008A828B838CF0E8122FDBA3E9122FDBA3EF122FDB902039E0FDA3E0FEA3E0FF8DF6
:20299B00828E838FF0123C35F50BA3123C35F50CD007D006D005E50B450C601BAB0BAC0CB4
:2029BB007A008B828C838AF0C007C006C005122E5CD005D006D007902039E0FAA3E0FBA398
:2029DB00E0FC8A828B838CF0C007C006C005122E5CD005D006D0078D828E838FF0123C35D8
:2029FB00FAA3123C35FBA3123C35FC902039EAF0EBA3F0ECA3F002292DAFF0AE83E58290A0
:202A1B00203CF0EEA3F0EFA3F090203CE0FDA3E0FEA3E0FF8D828E838FF0123C35FDA312AC
:202A3B003C35FEA3123C35FF902041EDF0EEA3F0EFA3F090203FE0FEA3E0FF902041E0FBFB
:202A5B00A3E0FCA3E0FD902041E0F5F0A3E045F0602D0EBE00010F74082BFBE43CFC8B82BA
:202A7B008C838DF0123C35FBA3123C35FCA3123C35FD902041EBF0ECA3F0EDA3F080BC8E57
:202A9B00828F8322AFF0AE83E582902046F0EEA3F0EFA3F0902046E0FDA3E0FEA3E0FF8DE2
:202ABB00828E838FF0123C35FDA3123C35FEA3123C35FF902049EDF0EEA3F0EFA3F0902097
:202ADB0044E0FEA3E0FF902049E0FBA3E0FCA3E0FD902049E0F5F0A3E045F06031EE4F60C0
:202AFB002D74082BFBE43CFC8B828C838DF0123C35FBA3123C35FCA3123C35FD902049EB90
:202B1B00F0ECA3F0EDA3F01EBEFF011F80B8902049E0FDA3E0FEA3E0FF8D828E838FF022DE
:1D2B3B00AF83E58290204DF0EFA3F090204DE0FEA3E0FF90204CE08E828F83F02208
:202B5800D297D29622E58290204FF07F0090204FE030E706D297A2978004C297A297D29679
:202B7800C29690204FE025E0F00FBF080040DED297D296A297E433FFC296C297EF60067E79
:202B9800007F0080047E017F008E8222E582902050F0902051E4F0D2977F00D2969020516D
:202BB800E025E0F0309708902051E043E001F0C2960FBF080040E4D296902050E06006D292
:202BD80097A2978004C297A297C296C297902051E0F58222D296D29722E582902053F0126D
:202BF8002B58C297C296902053E025E0F0902052E06007902053E02401F0902053E0F58216
:202C1800022B5DE582902058F0902057E0FF902058E0FE902052E4F08E82C007122BF1AE5E
:202C380082D007902059EEF0EE60728F06902054E0FBA3E0FCA3E0FDEE603A902059E06038
:202C5800348B828C838DF0123C35F582C007C006C005C004C003122B5DAA82D003D004D07F
:202C780005D006D007902059EAF0EA60CB1E0BBB00C60C80C3902059E06019E4FDFCEFC3A8
:202C98009EFFED9CFD4F60067E017F00800A7E007F0080047E007F00902059EEF0122BEC2E
:202CB800902059E0F58222E58290205EF0E0FF9020527401F08F82122BF1E582FF604A90F0
:202CD800205AE0FCA3E0FDA3E0FE90205DE0FB8B021BEA6034EBB401009201E433F582C0F6
:202CF80007C006C005C004C003122BA4AA82D003D004D005D006D0078C828D838EF0EA12D5
:202D18002FDBA3AC82AD8380C6C007122BECD0078F8222022B58AF83E582902060F0EFA3A0
:202D3800F0902060E0FEA3E0FFC374FF9E74079F5004900001228F04430450902052E4F026
:202D58008C82C006122BF1AF82D0067D00BF0105BD00028007122BEC900001228E82122BA1
:202D78005DAF827E00BF0105BE00028007122BEC9000012290205FE0F582122B5DAF827E98
:202D980000BF0105BE00028007122BEC90000122122BEC90000022AF83E582902065F0EFCB
:202DB800A3F0902065E0FEA3E0FFC374FF9E74079F5004900001228F047D004304508C03C8
:202DD800902052E4F08B82C006C005C004122BF1AF82D004D005D0067B00BF0105BB0002CE
:202DF8008007122BEC900001228E82C005C004122B5DAF82D004D0057E00BF0105BE000248
:202E18008007122BEC900001229020527401F08C82122BF1902062E0FDA3E0FEA3E0FF752D
:202E38008201C007C006C005122BA4AC82D005D006D0078D828E838FF0EC122FDB122BEC44
:042E580090000022C4
:202E5C00AFF0AE83E582902067F0EEA3F0EFA3F0902067E0FDA3E0FEA3E0902067E0F5F041
:202E7C00A3E045F070012290206CE4F0A3F09020ADE0FBA3E0FC90206AEBF0ECA3F090208D
:202E9C006E74ADF07420A3F090206AE0FBA3E0FC4B60418B018C02C003C0048D008E04C38D
:202EBC00E998EA9CD004D003502A90206CEBF0ECA3F074022BFBE43CFC90206EEBF0ECA318
:202EDC00F08B828C83E0FBA3E0FC90206AEBF0ECA3F080B490206AE0FEA3E0FF902067E057
:202EFC00FBA3E0FCA3E0EB24FEFBEC34FFFC74022BFAE43CFD8A828D83EEF0EFA3F09020B2
:202F1C006EE0F8A3E0F988828983EBF0ECA3F08B828C83E0F8A3E0F9EEB50033EFB5012F49
:202F3C0088828983A3A3E0FEA3E0FF8A828D83EEF0EFA3F08B828C83E0FEA3E0FF8E828F22
:202F5C0083E0FEA3E0FF8B828C83EEF0EFA3F090206CE0FEA3E0FF4E603C8E828F83E0F896
:202F7C00A3E0F9E8B5032FE9B5042B8B828C83E0FBA3E0FC8E828F83EBF0ECA3F074022E87
:172F9C00FEE43FFF8A828D83E0FAA3E0FD8E828F83EAF0EDA3F022EA
:06206300E478FFF6D8FD51
:202FB300AC82AD83902071E0FEA3E0FFBE000360121F0F902070E08C828D83122FDBA3DE03
:082FD300FADFF88C828D8322E5
:202041007900E94400601B7A00903EF778B575A020E493F2A308B8000205A0D9F4DAF2753C
:02206100A0FFDE
:1B2FDB0020F71130F6138883A88220F509F6A8837583002280FEF280F5F022F5
:202069007800E84400600A790175A000E4F309D8FC78B4E84420600C7921900001E4F0A380
:04208900D8FCD9FAAC
:202FF600C01A85811A7E008E8312236FD01A22AFF0AE83E582902075F0EEA3F0EFA3F090A3
:203016002075E0FDA3E0FEA3E0FF902074E0FC902089E4F0A3F0A3F090208CEDF0EEA3F058
:20303600EFA3F090208FECF0902FF602314AC01AE581F51A24FBFF902089E4F0A3F0A3F00B
:20305600E51A24FBF890208CE6F008E6A3F008E6A3F090208FEFF0902FF612314AD01A22C4
:20307600E582902085F0E0FF90207BE0C0E0A3E0C0E0A3E0C0E0123091800D902079E0C0B5
:20309600E0A3E0C0E08F8222158115811581902083E02401F0A3E03400F022E58290208694
:2030B600F0E02430FF24C6500D74072FFF902078E060034307208F82023076E582902087BB
:2030D600F0E0FFC4540FF582C0071230B1D00753070F8F820230B1E582902088F090207EC2
:2030F600E0FCA3E0FDA3E0FEA3E0FF902082E0FB902088E0FA79208B00E828F51BEF235492
:2031160001451BFBEC2CFCED33FDEE33FEEF33FFC3EB9A4007EBC39AFB43040119E970D769
:2031360090207EECF0EDA3F0EEA3F0EFA3F0902082EBF022AF83E582902090F0EFA3F090E2
:203156002090E0FEA3E0FF902079EEF0EFA3F0902089E0FDA3E0FEA3E0FF90207BEDF0EEB1
:20317600A3F0EFA3F0902083E4F0A3F090208CE0FDA3E0FEA3E0FF8D828E838FF0123C354C
:20319600FC90208C74012DF0E43EA3F0EFA3F0EC7003023A4CBC25028003023A4490209209
:2031B600E4F0902093F0902094F0902095F0902096F0902097F0902098F0902099F09020FB
:2031D6009BF090209CF0A3F090209E14F0A3F090208CE0FDA3E0FEA3E0FF8D828E838FF0DF
:2031F600123C35FBA3AD82AE8390208CEDF0EEA3F0EFA3F09020A2EBF0BB25088B821230B8
:2032160076023182BB300050030232E3EB24C650030232E390209EE0F50EA3E0F50F74FFAE
:20323600B50E63B50F60C005C006C00790209CE0FAA3E0FF9020ABEAF0EFA3F090000AC023
:2032560005C003123A70AE82AF83D003D0058B027D00EA2EFEED3FFFEE24D0FEEF34FFFF7E
:2032760090209CEEF0EFA3F0D007D006D00590209CE0F5F0A3E045F060030231F090209378
:203296007401F00231F0C005C006C0079020ABE50EF0E50FA3F090000AC006C005C003127F
:2032B6003A70AA82AF83D003D005D0067E00EB2AFAEE3FFFEA24D0FAEF34FFFF90209EEA88
:2032D600F0EFA3F0D007D006D0050231F09020A2E0FBBB2E2FC005C006C00790209EE0FA02
:2032F600A3E0FFBAFF05BFFF028009D007D006D0050231F0D007D006D00590209EE4F0A343
:20331600F00231F0BB61004014EB2485400F9020A274DF5BF09020787401F0800590207807
:20333600E4F09020A2E0FBBB20028075BB2B028067BB2D028059BB4202806FBB4302807C28
:20335600BB44030235DABB4603023600BB48030231F0BB49030235DABB4A030231F0BB4C95
:20337600028050BB4F030235E8BB5003023548BB53028077BB54030231F0BB55030235F036
:20339600BB58030235F8BB5A030231F00236089020927401F00231F09020947401F00231B1
:2033B600F09020957401F00231F09020977401F00231F09020987401F00231F0902097E074
:2033D600600E90208FE014F9F09020A2E7F0800F90208FE024FEFFF08F019020A2E7F0901C
:2033F60020A2E0F58212307602361790208FE024FDFFF08F0187050987060987071919905D
:20341600207EEDF0EEA3F0EFA3F08D828E838FF0123A5885820E85830F90209EE0FAA3E0FE
:20343600FDBAFF0DBDFF0A90209EE50EF0E50FA3F0902092E0704B90209CE0FAA3E0FDC3EF
:20345600E50E9AE50F9D503A90209CEAC3950EF0ED950FA3F090209CE0FAA3E0FD8A068D3B
:20347600071ABAFF011DEE4F6010758220C005C002123076D002D00580E390209CEAF0ED1E
:20349600A3F090209EE0F511A3E0F51290207EE0FAA3E0FDA3E0FF8A828D838FF0123C359D
:2034B600F510603CC3E4951174808512F063F08095F0502C151174FFB5110215128510821A
:2034D60012307690207EE0FAA3E0FDA3E0FF0ABA00010D90207EEAF0EDA3F0EFA3F080AC0C
:2034F600902092E0700302361790209CE0FEA3E0FFC3E50E9EE50F9F400302361790209C61
:20351600EEC3950EF0EF950FA3F090209CE0FEA3E0FF8E028F051EBEFF011FEA4D700302B4
:20353600360F758220C007C006123076D006D00780E090208FE024FDFDF08D0187130987E2
:2035560014098715191990207EE513F0E514A3F0E515A3F0902080E0FDBD800040089020F9
:20357600A27443F08020BD600040089020A27450F08013BD400040089020A27449F0800684
:203596009020A27458F09020A2E0FDF582C00512307675823A123076758230123076758225
:2035B60078123076D005BD4902800EBD5002800990207FE0F5821230D190207EE0F5821292
:2035D60030D1803D9020967401F090209B740AF0802F90209B7408F0802790209B740AF0ED
:2035F600801F90209B7410F080179020997401F0800F8B82123076800890209CEEF0EFA37A
:20361600F0902099E0607190208FE024FCFFF08F01870309870509870609870719191990C5
:20363600207EEBF0EDA3F0EEA3F0EFA3F090207E74ECF0743EA3F07480A3F090207EE0F52B
:2036560013A3E0F514A3E0F51574012513FAE43514FBAF1590207EEAF0EBA3F0EFA3F08508
:2036760013828514838515F0123C35FF70030231828F8212307680C390209BE07003023172
:2036960082902097E0604790208FE014F9F087077E007D007B0090207EEFF0EEA3F0EDA386
:2036B600F0EBA3F0902096E0600302375A90207EE0FBA3E0A3E0A3E07D007E007F009020AE
:2036D6007EEBF0EDA3F0EEA3F0EFA3F08076902098E0602890208FE024FCFFF08F0187030A
:2036F60009870509870609870719191990207EEBF0EDA3F0EEA3F0EFA3F0804890208FE034
:2037160024FEFFF08F01870609870719EF3395E0FDFB90207EEEF0EFA3F0EDA3F0EBA3F09A
:20373600902096E0701E90207EE0FBA3E0FDA3E0A3E07E007F0090207EEBF0EDA3F0EEA319
:20375600F0EFA3F0902096E0604190207EE0FBA3E0FDA3E0FEA3E0FF30E72B90207EE0FB43
:20377600A3E0FDA3E0FEA3E0FFC3E49BFBE49DFDE49EFEE49FFF90207EEBF0EDA3F0EEA3D9
:20379600F0EFA3F08005902096E4F090209A7401F090209BE0F5117516A8751720E4F50E5C
:2037B600F50F902082E4F08511821230ED90209AE07033902082E0C454F0F513902082E0A1
:2037D600C4540F4513F513851682851783E0FFE5134207851682851783EFF0151674FFB582
:2037F60016021517800C902082E0FF851682851783F0050EE4B50E02050F90209AE0B401F7
:2038160000E433F090207EE0FAA3E0FBA3E0FEA3E0FFEA4B4E4F708A9020A9E516F0E517F6
:20383600A3F09020A0E50EF0E50FA3F090209CE0F5F0A3E045F0700990209C7401F0E4A3AB
:20385600F0902093E0FFE07047902092E07041850E16850F1790209CE0FAA3E0FBC007AF68
:20387600160F8F067F00C3EE9AEF9BD0075019758220C007C003C002123076D002D003D054
:20389600071ABAFF011B80D590209CEAF0EBA3F0902096E0602075822DC007123076D00703
:2038B60090209CE024FFFDA3E034FFFE90209CEDF0EEA3F080569020A0E0F5F0A3E045F0A5
:2038D600604A902094E0602075822BC007123076D00790209CE024FFFDA3E034FFFE90205C
:2038F6009CEDF0EEA3F08024902095E0601E758220C007123076D00790209CE024FFFDA315
:20391600E034FFFE90209CEDF0EEA3F0902092E070489020A0E0F516A3E0F51790209CE006
:20393600FAA3E0FBC0078A068B071ABAFF011BC3E5169EE5179FD0075053EF60067D307E30
:203956000080047D207E008D82C007C003C002123076D002D003D00780CA90209CE0FEA30C
:20397600E0FF9020A0E0F516A3E0F517C3E5169EE5179F500F90209CEEC39516F0EF9517FF
:20399600A3F0801190209CE4F0A3F0800890209CEAF0EBA3F09020A9E0FEA3E0FF9020A005
:2039B600E0F516A3E0F517AA16AD17151674FFB516021517EA4D604590209AE0B40100E4BD
:2039D60033F090209AE070140EBE00010F8E828F83E0C4540FFD902082F0800E8E828F832C
:2039F600E0FD53050F902082EDF0902082E0F582C007C0061230B1D006D00780AA9020923C
:203A1600E0700302318290209CE0FEA3E0FF8E038F051EBEFF011FEB4D7003023182758265
:203A360020C007C006123076D006D00780E08C82123076023182902083E0FEA3E08E82F5EA
:023A56008322C9
:0B3EEC003C4E4F20464C4F41543E001E
:183A5800AA82AB83123C356003A380F8C3E5829AF582E5839BF5832223
:203A7000AA83AB828BF09020ABE0A4F8A9F08AF0E0A429F98BF0A3E0A429F5838882222240
:203A90009020AD740AF07400A3F0903EEAE493FE740193FF1EBEFF011FEE240AFEEF3400D8
:203AB000FF90000AEEF0EFA3F09020ADE0FEA3E0FF8E828F83A3A3E4F0A3F022AF83E582B6
:203AD0009020AFF0EFA3F09020ADE0F5F0A3E045F07003123A909020AFE0FEA3E0FF4E606F
:203AF0000E74022EFCE43FFDC3EC9EED9F5004900000229020AF74022EF0E43FA3F09020B0
:203B1000AFE0FEA3E0FFC3EE9404EF940050099020AF7404F0E4A3F09020ADE0FEA3E0FF66
:203B30009020B1EEF0EFA3F09020B374ADF07420A3F09020B1E0FEA3E0FF4E7003023C3128
:203B50008E828F83E0FCA3E0FD8C028D038E008F01EAC398FAEB99FB8A008B019020AFE088
:203B7000F518A3E0F519C3E89518E995195003023C0E74042518F8E43519F9C3EA98EB9968
:203B9000404C8E028F03E5182AFAE5193BFB8A828B83ECF0EDA3F074022AFCE43BFD8E82D4
:203BB0008F83A3A3E0F8A3E0F98C828D83E8F0E9A3F09020B3E0FCA3E0FD8C828D83EAF020
:203BD000EBA3F08E828F83EAF0EBA3F0801C9020B3E0FCA3E0FD8E828F83A3A3E0FAA3E0BD
:203BF000FB8C828D83EAF0EBA3F09020B1E0FCA3E0FD74022CFCE43DFD8C828D8322740215
:203C10002EFEE43FFF9020B3EEF0EFA3F08E828F83E0FEA3E0FF9020B1EEF0EFA3F0023B03
:053C300042900000229B
:20200600E58124FCC3C8C0E0C082E608467006E5824583601218E58296F58208E5839642A8
:1B2026008208E5F0964582D082C8D0E0C822758120122090E582600302200368
:1C3C350020F71430F6148883A88220F507E6A88375830022E280F7E49322E0229E
:00000001FF
