:0320000002203487
:03208D000220032B
:032003000224CDE7
:202090009000002274DEC0E0743EC0E07480C0E01232D1158115811581900001E4F0A3F0D7
:2020B00090000175F000122756E58330E7167415C0E0743FC0E07480C0E01232D115811526
:2020D00081158122900001E0FEA3E0FF20E70FC374FF9E74878FF063F08095F050167448E8
:2020F000C0E0743FC0E07480C0E01232D1158115811581227485C0E0743FC0E07480C0E0D0
:202110001232D1158115811581900003E4F0A3F090000375F000122756E58330E716741539
:20213000C0E0743FC0E07480C0E01232D115811581158122900003E0FEA3E0FF20E70FC343
:2021500074FF9E74808FF063F08095F0501674A7C0E0743FC0E07480C0E01232D1158115CB
:2021700081158122900001E0FCA3E0FD902065EEF08C828D83122F88E5828583F045F0605B
:202190001674E5C0E0743FC0E07480C0E01232D1158115811581227405C0E07440C0E0745F
:2021B00080C0E01232D1158115811581227425C0E07440C0E07480C0E01232D11581158194
:2021D0001581900005E4F0A3F090000575F000122756E58330E7167415C0E0743FC0E0744F
:2021F00080C0E01232D115811581158122900005E0FEA3E0FF20E70FC374FF9E74878FF05D
:2022100063F08095F050167448C0E0743FC0E07480C0E01232D1158115811581229020689C
:202230007407F07400A3F0E4A3F08E828F83123009E5828583F045F06016745DC0E0744009
:20225000C0E07480C0E01232D115811581158122900007E0FF7E00C007C006900005E0C08B
:20227000E0A3E0C0E0747EC0E07440C0E07480C0E01232D1E58124F9F58122748EC0E0748B
:2022900040C0E07480C0E01232D11581158115812274C4C0E07440C0E07480C0E01232D1EC
:2022B000158115811581900008E4F0A3F090000875F000122756E58330E7167415C0E0748F
:2022D0003FC0E07480C0E01232D115811581158122900008E0FEA3E0FF20E70FC374FF9EA0
:2022F00074878FF063F08095F050167448C0E0743FC0E07480C0E01232D11581158115817C
:202310002274F4C0E07440C0E07480C0E01232D115811581158190000AE4F0A3F090000A29
:2023300075F000122756E58330E7167415C0E0743FC0E07480C0E01232D11581158115811D
:202350002290000AE0FEA3E0FF20E70FC374FF9E74878FF063F08095F050167448C0E0745F
:202370003FC0E07480C0E01232D115811581158122900008E0FCA3E0FDC3EE9CEF64808D40
:20239000F063F08095F050167421C0E07441C0E07480C0E01232D1158115811581229000D8
:2023B0000874F05CF0EDA3F090000A74F05EF0EFA3F090000AE0FEA3E0FF90000A74102EC1
:2023D000F0E43FA3F0900008E0FEA3E0FF90000AE0FCA3E0FDC3EE9CEF64808DF063F080E9
:2023F00095F0400122C007C006C006C0077460C0E07441C0E07480C0E01232D1E58124FBD4
:20241000F581D006D0078E048F057A007B00C3EA9410EB6480948040030224C390000CE48E
:20243000F0A3F0EA2CF8EB3DF9902068740CF07400A3F0E4A3F088828983C007C006C0056C
:20245000C004C003C002123009E5828583F0D002D003D004D005D006D00745F060167469F6
:20247000C0E07441C0E07480C0E01232D115811581158122C007C006C005C004C003C0022F
:2024900090000CE0C0E0A3E0C0E0749FC0E07441C0E07480C0E01232D1E58124FBF581D071
:2024B00002D003D004D005D006D0070ABA00010B02241E74102EFEE43FFF0223DD122F8335
:2024D00012228B74A5C0E07441C0E07480C0E01232D11581158115811225EAAE828E057F51
:2024F000008D828F83C0061225CBD006BE3F028018BE650302257EBE72028068BE770280DA
:202510005EBE7802806302259874CBC0E07441C0E07480C0E01232D115811581158174DE82
:20253000C0E07441C0E07480C0E01232D115811581158174F0C0E07441C0E07480C0E0122C
:2025500032D115811581158174FFC0E07441C0E07480C0E01232D115811581158180411200
:202570002094803C1221BD80371222A180321230B67412C0E07442C0E07480C0E01232D190
:2025900015811581158180187425C0E07442C0E07480C0E01232D11581158115810224D3DE
:1B25B000745FC0E07442C0E07480C0E01232D115811581158112228B0224D324
:203EDE000D0A456E74657220616E20454550524F4D206164647265737320746F207772695D
:203EFE00746520746F20696E20686578205B302C3746465D3A20000D0A204661696C65649F
:203F1E0020746F20656E74657220612068657820696E74656765722C20706C656173652068
:203F3E0074727920616761696E000D0A204661696C656420746F20656E74657220616E2018
:203F5E00616464726573732077697468696E2072616E67652C20706C656173652074727938
:203F7E0020616761696E000D0A456E7465722061206279746520746F207772697465205BD0
:203F9E00302C2046465D3A20000D0A204661696C656420746F20656E74657220612076610F
:203FBE006C75652074686174277320627974652073697A652C20706C65617365207472793E
:203FDE0020616761696E000D0A4661696C656420746F20777269746520746F207468652075
:203FFE00656570726F6D000D0A20537563636573733A2077726F746520746F2074686520FC
:20401E00656570726F6D000D0A456E74657220616E20454550524F4D206164647265737308
:20403E0020746F20726561642066726F6D20696E20686578205B302C3746465D3A20000D15
:20405E000A4661696C656420746F20726561642066726F6D2074686520656570726F6D0057
:20407E000D0A20253033783A20253032686878000D0A2D2D2D2D2D2D2D2D2D2D2D2D2D2D35
:20409E002D2D2D2D2D2D2D2D2D2D2D2D2D2D2D2D2D2D2D2D2D2D2D2D2D2D2D2D2D2D2D2D62
:2040BE002D2D2D2D2D000D0A456E74657220612076616C6964207374617274696E67206827
:2040DE0065782061646472657373205B302C203746465D3A20000D0A456E746572206120B8
:2040FE0076616C696420656E64696E67206865782061646472657373205B302C3746465D9B
:20411E003A20000D0A2073746172745F6164647265737320697320677265617465722074E3
:20413E0068616E20656E6420616464726573733B20706C65617365207472792061676169C7
:20415E006E000D0A253033583A20000D0A204661696C656420746F207265616420627974D8
:20417E00652066726F6D20656570726F6D2C20656E64696E6720636F6D6D616E64200D0A49
:20419E00002530325820000D0A456E746572206120636F6D6D616E64206368617220283F28
:2041BE0020666F722068656C70293A20000D0A77202D2077726974652061206279746500B3
:2041DE000D0A72202D207265616420612062797465000D0A78202D206865782064756D70C3
:2041FE00000D0A65202D20656570726F6D207265736574000D0A44696420454550524F4DDD
:20421E00205265736574000D0A556E7265636F676E697A656420636F6D6D616E642C20709E
:20423E006C6561736520656E74657220612076616C696420636F6D6D616E642063686172AA
:0F425E00000D0A454E4420434F4D4D414E440044
:2025CB00AF83E58290000EF0EFA3F010990280FB90000EE0FEA3E0FF8E998E828F832210A8
:0D25EB00980280FBAE997F008E828F8322C4
:02426D0000202F
:2025F80090201075F00022902076E4F0902077740AF0E4A3F090201075F00012324090201D
:202618001C7410F07420A3F0E4A3F01225EAAE828E057F008D828F83C0061225CBD006E46E
:20263800BE080104FF6014900020C007C0061225CB9000081225CBD006D007BE0D03D3809D
:2026580001C392004037BE0A028032EE602FBE7F02802ABE0802802590201CE0FBA3E0FC20
:20267800A3E0FD8B828C838DF0EE12326890201C74012BF0E43CA3F0EDA3F08054BE7F02ED
:202698008003EF604C90201CE0FCA3E0FDA3E0FF7410C0E07420C0E0E4C0E08C828D838FD1
:2026B800F012200615811581158160101CBCFF011D90201CECF0EDA3F0EFA3F090201CE05D
:2026D800FCA3E0FDA3E0FF8C828D838FF0E4123268200032BE0A02802DEE602A90201CE0CA
:2026F800FDA3E0FEA3E0FF7419C0E07420C0E0E4C0E08D828E838FF01220061581158115C5
:2027180081500302262390201CE0FDA3E0FEA3E0FF8D828E838FF0E40232681225EAAE8266
:202738008E057F008D828F83C0061225CBD00690201AE02401F0A3E03400F08E8222AFF079
:20275800AE83E58290201FF0EEA3F0EFA3F01225FF9020227410F07420A3F0E4A3F090203D
:2027780010E0FFBF301D90201175F000123EC2FFBF781090202274022410F0E43420A3F091
:20279800E4A3F0902025E4F0A3F0902022E0FDA3E0FEA3E0FF8D828E838FF0123EC2FC907F
:2027B8002027F0902027E0FC700302287D902025E0FAA3E0C454F0CAC4CA6ACA54F0CA6ABF
:2027D800FB902025EAF0EBA3F0BC30004023EC24C6401E7B00EC24D0FCEB34FFFB902025F1
:2027F800E0F9A3E0FA902025EC29F0EB3AA3F0805E902027E0FCBC61004023EC2499401EC1
:202818007B0074A92CFC74FF3BFB902025E0F9A3E0FA902025EC29F0EB3AA3F08031902019
:2028380027E0FCBC41004023EC24B9401E7B0074C92CFC74FF3BFB902025E0F9A3E0FA90B2
:202858002025EC29F0EB3AA3F0800490FFFF220DBD00010E8D828E838FF0123EC2FC9020F4
:2028780027F00227BB90201FE0FDA3E0FEA3E0FF902025E0FBA3E0FC8D828E838FF0EB12CB
:1F2898003268A3EC1232689000002290201AE0FEA3E08E82F5832290201AE4F0A3F02272
:2028B700AFF0AE83E58290202BF0EEA3F0EFA3F090202BE0F51BA3E0F51CA3E0F51D851B68
:2028D70082851C83851DF0123EC2FAA3123EC2FBA3123EC2FCEA4B7024902028E0F8A3E040
:2028F700F9A3E0FF851B82851C83851DF0E8123268A3E9123268A3EF123268806190202EA5
:20291700EAF0EBA3F0ECA3F090202EE0FDA3E0FEA3E0FF74082DFDE43EFE8D828E838FF0A6
:20293700123EC2FAA3123EC2FBA3123EC2FCEA4B600D90202EEAF0EBA3F0ECA3F080C990E3
:202957002028E0FAA3E0FBA3E0FC8D828E838FF0EA123268A3EB123268A3EC1232689020E7
:2029770028E0FDA3E0FEA3E0FF74082DFDE43EFE8D828E838FF0E4123268A3123268A3123F
:20299700326875820122AFF0AE83E582902033F0EEA3F0EFA3F0902033E0F508A3E0F5091E
:2029B700A3E0F50AE50845097003F58222850882850983850AF0123EC2FAA3123EC2FBA339
:2029D700123EC2FCEA4B7003F58222902031E0F8A3E0F9902031E0F5F0A3E045F0704290BC
:2029F7002036EAF0EBA3F0ECA3F074082AFDE43BFE8C078D828E838FF0123EC2FDA3123E9F
:202A1700C2FEA3123EC2FF850882850983850AF0ED123268A3EE123268A3EF123268022B4B
:202A370000902039EAF0EBA3F0ECA3F018B8FF0119902031E8F0E9A3F0902031E0FEA3E05F
:202A5700FFEE4F603C902039E0FBA3E0FCA3E0FD74082BFBE43CFC8B828C838DF0123EC25B
:202A7700FBA3123EC2FCA3123EC2FDEB4C6012902039EBF0ECA3F0EDA3F01EBEFF011F80FA
:202A9700C0EE4F600475820022902039E0FDA3E0FEA3E0FF74082DFDE43EFE8D828E838F67
:202AB700F0123EC2FAA3123EC2FBA3123EC2FC902036EAF0EBA3F0ECA3F074082AFAE43B26
:202AD700FB8A828B838CF0123EC2FAA3123EC2FBA3123EC2FC8D828E838FF0EA123268A309
:202AF700EB123268A3EC123268902036E0FEA3E0FDA3E0FF902036E0F5F0A3E045F0700351
:202B1700F582228E828D838FF0123EC2FEA3123EC2FF4E600B7D008E828F838DF01230E9A2
:202B3700902036E0FDA3E0FEA3E0FF8D828E838FF01230E975820122AFF0AE83E5829020ED
:202B57003CF0EEA3F0EFA3F090203CE0FDA3E0FEA3E0FF8D828E838FF0123EC2FAA3123EC5
:202B7700C2FBA3123EC2FC90203FEAF0EBA3F0ECA3F090203CE0FAA3E0FBA3E0FC8A828BB0
:202B9700838CF0123EC2F50BA3123EC2F50CA3123EC2F50DE50B450C700122C005C006C081
:202BB700077408250BF8E4350CF9AF0D888289838FF0123EC2F8A3123EC2F9A3123EC2FF78
:202BD7008A828B838CF0E8123268A3E9123268A3EF12326890203FE0FDA3E0FEA3E0FF8DE2
:202BF700828E838FF0123EC2F50BA3123EC2F50CD007D006D005E50B450C601BAB0BAC0C38
:202C17007A008B828C838AF0C007C006C0051230E9D005D006D00790203FE0FAA3E0FBA3A4
:202C3700E0FC8A828B838CF0C007C006C0051230E9D005D006D0078D828E838FF0123EC25B
:202C5700FAA3123EC2FBA3123EC2FC90203FEAF0EBA3F0ECA3F0022B89AFF0AE83E58290BF
:202C77002042F0EEA3F0EFA3F0902042E0FDA3E0FEA3E0FF8D828E838FF0123EC2FDA312B3
:202C97003EC2FEA3123EC2FF902047EDF0EEA3F0EFA3F0902045E0FEA3E0FF902047E0FB6D
:202CB700A3E0FCA3E0FD902047E0F5F0A3E045F0602D0EBE00010F74082BFBE43CFC8B8256
:202CD7008C838DF0123EC2FBA3123EC2FCA3123EC2FD902047EBF0ECA3F0EDA3F080BC8E46
:202CF700828F8322AFF0AE83E58290204CF0EEA3F0EFA3F090204CE0FDA3E0FEA3E0FF8D78
:202D1700828E838FF0123EC2FDA3123EC2FEA3123EC2FF90204FEDF0EEA3F0EFA3F0902085
:202D37004AE0FEA3E0FF90204FE0FBA3E0FCA3E0FD90204FE0F5F0A3E045F06031EE4F604F
:202D57002D74082BFBE43CFC8B828C838DF0123EC2FBA3123EC2FCA3123EC2FD90204FEB7E
:202D7700F0ECA3F0EDA3F01EBEFF011F80B890204FE0FDA3E0FEA3E0FF8D828E838FF0227A
:1D2D9700AF83E582902053F0EFA3F0902053E0FEA3E0FF902052E08E828F83F02298
:202DB400E582902055F07F00902055E030E706D297A2978004C297A297D296C296902055A5
:202DD400E025E0F00FBF080040DED297D296A297E433FFC296C297EF60067E007F0080046F
:202DF4007E017F008E8222E582902056F0902057E4F0D2977F00D296902057E025E0F030FB
:202E14009708902057E043E001F0C2960FBF080040E4D296902056E06006D297A2978004D8
:202E3400C297A297C296C297902057E0F58222D296D29722E582902059F0D297D296C2973E
:202E5400C296902059E025E0F0902058E06007902059E02401F0902059E0F582022DB4E5B3
:202E74008290205EF090205DE0FF90205EE0FE902058E4F08E82C007122E48AE82D0079014
:202E9400205FEEF0EE60728F0690205AE0FBA3E0FCA3E0FDEE603A90205FE060348B828CE4
:202EB400838DF0123EC2F582C007C006C005C004C003122DB4AA82D003D004D005D006D05B
:202ED4000790205FEAF0EA60CB1E0BBB00C60C80C390205FE06019E4FDFCEFC39EFFED9CC3
:202EF400FD4F60067E017F00800A7E007F0080047E007F0090205FEEF0122E4390205FE0A7
:202F1400F58222E582902064F0E0FF9020587401F08F82122E48E582FF604A902060E0FCB8
:202F3400A3E0FDA3E0FE902063E0FB8B021BEA6034EBB401009201E433F582C007C006C05A
:202F540005C004C003122DFBAA82D003D004D005D006D0078C828D838EF0EA123268A3ACC1
:202F740082AD8380C6C007122E43D0078F8222D297D29622AF83E582902066F0EFA3F0904D
:202F94002066E0FEA3E0FFC374FF9E74079F5004900001228F04430450902058E4F08C822E
:202FB400C006122E48AF82D0067D00BF0105BD00028007122E43900001228E82122DB4AF38
:202FD400827E00BF0105BE00028007122E4390000122902065E0F582122DB4AF827E00BFCE
:202FF4000105BE00028007122E4390000122122E4390000022AF83E58290206BF0EFA3F0DF
:2030140090206BE0FEA3E0FFC374FF9E74079F5004900001228F047D004304508C03902046
:2030340058E4F08B82C006C005C004122E48AF82D004D005D0067B00BF0105BB0002800738
:20305400122E43900001228E82C005C004122DB4AF82D004D0057E00BF0105BE0002800736
:20307400122E43900001229020587401F08C82122E48902068E0FDA3E0FEA3E0FF75820113
:20309400C007C006C005122DFBAC82D005D006D0078D828E838FF0EC123268122E43900096
:2030B4000022D297D296D297D296C297C2967E007F00C3EE9409EF64809480500DD297D2BD
:1530D40096C2960EBE00EB0F80E8D297D296C297C296022E43D6
:2030E900AFF0AE83E58290206DF0EEA3F0EFA3F090206DE0FDA3E0FEA3E090206DE0F5F0A0
:20310900A3E045F0700122902072E4F0A3F09020B3E0FBA3E0FC902070EBF0ECA3F09020EB
:203129007474B3F07420A3F0902070E0FBA3E0FC4B60418B018C02C003C0048D008E04C3EB
:20314900E998EA9CD004D003502A902072EBF0ECA3F074022BFBE43CFC902074EBF0ECA37C
:20316900F08B828C83E0FBA3E0FC902070EBF0ECA3F080B4902070E0FEA3E0FF90206DE0B5
:20318900FBA3E0FCA3E0EB24FEFBEC34FFFC74022BFAE43CFD8A828D83EEF0EFA3F0902022
:2031A90074E0F8A3E0F988828983EBF0ECA3F08B828C83E0F8A3E0F9EEB50033EFB5012FB4
:2031C90088828983A3A3E0FEA3E0FF8A828D83EEF0EFA3F08B828C83E0FEA3E0FF8E828F93
:2031E90083E0FEA3E0FF8B828C83EEF0EFA3F0902072E0FEA3E0FF4E603C8E828F83E0F801
:20320900A3E0F9E8B5032FE9B5042B8B828C83E0FBA3E0FC8E828F83EBF0ECA3F074022EF7
:17322900FEE43FFF8A828D83E0FAA3E0FD8E828F83EAF0EDA3F0225A
:06206300E478FFF6D8FD51
:20324000AC82AD83902077E0FEA3E0FFBE000360121F0F902076E08C828D83123268A3DED7
:08326000FADFF88C828D832255
:202041007900E94400601B7A0090427A78BB75A020E493F2A308B8000205A0D9F4DAF275AF
:02206100A0FFDE
:1B32680020F71130F6138883A88220F509F6A8837583002280FEF280F5F02265
:202069007800E84400600A790175A000E4F309D8FC78BAE84420600C7921900001E4F0A37A
:04208900D8FCD9FAAC
:20328300C01A85811A7E008E831225CBD01A22AFF0AE83E58290207BF0EEA3F0EFA3F090AF
:2032A300207BE0FDA3E0FEA3E0FF90207AE0FC90208FE4F0A3F0A3F0902092EDF0EEA3F0B1
:2032C300EFA3F0902095ECF09032830233D7C01AE581F51A24FBFF90208FE4F0A3F0A3F051
:2032E300E51A24FBF8902092E6F008E6A3F008E6A3F0902095EFF09032831233D7D01A220A
:20330300E58290208BF0E0FF902081E0C0E0A3E0C0E0A3E0C0E012331E800D90207FE0C083
:20332300E0A3E0C0E08F8222158115811581902089E02401F0A3E03400F022E58290208CF8
:20334300F0E02430FF24C6500D74072FFF90207EE060034307208F82023303E58290208D8F
:20336300F0E0FFC4540FF582C00712333ED00753070F8F8202333EE58290208EF090208406
:20338300E0FCA3E0FDA3E0FEA3E0FF902088E0FB90208EE0FA79208B00E828F51BEF2354F6
:2033A30001451BFBEC2CFCED33FDEE33FEEF33FFC3EB9A4007EBC39AFB43040119E970D7DA
:2033C300902084ECF0EDA3F0EEA3F0EFA3F0902088EBF022AF83E582902096F0EFA3F09041
:2033E3002096E0FEA3E0FF90207FEEF0EFA3F090208FE0FDA3E0FEA3E0FF902081EDF0EE0A
:20340300A3F0EFA3F0902089E4F0A3F0902092E0FDA3E0FEA3E0FF8D828E838FF0123EC221
:20342300FC90209274012DF0E43EA3F0EFA3F0EC7003023CD9BC25028003023CD19020984F
:20344300E4F0902099F090209AF090209BF090209CF090209DF090209EF090209FF0902041
:20346300A1F09020A2F0A3F09020A414F0A3F0902092E0FDA3E0FEA3E0FF8D828E838FF037
:20348300123EC2FBA3AD82AE83902092EDF0EEA3F0EFA3F09020A8EBF0BB25088B8212338A
:2034A3000302340FBB30005003023570EB24C650030235709020A4E0F50EA3E0F50F74FFDC
:2034C300B50E63B50F60C005C006C0079020A2E0FAA3E0FF9020B1EAF0EFA3F090000AC088
:2034E30005C003123CFDAE82AF83D003D0058B027D00EA2EFEED3FFFEE24D0FEEF34FFFF60
:203503009020A2EEF0EFA3F0D007D006D0059020A2E0F5F0A3E045F0600302347D90209946
:203523007401F002347DC005C006C0079020B1E50EF0E50FA3F090000AC006C005C0031259
:203543003CFDAA82AF83D003D005D0067E00EB2AFAEE3FFFEA24D0FAEF34FFFF9020A4EA63
:20356300F0EFA3F0D007D006D00502347D9020A8E0FBBB2E2FC005C006C0079020A4E0FAD6
:20358300A3E0FFBAFF05BFFF028009D007D006D00502347DD007D006D0059020A4E4F0A31D
:2035A300F002347DBB61004014EB2485400F9020A874DF5BF090207E7401F0800590207ED6
:2035C300E4F09020A8E0FBBB20028075BB2B028067BB2D028059BB4202806FBB4302807C93
:2035E300BB4403023867BB460302388DBB480302347DBB4903023867BB4A0302347DBB4C37
:20360300028050BB4F03023875BB50030237D5BB53028077BB540302347DBB550302387D67
:20362300BB5803023885BB5A0302347D0238959020987401F002347D90209A7401F00234D3
:203643007D90209B7401F002347D90209D7401F002347D90209E7401F002347D90209DE08F
:20366300600E902095E014F9F09020A8E7F0800F902095E024FEFFF08F019020A8E7F09074
:2036830020A8E0F5821233030238A4902095E024FDFFF08F018705098706098707191990A2
:2036A3002084EDF0EEA3F0EFA3F08D828E838FF0123CE585820E85830F9020A4E0FAA3E0D4
:2036C300FDBAFF0DBDFF0A9020A4E50EF0E50FA3F0902098E0704B9020A2E0FAA3E0FDC34E
:2036E300E50E9AE50F9D503A9020A2EAC3950EF0ED950FA3F09020A2E0FAA3E0FD8A068DA0
:20370300071ABAFF011DEE4F6010758220C005C002123303D002D00580E39020A2EAF0EDF8
:20372300A3F09020A4E0F511A3E0F512902084E0FAA3E0FDA3E0FF8A828D838FF0123EC272
:20374300F510603CC3E4951174808512F063F08095F0502C151174FFB5110215128510828A
:20376300123303902084E0FAA3E0FDA3E0FF0ABA00010D902084EAF0EDA3F0EFA3F080ACE0
:20378300902098E070030238A49020A2E0FEA3E0FFC3E50E9EE50F9F40030238A49020A2A1
:2037A300EEC3950EF0EF950FA3F09020A2E0FEA3E0FF8E028F051EBEFF011FEA4D7003021F
:2037C300389C758220C007C006123303D006D00780E0902095E024FDFDF08D01871309872E
:2037E300140987151919902084E513F0E514A3F0E515A3F0902086E0FDBD8000400890205E
:20380300A87443F08020BD600040089020A87450F08013BD400040089020A87449F08006E2
:203823009020A87458F09020A8E0FDF582C00512330375823A1233037582301233037582D9
:2038430078123303D005BD4902800EBD50028009902085E0F58212335E902084E0F58212D6
:20386300335E803D90209C7401F09020A1740AF0802F9020A17408F080279020A1740AF0B5
:20388300801F9020A17410F0801790209F7401F0800F8B8212330380089020A2EEF0EFA348
:2038A300F090209FE06071902095E024FCFFF08F018703098705098706098707191919902A
:2038C3002084EBF0EDA3F0EEA3F0EFA3F0902084746FF07442A3F07480A3F0902084E0F503
:2038E30013A3E0F514A3E0F51574012513FAE43514FBAF15902084EAF0EBA3F0EFA3F08573
:2039030013828514838515F0123EC2FF700302340F8F8212330380C39020A1E0700302342A
:203923000F90209DE06047902095E014F9F087077E007D007B00902084EFF0EEA3F0EDA357
:20394300F0EBA3F090209CE060030239E7902084E0FBA3E0A3E0A3E07D007E007F00902083
:2039630084EBF0EDA3F0EEA3F0EFA3F0807690209EE06028902095E024FCFFF08F01870368
:20398300098705098706098707191919902084EBF0EDA3F0EEA3F0EFA3F08048902095E098
:2039A30024FEFFF08F01870609870719EF3395E0FDFB902084EEF0EFA3F0EDA3F0EBA3F005
:2039C30090209CE0701E902084E0FBA3E0FDA3E0A3E07E007F00902084EBF0EDA3F0EEA378
:2039E300F0EFA3F090209CE06041902084E0FBA3E0FDA3E0FEA3E0FF30E72B902084E0FBA2
:203A0300A3E0FDA3E0FEA3E0FFC3E49BFBE49DFDE49EFEE49FFF902084EBF0EDA3F0EEA343
:203A2300F0EFA3F0800590209CE4F09020A07401F09020A1E0F5117516AE751720E4F50EB4
:203A4300F50F902088E4F085118212337A9020A0E07033902088E0C454F0F513902088E069
:203A6300C4540F4513F513851682851783E0FFE5134207851682851783EFF0151674FFB5F2
:203A830016021517800C902088E0FF851682851783F0050EE4B50E02050F9020A0E0B4015B
:203AA30000E433F0902084E0FAA3E0FBA3E0FEA3E0FFEA4B4E4F708A9020AFE516F0E5175B
:203AC300A3F09020A6E50EF0E50FA3F09020A2E0F5F0A3E045F070099020A27401F0E4A30A
:203AE300F0902099E0FFE07047902098E07041850E16850F179020A2E0FAA3E0FBC007AFC7
:203B0300160F8F067F00C3EE9AEF9BD0075019758220C007C003C002123303D002D003D034
:203B2300071ABAFF011B80D59020A2EAF0EBA3F090209CE0602075822DC007123303D007D7
:203B43009020A2E024FFFDA3E034FFFE9020A2EDF0EEA3F080569020A6E0F5F0A3E045F003
:203B6300604A90209AE0602075822BC007123303D0079020A2E024FFFDA3E034FFFE902030
:203B8300A2EDF0EEA3F0802490209BE0601E758220C007123303D0079020A2E024FFFDA3E3
:203BA300E034FFFE9020A2EDF0EEA3F0902098E070489020A6E0F516A3E0F5179020A2E05F
:203BC300FAA3E0FBC0078A068B071ABAFF011BC3E5169EE5179FD0075053EF60067D307EA1
:203BE3000080047D207E008D82C007C003C002123303D002D003D00780CA9020A2E0FEA3E7
:203C0300E0FF9020A6E0F516A3E0F517C3E5169EE5179F500F9020A2EEC39516F0EF951763
:203C2300A3F080119020A2E4F0A3F080089020A2EAF0EBA3F09020AFE0FEA3E0FF9020A65D
:203C4300E0F516A3E0F517AA16AD17151674FFB516021517EA4D60459020A0E0B40100E427
:203C630033F09020A0E070140EBE00010F8E828F83E0C4540FFD902088F0800E8E828F8390
:203C8300E0FD53050F902088EDF0902088E0F582C007C00612333ED006D00780AA9020980A
:203CA300E0700302340F9020A2E0FEA3E0FF8E038F051EBEFF011FEB4D700302340F7582B0
:203CC30020C007C006123303D006D00780E08C8212330302340F902089E0FEA3E08E82F5A5
:023CE30083223A
:0B426F003C4E4F20464C4F41543E0097
:183CE500AA82AB83123EC26003A380F8C3E5829AF582E5839BF5832205
:203CFD00AA83AB828BF09020B1E0A4F8A9F08AF0E0A429F98BF0A3E0A429F58388822222AB
:203D1D009020B37410F07400A3F090426DE493FE740193FF1EBEFF011FEE2410FEEF3400AF
:203D3D00FF900010EEF0EFA3F09020B3E0FEA3E0FF8E828F83A3A3E4F0A3F022AF83E5821A
:203D5D009020B5F0EFA3F09020B3E0F5F0A3E045F07003123D1D9020B5E0FEA3E0FF4E603D
:203D7D000E74022EFCE43FFDC3EC9EED9F5004900000229020B574022EF0E43FA3F090201A
:203D9D00B5E0FEA3E0FFC3EE9404EF940050099020B57404F0E4A3F09020B3E0FEA3E0FFC5
:203DBD009020B7EEF0EFA3F09020B974B3F07420A3F09020B7E0FEA3E0FF4E7003023EBEF2
:203DDD008E828F83E0FCA3E0FD8C028D038E008F01EAC398FAEB99FB8A008B019020B5E0F3
:203DFD00F518A3E0F519C3E89518E995195003023E9B74042518F8E43519F9C3EA98EB994A
:203E1D00404C8E028F03E5182AFAE5193BFB8A828B83ECF0EDA3F074022AFCE43BFD8E8244
:203E3D008F83A3A3E0F8A3E0F98C828D83E8F0E9A3F09020B9E0FCA3E0FD8C828D83EAF08A
:203E5D00EBA3F08E828F83EAF0EBA3F0801C9020B9E0FCA3E0FD8E828F83A3A3E0FAA3E027
:203E7D00FB8C828D83EAF0EBA3F09020B7E0FCA3E0FD74022CFCE43DFD8C828D832274027F
:203E9D002EFEE43FFF9020B9EEF0EFA3F08E828F83E0FEA3E0FF9020B7EEF0EFA3F0023D66
:053EBD00CF900000227F
:20200600E58124FCC3C8C0E0C082E608467006E5824583601218E58296F58208E5839642A8
:1B2026008208E5F0964582D082C8D0E0C822758120122090E582600302200368
:1C3EC20020F71430F6148883A88220F507E6A88375830022E280F7E49322E0220F
:00000001FF
