:0320000002203487
:03208D000220032B
:0320030002209424
:202090009000002212290B74B0C0E07438C0E07480C0E0122CA31581158115819038B575FF
:2020B000F080122A5474B8C0E07438C0E07480C0E0122CA3158115811581902051E4F07577
:2020D0008201122A2274BDC0E07438C0E07480C0E0122CA31581158115819038C275F0804C
:1A20F000122A5474C6C0E07438C0E07480C0E0122CA315811581158180FE6B
:1B38B00034300D0A0048490034320D0A0034340D0A004553440034360D0A0098
:20210A00AF83E582900001F0EFA3F010990280FB900001E0FEA3E0FF8E998E828F83221087
:0D212A00980280FBAE997F008E828F832289
:0238CB000020DB
:2021370090200375F00022902060E4F0902061740AF0E4A3F090200375F000122C1290205C
:202157000F7403F07420A3F0E4A3F0122129AE828E057F008D828F83C00612210AD006E4D8
:20217700BE080104FF6014900020C007C00612210A90000812210AD006D007BE0D03D380ED
:2021970001C392004037BE0A028032EE602FBE7F02802ABE0802802590200FE0FBA3E0FCF3
:2021B700A3E0FD8B828C838DF0EE122C3A90200F74012BF0E43CA3F0EDA3F08054BE7F02F4
:2021D7008003EF604C90200FE0FCA3E0FDA3E0FF7403C0E07420C0E0E4C0E08C828D838FB1
:2021F700F012200615811581158160101CBCFF011D90200FECF0EDA3F0EFA3F090200FE03D
:20221700FCA3E0FDA3E0FF8C828D838FF0E4122C3A200032BE0A02802DEE602A90200FE0D0
:20223700FDA3E0FEA3E0FF740CC0E07420C0E0E4C0E08D828E838FF0122006158115811597
:2022570081500302216290200FE0FDA3E0FEA3E0FF8D828E838FF0E4022C3A122129AE82F8
:202277008E057F008D828F83C00612210AD00690200DE02401F0A3E03400F08E8222AFF011
:20229700AE83E582902012F0EEA3F0EFA3F012213E9020157403F07420A3F0E4A3F09020EF
:2022B70003E0FFBF301D90200475F000123894FFBF781090201574022403F0E43420A3F0BF
:2022D700E4A3F0902018E4F0A3F0902015E0FDA3E0FEA3E0FF8D828E838FF0123894FC9093
:2022F700201AF090201AE0FC70030223BC902018E0FAA3E0C454F0CAC4CA6ACA54F0CA6A72
:20231700FB902018EAF0EBA3F0BC30004023EC24C6401E7B00EC24D0FCEB34FFFB902018D0
:20233700E0F9A3E0FA902018EC29F0EB3AA3F0805E90201AE0FCBC61004023EC2499401EA0
:202357007B0074A92CFC74FF3BFB902018E0F9A3E0FA902018EC29F0EB3AA3F080319020F9
:202377001AE0FCBC41004023EC24B9401E7B0074C92CFC74FF3BFB902018E0F9A3E0FA9092
:202397002018EC29F0EB3AA3F0800490FFFF220DBD00010E8D828E838FF0123894FC9020FB
:2023B7001AF00222FA902012E0FDA3E0FEA3E0FF902018E0FBA3E0FC8D828E838FF0EB127E
:1F23D7002C3AA3EC122C3A9000002290200DE0FEA3E08E82F5832290200DE4F0A3F022BA
:2023F600AFF0AE83E58290201EF0EEA3F0EFA3F090201EE0F51BA3E0F51CA3E0F51D851B48
:2024160082851C83851DF0123894FAA3123894FBA3123894FCEA4B702490201BE0F8A3E0AE
:20243600F9A3E0FF851B82851C83851DF0E8122C3AA3E9122C3AA3EF122C3A806190202113
:20245600EAF0EBA3F0ECA3F0902021E0FDA3E0FEA3E0FF74082DFDE43EFE8D828E838FF079
:20247600123894FAA3123894FBA3123894FCEA4B600D902021EAF0EBA3F0ECA3F080C99052
:20249600201BE0FAA3E0FBA3E0FC8D828E838FF0EA122C3AA3EB122C3AA3EC122C3A902056
:2024B6001BE0FDA3E0FEA3E0FF74082DFDE43EFE8D828E838FF0E4122C3AA3122C3AA3127A
:2024D6002C3A75820122AFF0AE83E582902026F0EEA3F0EFA3F0902026E0F508A3E0F50932
:2024F600A3E0F50AE50845097003F58222850882850983850AF0123894FAA3123894FBA367
:20251600123894FCEA4B7003F58222902024E0F8A3E0F9902024E0F5F0A3E045F0704290CF
:202536002029EAF0EBA3F0ECA3F074082AFDE43BFE8C078D828E838FF0123894FDA31238AB
:2025560094FEA3123894FF850882850983850AF0ED122C3AA3EE122C3AA3EF122C3A022614
:202576003F90202CEAF0EBA3F0ECA3F018B8FF0119902024E8F0E9A3F0902024E0FEA3E00D
:20259600FFEE4F603C90202CE0FBA3E0FCA3E0FD74082BFBE43CFC8B828C838DF012389462
:2025B600FBA3123894FCA3123894FDEB4C601290202CEBF0ECA3F0EDA3F01EBEFF011F8035
:2025D600C0EE4F60047582002290202CE0FDA3E0FEA3E0FF74082DFDE43EFE8D828E838F3A
:2025F600F0123894FAA3123894FBA3123894FC902029EAF0EBA3F0ECA3F074082AFAE43B95
:20261600FB8A828B838CF0123894FAA3123894FBA3123894FC8D828E838FF0EA122C3AA39E
:20263600EB122C3AA3EC122C3A902029E0FEA3E0FDA3E0FF902029E0F5F0A3E045F0700398
:20265600F582228E828D838FF0123894FEA3123894FF4E600B7D008E828F838DF0122ABB04
:20267600902029E0FDA3E0FEA3E0FF8D828E838FF0122ABB75820122AFF0AE83E5829020F4
:202696002FF0EEA3F0EFA3F090202FE0FDA3E0FEA3E0FF8D828E838FF0123894FAA31238DF
:2026B60094FBA3123894FC902032EAF0EBA3F0ECA3F090202FE0FAA3E0FBA3E0FC8A828BF2
:2026D600838CF0123894F50BA3123894F50CA3123894F50DE50B450C700122C005C006C0E3
:2026F600077408250BF8E4350CF9AF0D888289838FF0123894F8A3123894F9A3123894FFDA
:202716008A828B838CF0E8122C3AA3E9122C3AA3EF122C3A902032E0FDA3E0FEA3E0FF8D50
:20273600828E838FF0123894F50BA3123894F50CD007D006D005E50B450C601BAB0BAC0C65
:202756007A008B828C838AF0C007C006C005122ABBD005D006D007902032E0FAA3E0FBA3AB
:20277600E0FC8A828B838CF0C007C006C005122ABBD005D006D0078D828E838FF012389489
:20279600FAA3123894FBA3123894FC902032EAF0EBA3F0ECA3F00226C8AFF0AE83E58290C0
:2027B6002035F0EEA3F0EFA3F0902035E0FDA3E0FEA3E0FF8D828E838FF0123894FDA312C7
:2027D6003894FEA3123894FF90203AEDF0EEA3F0EFA3F0902038E0FEA3E0FF90203AE0FBC2
:2027F600A3E0FCA3E0FD90203AE0F5F0A3E045F0602D0EBE00010F74082BFBE43CFC8B8229
:202816008C838DF0123894FBA3123894FCA3123894FD90203AEBF0ECA3F0EDA3F080BC8EB4
:20283600828F8322AFF0AE83E58290203FF0EEA3F0EFA3F090203FE0FDA3E0FEA3E0FF8D57
:20285600828E838FF0123894FDA3123894FEA3123894FF902042EDF0EEA3F0EFA3F09020F4
:202876003DE0FEA3E0FF902042E0FBA3E0FCA3E0FD902042E0F5F0A3E045F06031EE4F603C
:202896002D74082BFBE43CFC8B828C838DF0123894FBA3123894FCA3123894FD902042EBED
:2028B600F0ECA3F0EDA3F01EBEFF011F80B8902042E0FDA3E0FEA3E0FF8D828E838FF0224D
:1D28D600AF83E582902046F0EFA3F0902046E0FEA3E0FF902045E08E828F83F02285
:2028F30090F20075F000123894FF5307807E00BF8005BE000280E92290204AE4F0A3F09029
:20291300204AE0FEA3E0FFC3EE9458EF6480948250160090204AE0FEA3E0FF90204A740125
:202933002EF0E43FA3F080D790F00075F0007430122C3A90204CE4F0A3F090204CE0FEA378
:20295300E0FFC3EE9458EF6480948250160090204CE0FEA3E0FF90204C74012EF0E43FA3E8
:20297300F080D790F00075F0007430122C3A90204EE4F0A3F090204EE0FEA3E0FFC3EE94F4
:2029930058EF6480948250160090204EE0FEA3E0FF90204E74012EF0E43FA3F080D790F001
:2029B3000075F0007430122C3A1228F390F00075F0007438122C3A1228F390F00075F0003B
:2029D3007408122C3A1228F390F00075F000740C122C3A1228F390F00075F0007406122C1C
:2029F3003A1228F390F00075F0007401122C3A0228F3E582902050F01228F3902050E044C6
:202A130080FF90F00075F000EF122C3A0228F3E582902052F0E0030354C0FF902051E04246
:202A3300078F82022A05E582902053F01228F3902053E0FF90F10075F000EF122C3A02285A
:202A5300F3AFF0AE83E582902054F0EEA3F0EFA3F0902054E0FDA3E0FEA3E0FF8D828E833E
:202A73008FF0123894FC60238C82C007C006C005122A39D005D006D0070DBD00010E902087
:202A930054EDF0EEA3F0EFA3F080D1902054EDF0EEA3F0EFA3F0221228F390F00075F00086
:082AB3007401122C3A0228F311
:202ABB00AFF0AE83E582902057F0EEA3F0EFA3F0902057E0FDA3E0FEA3E0902057E0F5F016
:202ADB00A3E045F070012290205CE4F0A3F090209DE0FBA3E0FC90205AEBF0ECA3F0902062
:202AFB005E749DF07420A3F090205AE0FBA3E0FC4B60418B018C02C003C0048D008E04C362
:202B1B00E998EA9CD004D003502A90205CEBF0ECA3F074022BFBE43CFC90205EEBF0ECA3DC
:202B3B00F08B828C83E0FBA3E0FC90205AEBF0ECA3F080B490205AE0FEA3E0FF902057E02B
:202B5B00FBA3E0FCA3E0EB24FEFBEC34FFFC74022BFAE43CFD8A828D83EEF0EFA3F0902056
:202B7B005EE0F8A3E0F988828983EBF0ECA3F08B828C83E0F8A3E0F9EEB50033EFB5012FFE
:202B9B0088828983A3A3E0FEA3E0FF8A828D83EEF0EFA3F08B828C83E0FEA3E0FF8E828FC7
:202BBB0083E0FEA3E0FF8B828C83EEF0EFA3F090205CE0FEA3E0FF4E603C8E828F83E0F84B
:202BDB00A3E0F9E8B5032FE9B5042B8B828C83E0FBA3E0FC8E828F83EBF0ECA3F074022E2C
:172BFB00FEE43FFF8A828D83E0FAA3E0FD8E828F83EAF0EDA3F0228F
:06206300E478FFF6D8FD51
:202C1200AC82AD83902061E0FEA3E0FFBE000360121F0F902060E08C828D83122C3AA3DE6B
:082C3200FADFF88C828D832289
:202041007900E94400601B7A009038D878A575A020E493F2A308B8000205A0D9F4DAF27571
:02206100A0FFDE
:1B2C3A0020F71130F6138883A88220F509F6A8837583002280FEF280F5F02299
:202069007800E84400600A790175A000E4F309D8FC78A4E84420600C7921900001E4F0A390
:04208900D8FCD9FAAC
:202C5500C01A85811A7E008E8312210AD01A22AFF0AE83E582902065F0EEA3F0EFA3F090BE
:202C75002065E0FDA3E0FEA3E0FF902064E0FC902079E4F0A3F0A3F090207CEDF0EEA3F03D
:202C9500EFA3F090207FECF0902C55022DA9C01AE581F51A24FBFF902079E4F0A3F0A3F019
:202CB500E51A24FBF890207CE6F008E6A3F008E6A3F090207FEFF0902C55122DA9D01A22D2
:202CD500E582902075F0E0FF90206BE0C0E0A3E0C0E0A3E0C0E0122CF0800D902069E0C02F
:202CF500E0A3E0C0E08F8222158115811581902073E02401F0A3E03400F022E58290207659
:202D1500F0E02430FF24C6500D74072FFF902068E060034307208F82022CD5E58290207724
:202D3500F0E0FFC4540FF582C007122D10D00753070F8F82022D10E582902078F090206ECE
:202D5500E0FCA3E0FDA3E0FEA3E0FF902072E0FB902078E0FA79208B00E828F51BEF235456
:202D750001451BFBEC2CFCED33FDEE33FEEF33FFC3EB9A4007EBC39AFB43040119E970D70E
:202D950090206EECF0EDA3F0EEA3F0EFA3F0902072EBF022AF83E582902080F0EFA3F090B7
:202DB5002080E0FEA3E0FF902069EEF0EFA3F0902079E0FDA3E0FEA3E0FF90206BEDF0EE96
:202DD500A3F0EFA3F0902073E4F0A3F090207CE0FDA3E0FEA3E0FF8D828E838FF0123894B6
:202DF500FC90207C74012DF0E43EA3F0EFA3F0EC70030236ABBC250280030236A390208218
:202E1500E4F0902083F0902084F0902085F0902086F0902087F0902088F0902089F090200F
:202E35008BF090208CF0A3F090208E14F0A3F090207CE0FDA3E0FEA3E0FF8D828E838FF0C3
:202E5500123894FBA3AD82AE8390207CEDF0EEA3F0EFA3F0902092EBF0BB25088B82122C25
:202E7500D5022DE1BB30005003022F42EB24C65003022F4290208EE0F50EA3E0F50F74FFF1
:202E9500B50E63B50F60C005C006C00790208CE0FAA3E0FF90209BEAF0EFA3F090000AC0E8
:202EB50005C0031236CFAE82AF83D003D0058B027D00EA2EFEED3FFFEE24D0FEEF34FFFFC8
:202ED50090208CEEF0EFA3F0D007D006D00590208CE0F5F0A3E045F06003022E4F902083F1
:202EF5007401F0022E4FC005C006C00790209BE50EF0E50FA3F090000AC006C005C00312D8
:202F150036CFAA82AF83D003D005D0067E00EB2AFAEE3FFFEA24D0FAEF34FFFF90208EEAE1
:202F3500F0EFA3F0D007D006D005022E4F902092E0FBBB2E2FC005C006C00790208EE0FA6A
:202F5500A3E0FFBAFF05BFFF028009D007D006D005022E4FD007D006D00590208EE4F0A39B
:202F7500F0022E4FBB61004014EB2485400F90209274DF5BF09020687401F0800590206880
:202F9500E4F0902092E0FBBB20028075BB2B028067BB2D028059BB4202806FBB4302807CDD
:202FB500BB4403023239BB460302325FBB4803022E4FBB4903023239BB4A03022E4FBB4C6F
:202FD500028050BB4F03023247BB50030231A7BB53028077BB5403022E4FBB550302324F6C
:202FF500BB5803023257BB5A03022E4F0232679020827401F0022E4F9020847401F0022E0A
:203015004F9020857401F0022E4F9020877401F0022E4F9020887401F0022E4F902087E0E5
:20303500600E90207FE014F9F0902092E7F0800F90207FE024FEFFF08F01902092E7F09000
:203055002092E0F582122CD502327690207FE024FDFFF08F0187050987060987071919906B
:20307500206EEDF0EEA3F0EFA3F08D828E838FF01236B785820E85830F90208EE0FAA3E068
:20309500FDBAFF0DBDFF0A90208EE50EF0E50FA3F0902082E0704B90208CE0FAA3E0FDC3C4
:2030B500E50E9AE50F9D503A90208CEAC3950EF0ED950FA3F090208CE0FAA3E0FD8A068D00
:2030D500071ABAFF011DEE4F6010758220C005C002122CD5D002D00580E390208CEAF0ED78
:2030F500A3F090208EE0F511A3E0F51290206EE0FAA3E0FDA3E0FF8A828D838FF012389407
:20311500F510603CC3E4951174808512F063F08095F0502C151174FFB511021512851082BE
:20313500122CD590206EE0FAA3E0FDA3E0FF0ABA00010D90206EEAF0EDA3F0EFA3F080AC75
:20315500902082E0700302327690208CE0FEA3E0FFC3E50E9EE50F9F400302327690208C7F
:20317500EEC3950EF0EF950FA3F090208CE0FEA3E0FF8E028F051EBEFF011FEA4D70030269
:20319500326E758220C007C006122CD5D006D00780E090207FE024FDFDF08D0187130987E1
:2031B50014098715191990206EE513F0E514A3F0E515A3F0902070E0FDBD800040089020BE
:2031D500927443F08020BD600040089020927450F08013BD400040089020927449F0800659
:2031F5009020927458F0902092E0FDF582C005122CD575823A122CD5758230122CD57582D9
:2032150078122CD5D005BD4902800EBD5002800990206FE0F582122D3090206EE0F582129F
:203235002D30803D9020867401F090208B740AF0802F90208B7408F0802790208B740AF075
:20325500801F90208B7410F080179020897401F0800F8B82122CD5800890208CEEF0EFA3F3
:20327500F0902089E0607190207FE024FCFFF08F018703098705098706098707191919908A
:20329500206EEBF0EDA3F0EEA3F0EFA3F090206E74CDF07438A3F07480A3F090206EE0F525
:2032B50013A3E0F514A3E0F51574012513FAE43514FBAF1590206EEAF0EBA3F0EFA3F085BD
:2032D50013828514838515F0123894FF7003022DE18F82122CD580C390208BE07003022D1A
:2032F500E1902087E0604790207FE014F9F087077E007D007B0090206EEFF0EEA3F0EDA3FC
:20331500F0EBA3F0902086E060030233B990206EE0FBA3E0A3E0A3E07D007E007F00902017
:203335006EEBF0EDA3F0EEA3F0EFA3F08076902088E0602890207FE024FCFFF08F018703DE
:2033550009870509870609870719191990206EEBF0EDA3F0EEA3F0EFA3F0804890207FE0F8
:2033750024FEFFF08F01870609870719EF3395E0FDFB90206EEEF0EFA3F0EDA3F0EBA3F04F
:20339500902086E0701E90206EE0FBA3E0FDA3E0A3E07E007F0090206EEBF0EDA3F0EEA3EE
:2033B500F0EFA3F0902086E0604190206EE0FBA3E0FDA3E0FEA3E0FF30E72B90206EE0FB18
:2033D500A3E0FDA3E0FEA3E0FFC3E49BFBE49DFDE49EFEE49FFF90206EEBF0EDA3F0EEA38E
:2033F500F0EFA3F08005902086E4F090208A7401F090208BE0F511751698751720E4F50E41
:20341500F50F902072E4F0851182122D4C90208AE07033902072E0C454F0F513902072E029
:20343500C4540F4513F513851682851783E0FFE5134207851682851783EFF0151674FFB526
:2034550016021517800C902072E0FF851682851783F0050EE4B50E02050F90208AE0B401BB
:2034750000E433F090206EE0FAA3E0FBA3E0FEA3E0FFEA4B4E4F708A902099E516F0E517BB
:20349500A3F0902090E50EF0E50FA3F090208CE0F5F0A3E045F0700990208C7401F0E4A380
:2034B500F0902083E0FFE07047902082E07041850E16850F1790208CE0FAA3E0FBC007AF3D
:2034D500160F8F067F00C3EE9AEF9BD0075019758220C007C003C002122CD5D002D003D09E
:2034F500071ABAFF011B80D590208CEAF0EBA3F0902086E0602075822DC007122CD5D0076D
:2035150090208CE024FFFDA3E034FFFE90208CEDF0EEA3F08056902090E0F5F0A3E045F079
:20353500604A902084E0602075822BC007122CD5D00790208CE024FFFDA3E034FFFE9020C5
:203555008CEDF0EEA3F08024902085E0601E758220C007122CD5D00790208CE024FFFDA38E
:20357500E034FFFE90208CEDF0EEA3F0902082E07048902090E0F516A3E0F51790208CE0EB
:20359500FAA3E0FBC0078A068B071ABAFF011BC3E5169EE5179FD0075053EF60067D307ED5
:2035B5000080047D207E008D82C007C003C002122CD5D002D003D00780CA90208CE0FEA366
:2035D500E0FF902090E0F516A3E0F517C3E5169EE5179F500F90208CEEC39516F0EF9517C4
:2035F500A3F0801190208CE4F0A3F0800890208CEAF0EBA3F0902099E0FEA3E0FF902090EA
:20361500E0F516A3E0F517AA16AD17151674FFB516021517EA4D604590208AE0B40100E471
:2036350033F090208AE070140EBE00010F8E828F83E0C4540FFD902072F0800E8E828F83F0
:20365500E0FD53050F902072EDF0902072E0F582C007C006122D10D006D00780AA902082B4
:20367500E07003022DE190208CE0FEA3E0FF8E038F051EBEFF011FEB4D7003022DE1758264
:2036950020C007C006122CD5D006D00780E08C82122CD5022DE1902073E0FEA3E08E82F58E
:0236B50083226E
:0B38CD003C4E4F20464C4F41543E0043
:1836B700AA82AB831238946003A380F8C3E5829AF582E5839BF583226D
:2036CF00AA83AB828BF090209BE0A4F8A9F08AF0E0A429F98BF0A3E0A429F58388822222F5
:2036EF0090209D7403F07400A3F09038CBE493FE740193FF1EBEFF011FEE2403FEEF3400C0
:20370F00FF900003EEF0EFA3F090209DE0FEA3E0FF8E828F83A3A3E4F0A3F022AF83E58271
:20372F0090209FF0EFA3F090209DE0F5F0A3E045F070031236EF90209FE0FEA3E0FF4E60E8
:20374F000E74022EFCE43FFDC3EC9EED9F50049000002290209F74022EF0E43FA3F0902064
:20376F009FE0FEA3E0FFC3EE9404EF9400500990209F7404F0E4A3F090209DE0FEA3E0FF3B
:20378F009020A1EEF0EFA3F09020A3749DF07420A3F09020A1E0FEA3E0FF4E7003023890B2
:2037AF008E828F83E0FCA3E0FD8C028D038E008F01EAC398FAEB99FB8A008B0190209FE03D
:2037CF00F518A3E0F519C3E89518E99519500302386D74042518F8E43519F9C3EA98EB99B2
:2037EF00404C8E028F03E5182AFAE5193BFB8A828B83ECF0EDA3F074022AFCE43BFD8E8279
:20380F008F83A3A3E0F8A3E0F98C828D83E8F0E9A3F09020A3E0FCA3E0FD8C828D83EAF0D4
:20382F00EBA3F08E828F83EAF0EBA3F0801C9020A3E0FCA3E0FD8E828F83A3A3E0FAA3E071
:20384F00FB8C828D83EAF0EBA3F09020A1E0FCA3E0FD74022CFCE43DFD8C828D83227402C9
:20386F002EFEE43FFF9020A3EEF0EFA3F08E828F83E0FEA3E0FF9020A1EEF0EFA3F00237CC
:05388F00A190000022E1
:20200600E58124FCC3C8C0E0C082E608467006E5824583601218E58296F58208E5839642A8
:1B2026008208E5F0964582D082C8D0E0C822758120122090E582600302200368
:1C38940020F71430F6148883A88220F507E6A88375830022E280F7E49322E02243
:00000001FF
