:06200000022037022093CC
:0320900002200625
:032006000221AB09
:202093007597FF32438F0153877F9000002274B9C0E0742FC0E07480C0E01225511581153B
:2020B30081158175FCAA75DC422274C3C0E0742FC0E07480C0E012255115811581158175B9
:2020D300DC007597FF2274D6C0E0742FC0E07480C0E01225511581158115817597FF227438
:2020F300E6C0E0742FC0E07480C0E0122551158115811581759700222243D94075EE0075A2
:20211300FE0012210B75DE482274F6C0E0742FC0E07480C0E0122551158115811581122155
:202133000C80FE7415C0E07430C0E07480C0E01225511581158115814387017427C0E0743D
:2021530030C0E07480C0E012255115811581158122743BC0E07430C0E07480C0E0122551ED
:202173001581158115814387027453C0E07430C0E07480C0E012255115811581158122749F
:202193006DC0E07430C0E07480C0E012255115811581158175DC4C22D2DED288D2A8D2AF39
:2021B3007488C0E07430C0E07480C0E012255115811581158112246CAF82BF66030222D758
:2021D300BF68030222E1BF69030222DCBF6C030222D2BF6D02801ABF70030222E6BF720336
:2021F3000222C3BF73030222C8BF77030222CD80AF7499C0E07430C0E07480C0E01225515E
:2022130015811581158174A1C0E07430C0E07480C0E012255115811581158174AEC0E074DC
:2022330030C0E07480C0E012255115811581158174C4C0E07430C0E07480C0E01225511590
:20225300811581158174D9C0E07430C0E07480C0E012255115811581158174EEC0E0743009
:20227300C0E07480C0E0122551158115811581740EC0E07431C0E07480C0E01225511581B4
:20229300158115817425C0E07431C0E07480C0E0122551158115811581743AC0E07431C0F0
:2022B300E07480C0E012255115811581158180261220A180211220BD801C1220D9801712F4
:2022D30020F2801212211C800D122136800812219280031221647459C0E07431C0E07480F5
:0E22F300C0E01225511581158115810221B31D
:202FB9000D0A52756E2050574D000D0A53746F702050312E35204F7574707574000D0A4DC2
:202FD900617820537065656420636C6B000D0A4D696E20537065656420636C6B000D0A4691
:202FF9007265657A696E6720287472696767657273207761746368646F6729000D0A456EB1
:203019007465722049646C65204D6F6465000D0A45786974696E672049646C65204D6F643C
:2030390065000D0A456E74657220506F77657220446F776E204D6F6465000D0A45786974C2
:20305900696E6720506F77657220446F776E204D6F6465000D0A20446F696E67206869670F
:2030790068207370656564206F7574707574000D0A456E746572206120636861723A20001F
:203099000D0A204D656E75000D0A723A2072756E2070776D000D0A733A2073746F70207065
:2030B900312E35206F7574707574000D0A773A206D617820636C6F636B2073706565640007
:2030D9000D0A6C3A206D696E20636C6F636B207370656564000D0A663A20667265657A6501
:2030F90020287472696767657273207761746368646F6729000D0A683A2068696768207362
:2031190070656564206F7574707574000D0A703A20706F77657220646F776E206D6F64657C
:20313900000D0A693A20656E7465722069646C65206D6F646520666F7220612062697400B4
:0E3159000D0A454E4420434F4D4D414E44005B
:20230100AF83E582900001F0EFA3F010990280FB900001E0FEA3E0FF8E998E828F8322306E
:1023210098FD12210BC298AE997F008E828F832275
:2023310090000375F00022900015E4F0900016740AF0E4A3F090000375F0001224C09000F0
:202351000F7403F07400A3F0E4A3F0122320AE828E057F008D828F83C006122301D006E40A
:20237100BE080104FF6014900020C007C006122301900008122301D006D007BE0D03D380FF
:2023910001C392004037BE0A028032EE602FBE7F02802ABE0802802590000FE0FBA3E0FC17
:2023B100A3E0FD8B828C838DF0EE1224E890000F74012BF0E43CA3F0EDA3F08054BE7F0272
:2023D1008003EF604C90000FE0FCA3E0FDA3E0FF7403C0E07400C0E0E4C0E08C828D838FF5
:2023F100F012200915811581158160101CBCFF011D90000FECF0EDA3F0EFA3F090000FE07E
:20241100FCA3E0FDA3E0FF8C828D838FF0E41224E8200032BE0A02802DEE602A90000FE04E
:20243100FDA3E0FEA3E0FF740CC0E07400C0E0E4C0E08D828E838FF01220091581158115B8
:2024510081500302235C90000FE0FDA3E0FEA3E0FF8D828E838FF0E40224E8122320AE8281
:202471008E057F008D828F83C006122301D00690000DE02401F0A3E03400F08E822290004B
:122491000DE0FEA3E08E82F5832290000DE4F0A3F022FB
:1D24A300AF83E582900013F0EFA3F0900013E0FEA3E0FF900012E08E828F83F022B5
:06206600E478FFF6D8FD4E
:2024C000AC82AD83900016E0FEA3E0FFBE000360121F0F900015E08C828D831224E8A3DEF5
:0824E000FADFF88C828D8322E3
:202044007900E94400601B7A00903172785275A000E493F2A308B8000205A0D9F4DAF2754E
:02206400A0FFDB
:1B24E80020F71130F6138883A88220F509F6A8837583002280FEF280F5F022F3
:20206C007800E84400600A790175A000E4F309D8FC7851E84400600C7901900001E4F0A320
:04208C00D8FCD9FAA9
:20250300C0128581127E008E83122301D01222AFF0AE83E58290001AF0EEA3F0EFA3F090A1
:20252300001AE0FDA3E0FEA3E0FF900019E0FC90002EE4F0A3F0A3F0900031EDF0EEA3F042
:20254300EFA3F0900034ECF0902503022657C012E581F51224FBFF90002EE4F0A3F0A3F00A
:20256300E51224FBF8900031E6F008E6A3F008E6A3F0900034EFF0902503122657D01222C3
:20258300E58290002AF0E0FF900020E0C0E0A3E0C0E0A3E0C0E012259E800D90001EE0C022
:2025A300E0A3E0C0E08F8222158115811581900028E02401F0A3E03400F022E58290002B88
:2025C300F0E02430FF24C6500D74072FFF90001DE060034307208F82022583E58290002CAD
:2025E300F0E0FFC4540FF582C0071225BED00753070F8F820225BEE58290002DF0900023B2
:20260300E0FCA3E0FDA3E0FEA3E0FF900027E0FB90002DE0FA79208B00E828F513EF23548D
:20262300014513FBEC2CFCED33FDEE33FEEF33FFC3EB9A4007EBC39AFB43040119E970D76F
:20264300900023ECF0EDA3F0EEA3F0EFA3F0900027EBF022AF83E582900035F0EFA3F09051
:202663000035E0FEA3E0FF90001EEEF0EFA3F090002EE0FDA3E0FEA3E0FF900020EDF0EE9B
:20268300A3F0EFA3F0900028E4F0A3F0900031E0FDA3E0FEA3E0FF8D828E838FF0122F9DE5
:2026A300FC90003174012DF0E43EA3F0EFA3F0EC7003022F59BC25028003022F51900037F9
:2026C300E4F0900038F0900039F090003AF090003BF090003CF090003DF090003EF0900076
:2026E30040F0900041F0A3F090004314F0A3F0900031E0FDA3E0FEA3E0FF8D828E838FF0A9
:20270300122F9DFBA3AD82AE83900031EDF0EEA3F0EFA3F0900047EBF0BB25088B8212255B
:202723008302268FBB300050030227F0EB24C650030227F0900043E0F508A3E0F50974FF20
:20274300B50863B50960C005C006C007900041E0FAA3E0FF900050EAF0EFA3F090000AC023
:2027630005C003122F7DAE82AF83D003D0058B027D00EA2EFEED3FFFEE24D0FEEF34FFFF7A
:20278300900041EEF0EFA3F0D007D006D005900041E0F5F0A3E045F060030226FD900038E5
:2027A3007401F00226FDC005C006C007900050E508F0E509A3F090000AC006C005C0031202
:2027C3002F7DAA82AF83D003D005D0067E00EB2AFAEE3FFFEA24D0FAEF34FFFF900043EAFF
:2027E300F0EFA3F0D007D006D0050226FD900047E0FBBB2E2FC005C006C007900043E0FAF4
:20280300A3E0FFBAFF05BFFF028009D007D006D0050226FDD007D006D005900043E4F0A3B9
:20282300F00226FDBB61004014EB2485400F90004774DF5BF090001D7401F0800590001D74
:20284300E4F0900047E0FBBB20028075BB2B028067BB2D028059BB4202806FBB4302807CA1
:20286300BB4403022AE7BB4603022B0DBB48030226FDBB4903022AE7BB4A030226FDBB4C89
:20288300028050BB4F03022AF5BB5003022A55BB53028077BB54030226FDBB5503022AFD2C
:2028A300BB5803022B05BB5A030226FD022B159000377401F00226FD9000397401F00226A7
:2028C300FD90003A7401F00226FD90003C7401F00226FD90003D7401F00226FD90003CE04B
:2028E300600E900034E014F9F0900047E7F0800F900034E024FEFFF08F01900047E7F09006
:202903000047E0F582122583022B24900034E024FDFFF08F0187050987060987071919904C
:202923000023EDF0EEA3F0EFA3F08D828E838FF0122F65858208858309900043E0FAA3E0FC
:20294300FDBAFF0DBDFF0A900043E508F0E509A3F0900037E0704B900041E0FAA3E0FDC36A
:20296300E5089AE5099D503A900041EAC39508F0ED9509A3F0900041E0FAA3E0FD8A068D47
:20298300071ABAFF011DEE4F6010758220C005C002122583D002D00580E3900041EAF0ED95
:2029A300A3F0900043E0F50BA3E0F50C900023E0FAA3E0FDA3E0FF8A828D838FF0122F9D42
:2029C300F50A603CC3E4950B7480850CF063F08095F0502C150B74FFB50B02150C850A8242
:2029E300122583900023E0FAA3E0FDA3E0FF0ABA00010D900023EAF0EDA3F0EFA3F080ACFE
:202A0300900037E07003022B24900041E0FEA3E0FFC3E5089EE5099F4003022B24900041D7
:202A2300EEC39508F0EF9509A3F0900041E0FEA3E0FF8E028F051EBEFF011FEA4D70030239
:202A43002B1C758220C007C006122583D006D00780E0900034E024FDFDF08D01870D09875D
:202A63000E09870F1919900023E50DF0E50EA3F0E50FA3F0900025E0FDBD8000400890002B
:202A8300477443F08020BD600040089000477450F08013BD400040089000477449F08006D3
:202AA3009000477458F0900047E0FDF582C00512258375823A122583758230122583758213
:202AC30078122583D005BD4902800EBD50028009900024E0F5821225DE900023E0F5821282
:202AE30025DE803D90003B7401F0900040740AF0802F9000407408F08027900040740AF0D5
:202B0300801F9000407410F0801790003E7401F0800F8B821225838008900041EEF0EFA3E6
:202B2300F090003EE06071900034E024FCFFF08F01870309870509870609870719191990B9
:202B43000023EBF0EDA3F0EEA3F0EFA3F09000237467F07431A3F07480A3F0900023E0F52C
:202B63000DA3E0F50EA3E0F50F7401250DFAE4350EFBAF0F900023EAF0EBA3F0EFA3F085A5
:202B83000D82850E83850FF0122F9DFF700302268F8F8212258380C3900040E070030226A9
:202BA3008F90003CE06047900034E014F9F087077E007D007B00900023EFF0EEA3F0EDA3E8
:202BC300F0EBA3F090003BE06003022C67900023E0FBA3E0A3E0A3E07D007E007F009000C0
:202BE30023EBF0EDA3F0EEA3F0EFA3F0807690003DE06028900034E024FCFFF08F01870359
:202C0300098705098706098707191919900023EBF0EDA3F0EEA3F0EFA3F08048900034E027
:202C230024FEFFF08F01870609870719EF3395E0FDFB900023EEF0EFA3F0EDA3F0EBA3F013
:202C430090003BE0701E900023E0FBA3E0FDA3E0A3E07E007F00900023EBF0EDA3F0EEA388
:202C6300F0EFA3F090003BE06041900023E0FBA3E0FDA3E0FEA3E0FF30E72B900023E0FBB2
:202C8300A3E0FDA3E0FEA3E0FFC3E49BFBE49DFDE49EFEE49FFF900023EBF0EDA3F0EEA352
:202CA300F0EFA3F0800590003BE4F090003F7401F0900040E0F50B75104D751100E4F5085E
:202CC300F509900027E4F0850B821225FA90003FE07033900027E0C454F0F50D900027E09B
:202CE300C4540F450DF50D851082851183E0FFE50D4207851082851183EFF0151074FFB5B0
:202D030010021511800C900027E0FF851082851183F00508E4B50802050990003FE0B40114
:202D230000E433F0900023E0FAA3E0FBA3E0FEA3E0FFEA4B4E4F708A90004EE510F0E511F6
:202D4300A3F0900045E508F0E509A3F0900041E0F5F0A3E045F070099000417401F0E4A326
:202D6300F0900038E0FFE07047900037E07041850810850911900041E0FAA3E0FBC007AFEF
:202D8300100F8F067F00C3EE9AEF9BD0075019758220C007C003C002122583D002D003D056
:202DA300071ABAFF011B80D5900041EAF0EBA3F090003BE0602075822DC007122583D007F5
:202DC300900041E024FFFDA3E034FFFE900041EDF0EEA3F08056900045E0F5F0A3E045F014
:202DE300604A900039E0602075822BC007122583D007900041E024FFFDA3E034FFFE90006E
:202E030041EDF0EEA3F0802490003AE0601E758220C007122583D007900041E024FFFDA361
:202E2300E034FFFE900041EDF0EEA3F0900037E07048900045E0F510A3E0F511900041E0FC
:202E4300FAA3E0FBC0078A068B071ABAFF011BC3E5109EE5119FD0075053EF60067D307E3A
:202E63000080047D207E008D82C007C003C002122583D002D003D00780CA900041E0FEA383
:202E8300E0FF900045E0F510A3E0F511C3E5109EE5119F500F900041EEC39510F0EF951117
:202EA300A3F08011900041E4F0A3F08008900041EAF0EBA3F090004EE0FEA3E0FF900045EF
:202EC300E0F510A3E0F511AA10AD11151074FFB510021511EA4D604590003FE0B40100E460
:202EE30033F090003FE070140EBE00010F8E828F83E0C4540FFD900027F0800E8E828F8320
:202F0300E0FD53050F900027EDF0900027E0F582C007C0061225BED006D00780AA900037A8
:202F2300E0700302268F900041E0FEA3E0FF8E038F051EBEFF011FEB4D700302268F7582DA
:202F430020C007C006122583D006D00780E08C8212258302268F900028E0FEA3E08E82F55D
:022F63008322C7
:0B3167003C4E4F20464C4F41543E00B0
:182F6500AA82AB83122F9D6003A380F8C3E5829AF582E5839BF58322C6
:202F7D00AA83AB828BF0900050E0A4F8A9F08AF0E0A429F98BF0A3E0A429F58388822222B9
:20200900E58124FCC3C8C0E0C082E608467006E5824583601218E58296F58208E5839642A5
:1B2029008208E5F0964582D082C8D0E0C822758120122097E58260030220065B
:1C2F9D0020F71430F6148883A88220F507E6A88375830022E280F7E49322E02243
:00000001FF
