:0320000002203487
:03208D000220032B
:0320030002212691
:20209000438F0153877F90000022749FC0E07436C0E07480C0E0122A9215811581158175BC
:2020B000FCAA75DC422274A9C0E07436C0E07480C0E0122A9215811581158175DC0075972D
:2020D000FF2274B4C0E07436C0E07480C0E0122A921581158115817597FF22AFF97E00AC9A
:2020F000E97D00EC4206ED420774FF2EFEE43FFF8EEE8FFE221220EB75DE4843D94022746A
:20211000C4C0E07436C0E07480C0E0122A9215811581158180FED2DE74E3C0E07436C0E06E
:202130007480C0E0122A92158115811581122376AF82BF66030221F0BF6D028014BF72035E
:202150000221E1BF73030221E6BF77030221EB80C774F4C0E07436C0E07480C0E0122A92EB
:2021700015811581158174FCC0E07436C0E07480C0E0122A921581158115817409C0E0747E
:2021900037C0E07480C0E0122A921581158115817417C0E07437C0E07480C0E0122A921547
:2021B0008115811581742CC0E07437C0E07480C0E0122A92158115811581744CC0E07437A8
:2021D000C0E07480C0E0122A92158115811581801212209A800D1220B680081220D2800349
:1B21F00012210F744FC0E07437C0E07480C0E0122A9215811581158102212875
:20369F000D0A52756E2050574D000D0A53746F702050574D000D0A4D61782053706565648C
:2036BF0020636C6B000D0A467265657A696E672028747269676765727320776174636864F6
:2036DF006F6729000D0A456E746572206120636861723A20000D0A204D656E75000D0A72C9
:2036FF003A2072756E2070776D000D0A733A2073746F702050574D000D0A773A206D61789C
:20371F0020636C6F636B207370656564000D0A663A20667265657A6520287472696767650B
:1E373F007273207761746368646F6729000D0A000D0A454E4420434F4D4D414E4400C9
:20220B00AF83E582900001F0EFA3F010990280FB900001E0FEA3E0FF8E998E828F83223065
:10222B0098FD1220EBC298AE997F008E828F83228D
:02375D0000204A
:20223B0090200375F00022902048E4F0902049740AF0E4A3F090200375F000122A0190209A
:20225B000F7403F07420A3F0E4A3F012222AAE828E057F008D828F83C00612220BD006E4CF
:20227B00BE080104FF6014900020C007C00612220B90000812220BD006D007BE0D03D380E4
:20229B0001C392004037BE0A028032EE602FBE7F02802ABE0802802590200FE0FBA3E0FCEE
:2022BB00A3E0FD8B828C838DF0EE122A2990200F74012BF0E43CA3F0EDA3F08054BE7F0202
:2022DB008003EF604C90200FE0FCA3E0FDA3E0FF7403C0E07420C0E0E4C0E08C828D838FAC
:2022FB00F012200615811581158160101CBCFF011D90200FECF0EDA3F0EFA3F090200FE038
:20231B00FCA3E0FDA3E0FF8C828D838FF0E4122A29200032BE0A02802DEE602A90200FE0DE
:20233B00FDA3E0FEA3E0FF740CC0E07420C0E0E4C0E08D828E838FF0122006158115811592
:20235B0081500302226690200FE0FDA3E0FEA3E0FF8D828E838FF0E4022A2912222AAE82FF
:20237B008E057F008D828F83C00612220BD00690200DE02401F0A3E03400F08E82229020F9
:12239B000DE0FEA3E08E82F5832290200DE4F0A3F022D2
:2023AD00AFF0AE83E582902015F0EEA3F0EFA3F0902015E0F51BA3E0F51CA3E0F51D851BA3
:2023CD0082851C83851DF0123683FAA3123683FBA3123683FCEA4B7024902012E0F8A3E03A
:2023ED00F9A3E0FF851B82851C83851DF0E8122A29A3E9122A29A3EF122A2980619020189F
:20240D00EAF0EBA3F0ECA3F0902018E0FDA3E0FEA3E0FF74082DFDE43EFE8D828E838FF0CB
:20242D00123683FAA3123683FBA3123683FCEA4B600D902018EAF0EBA3F0ECA3F080C990DD
:20244D002012E0FAA3E0FBA3E0FC8D828E838FF0EA122A29A3EB122A29A3EC122A299020E1
:20246D0012E0FDA3E0FEA3E0FF74082DFDE43EFE8D828E838FF0E4122A29A3122A29A312F2
:20248D002A2975820122AFF0AE83E58290201DF0EEA3F0EFA3F090201DE0F508A3E0F509A0
:2024AD00A3E0F50AE50845097003F58222850882850983850AF0123683FAA3123683FBA3D6
:2024CD00123683FCEA4B7003F5822290201BE0F8A3E0F990201BE0F5F0A3E045F07042903E
:2024ED002020EAF0EBA3F0ECA3F074082AFDE43BFE8C078D828E838FF0123683FDA3123613
:20250D0083FEA3123683FF850882850983850AF0ED122A29A3EE122A29A3EF122A290225BB
:20252D00F6902023EAF0EBA3F0ECA3F018B8FF011990201BE8F0E9A3F090201BE0FEA3E0BA
:20254D00FFEE4F603C902023E0FBA3E0FCA3E0FD74082BFBE43CFC8B828C838DF0123683C7
:20256D00FBA3123683FCA3123683FDEB4C6012902023EBF0ECA3F0EDA3F01EBEFF011F80AD
:20258D00C0EE4F600475820022902023E0FDA3E0FEA3E0FF74082DFDE43EFE8D828E838F8C
:2025AD00F0123683FAA3123683FBA3123683FC902020EAF0EBA3F0ECA3F074082AFAE43B20
:2025CD00FB8A828B838CF0123683FAA3123683FBA3123683FC8D828E838FF0EA122A29A334
:2025ED00EB122A29A3EC122A29902020E0FEA3E0FDA3E0FF902020E0F5F0A3E045F070031A
:20260D00F582228E828D838FF0123683FEA3123683FF4E600B7D008E828F838DF01228AA86
:20262D00902020E0FDA3E0FEA3E0FF8D828E838FF01228AA75820122AFF0AE83E582902059
:20264D0026F0EEA3F0EFA3F0902026E0FDA3E0FEA3E0FF8D828E838FF0123683FAA312364F
:20266D0083FBA3123683FC902029EAF0EBA3F0ECA3F0902026E0FAA3E0FBA3E0FC8A828B71
:20268D00838CF0123683F50BA3123683F50CA3123683F50DE50B450C700122C005C006C065
:2026AD00077408250BF8E4350CF9AF0D888289838FF0123683F8A3123683F9A3123683FF5C
:2026CD008A828B838CF0E8122A29A3E9122A29A3EF122A29902029E0FDA3E0FEA3E0FF8DDC
:2026ED00828E838FF0123683F50BA3123683F50CD007D006D005E50B450C601BAB0BAC0CD5
:20270D007A008B828C838AF0C007C006C0051228AAD005D006D007902029E0FAA3E0FBA310
:20272D00E0FC8A828B838CF0C007C006C0051228AAD005D006D0078D828E838FF0123683F8
:20274D00FAA3123683FBA3123683FC902029EAF0EBA3F0ECA3F002267FAFF0AE83E5829081
:20276D00202CF0EEA3F0EFA3F090202CE0FDA3E0FEA3E0FF8D828E838FF0123683FDA31235
:20278D003683FEA3123683FF902031EDF0EEA3F0EFA3F090202FE0FEA3E0FF902031E0FB4C
:2027AD00A3E0FCA3E0FD902031E0F5F0A3E045F0602D0EBE00010F74082BFBE43CFC8B827B
:2027CD008C838DF0123683FBA3123683FCA3123683FD902031EBF0ECA3F0EDA3F080BC8E40
:2027ED00828F8322AFF0AE83E582902036F0EEA3F0EFA3F0902036E0FDA3E0FEA3E0FF8DB3
:20280D00828E838FF0123683FDA3123683FEA3123683FF902039EDF0EEA3F0EFA3F090207F
:20282D0034E0FEA3E0FF902039E0FBA3E0FCA3E0FD902039E0F5F0A3E045F06031EE4F60A0
:20284D002D74082BFBE43CFC8B828C838DF0123683FBA3123683FCA3123683FD902039EB78
:20286D00F0ECA3F0EDA3F01EBEFF011F80B8902039E0FDA3E0FEA3E0FF8D828E838FF0229F
:1D288D00AF83E58290203DF0EFA3F090203DE0FEA3E0FF90203CE08E828F83F022E9
:2028AA00AFF0AE83E58290203FF0EEA3F0EFA3F090203FE0FDA3E0FEA3E090203FE0F5F071
:2028CA00A3E045F0700122902044E4F0A3F0902085E0FBA3E0FC902042EBF0ECA3F09020BD
:2028EA00467485F07420A3F0902042E0FBA3E0FC4B60418B018C02C003C0048D008E04C3BD
:20290A00E998EA9CD004D003502A902044EBF0ECA3F074022BFBE43CFC902046EBF0ECA31F
:20292A00F08B828C83E0FBA3E0FC902042EBF0ECA3F080B4902042E0FEA3E0FF90203FE086
:20294A00FBA3E0FCA3E0EB24FEFBEC34FFFC74022BFAE43CFD8A828D83EEF0EFA3F0902069
:20296A0046E0F8A3E0F988828983EBF0ECA3F08B828C83E0F8A3E0F9EEB50033EFB5012F29
:20298A0088828983A3A3E0FEA3E0FF8A828D83EEF0EFA3F08B828C83E0FEA3E0FF8E828FDA
:2029AA0083E0FEA3E0FF8B828C83EEF0EFA3F0902044E0FEA3E0FF4E603C8E828F83E0F876
:2029CA00A3E0F9E8B5032FE9B5042B8B828C83E0FBA3E0FC8E828F83EBF0ECA3F074022E3F
:1729EA00FEE43FFF8A828D83E0FAA3E0FD8E828F83EAF0EDA3F022A2
:06206300E478FFF6D8FD51
:202A0100AC82AD83902049E0FEA3E0FFBE000360121F0F902048E08C828D83122A29A3DEC1
:082A2100FADFF88C828D83229C
:202041007900E94400601B7A0090376A788D75A020E493F2A308B8000205A0D9F4DAF275F8
:02206100A0FFDE
:1B2A290020F71130F6138883A88220F509F6A8837583002280FEF280F5F022AC
:202069007800E84400600A790175A000E4F309D8FC788CE84420600C7921900001E4F0A3A8
:04208900D8FCD9FAAC
:202A4400C01A85811A7E008E8312220BD01A22AFF0AE83E58290204DF0EEA3F0EFA3F090E7
:202A6400204DE0FDA3E0FEA3E0FF90204CE0FC902061E4F0A3F0A3F0902064EDF0EEA3F0B0
:202A8400EFA3F0902067ECF0902A44022B98C01AE581F51A24FBFF902061E4F0A3F0A3F082
:202AA400E51A24FBF8902064E6F008E6A3F008E6A3F0902067EFF0902A44122B98D01A223B
:202AC400E58290205DF0E0FF902053E0C0E0A3E0C0E0A3E0C0E0122ADF800D902051E0C09D
:202AE400E0A3E0C0E08F822215811581158190205BE02401F0A3E03400F022E58290205E9C
:202B0400F0E02430FF24C6500D74072FFF902050E060034307208F82022AC4E58290205F7A
:202B2400F0E0FFC4540FF582C007122AFFD00753070F8F82022AFFE582902060F090205639
:202B4400E0FCA3E0FDA3E0FEA3E0FF90205AE0FB902060E0FA79208B00E828F51BEF235499
:202B640001451BFBEC2CFCED33FDEE33FEEF33FFC3EB9A4007EBC39AFB43040119E970D721
:202B8400902056ECF0EDA3F0EEA3F0EFA3F090205AEBF022AF83E582902068F0EFA3F09012
:202BA4002068E0FEA3E0FF902051EEF0EFA3F0902061E0FDA3E0FEA3E0FF902053EDF0EE09
:202BC400A3F0EFA3F090205BE4F0A3F0902064E0FDA3E0FEA3E0FF8D828E838FF01236830C
:202BE400FC90206474012DF0E43EA3F0EFA3F0EC700302349ABC2502800302349290206A81
:202C0400E4F090206BF090206CF090206DF090206EF090206FF0902070F0902071F09020CA
:202C240073F0902074F0A3F090207614F0A3F0902064E0FDA3E0FEA3E0FF8D828E838FF036
:202C4400123683FBA3AD82AE83902064EDF0EEA3F0EFA3F090207AEBF0BB25088B82122A7D
:202C6400C4022BD0BB30005003022D31EB24C65003022D31902076E0F50EA3E0F50F74FF66
:202C8400B50E63B50F60C005C006C007902074E0FAA3E0FF902083EAF0EFA3F090000AC02B
:202CA40005C0031234BEAE82AF83D003D0058B027D00EA2EFEED3FFFEE24D0FEEF34FFFFEE
:202CC400902074EEF0EFA3F0D007D006D005902074E0F5F0A3E045F06003022C3E90206B5F
:202CE4007401F0022C3EC005C006C007902083E50EF0E50FA3F090000AC006C005C0031216
:202D040034BEAA82AF83D003D005D0067E00EB2AFAEE3FFFEA24D0FAEF34FFFF902076EA1F
:202D2400F0EFA3F0D007D006D005022C3E90207AE0FBBB2E2FC005C006C007902076E0FAC0
:202D4400A3E0FFBAFF05BFFF028009D007D006D005022C3ED007D006D005902076E4F0A3D9
:202D6400F0022C3EBB61004014EB2485400F90207A74DF5BF09020507401F08005902050EE
:202D8400E4F090207AE0FBBB20028075BB2B028067BB2D028059BB4202806FBB4302807C08
:202DA400BB4403023028BB460302304EBB4803022C3EBB4903023028BB4A03022C3EBB4CE1
:202DC400028050BB4F03023036BB5003022F96BB53028077BB5403022C3EBB550302303ECB
:202DE400BB5803023046BB5A03022C3E02305690206A7401F0022C3E90206C7401F0022C9B
:202E04003E90206D7401F0022C3E90206F7401F0022C3E9020707401F0022C3E90206FE0A2
:202E2400600E902067E014F9F090207AE7F0800F902067E024FEFFF08F0190207AE7F09073
:202E4400207AE0F582122AC4023065902067E024FDFFF08F018705098706098707191990D4
:202E64002056EDF0EEA3F0EFA3F08D828E838FF01234A685820E85830F902076E0FAA3E0BE
:202E8400FDBAFF0DBDFF0A902076E50EF0E50FA3F090206AE0704B902074E0FAA3E0FDC31F
:202EA400E50E9AE50F9D503A902074EAC3950EF0ED950FA3F0902074E0FAA3E0FD8A068D43
:202EC400071ABAFF011DEE4F6010758220C005C002122AC4D002D00580E3902074EAF0EDB6
:202EE400A3F0902076E0F511A3E0F512902056E0FAA3E0FDA3E0FF8A828D838FF01236835D
:202F0400F510603CC3E4951174808512F063F08095F0502C151174FFB511021512851082D1
:202F2400122AC4902056E0FAA3E0FDA3E0FF0ABA00010D902056EAF0EDA3F0EFA3F080ACCB
:202F440090206AE07003023065902074E0FEA3E0FFC3E50E9EE50F9F400302306590207400
:202F6400EEC3950EF0EF950FA3F0902074E0FEA3E0FF8E028F051EBEFF011FEA4D70030294
:202F8400305D758220C007C006122AC4D006D00780E0902067E024FDFDF08D018713098732
:202FA400140987151919902056E513F0E514A3F0E515A3F0902058E0FDBD80004008902001
:202FC4007A7443F08020BD6000400890207A7450F08013BD4000400890207A7449F08006B4
:202FE40090207A7458F090207AE0FDF582C005122AC475823A122AC4758230122AC4758255
:2030040078122AC4D005BD4902800EBD50028009902057E0F582122B1F902056E0F5821208
:203024002B1F803D90206E7401F0902073740AF0802F9020737408F08027902073740AF0FB
:20304400801F9020737410F080179020717401F0800F8B82122AC48008902074EEF0EFA361
:20306400F0902071E06071902067E024FCFFF08F01870309870509870609870719191990CD
:203084002056EBF0EDA3F0EEA3F0EFA3F0902056745FF07437A3F07480A3F0902056E0F5EF
:2030A40013A3E0F514A3E0F51574012513FAE43514FBAF15902056EAF0EBA3F0EFA3F085E8
:2030C40013828514838515F0123683FF7003022BD08F82122AC480C3902073E07003022B80
:2030E400D090206FE06047902067E014F9F087077E007D007B00902056EFF0EEA3F0EDA368
:20310400F0EBA3F090206EE060030231A8902056E0FBA3E0A3E0A3E07D007E007F0090206D
:2031240056EBF0EDA3F0EEA3F0EFA3F08076902070E06028902067E024FCFFF08F01870339
:20314400098705098706098707191919902056EBF0EDA3F0EEA3F0EFA3F08048902067E03B
:2031640024FEFFF08F01870609870719EF3395E0FDFB902056EEF0EFA3F0EDA3F0EBA3F07A
:2031840090206EE0701E902056E0FBA3E0FDA3E0A3E07E007F00902056EBF0EDA3F0EEA349
:2031A400F0EFA3F090206EE06041902056E0FBA3E0FDA3E0FEA3E0FF30E72B902056E0FB73
:2031C400A3E0FDA3E0FEA3E0FFC3E49BFBE49DFDE49EFEE49FFF902056EBF0EDA3F0EEA3B9
:2031E400F0EFA3F0800590206EE4F09020727401F0902073E0F511751680751720E4F50EB4
:20320400F50F90205AE4F0851182122B3B902072E0703390205AE0C454F0F51390205AE0AF
:20322400C4540F4513F513851682851783E0FFE5134207851682851783EFF0151674FFB539
:2032440016021517800C90205AE0FF851682851783F0050EE4B50E02050F902072E0B401FE
:2032640000E433F0902056E0FAA3E0FBA3E0FEA3E0FFEA4B4E4F708A902081E516F0E517FE
:20328400A3F0902078E50EF0E50FA3F0902074E0F5F0A3E045F070099020747401F0E4A3DB
:2032A400F090206BE0FFE0704790206AE07041850E16850F17902074E0FAA3E0FBC007AF98
:2032C400160F8F067F00C3EE9AEF9BD0075019758220C007C003C002122AC4D002D003D0C4
:2032E400071ABAFF011B80D5902074EAF0EBA3F090206EE0602075822DC007122AC4D007C3
:20330400902074E024FFFDA3E034FFFE902074EDF0EEA3F08056902078E0F5F0A3E045F0D4
:20332400604A90206CE0602075822BC007122AC4D007902074E024FFFDA3E034FFFE90201B
:2033440074EDF0EEA3F0802490206DE0601E758220C007122AC4D007902074E024FFFDA3FC
:20336400E034FFFE902074EDF0EEA3F090206AE07048902078E0F516A3E0F517902074E05E
:20338400FAA3E0FBC0078A068B071ABAFF011BC3E5169EE5179FD0075053EF60067D307EE8
:2033A4000080047D207E008D82C007C003C002122AC4D002D003D00780CA902074E0FEA3A4
:2033C400E0FF902078E0F516A3E0F517C3E5169EE5179F500F902074EEC39516F0EF951707
:2033E400A3F08011902074E4F0A3F08008902074EAF0EBA3F0902081E0FEA3E0FF9020785D
:20340400E0F516A3E0F517AA16AD17151674FFB516021517EA4D6045902072E0B40100E49C
:2034240033F0902072E070140EBE00010F8E828F83E0C4540FFD90205AF0800E8E828F8333
:20344400E0FD53050F90205AEDF090205AE0F582C007C006122AFFD006D00780AA90206A23
:20346400E07003022BD0902074E0FEA3E0FF8E038F051EBEFF011FEB4D7003022BD07582B5
:2034840020C007C006122AC4D006D00780E08C82122AC4022BD090205BE0FEA3E08E82F5F2
:0234A400832281
:0B375F003C4E4F20464C4F41543E00B2
:1834A600AA82AB831236836003A380F8C3E5829AF582E5839BF5832293
:2034BE00AA83AB828BF0902083E0A4F8A9F08AF0E0A429F98BF0A3E0A429F5838882222220
:2034DE009020857403F07400A3F090375DE493FE740193FF1EBEFF011FEE2403FEEF34005A
:2034FE00FF900003EEF0EFA3F0902085E0FEA3E0FF8E828F83A3A3E4F0A3F022AF83E5829D
:20351E00902087F0EFA3F0902085E0F5F0A3E045F070031234DE902087E0FEA3E0FF4E6056
:20353E000E74022EFCE43FFDC3EC9EED9F50049000002290208774022EF0E43FA3F090208F
:20355E0087E0FEA3E0FFC3EE9404EF940050099020877404F0E4A3F0902085E0FEA3E0FF96
:20357E00902089EEF0EFA3F090208B7485F07420A3F0902089E0FEA3E0FF4E700302367F38
:20359E008E828F83E0FCA3E0FD8C028D038E008F01EAC398FAEB99FB8A008B01902087E068
:2035BE00F518A3E0F519C3E89518E99519500302365C74042518F8E43519F9C3EA98EB99D8
:2035DE00404C8E028F03E5182AFAE5193BFB8A828B83ECF0EDA3F074022AFCE43BFD8E828C
:2035FE008F83A3A3E0F8A3E0F98C828D83E8F0E9A3F090208BE0FCA3E0FD8C828D83EAF000
:20361E00EBA3F08E828F83EAF0EBA3F0801C90208BE0FCA3E0FD8E828F83A3A3E0FAA3E09C
:20363E00FB8C828D83EAF0EBA3F0902089E0FCA3E0FD74022CFCE43DFD8C828D83227402F4
:20365E002EFEE43FFF90208BEEF0EFA3F08E828F83E0FEA3E0FF902089EEF0EFA3F0023511
:05367E00909000002205
:20200600E58124FCC3C8C0E0C082E608467006E5824583601218E58296F58208E5839642A8
:1B2026008208E5F0964582D082C8D0E0C822758120122090E582600302200368
:1C36830020F71430F6148883A88220F507E6A88375830022E280F7E49322E02256
:00000001FF
